{
  "contractName": "Manufacturer",
  "abi": [
    {
      "inputs": [],
      "stateMutability": "nonpayable",
      "type": "constructor"
    },
    {
      "inputs": [
        {
          "internalType": "address",
          "name": "",
          "type": "address"
        },
        {
          "internalType": "uint256",
          "name": "",
          "type": "uint256"
        }
      ],
      "name": "manufacturerMedicines",
      "outputs": [
        {
          "internalType": "address",
          "name": "",
          "type": "address"
        }
      ],
      "stateMutability": "view",
      "type": "function"
    },
    {
      "inputs": [
        {
          "internalType": "address",
          "name": "",
          "type": "address"
        },
        {
          "internalType": "uint256",
          "name": "",
          "type": "uint256"
        }
      ],
      "name": "manufacturerRawMaterials",
      "outputs": [
        {
          "internalType": "address",
          "name": "",
          "type": "address"
        }
      ],
      "stateMutability": "view",
      "type": "function"
    },
    {
      "inputs": [
        {
          "internalType": "address",
          "name": "_addr",
          "type": "address"
        },
        {
          "internalType": "address",
          "name": "_manufacturerAddress",
          "type": "address"
        }
      ],
      "name": "manufacturerReceivedPackage",
      "outputs": [],
      "stateMutability": "nonpayable",
      "type": "function"
    },
    {
      "inputs": [
        {
          "internalType": "address",
          "name": "_manufacturerAddr",
          "type": "address"
        },
        {
          "internalType": "bytes32",
          "name": "_description",
          "type": "bytes32"
        },
        {
          "internalType": "address[]",
          "name": "_rawAddr",
          "type": "address[]"
        },
        {
          "internalType": "uint256",
          "name": "_quantity",
          "type": "uint256"
        },
        {
          "internalType": "address[]",
          "name": "_transporterAddr",
          "type": "address[]"
        },
        {
          "internalType": "address",
          "name": "_recieverAddr",
          "type": "address"
        },
        {
          "internalType": "uint256",
          "name": "RcvrType",
          "type": "uint256"
        }
      ],
      "name": "manufacturerCreatesMedicine",
      "outputs": [],
      "stateMutability": "nonpayable",
      "type": "function"
    }
  ],
  "bytecode": "0x608060405234801561001057600080fd5b50613ea7806100206000396000f3fe60806040523480156200001157600080fd5b5060043610620000525760003560e01c806356466dee146200005757806356e5efc414620000775780638ccc8db71462000097578063a999cca114620000cd575b600080fd5b6200007560048036038101906200006f91906200042d565b62000103565b005b6200009560048036038101906200008f91906200065f565b62000215565b005b620000b56004803603810190620000af919062000750565b62000308565b604051620000c49190620007a8565b60405180910390f35b620000eb6004803603810190620000e5919062000750565b62000357565b604051620000fa9190620007a8565b60405180910390f35b8173ffffffffffffffffffffffffffffffffffffffff166352b99968826040518263ffffffff1660e01b81526004016200013e9190620007a8565b600060405180830381600087803b1580156200015957600080fd5b505af11580156200016e573d6000803e3d6000fd5b505050506000808273ffffffffffffffffffffffffffffffffffffffff1673ffffffffffffffffffffffffffffffffffffffff168152602001908152602001600020829080600181540180825580915050600190039060005260206000200160009091909190916101000a81548173ffffffffffffffffffffffffffffffffffffffff021916908373ffffffffffffffffffffffffffffffffffffffff1602179055505050565b6000878787878787876040516200022c90620003a6565b6200023e9796959493929190620008b5565b604051809103906000f0801580156200025b573d6000803e3d6000fd5b509050600160008973ffffffffffffffffffffffffffffffffffffffff1673ffffffffffffffffffffffffffffffffffffffff168152602001908152602001600020819080600181540180825580915050600190039060005260206000200160009091909190916101000a81548173ffffffffffffffffffffffffffffffffffffffff021916908373ffffffffffffffffffffffffffffffffffffffff1602179055505050505050505050565b600060205281600052604060002081815481106200032557600080fd5b906000526020600020016000915091509054906101000a900473ffffffffffffffffffffffffffffffffffffffff1681565b600160205281600052604060002081815481106200037457600080fd5b906000526020600020016000915091509054906101000a900473ffffffffffffffffffffffffffffffffffffffff1681565b613531806200094183390190565b6000604051905090565b600080fd5b600080fd5b600073ffffffffffffffffffffffffffffffffffffffff82169050919050565b6000620003f582620003c8565b9050919050565b6200040781620003e8565b81146200041357600080fd5b50565b6000813590506200042781620003fc565b92915050565b60008060408385031215620004475762000446620003be565b5b6000620004578582860162000416565b92505060206200046a8582860162000416565b9150509250929050565b6000819050919050565b620004898162000474565b81146200049557600080fd5b50565b600081359050620004a9816200047e565b92915050565b600080fd5b6000601f19601f8301169050919050565b7f4e487b7100000000000000000000000000000000000000000000000000000000600052604160045260246000fd5b620004ff82620004b4565b810181811067ffffffffffffffff82111715620005215762000520620004c5565b5b80604052505050565b600062000536620003b4565b9050620005448282620004f4565b919050565b600067ffffffffffffffff821115620005675762000566620004c5565b5b602082029050602081019050919050565b600080fd5b6000620005946200058e8462000549565b6200052a565b90508083825260208201905060208402830185811115620005ba57620005b962000578565b5b835b81811015620005e75780620005d2888262000416565b845260208401935050602081019050620005bc565b5050509392505050565b600082601f830112620006095762000608620004af565b5b81356200061b8482602086016200057d565b91505092915050565b6000819050919050565b620006398162000624565b81146200064557600080fd5b50565b60008135905062000659816200062e565b92915050565b600080600080600080600060e0888a031215620006815762000680620003be565b5b6000620006918a828b0162000416565b9750506020620006a48a828b0162000498565b965050604088013567ffffffffffffffff811115620006c857620006c7620003c3565b5b620006d68a828b01620005f1565b9550506060620006e98a828b0162000648565b945050608088013567ffffffffffffffff8111156200070d576200070c620003c3565b5b6200071b8a828b01620005f1565b93505060a06200072e8a828b0162000416565b92505060c0620007418a828b0162000648565b91505092959891949750929550565b600080604083850312156200076a5762000769620003be565b5b60006200077a8582860162000416565b92505060206200078d8582860162000648565b9150509250929050565b620007a281620003e8565b82525050565b6000602082019050620007bf600083018462000797565b92915050565b620007d08162000474565b82525050565b600081519050919050565b600082825260208201905092915050565b6000819050602082019050919050565b6200080d81620003e8565b82525050565b600062000821838362000802565b60208301905092915050565b6000602082019050919050565b60006200084782620007d6565b620008538185620007e1565b93506200086083620007f2565b8060005b83811015620008975781516200087b888262000813565b975062000888836200082d565b92505060018101905062000864565b5085935050505092915050565b620008af8162000624565b82525050565b600060e082019050620008cc600083018a62000797565b620008db6020830189620007c5565b8181036040830152620008ef81886200083a565b9050620009006060830187620008a4565b81810360808301526200091481866200083a565b90506200092560a083018562000797565b6200093460c0830184620008a4565b9897505050505050505056fe60806040523480156200001157600080fd5b506040516200353138038062003531833981810160405281019062000037919062000540565b866000806101000a81548173ffffffffffffffffffffffffffffffffffffffff021916908373ffffffffffffffffffffffffffffffffffffffff16021790555086600460006101000a81548173ffffffffffffffffffffffffffffffffffffffff021916908373ffffffffffffffffffffffffffffffffffffffff160217905550856001819055508460029080519060200190620000d792919062000220565b50836008819055508260039080519060200190620000f792919062000220565b5060018103620001485781600560006101000a81548173ffffffffffffffffffffffffffffffffffffffff021916908373ffffffffffffffffffffffffffffffffffffffff16021790555062000194565b60028103620001935781600660006101000a81548173ffffffffffffffffffffffffffffffffffffffff021916908373ffffffffffffffffffffffffffffffffffffffff1602179055505b5b600087604051620001a590620002af565b620001b1919062000642565b604051809103906000f080158015620001ce573d6000803e3d6000fd5b50905080600960016101000a81548173ffffffffffffffffffffffffffffffffffffffff021916908373ffffffffffffffffffffffffffffffffffffffff16021790555050505050505050506200065f565b8280548282559060005260206000209081019282156200029c579160200282015b828111156200029b5782518260006101000a81548173ffffffffffffffffffffffffffffffffffffffff021916908373ffffffffffffffffffffffffffffffffffffffff1602179055509160200191906001019062000241565b5b509050620002ab9190620002bd565b5090565b611415806200211c83390190565b5b80821115620002d8576000816000905550600101620002be565b5090565b6000604051905090565b600080fd5b600080fd5b600073ffffffffffffffffffffffffffffffffffffffff82169050919050565b60006200031d82620002f0565b9050919050565b6200032f8162000310565b81146200033b57600080fd5b50565b6000815190506200034f8162000324565b92915050565b6000819050919050565b6200036a8162000355565b81146200037657600080fd5b50565b6000815190506200038a816200035f565b92915050565b600080fd5b6000601f19601f8301169050919050565b7f4e487b7100000000000000000000000000000000000000000000000000000000600052604160045260246000fd5b620003e08262000395565b810181811067ffffffffffffffff82111715620004025762000401620003a6565b5b80604052505050565b600062000417620002dc565b9050620004258282620003d5565b919050565b600067ffffffffffffffff821115620004485762000447620003a6565b5b602082029050602081019050919050565b600080fd5b6000620004756200046f846200042a565b6200040b565b905080838252602082019050602084028301858111156200049b576200049a62000459565b5b835b81811015620004c85780620004b388826200033e565b8452602084019350506020810190506200049d565b5050509392505050565b600082601f830112620004ea57620004e962000390565b5b8151620004fc8482602086016200045e565b91505092915050565b6000819050919050565b6200051a8162000505565b81146200052657600080fd5b50565b6000815190506200053a816200050f565b92915050565b600080600080600080600060e0888a031215620005625762000561620002e6565b5b6000620005728a828b016200033e565b9750506020620005858a828b0162000379565b965050604088015167ffffffffffffffff811115620005a957620005a8620002eb565b5b620005b78a828b01620004d2565b9550506060620005ca8a828b0162000529565b945050608088015167ffffffffffffffff811115620005ee57620005ed620002eb565b5b620005fc8a828b01620004d2565b93505060a06200060f8a828b016200033e565b92505060c0620006228a828b0162000529565b91505092959891949750929550565b6200063c8162000310565b82525050565b600060208201905062000659600083018462000631565b92915050565b611aad806200066f6000396000f3fe608060405234801561001057600080fd5b506004361061009e5760003560e01c8063ac42a41511610066578063ac42a41514610145578063c8f5f18914610161578063d2f3fcc71461017d578063e002c8a51461019b578063f5c0e383146101bf5761009e565b80631fedd36c146100a35780632f1d7588146100d357806393a668b7146100ef578063aab3a9d61461010b578063abb428a614610127575b600080fd5b6100bd60048036038101906100b891906111dc565b6101db565b6040516100ca9190611222565b60405180910390f35b6100ed60048036038101906100e8919061123d565b6106ec565b005b610109600480360381019061010491906111dc565b6107fe565b005b610125600480360381019061012091906111dc565b6108ce565b005b61012f610934565b60405161013c9190611328565b60405180910390f35b61015f600480360381019061015a91906111dc565b610a46565b005b61017b600480360381019061017691906111dc565b610da7565b005b610185610e76565b6040516101929190611222565b60405180910390f35b6101a3610e9f565b6040516101b69796959493929190611402565b60405180910390f35b6101d960048036038101906101d4919061123d565b611045565b005b6000600560009054906101000a900473ffffffffffffffffffffffffffffffffffffffff1673ffffffffffffffffffffffffffffffffffffffff168273ffffffffffffffffffffffffffffffffffffffff1614806102865750600660009054906101000a900473ffffffffffffffffffffffffffffffffffffffff1673ffffffffffffffffffffffffffffffffffffffff168273ffffffffffffffffffffffffffffffffffffffff16145b6102c5576040517f08c379a00000000000000000000000000000000000000000000000000000000081526004016102bc90611502565b60405180910390fd5b6001600960009054906101000a900460ff1660068111156102e9576102e8611522565b5b101561032a576040517f08c379a00000000000000000000000000000000000000000000000000000000081526004016103219061159d565b60405180910390fd5b600560009054906101000a900473ffffffffffffffffffffffffffffffffffffffff1673ffffffffffffffffffffffffffffffffffffffff168273ffffffffffffffffffffffffffffffffffffffff161480156103cc57506001600681111561039657610395611522565b5b60068111156103a8576103a7611522565b5b600960009054906101000a900460ff1660068111156103ca576103c9611522565b5b145b1561050857600360068111156103e5576103e4611522565b5b600960006101000a81548160ff0219169083600681111561040957610408611522565b5b0217905550600560009054906101000a900473ffffffffffffffffffffffffffffffffffffffff1673ffffffffffffffffffffffffffffffffffffffff166003600160038054905061045b91906115ec565b8154811061046c5761046b611620565b5b9060005260206000200160009054906101000a900473ffffffffffffffffffffffffffffffffffffffff1673ffffffffffffffffffffffffffffffffffffffff163073ffffffffffffffffffffffffffffffffffffffff167f7e89c4b1a4e2b51aae84eb1f90e8a34cb792ece5ac5cb63db4830c891220b28d600260036040516104f79291906116cf565b60405180910390a4600190506106e7565b600660009054906101000a900473ffffffffffffffffffffffffffffffffffffffff1673ffffffffffffffffffffffffffffffffffffffff168273ffffffffffffffffffffffffffffffffffffffff161480156105aa57506002600681111561057457610573611522565b5b600681111561058657610585611522565b5b600960009054906101000a900460ff1660068111156105a8576105a7611522565b5b145b156106e657600460068111156105c3576105c2611522565b5b600960006101000a81548160ff021916908360068111156105e7576105e6611522565b5b0217905550600660009054906101000a900473ffffffffffffffffffffffffffffffffffffffff1673ffffffffffffffffffffffffffffffffffffffff166003600160038054905061063991906115ec565b8154811061064a57610649611620565b5b9060005260206000200160009054906101000a900473ffffffffffffffffffffffffffffffffffffffff1673ffffffffffffffffffffffffffffffffffffffff163073ffffffffffffffffffffffffffffffffffffffff167f7e89c4b1a4e2b51aae84eb1f90e8a34cb792ece5ac5cb63db4830c891220b28d600360046040516106d5929190611733565b60405180910390a4600290506106e7565b5b919050565b8073ffffffffffffffffffffffffffffffffffffffff16600660009054906101000a900473ffffffffffffffffffffffffffffffffffffffff1673ffffffffffffffffffffffffffffffffffffffff161461077c576040517f08c379a0000000000000000000000000000000000000000000000000000000008152600401610773906117ce565b60405180910390fd5b81600760006101000a81548173ffffffffffffffffffffffffffffffffffffffff021916908373ffffffffffffffffffffffffffffffffffffffff160217905550600560068111156107d1576107d0611522565b5b600960006101000a81548160ff021916908360068111156107f5576107f4611522565b5b02179055505050565b8073ffffffffffffffffffffffffffffffffffffffff16600660009054906101000a900473ffffffffffffffffffffffffffffffffffffffff1673ffffffffffffffffffffffffffffffffffffffff161461088e576040517f08c379a0000000000000000000000000000000000000000000000000000000008152600401610885906117ce565b60405180910390fd5b600460068111156108a2576108a1611522565b5b600960006101000a81548160ff021916908360068111156108c6576108c5611522565b5b021790555050565b6003819080600181540180825580915050600190039060005260206000200160009091909190916101000a81548173ffffffffffffffffffffffffffffffffffffffff021916908373ffffffffffffffffffffffffffffffffffffffff16021790555050565b61093c611157565b6040518060600160405280600560009054906101000a900473ffffffffffffffffffffffffffffffffffffffff1673ffffffffffffffffffffffffffffffffffffffff1673ffffffffffffffffffffffffffffffffffffffff168152602001600660009054906101000a900473ffffffffffffffffffffffffffffffffffffffff1673ffffffffffffffffffffffffffffffffffffffff1673ffffffffffffffffffffffffffffffffffffffff168152602001600760009054906101000a900473ffffffffffffffffffffffffffffffffffffffff1673ffffffffffffffffffffffffffffffffffffffff1673ffffffffffffffffffffffffffffffffffffffff16815250905090565b60036001600380549050610a5a91906115ec565b81548110610a6b57610a6a611620565b5b9060005260206000200160009054906101000a900473ffffffffffffffffffffffffffffffffffffffff1673ffffffffffffffffffffffffffffffffffffffff168173ffffffffffffffffffffffffffffffffffffffff1614610b03576040517f08c379a0000000000000000000000000000000000000000000000000000000008152600401610afa90611860565b60405180910390fd5b60006006811115610b1757610b16611522565b5b6006811115610b2957610b28611522565b5b600960009054906101000a900460ff166006811115610b4b57610b4a611522565b5b14610b8b576040517f08c379a0000000000000000000000000000000000000000000000000000000008152600401610b82906118cc565b60405180910390fd5b600073ffffffffffffffffffffffffffffffffffffffff16600560009054906101000a900473ffffffffffffffffffffffffffffffffffffffff1673ffffffffffffffffffffffffffffffffffffffff1614610cc45760016006811115610bf557610bf4611522565b5b600960006101000a81548160ff02191690836006811115610c1957610c18611522565b5b0217905550600560009054906101000a900473ffffffffffffffffffffffffffffffffffffffff1673ffffffffffffffffffffffffffffffffffffffff168173ffffffffffffffffffffffffffffffffffffffff163073ffffffffffffffffffffffffffffffffffffffff167f7e89c4b1a4e2b51aae84eb1f90e8a34cb792ece5ac5cb63db4830c891220b28d600180604051610cb7929190611927565b60405180910390a4610da4565b60026006811115610cd857610cd7611522565b5b600960006101000a81548160ff02191690836006811115610cfc57610cfb611522565b5b0217905550600660009054906101000a900473ffffffffffffffffffffffffffffffffffffffff1673ffffffffffffffffffffffffffffffffffffffff168173ffffffffffffffffffffffffffffffffffffffff163073ffffffffffffffffffffffffffffffffffffffff167f7e89c4b1a4e2b51aae84eb1f90e8a34cb792ece5ac5cb63db4830c891220b28d60016002604051610d9b929190611950565b60405180910390a45b50565b8073ffffffffffffffffffffffffffffffffffffffff16600760009054906101000a900473ffffffffffffffffffffffffffffffffffffffff1673ffffffffffffffffffffffffffffffffffffffff1614610e37576040517f08c379a0000000000000000000000000000000000000000000000000000000008152600401610e2e906119c5565b60405180910390fd5b600680811115610e4a57610e49611522565b5b600960006101000a81548160ff02191690836006811115610e6e57610e6d611522565b5b021790555050565b6000600960009054906101000a900460ff166006811115610e9a57610e99611522565b5b905090565b600080606060006060600080600460009054906101000a900473ffffffffffffffffffffffffffffffffffffffff1660015460026008546003600660009054906101000a900473ffffffffffffffffffffffffffffffffffffffff16600760009054906101000a900473ffffffffffffffffffffffffffffffffffffffff1684805480602002602001604051908101604052809291908181526020018280548015610f9f57602002820191906000526020600020905b8160009054906101000a900473ffffffffffffffffffffffffffffffffffffffff1673ffffffffffffffffffffffffffffffffffffffff1681526020019060010190808311610f55575b505050505094508280548060200260200160405190810160405280929190818152602001828054801561102757602002820191906000526020600020905b8160009054906101000a900473ffffffffffffffffffffffffffffffffffffffff1673ffffffffffffffffffffffffffffffffffffffff1681526020019060010190808311610fdd575b50505050509250965096509650965096509650965090919293949596565b8073ffffffffffffffffffffffffffffffffffffffff16600560009054906101000a900473ffffffffffffffffffffffffffffffffffffffff1673ffffffffffffffffffffffffffffffffffffffff16146110d5576040517f08c379a00000000000000000000000000000000000000000000000000000000081526004016110cc90611a57565b60405180910390fd5b81600660006101000a81548173ffffffffffffffffffffffffffffffffffffffff021916908373ffffffffffffffffffffffffffffffffffffffff1602179055506002600681111561112a57611129611522565b5b600960006101000a81548160ff0219169083600681111561114e5761114d611522565b5b02179055505050565b6040518060600160405280600390602082028036833780820191505090505090565b600080fd5b600073ffffffffffffffffffffffffffffffffffffffff82169050919050565b60006111a98261117e565b9050919050565b6111b98161119e565b81146111c457600080fd5b50565b6000813590506111d6816111b0565b92915050565b6000602082840312156111f2576111f1611179565b5b6000611200848285016111c7565b91505092915050565b6000819050919050565b61121c81611209565b82525050565b60006020820190506112376000830184611213565b92915050565b6000806040838503121561125457611253611179565b5b6000611262858286016111c7565b9250506020611273858286016111c7565b9150509250929050565b600060039050919050565b600081905092915050565b6000819050919050565b6112a68161119e565b82525050565b60006112b8838361129d565b60208301905092915050565b6000602082019050919050565b6112da8161127d565b6112e48184611288565b92506112ef82611293565b8060005b8381101561132057815161130787826112ac565b9650611312836112c4565b9250506001810190506112f3565b505050505050565b600060608201905061133d60008301846112d1565b92915050565b61134c8161119e565b82525050565b6000819050919050565b61136581611352565b82525050565b600081519050919050565b600082825260208201905092915050565b6000819050602082019050919050565b6000602082019050919050565b60006113af8261136b565b6113b98185611376565b93506113c483611387565b8060005b838110156113f55781516113dc88826112ac565b97506113e783611397565b9250506001810190506113c8565b5085935050505092915050565b600060e082019050611417600083018a611343565b611424602083018961135c565b818103604083015261143681886113a4565b90506114456060830187611213565b818103608083015261145781866113a4565b905061146660a0830185611343565b61147360c0830184611343565b98975050505050505050565b600082825260208201905092915050565b7f4f6e6c792057686f6c6573616c6572206f72204469737472696275746f72206360008201527f616e2063616c6c20746869732066756e6374696f6e0000000000000000000000602082015250565b60006114ec60358361147f565b91506114f782611490565b604082019050919050565b6000602082019050818103600083015261151b816114df565b9050919050565b7f4e487b7100000000000000000000000000000000000000000000000000000000600052602160045260246000fd5b7f50726f64756374206e6f74207069636b65642075702079657400000000000000600082015250565b600061158760198361147f565b915061159282611551565b602082019050919050565b600060208201905081810360008301526115b68161157a565b9050919050565b7f4e487b7100000000000000000000000000000000000000000000000000000000600052601160045260246000fd5b60006115f782611209565b915061160283611209565b925082821015611615576116146115bd565b5b828203905092915050565b7f4e487b7100000000000000000000000000000000000000000000000000000000600052603260045260246000fd5b6000819050919050565b6000819050919050565b600061167e6116796116748461164f565b611659565b611209565b9050919050565b61168e81611663565b82525050565b6000819050919050565b60006116b96116b46116af84611694565b611659565b611209565b9050919050565b6116c98161169e565b82525050565b60006040820190506116e46000830185611685565b6116f160208301846116c0565b9392505050565b6000819050919050565b600061171d611718611713846116f8565b611659565b611209565b9050919050565b61172d81611702565b82525050565b600060408201905061174860008301856116c0565b6117556020830184611724565b9392505050565b7f54686973204469737472696275746f72206973206e6f74204173736f6369617460008201527f65642e0000000000000000000000000000000000000000000000000000000000602082015250565b60006117b860238361147f565b91506117c38261175c565b604082019050919050565b600060208201905081810360008301526117e7816117ab565b9050919050565b7f4f6e6c79205472616e73706f727465722063616e2063616c6c2074686973206660008201527f756e6374696f6e00000000000000000000000000000000000000000000000000602082015250565b600061184a60278361147f565b9150611855826117ee565b604082019050919050565b600060208201905081810360008301526118798161183d565b9050919050565b7f5061636b616765206d757374206265206174204d616e7566616374757265722e600082015250565b60006118b660208361147f565b91506118c182611880565b602082019050919050565b600060208201905081810360008301526118e5816118a9565b9050919050565b6000819050919050565b600061191161190c611907846118ec565b611659565b611209565b9050919050565b611921816118f6565b82525050565b600060408201905061193c6000830185611918565b6119496020830184611918565b9392505050565b60006040820190506119656000830185611918565b6119726020830184611685565b9392505050565b7f5468697320437573746f6d6572206973206e6f74204173736f6369617465642e600082015250565b60006119af60208361147f565b91506119ba82611979565b602082019050919050565b600060208201905081810360008301526119de816119a2565b9050919050565b7f746869732057686f6c6573616c6572206973206e6f74204173736f636961746560008201527f642e000000000000000000000000000000000000000000000000000000000000602082015250565b6000611a4160228361147f565b9150611a4c826119e5565b604082019050919050565b60006020820190508181036000830152611a7081611a34565b905091905056fea26469706673582212205480be9b4e4eed498f465ef2c4e81fb1b39dfa27bce73faad577b0572ae175e264736f6c634300080d0033608060405260006002553480156200001657600080fd5b50604051620014153803806200141583398181016040528101906200003c9190620000ed565b806000806101000a81548173ffffffffffffffffffffffffffffffffffffffff021916908373ffffffffffffffffffffffffffffffffffffffff160217905550506200011f565b600080fd5b600073ffffffffffffffffffffffffffffffffffffffff82169050919050565b6000620000b58262000088565b9050919050565b620000c781620000a8565b8114620000d357600080fd5b50565b600081519050620000e781620000bc565b92915050565b60006020828403121562000106576200010562000083565b5b60006200011684828501620000d6565b91505092915050565b6112e6806200012f6000396000f3fe608060405234801561001057600080fd5b506004361061004c5760003560e01c806327506f53146100515780633626a3681461006f57806378ce13651461008b5780639ace38c2146100a9575b600080fd5b6100596100df565b6040516100669190610c47565b60405180910390f35b61008960048036038101906100849190610e0a565b610391565b005b61009361072c565b6040516100a09190610ede565b60405180910390f35b6100c360048036038101906100be9190610f25565b610732565b6040516100d69796959493929190610fba565b60405180910390f35b60606000600254905060008167ffffffffffffffff81111561010457610103610cdf565b5b60405190808252806020026020018201604052801561013d57816020015b61012a6108c4565b8152602001906001900390816101225790505b50905060005b8281101561038857600160008281526020019081526020016000206040518060e0016040529081600082015481526020016001820160009054906101000a900473ffffffffffffffffffffffffffffffffffffffff1673ffffffffffffffffffffffffffffffffffffffff1673ffffffffffffffffffffffffffffffffffffffff1681526020016002820160009054906101000a900473ffffffffffffffffffffffffffffffffffffffff1673ffffffffffffffffffffffffffffffffffffffff1673ffffffffffffffffffffffffffffffffffffffff1681526020016003820154815260200160048201805461023990611066565b80601f016020809104026020016040519081016040528092919081815260200182805461026590611066565b80156102b25780601f10610287576101008083540402835291602001916102b2565b820191906000526020600020905b81548152906001019060200180831161029557829003601f168201915b505050505081526020016005820180546102cb90611066565b80601f01602080910402602001604051908101604052809291908181526020018280546102f790611066565b80156103445780601f1061031957610100808354040283529160200191610344565b820191906000526020600020905b81548152906001019060200180831161032757829003601f168201915b5050505050815260200160068201548152505082828151811061036a57610369611097565b5b60200260200101819052508080610380906110f5565b915050610143565b50809250505090565b6000429050600060025403610502576040518060e001604052808881526020018773ffffffffffffffffffffffffffffffffffffffff1681526020018673ffffffffffffffffffffffffffffffffffffffff168152602001858152602001848152602001838152602001828152506001600060025481526020019081526020016000206000820151816000015560208201518160010160006101000a81548173ffffffffffffffffffffffffffffffffffffffff021916908373ffffffffffffffffffffffffffffffffffffffff16021790555060408201518160020160006101000a81548173ffffffffffffffffffffffffffffffffffffffff021916908373ffffffffffffffffffffffffffffffffffffffff1602179055506060820151816003015560808201518160040190805190602001906104d2929190610933565b5060a08201518160050190805190602001906104ef929190610933565b5060c082015181600601559050506106c6565b83600160006001600254610516919061113d565b81526020019081526020016000206000015414610568576040517f08c379a000000000000000000000000000000000000000000000000000000000815260040161055f906111bd565b60405180910390fd5b6040518060e001604052808881526020018773ffffffffffffffffffffffffffffffffffffffff1681526020018673ffffffffffffffffffffffffffffffffffffffff168152602001858152602001848152602001838152602001828152506001600060025481526020019081526020016000206000820151816000015560208201518160010160006101000a81548173ffffffffffffffffffffffffffffffffffffffff021916908373ffffffffffffffffffffffffffffffffffffffff16021790555060408201518160020160006101000a81548173ffffffffffffffffffffffffffffffffffffffff021916908373ffffffffffffffffffffffffffffffffffffffff16021790555060608201518160030155608082015181600401908051906020019061069a929190610933565b5060a08201518160050190805190602001906106b7929190610933565b5060c082015181600601559050505b6001600260008282546106d991906111dd565b925050819055507f30d01d358fb0899fe4d50947b2e9301c952d9eed09b14c7ecdcbeed4434557c48787878785888860405161071b9796959493929190611233565b60405180910390a150505050505050565b60025481565b60016020528060005260406000206000915090508060000154908060010160009054906101000a900473ffffffffffffffffffffffffffffffffffffffff16908060020160009054906101000a900473ffffffffffffffffffffffffffffffffffffffff16908060030154908060040180546107ad90611066565b80601f01602080910402602001604051908101604052809291908181526020018280546107d990611066565b80156108265780601f106107fb57610100808354040283529160200191610826565b820191906000526020600020905b81548152906001019060200180831161080957829003601f168201915b50505050509080600501805461083b90611066565b80601f016020809104026020016040519081016040528092919081815260200182805461086790611066565b80156108b45780601f10610889576101008083540402835291602001916108b4565b820191906000526020600020905b81548152906001019060200180831161089757829003601f168201915b5050505050908060060154905087565b6040518060e0016040528060008019168152602001600073ffffffffffffffffffffffffffffffffffffffff168152602001600073ffffffffffffffffffffffffffffffffffffffff168152602001600080191681526020016060815260200160608152602001600081525090565b82805461093f90611066565b90600052602060002090601f01602090048101928261096157600085556109a8565b82601f1061097a57805160ff19168380011785556109a8565b828001600101855582156109a8579182015b828111156109a757825182559160200191906001019061098c565b5b5090506109b591906109b9565b5090565b5b808211156109d25760008160009055506001016109ba565b5090565b600081519050919050565b600082825260208201905092915050565b6000819050602082019050919050565b6000819050919050565b610a1581610a02565b82525050565b600073ffffffffffffffffffffffffffffffffffffffff82169050919050565b6000610a4682610a1b565b9050919050565b610a5681610a3b565b82525050565b600081519050919050565b600082825260208201905092915050565b60005b83811015610a96578082015181840152602081019050610a7b565b83811115610aa5576000848401525b50505050565b6000601f19601f8301169050919050565b6000610ac782610a5c565b610ad18185610a67565b9350610ae1818560208601610a78565b610aea81610aab565b840191505092915050565b6000819050919050565b610b0881610af5565b82525050565b600060e083016000830151610b266000860182610a0c565b506020830151610b396020860182610a4d565b506040830151610b4c6040860182610a4d565b506060830151610b5f6060860182610a0c565b5060808301518482036080860152610b778282610abc565b91505060a083015184820360a0860152610b918282610abc565b91505060c0830151610ba660c0860182610aff565b508091505092915050565b6000610bbd8383610b0e565b905092915050565b6000602082019050919050565b6000610bdd826109d6565b610be781856109e1565b935083602082028501610bf9856109f2565b8060005b85811015610c355784840389528151610c168582610bb1565b9450610c2183610bc5565b925060208a01995050600181019050610bfd565b50829750879550505050505092915050565b60006020820190508181036000830152610c618184610bd2565b905092915050565b6000604051905090565b600080fd5b600080fd5b610c8681610a02565b8114610c9157600080fd5b50565b600081359050610ca381610c7d565b92915050565b610cb281610a3b565b8114610cbd57600080fd5b50565b600081359050610ccf81610ca9565b92915050565b600080fd5b600080fd5b7f4e487b7100000000000000000000000000000000000000000000000000000000600052604160045260246000fd5b610d1782610aab565b810181811067ffffffffffffffff82111715610d3657610d35610cdf565b5b80604052505050565b6000610d49610c69565b9050610d558282610d0e565b919050565b600067ffffffffffffffff821115610d7557610d74610cdf565b5b610d7e82610aab565b9050602081019050919050565b82818337600083830152505050565b6000610dad610da884610d5a565b610d3f565b905082815260208101848484011115610dc957610dc8610cda565b5b610dd4848285610d8b565b509392505050565b600082601f830112610df157610df0610cd5565b5b8135610e01848260208601610d9a565b91505092915050565b60008060008060008060c08789031215610e2757610e26610c73565b5b6000610e3589828a01610c94565b9650506020610e4689828a01610cc0565b9550506040610e5789828a01610cc0565b9450506060610e6889828a01610c94565b935050608087013567ffffffffffffffff811115610e8957610e88610c78565b5b610e9589828a01610ddc565b92505060a087013567ffffffffffffffff811115610eb657610eb5610c78565b5b610ec289828a01610ddc565b9150509295509295509295565b610ed881610af5565b82525050565b6000602082019050610ef36000830184610ecf565b92915050565b610f0281610af5565b8114610f0d57600080fd5b50565b600081359050610f1f81610ef9565b92915050565b600060208284031215610f3b57610f3a610c73565b5b6000610f4984828501610f10565b91505092915050565b610f5b81610a02565b82525050565b610f6a81610a3b565b82525050565b600082825260208201905092915050565b6000610f8c82610a5c565b610f968185610f70565b9350610fa6818560208601610a78565b610faf81610aab565b840191505092915050565b600060e082019050610fcf600083018a610f52565b610fdc6020830189610f61565b610fe96040830188610f61565b610ff66060830187610f52565b81810360808301526110088186610f81565b905081810360a083015261101c8185610f81565b905061102b60c0830184610ecf565b98975050505050505050565b7f4e487b7100000000000000000000000000000000000000000000000000000000600052602260045260246000fd5b6000600282049050600182168061107e57607f821691505b60208210810361109157611090611037565b5b50919050565b7f4e487b7100000000000000000000000000000000000000000000000000000000600052603260045260246000fd5b7f4e487b7100000000000000000000000000000000000000000000000000000000600052601160045260246000fd5b600061110082610af5565b91507fffffffffffffffffffffffffffffffffffffffffffffffffffffffffffffffff8203611132576111316110c6565b5b600182019050919050565b600061114882610af5565b915061115383610af5565b925082821015611166576111656110c6565b5b828203905092915050565b7f5472616e73616374696f6e206572726f72206f63637572726564210000000000600082015250565b60006111a7601b83610f70565b91506111b282611171565b602082019050919050565b600060208201905081810360008301526111d68161119a565b9050919050565b60006111e882610af5565b91506111f383610af5565b9250827fffffffffffffffffffffffffffffffffffffffffffffffffffffffffffffffff03821115611228576112276110c6565b5b828201905092915050565b600060e082019050611248600083018a610f52565b6112556020830189610f61565b6112626040830188610f61565b61126f6060830187610f52565b61127c6080830186610ecf565b81810360a083015261128e8185610f81565b905081810360c08301526112a28184610f81565b90509897505050505050505056fea26469706673582212205165ac39670d5e25c3254f88012313e2ed1c7a0462c41647254a654cb356196e64736f6c634300080d0033a264697066735822122051bc9ca4abd1744c33af927fc6edf56a194ce2feb50edcdbba656079dc4617b264736f6c634300080d0033",
  "immutableReferences": {},
  "source": "//SPDX-License-Identifier: MIT\r\npragma solidity >=0.4.22 <0.9.0;\r\n\r\nimport './RawMaterial.sol';\r\nimport './Medicine.sol';\r\n\r\ncontract Manufacturer {\r\n    \r\n    mapping (address => address[]) public manufacturerRawMaterials;\r\n    mapping (address => address[]) public manufacturerMedicines;\r\n\r\n    constructor()  {}\r\n\r\n\r\n    \r\n    \r\n    function manufacturerReceivedPackage(\r\n        address _addr,\r\n        address _manufacturerAddress\r\n        ) public {\r\n            \r\n        RawMaterial(_addr).receivedPackage(_manufacturerAddress);\r\n        manufacturerRawMaterials[_manufacturerAddress].push(_addr);\r\n    }\r\n    \r\n    \r\n    function manufacturerCreatesMedicine(\r\n        address _manufacturerAddr,\r\n        bytes32 _description,\r\n        address[] memory _rawAddr,\r\n        uint _quantity,\r\n        address[] memory _transporterAddr,\r\n        address _recieverAddr,\r\n        uint RcvrType\r\n        ) public {\r\n            \r\n        Medicine _medicine = new Medicine(\r\n            _manufacturerAddr,\r\n            _description,\r\n            _rawAddr,\r\n            _quantity,\r\n            _transporterAddr,\r\n            _recieverAddr,\r\n            RcvrType\r\n        );\r\n        \r\n        manufacturerMedicines[_manufacturerAddr].push(address(_medicine));\r\n        \r\n    }\r\n    \r\n}",
  "sourcePath": "D:\\Quote\\MediChain\\contracts\\Manufacturer.sol",
  "compiler": {
    "name": "solc",
    "version": "0.8.13+commit.abaa5c0e.Emscripten.clang"
  },
  "schemaVersion": "3.4.16",
  "updatedAt": "2023-11-16T12:56:48.342Z",
  "devdoc": {
    "kind": "dev",
    "methods": {},
    "version": 1
  },
  "userdoc": {
    "kind": "user",
    "methods": {},
    "version": 1
  }
}