{
  "contractName": "Medicine",
  "abi": [
    {
      "inputs": [
        {
          "internalType": "address",
          "name": "_manufacturerAddr",
          "type": "address"
        },
        {
          "internalType": "bytes32",
          "name": "_description",
          "type": "bytes32"
        },
        {
          "internalType": "address[]",
          "name": "_rawAddr",
          "type": "address[]"
        },
        {
          "internalType": "uint256",
          "name": "_quantity",
          "type": "uint256"
        },
        {
          "internalType": "address[]",
          "name": "_transporterAddr",
          "type": "address[]"
        }
      ],
      "stateMutability": "nonpayable",
      "type": "constructor"
    },
    {
      "anonymous": false,
      "inputs": [
        {
          "indexed": true,
          "internalType": "address",
          "name": "BatchID",
          "type": "address"
        },
        {
          "indexed": true,
          "internalType": "address",
          "name": "Shipper",
          "type": "address"
        },
        {
          "indexed": true,
          "internalType": "address",
          "name": "Receiver",
          "type": "address"
        },
        {
          "indexed": false,
          "internalType": "uint256",
          "name": "TransporterType",
          "type": "uint256"
        },
        {
          "indexed": false,
          "internalType": "uint256",
          "name": "Status",
          "type": "uint256"
        }
      ],
      "name": "ShippmentUpdate",
      "type": "event"
    },
    {
      "inputs": [],
      "name": "getMedicineInfo",
      "outputs": [
        {
          "internalType": "address",
          "name": "_manufacturerAddr",
          "type": "address"
        },
        {
          "internalType": "bytes32",
          "name": "_description",
          "type": "bytes32"
        },
        {
          "internalType": "address[]",
          "name": "_rawAddr",
          "type": "address[]"
        },
        {
          "internalType": "uint256",
          "name": "_quantity",
          "type": "uint256"
        },
        {
          "internalType": "address[]",
          "name": "_transporterAddr",
          "type": "address[]"
        },
        {
          "internalType": "address",
          "name": "_distributor",
          "type": "address"
        },
        {
          "internalType": "uint256",
          "name": "_status",
          "type": "uint256"
        },
        {
          "internalType": "address",
          "name": "_txnContract",
          "type": "address"
        },
        {
          "internalType": "address",
          "name": "_wholesaler",
          "type": "address"
        }
      ],
      "stateMutability": "view",
      "type": "function"
    },
    {
      "inputs": [],
      "name": "getWDC",
      "outputs": [
        {
          "internalType": "address[3]",
          "name": "WDP",
          "type": "address[3]"
        }
      ],
      "stateMutability": "view",
      "type": "function"
    },
    {
      "inputs": [],
      "name": "getBatchIDStatus",
      "outputs": [
        {
          "internalType": "uint256",
          "name": "",
          "type": "uint256"
        }
      ],
      "stateMutability": "view",
      "type": "function"
    },
    {
      "inputs": [
        {
          "internalType": "address",
          "name": "_transporterAddr",
          "type": "address"
        }
      ],
      "name": "pickMedicine",
      "outputs": [],
      "stateMutability": "nonpayable",
      "type": "function"
    },
    {
      "inputs": [
        {
          "internalType": "address",
          "name": "_transporterAddr",
          "type": "address"
        }
      ],
      "name": "updateTransporterArray",
      "outputs": [],
      "stateMutability": "nonpayable",
      "type": "function"
    },
    {
      "inputs": [
        {
          "internalType": "address",
          "name": "addr",
          "type": "address"
        }
      ],
      "name": "updateWholesalerAddress",
      "outputs": [],
      "stateMutability": "nonpayable",
      "type": "function"
    },
    {
      "inputs": [
        {
          "internalType": "address",
          "name": "addr",
          "type": "address"
        }
      ],
      "name": "updateDistributorAddress",
      "outputs": [],
      "stateMutability": "nonpayable",
      "type": "function"
    },
    {
      "inputs": [
        {
          "internalType": "address",
          "name": "_receiverAddr",
          "type": "address"
        }
      ],
      "name": "receivedMedicine",
      "outputs": [
        {
          "internalType": "uint256",
          "name": "result",
          "type": "uint256"
        }
      ],
      "stateMutability": "nonpayable",
      "type": "function"
    },
    {
      "inputs": [
        {
          "internalType": "address",
          "name": "receiver",
          "type": "address"
        },
        {
          "internalType": "address",
          "name": "sender",
          "type": "address"
        }
      ],
      "name": "sendWtoD",
      "outputs": [],
      "stateMutability": "nonpayable",
      "type": "function"
    },
    {
      "inputs": [
        {
          "internalType": "address",
          "name": "receiver",
          "type": "address"
        }
      ],
      "name": "receivedWtoD",
      "outputs": [],
      "stateMutability": "nonpayable",
      "type": "function"
    },
    {
      "inputs": [
        {
          "internalType": "address",
          "name": "receiver",
          "type": "address"
        },
        {
          "internalType": "address",
          "name": "sender",
          "type": "address"
        }
      ],
      "name": "sendDtoC",
      "outputs": [],
      "stateMutability": "nonpayable",
      "type": "function"
    },
    {
      "inputs": [
        {
          "internalType": "address",
          "name": "receiver",
          "type": "address"
        }
      ],
      "name": "receivedDtoC",
      "outputs": [],
      "stateMutability": "nonpayable",
      "type": "function"
    }
  ],
  "bytecode": "0x60806040523480156200001157600080fd5b5060405162001b9c38038062001b9c83398101604081905262000034916200029e565b600080546001600160a01b0387166001600160a01b0319918216811790925560048054909116909117905560018490558251620000799060029060208601906200012f565b5060088290558051620000949060039060208401906200012f565b50600580546001600160a01b03199081169091556006805490911690556009805460ff191690556040516000908690620000ce9062000199565b6001600160a01b039091168152602001604051809103906000f080158015620000fb573d6000803e3d6000fd5b50600980546001600160a01b0390921661010002610100600160a81b0319909216919091179055506200032f945050505050565b82805482825590600052602060002090810192821562000187579160200282015b828111156200018757825182546001600160a01b0319166001600160a01b0390911617825560209092019160019091019062000150565b5062000195929150620001a7565b5090565b610c518062000f4b83390190565b5b80821115620001955760008155600101620001a8565b80516001600160a01b0381168114620001d657600080fd5b919050565b634e487b7160e01b600052604160045260246000fd5b600082601f8301126200020357600080fd5b815160206001600160401b0380831115620002225762000222620001db565b8260051b604051601f19603f830116810181811084821117156200024a576200024a620001db565b6040529384528581018301938381019250878511156200026957600080fd5b83870191505b8482101562000293576200028382620001be565b835291830191908301906200026f565b979650505050505050565b600080600080600060a08688031215620002b757600080fd5b620002c286620001be565b6020870151604088015191965094506001600160401b0380821115620002e757600080fd5b620002f589838a01620001f1565b94506060880151935060808801519150808211156200031357600080fd5b506200032288828901620001f1565b9150509295509295909350565b610c0c806200033f6000396000f3fe608060405234801561001057600080fd5b50600436106100a45760003560e01c80631fedd36c146100a95780632f1d7588146100cf57806393a668b7146100e457806396991e79146100f7578063aab3a9d614610127578063abb428a614610187578063ac42a4151461019c578063c8f5f189146101af578063d2f3fcc7146101c2578063e002c8a5146101ca578063e138d4ce146101e7578063f5c0e38314610217575b600080fd5b6100bc6100b73660046109cd565b61022a565b6040519081526020015b60405180910390f35b6100e26100dd3660046109ef565b6104b0565b005b6100e26100f23660046109cd565b610520565b6100e26101053660046109cd565b600680546001600160a01b0319166001600160a01b0392909216919091179055565b6100e26101353660046109cd565b600380546001810182556000919091527fc2575a0e9e593c00f959f8c92f12db2869c3395a3b0502d05e2516446f71f85b0180546001600160a01b0319166001600160a01b0392909216919091179055565b61018f610574565b6040516100c69190610a22565b6100e26101aa3660046109cd565b6105af565b6100e26101bd3660046109cd565b61074f565b6100bc6107b3565b6101d26107d2565b6040516100c699989796959493929190610aa0565b6100e26101f53660046109cd565b600580546001600160a01b0319166001600160a01b0392909216919091179055565b6100e26102253660046109ef565b61090e565b6005546000906001600160a01b038381169116148061025657506006546001600160a01b038381169116145b6102c55760405162461bcd60e51b815260206004820152603560248201527f4f6e6c792057686f6c6573616c6572206f72204469737472696275746f72206360448201527430b71031b0b636103a3434b990333ab731ba34b7b760591b60648201526084015b60405180910390fd5b60095460019060ff1660068111156102df576102df610b14565b10156103295760405162461bcd60e51b8152602060048201526019602482015278141c9bd91d58dd081b9bdd081c1a58dad959081d5c081e595d603a1b60448201526064016102bc565b6005546001600160a01b03838116911614801561035c5750600160095460ff16600681111561035a5761035a610b14565b145b156103eb576009805460ff1916600390811790915560055481546001600160a01b03909116919061038f90600190610b2a565b8154811061039f5761039f610b4f565b6000918252602090912001546040516001600160a01b03909116903090600080516020610bb7833981519152906103db90600290600390610b65565b60405180910390a4506001919050565b6006546001600160a01b03838116911614801561041e5750600260095460ff16600681111561041c5761041c610b14565b145b156104ab576009805460ff19166004179055600654600380546001600160a01b039092169161044f90600190610b2a565b8154811061045f5761045f610b4f565b6000918252602090912001546040516001600160a01b03909116903090600080516020610bb78339815191529061049b90600390600490610b65565b60405180910390a4506002919050565b919050565b6006546001600160a01b038281169116146104dd5760405162461bcd60e51b81526004016102bc90610b73565b600780546001600160a01b0319166001600160a01b03841617905560055b6009805460ff1916600183600681111561051757610517610b14565b02179055505050565b6006546001600160a01b0382811691161461054d5760405162461bcd60e51b81526004016102bc90610b73565b60045b6009805460ff1916600183600681111561056c5761056c610b14565b021790555050565b61057c610998565b50604080516060810182526005546001600160a01b03908116825260065481166020830152600754169181019190915290565b600380546105bf90600190610b2a565b815481106105cf576105cf610b4f565b6000918252602090912001546001600160a01b038281169116146106455760405162461bcd60e51b815260206004820152602760248201527f4f6e6c79205472616e73706f727465722063616e2063616c6c207468697320666044820152663ab731ba34b7b760c91b60648201526084016102bc565b600060095460ff16600681111561065e5761065e610b14565b146106ab5760405162461bcd60e51b815260206004820181905260248201527f5061636b616765206d757374206265206174204d616e7566616374757265722e60448201526064016102bc565b6005546001600160a01b03161561070a576009805460ff191660019081179091556005546040516001600160a01b0391821692918416913091600080516020610bb7833981519152916106ff918190610b65565b60405180910390a450565b6009805460ff191660029081179091556006546040516001600160a01b0391821692918416913091600080516020610bb7833981519152916106ff9160019190610b65565b6007546001600160a01b038281169116146107ac5760405162461bcd60e51b815260206004820181905260248201527f5468697320437573746f6d6572206973206e6f74204173736f6369617465642e60448201526064016102bc565b6006610550565b60095460009060ff1660068111156107cd576107cd610b14565b905090565b6004546001546008546006805460095460009586956060958795879587958695869586956001600160a01b03928316959194600294919360039391169160ff169081111561082257610822610b14565b6009546005548654604080516020808402820181019092528281526101009094046001600160a01b039081169493169291899183018282801561088e57602002820191906000526020600020905b81546001600160a01b03168152600190910190602001808311610870575b50505050509650848054806020026020016040519081016040528092919081815260200182805480156108ea57602002820191906000526020600020905b81546001600160a01b031681526001909101906020018083116108cc575b50505050509450985098509850985098509850985098509850909192939495969798565b6005546001600160a01b038281169116146109765760405162461bcd60e51b815260206004820152602260248201527f746869732057686f6c6573616c6572206973206e6f74204173736f6369617465604482015261321760f11b60648201526084016102bc565b600680546001600160a01b0319166001600160a01b03841617905560026104fb565b60405180606001604052806003906020820280368337509192915050565b80356001600160a01b03811681146104ab57600080fd5b6000602082840312156109df57600080fd5b6109e8826109b6565b9392505050565b60008060408385031215610a0257600080fd5b610a0b836109b6565b9150610a19602084016109b6565b90509250929050565b60608101818360005b6003811015610a535781516001600160a01b0316835260209283019290910190600101610a2b565b50505092915050565b600081518084526020808501945080840160005b83811015610a955781516001600160a01b031687529582019590820190600101610a70565b509495945050505050565b6001600160a01b038a81168252602082018a905261012060408301819052600091610acd8483018c610a5c565b91508960608501528382036080850152610ae7828a610a5c565b97811660a085015260c0840196909652505091831660e08301529091166101009091015295945050505050565b634e487b7160e01b600052602160045260246000fd5b600082821015610b4a57634e487b7160e01b600052601160045260246000fd5b500390565b634e487b7160e01b600052603260045260246000fd5b918252602082015260400190565b60208082526023908201527f54686973204469737472696275746f72206973206e6f74204173736f6369617460408201526232b21760e91b60608201526080019056fe7e89c4b1a4e2b51aae84eb1f90e8a34cb792ece5ac5cb63db4830c891220b28da264697066735822122065ed753432fecebff8fd93a2ea5b10d7976be86e84c382312783e098002e067f64736f6c634300080d00336080604052600060025534801561001557600080fd5b50604051610c51380380610c5183398101604081905261003491610059565b600080546001600160a01b0319166001600160a01b0392909216919091179055610089565b60006020828403121561006b57600080fd5b81516001600160a01b038116811461008257600080fd5b9392505050565b610bb9806100986000396000f3fe608060405234801561001057600080fd5b506004361061004c5760003560e01c806327506f53146100515780633626a3681461006f57806378ce1365146100845780639ace38c21461009b575b600080fd5b6100596100c1565b60405161006691906107dd565b60405180910390f35b61008261007d366004610966565b61030f565b005b61008d60025481565b604051908152602001610066565b6100ae6100a93660046109fc565b61059d565b6040516100669796959493929190610a15565b6002546060906000816001600160401b038111156100e1576100e16108c4565b60405190808252806020026020018201604052801561014757816020015b6040805160e0810182526000808252602080830182905292820181905260608083018290526080830181905260a083015260c082015282526000199092019101816100ff5790505b50905060005b8281101561030857600081815260016020818152604092839020835160e08101855281548152928101546001600160a01b0390811692840192909252600281015490911692820192909252600382015460608201526004820180549192916080840191906101ba90610a75565b80601f01602080910402602001604051908101604052809291908181526020018280546101e690610a75565b80156102335780601f1061020857610100808354040283529160200191610233565b820191906000526020600020905b81548152906001019060200180831161021657829003601f168201915b5050505050815260200160058201805461024c90610a75565b80601f016020809104026020016040519081016040528092919081815260200182805461027890610a75565b80156102c55780601f1061029a576101008083540402835291602001916102c5565b820191906000526020600020905b8154815290600101906020018083116102a857829003601f168201915b505050505081526020016006820154815250508282815181106102ea576102ea610aaf565b6020026020010181905250808061030090610adb565b91505061014d565b5092915050565b60025442906000036103f1576040805160e0810182528881526001600160a01b038089166020808401918252898316848601908152606085018a8152608086018a815260a087018a905260c08701899052600280546000908152600180875299902088518155955198860180549988166001600160a01b03199a8b161790559251928501805493909616929097169190911790935591516003820155925180519293926103c292600485019201906106f7565b5060a082015180516103de9160058401916020909101906106f7565b5060c08201518160060155905050610538565b836001600060016002546104059190610af4565b815260200190815260200160002060000154146104665760405162461bcd60e51b815260206004820152601b60248201527a5472616e73616374696f6e206572726f72206f636375727265642160281b604482015260640160405180910390fd5b6040805160e0810182528881526001600160a01b038089166020808401918252898316848601908152606085018a8152608086018a815260a087018a905260c08701899052600280546000908152600180875299902088518155955198860180549988166001600160a01b03199a8b1617905592519285018054939096169290971691909117909355915160038201559251805192939261050d92600485019201906106f7565b5060a082015180516105299160058401916020909101906106f7565b5060c082015181600601559050505b60016002600082825461054b9190610b0b565b90915550506040517f30d01d358fb0899fe4d50947b2e9301c952d9eed09b14c7ecdcbeed4434557c49061058c90899089908990899087908a908a90610b23565b60405180910390a150505050505050565b6001602081905260009182526040909120805491810154600282015460038301546004840180546001600160a01b0394851695949093169391926105e090610a75565b80601f016020809104026020016040519081016040528092919081815260200182805461060c90610a75565b80156106595780601f1061062e57610100808354040283529160200191610659565b820191906000526020600020905b81548152906001019060200180831161063c57829003601f168201915b50505050509080600501805461066e90610a75565b80601f016020809104026020016040519081016040528092919081815260200182805461069a90610a75565b80156106e75780601f106106bc576101008083540402835291602001916106e7565b820191906000526020600020905b8154815290600101906020018083116106ca57829003601f168201915b5050505050908060060154905087565b82805461070390610a75565b90600052602060002090601f016020900481019282610725576000855561076b565b82601f1061073e57805160ff191683800117855561076b565b8280016001018555821561076b579182015b8281111561076b578251825591602001919060010190610750565b5061077792915061077b565b5090565b5b80821115610777576000815560010161077c565b6000815180845260005b818110156107b65760208185018101518683018201520161079a565b818111156107c8576000602083870101525b50601f01601f19169290920160200192915050565b60006020808301818452808551808352604092508286019150828160051b87010184880160005b8381101561089a57888303603f19018552815180518452878101516001600160a01b03908116898601528782015116878501526060808201519085015260808082015160e0828701819052919061085d83880182610790565b9250505060a080830151868303828801526108788382610790565b60c0948501519790940196909652505094870194925090860190600101610804565b509098975050505050505050565b80356001600160a01b03811681146108bf57600080fd5b919050565b634e487b7160e01b600052604160045260246000fd5b600082601f8301126108eb57600080fd5b81356001600160401b0380821115610905576109056108c4565b604051601f8301601f19908116603f0116810190828211818310171561092d5761092d6108c4565b8160405283815286602085880101111561094657600080fd5b836020870160208301376000602085830101528094505050505092915050565b60008060008060008060c0878903121561097f57600080fd5b8635955061098f602088016108a8565b945061099d604088016108a8565b93506060870135925060808701356001600160401b03808211156109c057600080fd5b6109cc8a838b016108da565b935060a08901359150808211156109e257600080fd5b506109ef89828a016108da565b9150509295509295509295565b600060208284031215610a0e57600080fd5b5035919050565b8781526001600160a01b038781166020830152861660408201526060810185905260e060808201819052600090610a4e90830186610790565b82810360a0840152610a608186610790565b9150508260c083015298975050505050505050565b600181811c90821680610a8957607f821691505b602082108103610aa957634e487b7160e01b600052602260045260246000fd5b50919050565b634e487b7160e01b600052603260045260246000fd5b634e487b7160e01b600052601160045260246000fd5b600060018201610aed57610aed610ac5565b5060010190565b600082821015610b0657610b06610ac5565b500390565b60008219821115610b1e57610b1e610ac5565b500190565b8781526001600160a01b03878116602083015286166040820152606081018590526080810184905260e060a08201819052600090610b6390830185610790565b82810360c0840152610b758185610790565b9a995050505050505050505056fea26469706673582212209f85ac3a628f3909a1551543ce2f38f2f89752a7b21e794d772569a1dcb7068964736f6c634300080d0033",
  "immutableReferences": {},
  "source": "//SPDX-License-Identifier: MIT\r\npragma solidity >=0.4.22 <0.9.0;\r\n\r\nimport './Transactions.sol';\r\n\r\ncontract Medicine {\r\n\r\n    address Owner;\r\n\r\n    enum medicineStatus {\r\n        atManufacturer,\r\n        pickedForW,\r\n        pickedForD,\r\n        deliveredAtW,\r\n        deliveredAtD,\r\n        pickedForC,\r\n        deliveredAtC\r\n    }\r\n\r\n    bytes32 description;\r\n    address[] rawMaterials;\r\n    address[] transporters;\r\n    address manufacturer;\r\n    address wholesaler;\r\n    address distributor;\r\n    address customer;\r\n    uint quantity;\r\n    medicineStatus status;\r\n    address txnContractAddress;\r\n\r\n    event ShippmentUpdate(\r\n        address indexed BatchID,\r\n        address indexed Shipper,\r\n        address indexed Receiver,\r\n        uint TransporterType,\r\n        uint Status\r\n    );\r\n\r\n\r\n    constructor(\r\n        address _manufacturerAddr,\r\n        bytes32 _description,\r\n        address[] memory _rawAddr,\r\n        uint _quantity,\r\n        address[] memory _transporterAddr\r\n    )   {\r\n        Owner = _manufacturerAddr;\r\n        manufacturer = _manufacturerAddr;\r\n        description = _description;\r\n        rawMaterials = _rawAddr;\r\n        quantity = _quantity;\r\n        transporters = _transporterAddr;\r\n        wholesaler = address(0x0);\r\n        distributor = address(0x0);\r\n        status = medicineStatus(0);\r\n        Transactions txnContract = new Transactions(_manufacturerAddr);\r\n        txnContractAddress = address(txnContract);\r\n    }\r\n\r\n\r\n    function getMedicineInfo () public view returns(\r\n        address _manufacturerAddr,\r\n        bytes32 _description,\r\n        address[] memory _rawAddr,\r\n        uint _quantity,\r\n        address[] memory _transporterAddr,\r\n        address _distributor,\r\n        uint _status,\r\n        address _txnContract,\r\n        address _wholesaler\r\n    ) {\r\n        return(\r\n            manufacturer,\r\n            description,\r\n            rawMaterials,\r\n            quantity,\r\n            transporters,\r\n            distributor,\r\n            uint(status),\r\n            txnContractAddress,\r\n            wholesaler\r\n        );\r\n    }\r\n\r\n \r\n    function getWDC() public view returns(\r\n        address[3] memory WDP\r\n    ) {\r\n        return (\r\n            [wholesaler, distributor, customer]\r\n        );\r\n    }\r\n\r\n    function getBatchIDStatus() public view returns(\r\n        uint\r\n    ) {\r\n        return uint(status);\r\n    }\r\n\r\n\r\n    function pickMedicine(\r\n        address _transporterAddr\r\n    ) public {\r\n        require(\r\n            _transporterAddr == transporters[transporters.length - 1],\r\n            \"Only Transporter can call this function\"\r\n        );\r\n        require(\r\n            status == medicineStatus(0),\r\n            \"Package must be at Manufacturer.\"\r\n        );\r\n\r\n        if(wholesaler != address(0x0)){\r\n            status = medicineStatus(1);\r\n            emit ShippmentUpdate(address(this), _transporterAddr, wholesaler, 1, 1);\r\n        }else{\r\n            status = medicineStatus(2);\r\n            emit ShippmentUpdate(address(this), _transporterAddr, distributor, 1, 2);\r\n        }\r\n    }\r\n    \r\n    function updateTransporterArray(address _transporterAddr) public {\r\n        transporters.push(_transporterAddr);\r\n    }\r\n\r\n    function updateWholesalerAddress(address addr) public {\r\n        wholesaler = addr;\r\n    }\r\n\r\n    function updateDistributorAddress(address addr) public {\r\n        distributor = addr;\r\n    }\r\n\r\n    function receivedMedicine(\r\n        address _receiverAddr\r\n    ) public returns(uint result) {\r\n\r\n        require(\r\n            _receiverAddr == wholesaler || _receiverAddr == distributor,\r\n            \"Only Wholesaler or Distributor can call this function\"\r\n        );\r\n\r\n        require(\r\n            uint(status) >= 1,\r\n            \"Product not picked up yet\"\r\n        );\r\n\r\n        if(_receiverAddr == wholesaler && status == medicineStatus(1)){\r\n            status = medicineStatus(3);\r\n            emit ShippmentUpdate(address(this), transporters[transporters.length - 1], wholesaler, 2, 3);\r\n            return 1;\r\n        } else if(_receiverAddr == distributor && status == medicineStatus(2)){\r\n            status = medicineStatus(4);\r\n            emit ShippmentUpdate(address(this), transporters[transporters.length - 1], distributor,3, 4);\r\n            return 2;\r\n        }\r\n    }\r\n\r\n\r\n    function sendWtoD(\r\n        address receiver,\r\n        address sender\r\n    ) public {\r\n        require(\r\n            wholesaler == sender,\r\n            \"this Wholesaler is not Associated.\"\r\n        );\r\n        distributor = receiver;\r\n        status = medicineStatus(2);\r\n    }\r\n\r\n\r\n    function receivedWtoD(\r\n        address receiver\r\n    ) public {\r\n        require(\r\n            distributor == receiver,\r\n            \"This Distributor is not Associated.\"\r\n        );\r\n        status = medicineStatus(4);\r\n    }\r\n\r\n\r\n    function sendDtoC(\r\n        address receiver,\r\n        address sender\r\n    ) public {\r\n        require(\r\n            distributor == sender,\r\n            \"This Distributor is not Associated.\"\r\n        );\r\n        customer = receiver;\r\n        status = medicineStatus(5);\r\n    }\r\n\r\n\r\n    function receivedDtoC(\r\n        address receiver\r\n    ) public {\r\n        require(\r\n            customer == receiver,\r\n            \"This Customer is not Associated.\"\r\n        );\r\n        status = medicineStatus(6);\r\n    }\r\n}",
  "sourcePath": "D:\\Quote\\MediChain\\contracts\\Medicine.sol",
  "compiler": {
    "name": "solc",
    "version": "0.8.13+commit.abaa5c0e.Emscripten.clang"
  },
  "schemaVersion": "3.4.16",
  "updatedAt": "2023-12-08T10:41:53.527Z",
  "devdoc": {
    "kind": "dev",
    "methods": {},
    "version": 1
  },
  "userdoc": {
    "kind": "user",
    "methods": {},
    "version": 1
  }
}