{
  "contractName": "Medicine",
  "abi": [
    {
      "inputs": [
        {
          "internalType": "address",
          "name": "_manufacturerAddr",
          "type": "address"
        },
        {
          "internalType": "bytes32",
          "name": "_description",
          "type": "bytes32"
        },
        {
          "internalType": "address[]",
          "name": "_rawAddr",
          "type": "address[]"
        },
        {
          "internalType": "uint256",
          "name": "_quantity",
          "type": "uint256"
        },
        {
          "internalType": "address[]",
          "name": "_transporterAddr",
          "type": "address[]"
        }
      ],
      "stateMutability": "nonpayable",
      "type": "constructor"
    },
    {
      "anonymous": false,
      "inputs": [
        {
          "indexed": true,
          "internalType": "address",
          "name": "BatchID",
          "type": "address"
        },
        {
          "indexed": true,
          "internalType": "address",
          "name": "Shipper",
          "type": "address"
        },
        {
          "indexed": true,
          "internalType": "address",
          "name": "Receiver",
          "type": "address"
        },
        {
          "indexed": false,
          "internalType": "uint256",
          "name": "TransporterType",
          "type": "uint256"
        },
        {
          "indexed": false,
          "internalType": "uint256",
          "name": "Status",
          "type": "uint256"
        }
      ],
      "name": "ShippmentUpdate",
      "type": "event"
    },
    {
      "inputs": [],
      "name": "getMedicineInfo",
      "outputs": [
        {
          "internalType": "address",
          "name": "_manufacturerAddr",
          "type": "address"
        },
        {
          "internalType": "bytes32",
          "name": "_description",
          "type": "bytes32"
        },
        {
          "internalType": "address[]",
          "name": "_rawAddr",
          "type": "address[]"
        },
        {
          "internalType": "uint256",
          "name": "_quantity",
          "type": "uint256"
        },
        {
          "internalType": "address[]",
          "name": "_transporterAddr",
          "type": "address[]"
        },
        {
          "internalType": "address",
          "name": "_distributor",
          "type": "address"
        },
        {
          "internalType": "uint256",
          "name": "_status",
          "type": "uint256"
        },
        {
          "internalType": "address",
          "name": "_txnContract",
          "type": "address"
        },
        {
          "internalType": "address",
          "name": "_wholesaler",
          "type": "address"
        }
      ],
      "stateMutability": "view",
      "type": "function"
    },
    {
      "inputs": [],
      "name": "getWDC",
      "outputs": [
        {
          "internalType": "address[3]",
          "name": "WDP",
          "type": "address[3]"
        }
      ],
      "stateMutability": "view",
      "type": "function"
    },
    {
      "inputs": [],
      "name": "getBatchIDStatus",
      "outputs": [
        {
          "internalType": "uint256",
          "name": "",
          "type": "uint256"
        }
      ],
      "stateMutability": "view",
      "type": "function"
    },
    {
      "inputs": [
        {
          "internalType": "address",
          "name": "_transporterAddr",
          "type": "address"
        }
      ],
      "name": "pickMedicine",
      "outputs": [],
      "stateMutability": "nonpayable",
      "type": "function"
    },
    {
      "inputs": [
        {
          "internalType": "address",
          "name": "_transporterAddr",
          "type": "address"
        }
      ],
      "name": "updateTransporterArray",
      "outputs": [],
      "stateMutability": "nonpayable",
      "type": "function"
    },
    {
      "inputs": [
        {
          "internalType": "address",
          "name": "addr",
          "type": "address"
        }
      ],
      "name": "updateWholesalerAddress",
      "outputs": [],
      "stateMutability": "nonpayable",
      "type": "function"
    },
    {
      "inputs": [
        {
          "internalType": "address",
          "name": "addr",
          "type": "address"
        }
      ],
      "name": "updateDistributorAddress",
      "outputs": [],
      "stateMutability": "nonpayable",
      "type": "function"
    },
    {
      "inputs": [
        {
          "internalType": "address",
          "name": "_receiverAddr",
          "type": "address"
        }
      ],
      "name": "receivedMedicine",
      "outputs": [
        {
          "internalType": "uint256",
          "name": "",
          "type": "uint256"
        }
      ],
      "stateMutability": "nonpayable",
      "type": "function"
    },
    {
      "inputs": [
        {
          "internalType": "address",
          "name": "receiver",
          "type": "address"
        },
        {
          "internalType": "address",
          "name": "sender",
          "type": "address"
        }
      ],
      "name": "sendWtoD",
      "outputs": [],
      "stateMutability": "nonpayable",
      "type": "function"
    },
    {
      "inputs": [
        {
          "internalType": "address",
          "name": "receiver",
          "type": "address"
        }
      ],
      "name": "receivedWtoD",
      "outputs": [],
      "stateMutability": "nonpayable",
      "type": "function"
    },
    {
      "inputs": [
        {
          "internalType": "address",
          "name": "receiver",
          "type": "address"
        },
        {
          "internalType": "address",
          "name": "sender",
          "type": "address"
        }
      ],
      "name": "sendDtoC",
      "outputs": [],
      "stateMutability": "nonpayable",
      "type": "function"
    },
    {
      "inputs": [
        {
          "internalType": "address",
          "name": "receiver",
          "type": "address"
        }
      ],
      "name": "receivedDtoC",
      "outputs": [],
      "stateMutability": "nonpayable",
      "type": "function"
    }
  ],
  "bytecode": "0x60806040523480156200001157600080fd5b50604051620036a2380380620036a2833981810160405281019062000037919062000569565b846000806101000a81548173ffffffffffffffffffffffffffffffffffffffff021916908373ffffffffffffffffffffffffffffffffffffffff16021790555084600460006101000a81548173ffffffffffffffffffffffffffffffffffffffff021916908373ffffffffffffffffffffffffffffffffffffffff160217905550836001819055508260029080519060200190620000d792919062000249565b50816008819055508060039080519060200190620000f792919062000249565b506000600560006101000a81548173ffffffffffffffffffffffffffffffffffffffff021916908373ffffffffffffffffffffffffffffffffffffffff1602179055506000600660006101000a81548173ffffffffffffffffffffffffffffffffffffffff021916908373ffffffffffffffffffffffffffffffffffffffff160217905550600060068111156200019357620001926200062f565b5b600960006101000a81548160ff02191690836006811115620001ba57620001b96200062f565b5b0217905550600085604051620001d090620002d8565b620001dc91906200066f565b604051809103906000f080158015620001f9573d6000803e3d6000fd5b50905080600960016101000a81548173ffffffffffffffffffffffffffffffffffffffff021916908373ffffffffffffffffffffffffffffffffffffffff1602179055505050505050506200068c565b828054828255906000526020600020908101928215620002c5579160200282015b82811115620002c45782518260006101000a81548173ffffffffffffffffffffffffffffffffffffffff021916908373ffffffffffffffffffffffffffffffffffffffff160217905550916020019190600101906200026a565b5b509050620002d49190620002e6565b5090565b611415806200228d83390190565b5b8082111562000301576000816000905550600101620002e7565b5090565b6000604051905090565b600080fd5b600080fd5b600073ffffffffffffffffffffffffffffffffffffffff82169050919050565b6000620003468262000319565b9050919050565b620003588162000339565b81146200036457600080fd5b50565b60008151905062000378816200034d565b92915050565b6000819050919050565b62000393816200037e565b81146200039f57600080fd5b50565b600081519050620003b38162000388565b92915050565b600080fd5b6000601f19601f8301169050919050565b7f4e487b7100000000000000000000000000000000000000000000000000000000600052604160045260246000fd5b6200040982620003be565b810181811067ffffffffffffffff821117156200042b576200042a620003cf565b5b80604052505050565b60006200044062000305565b90506200044e8282620003fe565b919050565b600067ffffffffffffffff821115620004715762000470620003cf565b5b602082029050602081019050919050565b600080fd5b60006200049e620004988462000453565b62000434565b90508083825260208201905060208402830185811115620004c457620004c362000482565b5b835b81811015620004f15780620004dc888262000367565b845260208401935050602081019050620004c6565b5050509392505050565b600082601f830112620005135762000512620003b9565b5b81516200052584826020860162000487565b91505092915050565b6000819050919050565b62000543816200052e565b81146200054f57600080fd5b50565b600081519050620005638162000538565b92915050565b600080600080600060a086880312156200058857620005876200030f565b5b6000620005988882890162000367565b9550506020620005ab88828901620003a2565b945050604086015167ffffffffffffffff811115620005cf57620005ce62000314565b5b620005dd88828901620004fb565b9350506060620005f08882890162000552565b925050608086015167ffffffffffffffff81111562000614576200061362000314565b5b6200062288828901620004fb565b9150509295509295909350565b7f4e487b7100000000000000000000000000000000000000000000000000000000600052602160045260246000fd5b620006698162000339565b82525050565b60006020820190506200068660008301846200065e565b92915050565b611bf1806200069c6000396000f3fe608060405234801561001057600080fd5b50600436106100b45760003560e01c8063ac42a41511610071578063ac42a41514610177578063c8f5f18914610193578063d2f3fcc7146101af578063e002c8a5146101cd578063e138d4ce146101f3578063f5c0e3831461020f576100b4565b80631fedd36c146100b95780632f1d7588146100e957806393a668b71461010557806396991e7914610121578063aab3a9d61461013d578063abb428a614610159575b600080fd5b6100d360048036038101906100ce9190611302565b61022b565b6040516100e09190611348565b60405180910390f35b61010360048036038101906100fe9190611363565b61073c565b005b61011f600480360381019061011a9190611302565b61084e565b005b61013b60048036038101906101369190611302565b61091e565b005b61015760048036038101906101529190611302565b610962565b005b6101616109c8565b60405161016e919061144e565b60405180910390f35b610191600480360381019061018c9190611302565b610ada565b005b6101ad60048036038101906101a89190611302565b610e3b565b005b6101b7610f0a565b6040516101c49190611348565b60405180910390f35b6101d5610f33565b6040516101ea99989796959493929190611528565b60405180910390f35b61020d60048036038101906102089190611302565b611127565b005b61022960048036038101906102249190611363565b61116b565b005b6000600560009054906101000a900473ffffffffffffffffffffffffffffffffffffffff1673ffffffffffffffffffffffffffffffffffffffff168273ffffffffffffffffffffffffffffffffffffffff1614806102d65750600660009054906101000a900473ffffffffffffffffffffffffffffffffffffffff1673ffffffffffffffffffffffffffffffffffffffff168273ffffffffffffffffffffffffffffffffffffffff16145b610315576040517f08c379a000000000000000000000000000000000000000000000000000000000815260040161030c90611646565b60405180910390fd5b6001600960009054906101000a900460ff16600681111561033957610338611666565b5b101561037a576040517f08c379a0000000000000000000000000000000000000000000000000000000008152600401610371906116e1565b60405180910390fd5b600560009054906101000a900473ffffffffffffffffffffffffffffffffffffffff1673ffffffffffffffffffffffffffffffffffffffff168273ffffffffffffffffffffffffffffffffffffffff1614801561041c5750600160068111156103e6576103e5611666565b5b60068111156103f8576103f7611666565b5b600960009054906101000a900460ff16600681111561041a57610419611666565b5b145b15610558576003600681111561043557610434611666565b5b600960006101000a81548160ff0219169083600681111561045957610458611666565b5b0217905550600560009054906101000a900473ffffffffffffffffffffffffffffffffffffffff1673ffffffffffffffffffffffffffffffffffffffff16600360016003805490506104ab9190611730565b815481106104bc576104bb611764565b5b9060005260206000200160009054906101000a900473ffffffffffffffffffffffffffffffffffffffff1673ffffffffffffffffffffffffffffffffffffffff163073ffffffffffffffffffffffffffffffffffffffff167f7e89c4b1a4e2b51aae84eb1f90e8a34cb792ece5ac5cb63db4830c891220b28d60026003604051610547929190611813565b60405180910390a460019050610737565b600660009054906101000a900473ffffffffffffffffffffffffffffffffffffffff1673ffffffffffffffffffffffffffffffffffffffff168273ffffffffffffffffffffffffffffffffffffffff161480156105fa5750600260068111156105c4576105c3611666565b5b60068111156105d6576105d5611666565b5b600960009054906101000a900460ff1660068111156105f8576105f7611666565b5b145b15610736576004600681111561061357610612611666565b5b600960006101000a81548160ff0219169083600681111561063757610636611666565b5b0217905550600660009054906101000a900473ffffffffffffffffffffffffffffffffffffffff1673ffffffffffffffffffffffffffffffffffffffff16600360016003805490506106899190611730565b8154811061069a57610699611764565b5b9060005260206000200160009054906101000a900473ffffffffffffffffffffffffffffffffffffffff1673ffffffffffffffffffffffffffffffffffffffff163073ffffffffffffffffffffffffffffffffffffffff167f7e89c4b1a4e2b51aae84eb1f90e8a34cb792ece5ac5cb63db4830c891220b28d60036004604051610725929190611877565b60405180910390a460029050610737565b5b919050565b8073ffffffffffffffffffffffffffffffffffffffff16600660009054906101000a900473ffffffffffffffffffffffffffffffffffffffff1673ffffffffffffffffffffffffffffffffffffffff16146107cc576040517f08c379a00000000000000000000000000000000000000000000000000000000081526004016107c390611912565b60405180910390fd5b81600760006101000a81548173ffffffffffffffffffffffffffffffffffffffff021916908373ffffffffffffffffffffffffffffffffffffffff1602179055506005600681111561082157610820611666565b5b600960006101000a81548160ff0219169083600681111561084557610844611666565b5b02179055505050565b8073ffffffffffffffffffffffffffffffffffffffff16600660009054906101000a900473ffffffffffffffffffffffffffffffffffffffff1673ffffffffffffffffffffffffffffffffffffffff16146108de576040517f08c379a00000000000000000000000000000000000000000000000000000000081526004016108d590611912565b60405180910390fd5b600460068111156108f2576108f1611666565b5b600960006101000a81548160ff0219169083600681111561091657610915611666565b5b021790555050565b80600660006101000a81548173ffffffffffffffffffffffffffffffffffffffff021916908373ffffffffffffffffffffffffffffffffffffffff16021790555050565b6003819080600181540180825580915050600190039060005260206000200160009091909190916101000a81548173ffffffffffffffffffffffffffffffffffffffff021916908373ffffffffffffffffffffffffffffffffffffffff16021790555050565b6109d061127d565b6040518060600160405280600560009054906101000a900473ffffffffffffffffffffffffffffffffffffffff1673ffffffffffffffffffffffffffffffffffffffff1673ffffffffffffffffffffffffffffffffffffffff168152602001600660009054906101000a900473ffffffffffffffffffffffffffffffffffffffff1673ffffffffffffffffffffffffffffffffffffffff1673ffffffffffffffffffffffffffffffffffffffff168152602001600760009054906101000a900473ffffffffffffffffffffffffffffffffffffffff1673ffffffffffffffffffffffffffffffffffffffff1673ffffffffffffffffffffffffffffffffffffffff16815250905090565b60036001600380549050610aee9190611730565b81548110610aff57610afe611764565b5b9060005260206000200160009054906101000a900473ffffffffffffffffffffffffffffffffffffffff1673ffffffffffffffffffffffffffffffffffffffff168173ffffffffffffffffffffffffffffffffffffffff1614610b97576040517f08c379a0000000000000000000000000000000000000000000000000000000008152600401610b8e906119a4565b60405180910390fd5b60006006811115610bab57610baa611666565b5b6006811115610bbd57610bbc611666565b5b600960009054906101000a900460ff166006811115610bdf57610bde611666565b5b14610c1f576040517f08c379a0000000000000000000000000000000000000000000000000000000008152600401610c1690611a10565b60405180910390fd5b600073ffffffffffffffffffffffffffffffffffffffff16600560009054906101000a900473ffffffffffffffffffffffffffffffffffffffff1673ffffffffffffffffffffffffffffffffffffffff1614610d585760016006811115610c8957610c88611666565b5b600960006101000a81548160ff02191690836006811115610cad57610cac611666565b5b0217905550600560009054906101000a900473ffffffffffffffffffffffffffffffffffffffff1673ffffffffffffffffffffffffffffffffffffffff168173ffffffffffffffffffffffffffffffffffffffff163073ffffffffffffffffffffffffffffffffffffffff167f7e89c4b1a4e2b51aae84eb1f90e8a34cb792ece5ac5cb63db4830c891220b28d600180604051610d4b929190611a6b565b60405180910390a4610e38565b60026006811115610d6c57610d6b611666565b5b600960006101000a81548160ff02191690836006811115610d9057610d8f611666565b5b0217905550600660009054906101000a900473ffffffffffffffffffffffffffffffffffffffff1673ffffffffffffffffffffffffffffffffffffffff168173ffffffffffffffffffffffffffffffffffffffff163073ffffffffffffffffffffffffffffffffffffffff167f7e89c4b1a4e2b51aae84eb1f90e8a34cb792ece5ac5cb63db4830c891220b28d60016002604051610e2f929190611a94565b60405180910390a45b50565b8073ffffffffffffffffffffffffffffffffffffffff16600760009054906101000a900473ffffffffffffffffffffffffffffffffffffffff1673ffffffffffffffffffffffffffffffffffffffff1614610ecb576040517f08c379a0000000000000000000000000000000000000000000000000000000008152600401610ec290611b09565b60405180910390fd5b600680811115610ede57610edd611666565b5b600960006101000a81548160ff02191690836006811115610f0257610f01611666565b5b021790555050565b6000600960009054906101000a900460ff166006811115610f2e57610f2d611666565b5b905090565b600080606060006060600080600080600460009054906101000a900473ffffffffffffffffffffffffffffffffffffffff1660015460026008546003600660009054906101000a900473ffffffffffffffffffffffffffffffffffffffff16600960009054906101000a900460ff166006811115610fb457610fb3611666565b5b600960019054906101000a900473ffffffffffffffffffffffffffffffffffffffff16600560009054906101000a900473ffffffffffffffffffffffffffffffffffffffff168680548060200260200160405190810160405280929190818152602001828054801561107b57602002820191906000526020600020905b8160009054906101000a900473ffffffffffffffffffffffffffffffffffffffff1673ffffffffffffffffffffffffffffffffffffffff1681526020019060010190808311611031575b505050505096508480548060200260200160405190810160405280929190818152602001828054801561110357602002820191906000526020600020905b8160009054906101000a900473ffffffffffffffffffffffffffffffffffffffff1673ffffffffffffffffffffffffffffffffffffffff16815260200190600101908083116110b9575b50505050509450985098509850985098509850985098509850909192939495969798565b80600560006101000a81548173ffffffffffffffffffffffffffffffffffffffff021916908373ffffffffffffffffffffffffffffffffffffffff16021790555050565b8073ffffffffffffffffffffffffffffffffffffffff16600560009054906101000a900473ffffffffffffffffffffffffffffffffffffffff1673ffffffffffffffffffffffffffffffffffffffff16146111fb576040517f08c379a00000000000000000000000000000000000000000000000000000000081526004016111f290611b9b565b60405180910390fd5b81600660006101000a81548173ffffffffffffffffffffffffffffffffffffffff021916908373ffffffffffffffffffffffffffffffffffffffff160217905550600260068111156112505761124f611666565b5b600960006101000a81548160ff0219169083600681111561127457611273611666565b5b02179055505050565b6040518060600160405280600390602082028036833780820191505090505090565b600080fd5b600073ffffffffffffffffffffffffffffffffffffffff82169050919050565b60006112cf826112a4565b9050919050565b6112df816112c4565b81146112ea57600080fd5b50565b6000813590506112fc816112d6565b92915050565b6000602082840312156113185761131761129f565b5b6000611326848285016112ed565b91505092915050565b6000819050919050565b6113428161132f565b82525050565b600060208201905061135d6000830184611339565b92915050565b6000806040838503121561137a5761137961129f565b5b6000611388858286016112ed565b9250506020611399858286016112ed565b9150509250929050565b600060039050919050565b600081905092915050565b6000819050919050565b6113cc816112c4565b82525050565b60006113de83836113c3565b60208301905092915050565b6000602082019050919050565b611400816113a3565b61140a81846113ae565b9250611415826113b9565b8060005b8381101561144657815161142d87826113d2565b9650611438836113ea565b925050600181019050611419565b505050505050565b600060608201905061146360008301846113f7565b92915050565b611472816112c4565b82525050565b6000819050919050565b61148b81611478565b82525050565b600081519050919050565b600082825260208201905092915050565b6000819050602082019050919050565b6000602082019050919050565b60006114d582611491565b6114df818561149c565b93506114ea836114ad565b8060005b8381101561151b57815161150288826113d2565b975061150d836114bd565b9250506001810190506114ee565b5085935050505092915050565b60006101208201905061153e600083018c611469565b61154b602083018b611482565b818103604083015261155d818a6114ca565b905061156c6060830189611339565b818103608083015261157e81886114ca565b905061158d60a0830187611469565b61159a60c0830186611339565b6115a760e0830185611469565b6115b5610100830184611469565b9a9950505050505050505050565b600082825260208201905092915050565b7f4f6e6c792057686f6c6573616c6572206f72204469737472696275746f72206360008201527f616e2063616c6c20746869732066756e6374696f6e0000000000000000000000602082015250565b60006116306035836115c3565b915061163b826115d4565b604082019050919050565b6000602082019050818103600083015261165f81611623565b9050919050565b7f4e487b7100000000000000000000000000000000000000000000000000000000600052602160045260246000fd5b7f50726f64756374206e6f74207069636b65642075702079657400000000000000600082015250565b60006116cb6019836115c3565b91506116d682611695565b602082019050919050565b600060208201905081810360008301526116fa816116be565b9050919050565b7f4e487b7100000000000000000000000000000000000000000000000000000000600052601160045260246000fd5b600061173b8261132f565b91506117468361132f565b92508282101561175957611758611701565b5b828203905092915050565b7f4e487b7100000000000000000000000000000000000000000000000000000000600052603260045260246000fd5b6000819050919050565b6000819050919050565b60006117c26117bd6117b884611793565b61179d565b61132f565b9050919050565b6117d2816117a7565b82525050565b6000819050919050565b60006117fd6117f86117f3846117d8565b61179d565b61132f565b9050919050565b61180d816117e2565b82525050565b600060408201905061182860008301856117c9565b6118356020830184611804565b9392505050565b6000819050919050565b600061186161185c6118578461183c565b61179d565b61132f565b9050919050565b61187181611846565b82525050565b600060408201905061188c6000830185611804565b6118996020830184611868565b9392505050565b7f54686973204469737472696275746f72206973206e6f74204173736f6369617460008201527f65642e0000000000000000000000000000000000000000000000000000000000602082015250565b60006118fc6023836115c3565b9150611907826118a0565b604082019050919050565b6000602082019050818103600083015261192b816118ef565b9050919050565b7f4f6e6c79205472616e73706f727465722063616e2063616c6c2074686973206660008201527f756e6374696f6e00000000000000000000000000000000000000000000000000602082015250565b600061198e6027836115c3565b915061199982611932565b604082019050919050565b600060208201905081810360008301526119bd81611981565b9050919050565b7f5061636b616765206d757374206265206174204d616e7566616374757265722e600082015250565b60006119fa6020836115c3565b9150611a05826119c4565b602082019050919050565b60006020820190508181036000830152611a29816119ed565b9050919050565b6000819050919050565b6000611a55611a50611a4b84611a30565b61179d565b61132f565b9050919050565b611a6581611a3a565b82525050565b6000604082019050611a806000830185611a5c565b611a8d6020830184611a5c565b9392505050565b6000604082019050611aa96000830185611a5c565b611ab660208301846117c9565b9392505050565b7f5468697320437573746f6d6572206973206e6f74204173736f6369617465642e600082015250565b6000611af36020836115c3565b9150611afe82611abd565b602082019050919050565b60006020820190508181036000830152611b2281611ae6565b9050919050565b7f746869732057686f6c6573616c6572206973206e6f74204173736f636961746560008201527f642e000000000000000000000000000000000000000000000000000000000000602082015250565b6000611b856022836115c3565b9150611b9082611b29565b604082019050919050565b60006020820190508181036000830152611bb481611b78565b905091905056fea264697066735822122067d5e8a2a0bc8b5ee7fdc263c63aecef3bbfa41df86cf3a8233541149a7512ae64736f6c634300080d0033608060405260006002553480156200001657600080fd5b50604051620014153803806200141583398181016040528101906200003c9190620000ed565b806000806101000a81548173ffffffffffffffffffffffffffffffffffffffff021916908373ffffffffffffffffffffffffffffffffffffffff160217905550506200011f565b600080fd5b600073ffffffffffffffffffffffffffffffffffffffff82169050919050565b6000620000b58262000088565b9050919050565b620000c781620000a8565b8114620000d357600080fd5b50565b600081519050620000e781620000bc565b92915050565b60006020828403121562000106576200010562000083565b5b60006200011684828501620000d6565b91505092915050565b6112e6806200012f6000396000f3fe608060405234801561001057600080fd5b506004361061004c5760003560e01c806327506f53146100515780633626a3681461006f57806378ce13651461008b5780639ace38c2146100a9575b600080fd5b6100596100df565b6040516100669190610c47565b60405180910390f35b61008960048036038101906100849190610e0a565b610391565b005b61009361072c565b6040516100a09190610ede565b60405180910390f35b6100c360048036038101906100be9190610f25565b610732565b6040516100d69796959493929190610fba565b60405180910390f35b60606000600254905060008167ffffffffffffffff81111561010457610103610cdf565b5b60405190808252806020026020018201604052801561013d57816020015b61012a6108c4565b8152602001906001900390816101225790505b50905060005b8281101561038857600160008281526020019081526020016000206040518060e0016040529081600082015481526020016001820160009054906101000a900473ffffffffffffffffffffffffffffffffffffffff1673ffffffffffffffffffffffffffffffffffffffff1673ffffffffffffffffffffffffffffffffffffffff1681526020016002820160009054906101000a900473ffffffffffffffffffffffffffffffffffffffff1673ffffffffffffffffffffffffffffffffffffffff1673ffffffffffffffffffffffffffffffffffffffff1681526020016003820154815260200160048201805461023990611066565b80601f016020809104026020016040519081016040528092919081815260200182805461026590611066565b80156102b25780601f10610287576101008083540402835291602001916102b2565b820191906000526020600020905b81548152906001019060200180831161029557829003601f168201915b505050505081526020016005820180546102cb90611066565b80601f01602080910402602001604051908101604052809291908181526020018280546102f790611066565b80156103445780601f1061031957610100808354040283529160200191610344565b820191906000526020600020905b81548152906001019060200180831161032757829003601f168201915b5050505050815260200160068201548152505082828151811061036a57610369611097565b5b60200260200101819052508080610380906110f5565b915050610143565b50809250505090565b6000429050600060025403610502576040518060e001604052808881526020018773ffffffffffffffffffffffffffffffffffffffff1681526020018673ffffffffffffffffffffffffffffffffffffffff168152602001858152602001848152602001838152602001828152506001600060025481526020019081526020016000206000820151816000015560208201518160010160006101000a81548173ffffffffffffffffffffffffffffffffffffffff021916908373ffffffffffffffffffffffffffffffffffffffff16021790555060408201518160020160006101000a81548173ffffffffffffffffffffffffffffffffffffffff021916908373ffffffffffffffffffffffffffffffffffffffff1602179055506060820151816003015560808201518160040190805190602001906104d2929190610933565b5060a08201518160050190805190602001906104ef929190610933565b5060c082015181600601559050506106c6565b83600160006001600254610516919061113d565b81526020019081526020016000206000015414610568576040517f08c379a000000000000000000000000000000000000000000000000000000000815260040161055f906111bd565b60405180910390fd5b6040518060e001604052808881526020018773ffffffffffffffffffffffffffffffffffffffff1681526020018673ffffffffffffffffffffffffffffffffffffffff168152602001858152602001848152602001838152602001828152506001600060025481526020019081526020016000206000820151816000015560208201518160010160006101000a81548173ffffffffffffffffffffffffffffffffffffffff021916908373ffffffffffffffffffffffffffffffffffffffff16021790555060408201518160020160006101000a81548173ffffffffffffffffffffffffffffffffffffffff021916908373ffffffffffffffffffffffffffffffffffffffff16021790555060608201518160030155608082015181600401908051906020019061069a929190610933565b5060a08201518160050190805190602001906106b7929190610933565b5060c082015181600601559050505b6001600260008282546106d991906111dd565b925050819055507f30d01d358fb0899fe4d50947b2e9301c952d9eed09b14c7ecdcbeed4434557c48787878785888860405161071b9796959493929190611233565b60405180910390a150505050505050565b60025481565b60016020528060005260406000206000915090508060000154908060010160009054906101000a900473ffffffffffffffffffffffffffffffffffffffff16908060020160009054906101000a900473ffffffffffffffffffffffffffffffffffffffff16908060030154908060040180546107ad90611066565b80601f01602080910402602001604051908101604052809291908181526020018280546107d990611066565b80156108265780601f106107fb57610100808354040283529160200191610826565b820191906000526020600020905b81548152906001019060200180831161080957829003601f168201915b50505050509080600501805461083b90611066565b80601f016020809104026020016040519081016040528092919081815260200182805461086790611066565b80156108b45780601f10610889576101008083540402835291602001916108b4565b820191906000526020600020905b81548152906001019060200180831161089757829003601f168201915b5050505050908060060154905087565b6040518060e0016040528060008019168152602001600073ffffffffffffffffffffffffffffffffffffffff168152602001600073ffffffffffffffffffffffffffffffffffffffff168152602001600080191681526020016060815260200160608152602001600081525090565b82805461093f90611066565b90600052602060002090601f01602090048101928261096157600085556109a8565b82601f1061097a57805160ff19168380011785556109a8565b828001600101855582156109a8579182015b828111156109a757825182559160200191906001019061098c565b5b5090506109b591906109b9565b5090565b5b808211156109d25760008160009055506001016109ba565b5090565b600081519050919050565b600082825260208201905092915050565b6000819050602082019050919050565b6000819050919050565b610a1581610a02565b82525050565b600073ffffffffffffffffffffffffffffffffffffffff82169050919050565b6000610a4682610a1b565b9050919050565b610a5681610a3b565b82525050565b600081519050919050565b600082825260208201905092915050565b60005b83811015610a96578082015181840152602081019050610a7b565b83811115610aa5576000848401525b50505050565b6000601f19601f8301169050919050565b6000610ac782610a5c565b610ad18185610a67565b9350610ae1818560208601610a78565b610aea81610aab565b840191505092915050565b6000819050919050565b610b0881610af5565b82525050565b600060e083016000830151610b266000860182610a0c565b506020830151610b396020860182610a4d565b506040830151610b4c6040860182610a4d565b506060830151610b5f6060860182610a0c565b5060808301518482036080860152610b778282610abc565b91505060a083015184820360a0860152610b918282610abc565b91505060c0830151610ba660c0860182610aff565b508091505092915050565b6000610bbd8383610b0e565b905092915050565b6000602082019050919050565b6000610bdd826109d6565b610be781856109e1565b935083602082028501610bf9856109f2565b8060005b85811015610c355784840389528151610c168582610bb1565b9450610c2183610bc5565b925060208a01995050600181019050610bfd565b50829750879550505050505092915050565b60006020820190508181036000830152610c618184610bd2565b905092915050565b6000604051905090565b600080fd5b600080fd5b610c8681610a02565b8114610c9157600080fd5b50565b600081359050610ca381610c7d565b92915050565b610cb281610a3b565b8114610cbd57600080fd5b50565b600081359050610ccf81610ca9565b92915050565b600080fd5b600080fd5b7f4e487b7100000000000000000000000000000000000000000000000000000000600052604160045260246000fd5b610d1782610aab565b810181811067ffffffffffffffff82111715610d3657610d35610cdf565b5b80604052505050565b6000610d49610c69565b9050610d558282610d0e565b919050565b600067ffffffffffffffff821115610d7557610d74610cdf565b5b610d7e82610aab565b9050602081019050919050565b82818337600083830152505050565b6000610dad610da884610d5a565b610d3f565b905082815260208101848484011115610dc957610dc8610cda565b5b610dd4848285610d8b565b509392505050565b600082601f830112610df157610df0610cd5565b5b8135610e01848260208601610d9a565b91505092915050565b60008060008060008060c08789031215610e2757610e26610c73565b5b6000610e3589828a01610c94565b9650506020610e4689828a01610cc0565b9550506040610e5789828a01610cc0565b9450506060610e6889828a01610c94565b935050608087013567ffffffffffffffff811115610e8957610e88610c78565b5b610e9589828a01610ddc565b92505060a087013567ffffffffffffffff811115610eb657610eb5610c78565b5b610ec289828a01610ddc565b9150509295509295509295565b610ed881610af5565b82525050565b6000602082019050610ef36000830184610ecf565b92915050565b610f0281610af5565b8114610f0d57600080fd5b50565b600081359050610f1f81610ef9565b92915050565b600060208284031215610f3b57610f3a610c73565b5b6000610f4984828501610f10565b91505092915050565b610f5b81610a02565b82525050565b610f6a81610a3b565b82525050565b600082825260208201905092915050565b6000610f8c82610a5c565b610f968185610f70565b9350610fa6818560208601610a78565b610faf81610aab565b840191505092915050565b600060e082019050610fcf600083018a610f52565b610fdc6020830189610f61565b610fe96040830188610f61565b610ff66060830187610f52565b81810360808301526110088186610f81565b905081810360a083015261101c8185610f81565b905061102b60c0830184610ecf565b98975050505050505050565b7f4e487b7100000000000000000000000000000000000000000000000000000000600052602260045260246000fd5b6000600282049050600182168061107e57607f821691505b60208210810361109157611090611037565b5b50919050565b7f4e487b7100000000000000000000000000000000000000000000000000000000600052603260045260246000fd5b7f4e487b7100000000000000000000000000000000000000000000000000000000600052601160045260246000fd5b600061110082610af5565b91507fffffffffffffffffffffffffffffffffffffffffffffffffffffffffffffffff8203611132576111316110c6565b5b600182019050919050565b600061114882610af5565b915061115383610af5565b925082821015611166576111656110c6565b5b828203905092915050565b7f5472616e73616374696f6e206572726f72206f63637572726564210000000000600082015250565b60006111a7601b83610f70565b91506111b282611171565b602082019050919050565b600060208201905081810360008301526111d68161119a565b9050919050565b60006111e882610af5565b91506111f383610af5565b9250827fffffffffffffffffffffffffffffffffffffffffffffffffffffffffffffffff03821115611228576112276110c6565b5b828201905092915050565b600060e082019050611248600083018a610f52565b6112556020830189610f61565b6112626040830188610f61565b61126f6060830187610f52565b61127c6080830186610ecf565b81810360a083015261128e8185610f81565b905081810360c08301526112a28184610f81565b90509897505050505050505056fea26469706673582212205165ac39670d5e25c3254f88012313e2ed1c7a0462c41647254a654cb356196e64736f6c634300080d0033",
  "immutableReferences": {},
  "source": "//SPDX-License-Identifier: MIT\r\npragma solidity >=0.4.22 <0.9.0;\r\n\r\nimport './Transactions.sol';\r\n\r\ncontract Medicine {\r\n\r\n    address Owner;\r\n\r\n    enum medicineStatus {\r\n        atManufacturer,\r\n        pickedForW,\r\n        pickedForD,\r\n        deliveredAtW,\r\n        deliveredAtD,\r\n        pickedForC,\r\n        deliveredAtC\r\n    }\r\n\r\n    bytes32 description;\r\n    address[] rawMaterials;\r\n    address[] transporters;\r\n    address manufacturer;\r\n    address wholesaler;\r\n    address distributor;\r\n    address customer;\r\n    uint quantity;\r\n    medicineStatus status;\r\n    address txnContractAddress;\r\n\r\n    event ShippmentUpdate(\r\n        address indexed BatchID,\r\n        address indexed Shipper,\r\n        address indexed Receiver,\r\n        uint TransporterType,\r\n        uint Status\r\n    );\r\n\r\n\r\n    constructor(\r\n        address _manufacturerAddr,\r\n        bytes32 _description,\r\n        address[] memory _rawAddr,\r\n        uint _quantity,\r\n        address[] memory _transporterAddr\r\n    )  {\r\n        Owner = _manufacturerAddr;\r\n        manufacturer = _manufacturerAddr;\r\n        description = _description;\r\n        rawMaterials = _rawAddr;\r\n        quantity = _quantity;\r\n        transporters = _transporterAddr;\r\n        wholesaler = address(0x0);\r\n        distributor = address(0x0);\r\n        status = medicineStatus(0);\r\n        Transactions txnContract = new Transactions(_manufacturerAddr);\r\n        txnContractAddress = address(txnContract);\r\n    }\r\n\r\n\r\n    function getMedicineInfo () public view returns(\r\n        address _manufacturerAddr,\r\n        bytes32 _description,\r\n        address[] memory _rawAddr,\r\n        uint _quantity,\r\n        address[] memory _transporterAddr,\r\n        address _distributor,\r\n        uint _status,\r\n        address _txnContract,\r\n        address _wholesaler\r\n    ) {\r\n        return(\r\n            manufacturer,\r\n            description,\r\n            rawMaterials,\r\n            quantity,\r\n            transporters,\r\n            distributor,\r\n            uint(status),\r\n            txnContractAddress,\r\n            wholesaler\r\n        );\r\n    }\r\n\r\n \r\n    function getWDC() public view returns(\r\n        address[3] memory WDP\r\n    ) {\r\n        return (\r\n            [wholesaler, distributor, customer]\r\n        );\r\n    }\r\n\r\n    function getBatchIDStatus() public view returns(\r\n        uint\r\n    ) {\r\n        return uint(status);\r\n    }\r\n\r\n\r\n    function pickMedicine(\r\n        address _transporterAddr\r\n    ) public {\r\n        require(\r\n            _transporterAddr == transporters[transporters.length - 1],\r\n            \"Only Transporter can call this function\"\r\n        );\r\n        require(\r\n            status == medicineStatus(0),\r\n            \"Package must be at Manufacturer.\"\r\n        );\r\n\r\n        if(wholesaler != address(0x0)){\r\n            status = medicineStatus(1);\r\n            emit ShippmentUpdate(address(this), _transporterAddr, wholesaler, 1, 1);\r\n        }else{\r\n            status = medicineStatus(2);\r\n            emit ShippmentUpdate(address(this), _transporterAddr, distributor, 1, 2);\r\n        }\r\n    }\r\n    \r\n    function updateTransporterArray(address _transporterAddr) public {\r\n        transporters.push(_transporterAddr);\r\n    }\r\n\r\n    function updateWholesalerAddress(address addr) public {\r\n        wholesaler = addr;\r\n    }\r\n\r\n    function updateDistributorAddress(address addr) public {\r\n        distributor = addr;\r\n    }\r\n\r\n    function receivedMedicine(\r\n        address _receiverAddr\r\n    ) public returns(uint) {\r\n\r\n        require(\r\n            _receiverAddr == wholesaler || _receiverAddr == distributor,\r\n            \"Only Wholesaler or Distributor can call this function\"\r\n        );\r\n\r\n        require(\r\n            uint(status) >= 1,\r\n            \"Product not picked up yet\"\r\n        );\r\n\r\n        if(_receiverAddr == wholesaler && status == medicineStatus(1)){\r\n            status = medicineStatus(3);\r\n            emit ShippmentUpdate(address(this), transporters[transporters.length - 1], wholesaler, 2, 3);\r\n            return 1;\r\n        } else if(_receiverAddr == distributor && status == medicineStatus(2)){\r\n            status = medicineStatus(4);\r\n            emit ShippmentUpdate(address(this), transporters[transporters.length - 1], distributor,3, 4);\r\n            return 2;\r\n        }\r\n    }\r\n\r\n\r\n    function sendWtoD(\r\n        address receiver,\r\n        address sender\r\n    ) public {\r\n        require(\r\n            wholesaler == sender,\r\n            \"this Wholesaler is not Associated.\"\r\n        );\r\n        distributor = receiver;\r\n        status = medicineStatus(2);\r\n    }\r\n\r\n\r\n    function receivedWtoD(\r\n        address receiver\r\n    ) public {\r\n        require(\r\n            distributor == receiver,\r\n            \"This Distributor is not Associated.\"\r\n        );\r\n        status = medicineStatus(4);\r\n    }\r\n\r\n\r\n    function sendDtoC(\r\n        address receiver,\r\n        address sender\r\n    ) public {\r\n        require(\r\n            distributor == sender,\r\n            \"This Distributor is not Associated.\"\r\n        );\r\n        customer = receiver;\r\n        status = medicineStatus(5);\r\n    }\r\n\r\n\r\n    function receivedDtoC(\r\n        address receiver\r\n    ) public {\r\n        require(\r\n            customer == receiver,\r\n            \"This Customer is not Associated.\"\r\n        );\r\n        status = medicineStatus(6);\r\n    }\r\n}",
  "sourcePath": "D:\\Quote\\MediChain\\contracts\\Medicine.sol",
  "compiler": {
    "name": "solc",
    "version": "0.8.13+commit.abaa5c0e.Emscripten.clang"
  },
  "schemaVersion": "3.4.16",
  "updatedAt": "2023-11-16T14:02:55.929Z",
  "devdoc": {
    "kind": "dev",
    "methods": {},
    "version": 1
  },
  "userdoc": {
    "kind": "user",
    "methods": {},
    "version": 1
  }
}