{
  "contractName": "MedicineD_C",
  "abi": [
    {
      "inputs": [
        {
          "internalType": "address",
          "name": "_address",
          "type": "address"
        },
        {
          "internalType": "address",
          "name": "Sender",
          "type": "address"
        },
        {
          "internalType": "address",
          "name": "Transporter",
          "type": "address"
        },
        {
          "internalType": "address",
          "name": "Receiver",
          "type": "address"
        }
      ],
      "stateMutability": "nonpayable",
      "type": "constructor"
    },
    {
      "inputs": [
        {
          "internalType": "address",
          "name": "_address",
          "type": "address"
        },
        {
          "internalType": "address",
          "name": "transporterAddr",
          "type": "address"
        }
      ],
      "name": "pickDC",
      "outputs": [],
      "stateMutability": "nonpayable",
      "type": "function"
    },
    {
      "inputs": [
        {
          "internalType": "address",
          "name": "_address",
          "type": "address"
        },
        {
          "internalType": "address",
          "name": "Receiver",
          "type": "address"
        }
      ],
      "name": "receiveDC",
      "outputs": [],
      "stateMutability": "nonpayable",
      "type": "function"
    },
    {
      "inputs": [],
      "name": "get_addressStatus",
      "outputs": [
        {
          "internalType": "uint256",
          "name": "",
          "type": "uint256"
        }
      ],
      "stateMutability": "view",
      "type": "function"
    }
  ],
  "bytecode": "0x608060405234801561001057600080fd5b5060405161090a38038061090a8339818101604052810190610032919061021f565b826000806101000a81548173ffffffffffffffffffffffffffffffffffffffff021916908373ffffffffffffffffffffffffffffffffffffffff16021790555083600160006101000a81548173ffffffffffffffffffffffffffffffffffffffff021916908373ffffffffffffffffffffffffffffffffffffffff16021790555082600260006101000a81548173ffffffffffffffffffffffffffffffffffffffff021916908373ffffffffffffffffffffffffffffffffffffffff16021790555081600360006101000a81548173ffffffffffffffffffffffffffffffffffffffff021916908373ffffffffffffffffffffffffffffffffffffffff16021790555080600460006101000a81548173ffffffffffffffffffffffffffffffffffffffff021916908373ffffffffffffffffffffffffffffffffffffffff1602179055506000600281111561018a57610189610286565b5b600460146101000a81548160ff021916908360028111156101ae576101ad610286565b5b0217905550505050506102b5565b600080fd5b600073ffffffffffffffffffffffffffffffffffffffff82169050919050565b60006101ec826101c1565b9050919050565b6101fc816101e1565b811461020757600080fd5b50565b600081519050610219816101f3565b92915050565b60008060008060808587031215610239576102386101bc565b5b60006102478782880161020a565b94505060206102588782880161020a565b93505060406102698782880161020a565b925050606061027a8782880161020a565b91505092959194509250565b7f4e487b7100000000000000000000000000000000000000000000000000000000600052602160045260246000fd5b610646806102c46000396000f3fe608060405234801561001057600080fd5b50600436106100415760003560e01c806353157b1a14610046578063c0114d0614610062578063f7addc3e14610080575b600080fd5b610060600480360381019061005b91906103e5565b61009c565b005b61006a61021e565b604051610077919061043e565b60405180910390f35b61009a600480360381019061009591906103e5565b610247565b005b8073ffffffffffffffffffffffffffffffffffffffff16600360009054906101000a900473ffffffffffffffffffffffffffffffffffffffff1673ffffffffffffffffffffffffffffffffffffffff161461012c576040517f08c379a0000000000000000000000000000000000000000000000000000000008152600401610123906104dc565b60405180910390fd5b600160028111156101405761013f6104fc565b5b600460146101000a81548160ff02191690836002811115610164576101636104fc565b5b02179055508173ffffffffffffffffffffffffffffffffffffffff16632f1d7588600460009054906101000a900473ffffffffffffffffffffffffffffffffffffffff16600260009054906101000a900473ffffffffffffffffffffffffffffffffffffffff166040518363ffffffff1660e01b81526004016101e892919061053a565b600060405180830381600087803b15801561020257600080fd5b505af1158015610216573d6000803e3d6000fd5b505050505050565b6000600460149054906101000a900460ff166002811115610242576102416104fc565b5b905090565b600460009054906101000a900473ffffffffffffffffffffffffffffffffffffffff1673ffffffffffffffffffffffffffffffffffffffff168173ffffffffffffffffffffffffffffffffffffffff16146102d7576040517f08c379a00000000000000000000000000000000000000000000000000000000081526004016102ce906105d5565b60405180910390fd5b6002808111156102ea576102e96104fc565b5b600460146101000a81548160ff0219169083600281111561030e5761030d6104fc565b5b02179055508173ffffffffffffffffffffffffffffffffffffffff1663c8f5f189826040518263ffffffff1660e01b815260040161034c91906105f5565b600060405180830381600087803b15801561036657600080fd5b505af115801561037a573d6000803e3d6000fd5b505050505050565b600080fd5b600073ffffffffffffffffffffffffffffffffffffffff82169050919050565b60006103b282610387565b9050919050565b6103c2816103a7565b81146103cd57600080fd5b50565b6000813590506103df816103b9565b92915050565b600080604083850312156103fc576103fb610382565b5b600061040a858286016103d0565b925050602061041b858286016103d0565b9150509250929050565b6000819050919050565b61043881610425565b82525050565b6000602082019050610453600083018461042f565b92915050565b600082825260208201905092915050565b7f4f6e6c79204173736f636961746564207472616e73706f727465722063616e2060008201527f63616c6c20746869732066756e6374696f6e2e00000000000000000000000000602082015250565b60006104c6603383610459565b91506104d18261046a565b604082019050919050565b600060208201905081810360008301526104f5816104b9565b9050919050565b7f4e487b7100000000000000000000000000000000000000000000000000000000600052602160045260246000fd5b610534816103a7565b82525050565b600060408201905061054f600083018561052b565b61055c602083018461052b565b9392505050565b7f4f6e6c79204173736f6369617465642072656365697665722063616e2063616c60008201527f6c20746869732066756e6374696f6e2e00000000000000000000000000000000602082015250565b60006105bf603083610459565b91506105ca82610563565b604082019050919050565b600060208201905081810360008301526105ee816105b2565b9050919050565b600060208201905061060a600083018461052b565b9291505056fea2646970667358221220c02e13de15e1ccc16c0280be8a477963592cba03c72c5a3316a7c7f50e515d0864736f6c634300080d0033",
  "immutableReferences": {},
  "source": "//SPDX-License-Identifier: MIT\r\npragma solidity >=0.4.22 <0.9.0;\r\nimport './Medicine.sol';\r\n\r\ncontract MedicineD_C {\r\n\r\n    address Owner;\r\n\r\n    enum packageStatus { atcreator, picked, delivered }\r\n\r\n    address medAddr;\r\n    address sender;\r\n    address transporter;\r\n    address receiver;\r\n    packageStatus status;\r\n\r\n    constructor(\r\n        address _address,\r\n        address Sender,\r\n        address Transporter,\r\n        address Receiver\r\n    )  {\r\n        Owner = Sender;\r\n        medAddr = _address;\r\n        sender = Sender;\r\n        transporter = Transporter;\r\n        receiver = Receiver;\r\n        status = packageStatus(0);\r\n    }\r\n\r\n    function pickDC(\r\n        address _address,\r\n        address transporterAddr\r\n    ) public {\r\n        require(\r\n            transporter == transporterAddr,\r\n            \"Only Associated transporter can call this function.\"\r\n        );\r\n        status = packageStatus(1);\r\n\r\n        Medicine(_address).sendDtoC(\r\n            receiver,\r\n            sender\r\n        );\r\n    }\r\n\r\n\r\n    function receiveDC(\r\n        address _address,\r\n        address Receiver\r\n    ) public {\r\n        require(\r\n            Receiver == receiver,\r\n            \"Only Associated receiver can call this function.\"\r\n        );\r\n        status = packageStatus(2);\r\n        Medicine(_address).receivedDtoC(\r\n            Receiver\r\n        );\r\n    }\r\n\r\n    function get_addressStatus() public view returns(\r\n        uint\r\n    ) {\r\n        return uint(status);\r\n    }\r\n\r\n}",
  "sourcePath": "D:\\Quote\\MediChain\\contracts\\MedicineD_C.sol",
  "compiler": {
    "name": "solc",
    "version": "0.8.13+commit.abaa5c0e.Emscripten.clang"
  },
  "schemaVersion": "3.4.16",
  "updatedAt": "2023-11-16T14:02:55.960Z",
  "devdoc": {
    "kind": "dev",
    "methods": {},
    "version": 1
  },
  "userdoc": {
    "kind": "user",
    "methods": {},
    "version": 1
  }
}