{
  "contractName": "RawMaterial",
  "abi": [
    {
      "inputs": [
        {
          "internalType": "address",
          "name": "_creatorAddr",
          "type": "address"
        },
        {
          "internalType": "address",
          "name": "_productid",
          "type": "address"
        },
        {
          "internalType": "bytes32",
          "name": "_description",
          "type": "bytes32"
        },
        {
          "internalType": "uint256",
          "name": "_quantity",
          "type": "uint256"
        },
        {
          "internalType": "address",
          "name": "_transporterAddr",
          "type": "address"
        },
        {
          "internalType": "address",
          "name": "_manufacturerAddr",
          "type": "address"
        }
      ],
      "stateMutability": "nonpayable",
      "type": "constructor"
    },
    {
      "anonymous": false,
      "inputs": [
        {
          "indexed": true,
          "internalType": "address",
          "name": "ProductID",
          "type": "address"
        },
        {
          "indexed": true,
          "internalType": "address",
          "name": "Transporter",
          "type": "address"
        },
        {
          "indexed": true,
          "internalType": "address",
          "name": "Manufacturer",
          "type": "address"
        },
        {
          "indexed": false,
          "internalType": "uint256",
          "name": "TransporterType",
          "type": "uint256"
        },
        {
          "indexed": false,
          "internalType": "uint256",
          "name": "Status",
          "type": "uint256"
        }
      ],
      "name": "ShippmentUpdate",
      "type": "event"
    },
    {
      "inputs": [],
      "name": "getSuppliedRawMaterials",
      "outputs": [
        {
          "internalType": "address",
          "name": "",
          "type": "address"
        },
        {
          "internalType": "bytes32",
          "name": "",
          "type": "bytes32"
        },
        {
          "internalType": "uint256",
          "name": "",
          "type": "uint256"
        },
        {
          "internalType": "address",
          "name": "",
          "type": "address"
        },
        {
          "internalType": "address",
          "name": "",
          "type": "address"
        },
        {
          "internalType": "address",
          "name": "",
          "type": "address"
        },
        {
          "internalType": "address",
          "name": "",
          "type": "address"
        }
      ],
      "stateMutability": "view",
      "type": "function"
    },
    {
      "inputs": [],
      "name": "getRawMaterialStatus",
      "outputs": [
        {
          "internalType": "uint256",
          "name": "",
          "type": "uint256"
        }
      ],
      "stateMutability": "view",
      "type": "function"
    },
    {
      "inputs": [
        {
          "internalType": "address",
          "name": "_transporterAddr",
          "type": "address"
        }
      ],
      "name": "pickPackage",
      "outputs": [],
      "stateMutability": "nonpayable",
      "type": "function"
    },
    {
      "inputs": [
        {
          "internalType": "address",
          "name": "_manufacturerAddr",
          "type": "address"
        }
      ],
      "name": "receivedPackage",
      "outputs": [],
      "stateMutability": "nonpayable",
      "type": "function"
    },
    {
      "inputs": [
        {
          "internalType": "address",
          "name": "addr",
          "type": "address"
        }
      ],
      "name": "updateManufacturerAddress",
      "outputs": [],
      "stateMutability": "nonpayable",
      "type": "function"
    }
  ],
  "bytecode": "0x608060405234801561001057600080fd5b5060405161125638038061125683398101604081905261002f91610123565b600080546001600160a01b03199081166001600160a01b0389811691821784556001805484168a8316179055600288905560038790556004805484168783161790556005805490931690851617909155600680546001600160a81b031916909117905560405182906100a0906100fa565b6001600160a01b039091168152602001604051809103906000f0801580156100cc573d6000803e3d6000fd5b50600880546001600160a01b0319166001600160a01b03929092169190911790555061018995505050505050565b610c518061060583390190565b80516001600160a01b038116811461011e57600080fd5b919050565b60008060008060008060c0878903121561013c57600080fd5b61014587610107565b955061015360208801610107565b9450604087015193506060870151925061016f60808801610107565b915061017d60a08801610107565b90509295509295509295565b61046d806101986000396000f3fe608060405234801561001057600080fd5b50600436106100575760003560e01c806350e073bc1461005c57806352b999681461008e578063638e9a3d146100a15780636b099dca146100b457806380723520146100cf575b600080fd5b61008c61006a3660046103d1565b600580546001600160a01b0319166001600160a01b0392909216919091179055565b005b61008c61009c3660046103d1565b61012a565b61008c6100af3660046103d1565b610273565b6100bc6103ab565b6040519081526020015b60405180910390f35b600154600254600354600654600454600554600854604080516001600160a01b0398891681526020810197909752860194909452918516606085015284166080840152831660a08301529190911660c082015260e0016100c6565b6005546001600160a01b038281169116146101ae5760405162461bcd60e51b815260206004820152603960248201527f4f6e6c79204d616e756661637475726572206f6620746865207061636b6167656044820152782063616e20726563656965766520746865207061636b61676560381b60648201526084015b60405180910390fd5b6001600654600160a01b900460ff1660028111156101ce576101ce610401565b146102175760405162461bcd60e51b8152602060048201526019602482015278141c9bd91d58dd081b9bdd081c1a58dad959081d5c081e595d603a1b60448201526064016101a5565b6006805460ff60a01b1916600160a11b1790556005546004546001805460408051928352600260208401526001600160a01b0394851694938416939091169160008051602061041883398151915291015b60405180910390a450565b6004546001600160a01b038281169116146102e95760405162461bcd60e51b815260206004820152603060248201527f4f6e6c79207472616e73706f72746572206f6620746865207061636b6167652060448201526f63616e207069636b207061636b61676560801b60648201526084016101a5565b6000600654600160a01b900460ff16600281111561030957610309610401565b146103555760405162461bcd60e51b815260206004820152601c60248201527b2830b1b5b0b3b29036bab9ba1031329030ba1029bab8383634b2b91760211b60448201526064016101a5565b6006805460ff60a01b1916600160a01b179055600554600454600180546040805183815260208101939093526001600160a01b039485169493841693909116916000805160206104188339815191529101610268565b600654600090600160a01b900460ff1660028111156103cc576103cc610401565b905090565b6000602082840312156103e357600080fd5b81356001600160a01b03811681146103fa57600080fd5b9392505050565b634e487b7160e01b600052602160045260246000fdfe7e89c4b1a4e2b51aae84eb1f90e8a34cb792ece5ac5cb63db4830c891220b28da2646970667358221220d06749703c925cff0203e081993c2cc1bef024dc9f1b62820aa574864bd90b6b64736f6c634300080d00336080604052600060025534801561001557600080fd5b50604051610c51380380610c5183398101604081905261003491610059565b600080546001600160a01b0319166001600160a01b0392909216919091179055610089565b60006020828403121561006b57600080fd5b81516001600160a01b038116811461008257600080fd5b9392505050565b610bb9806100986000396000f3fe608060405234801561001057600080fd5b506004361061004c5760003560e01c806327506f53146100515780633626a3681461006f57806378ce1365146100845780639ace38c21461009b575b600080fd5b6100596100c1565b60405161006691906107dd565b60405180910390f35b61008261007d366004610966565b61030f565b005b61008d60025481565b604051908152602001610066565b6100ae6100a93660046109fc565b61059d565b6040516100669796959493929190610a15565b6002546060906000816001600160401b038111156100e1576100e16108c4565b60405190808252806020026020018201604052801561014757816020015b6040805160e0810182526000808252602080830182905292820181905260608083018290526080830181905260a083015260c082015282526000199092019101816100ff5790505b50905060005b8281101561030857600081815260016020818152604092839020835160e08101855281548152928101546001600160a01b0390811692840192909252600281015490911692820192909252600382015460608201526004820180549192916080840191906101ba90610a75565b80601f01602080910402602001604051908101604052809291908181526020018280546101e690610a75565b80156102335780601f1061020857610100808354040283529160200191610233565b820191906000526020600020905b81548152906001019060200180831161021657829003601f168201915b5050505050815260200160058201805461024c90610a75565b80601f016020809104026020016040519081016040528092919081815260200182805461027890610a75565b80156102c55780601f1061029a576101008083540402835291602001916102c5565b820191906000526020600020905b8154815290600101906020018083116102a857829003601f168201915b505050505081526020016006820154815250508282815181106102ea576102ea610aaf565b6020026020010181905250808061030090610adb565b91505061014d565b5092915050565b60025442906000036103f1576040805160e0810182528881526001600160a01b038089166020808401918252898316848601908152606085018a8152608086018a815260a087018a905260c08701899052600280546000908152600180875299902088518155955198860180549988166001600160a01b03199a8b161790559251928501805493909616929097169190911790935591516003820155925180519293926103c292600485019201906106f7565b5060a082015180516103de9160058401916020909101906106f7565b5060c08201518160060155905050610538565b836001600060016002546104059190610af4565b815260200190815260200160002060000154146104665760405162461bcd60e51b815260206004820152601b60248201527a5472616e73616374696f6e206572726f72206f636375727265642160281b604482015260640160405180910390fd5b6040805160e0810182528881526001600160a01b038089166020808401918252898316848601908152606085018a8152608086018a815260a087018a905260c08701899052600280546000908152600180875299902088518155955198860180549988166001600160a01b03199a8b1617905592519285018054939096169290971691909117909355915160038201559251805192939261050d92600485019201906106f7565b5060a082015180516105299160058401916020909101906106f7565b5060c082015181600601559050505b60016002600082825461054b9190610b0b565b90915550506040517f30d01d358fb0899fe4d50947b2e9301c952d9eed09b14c7ecdcbeed4434557c49061058c90899089908990899087908a908a90610b23565b60405180910390a150505050505050565b6001602081905260009182526040909120805491810154600282015460038301546004840180546001600160a01b0394851695949093169391926105e090610a75565b80601f016020809104026020016040519081016040528092919081815260200182805461060c90610a75565b80156106595780601f1061062e57610100808354040283529160200191610659565b820191906000526020600020905b81548152906001019060200180831161063c57829003601f168201915b50505050509080600501805461066e90610a75565b80601f016020809104026020016040519081016040528092919081815260200182805461069a90610a75565b80156106e75780601f106106bc576101008083540402835291602001916106e7565b820191906000526020600020905b8154815290600101906020018083116106ca57829003601f168201915b5050505050908060060154905087565b82805461070390610a75565b90600052602060002090601f016020900481019282610725576000855561076b565b82601f1061073e57805160ff191683800117855561076b565b8280016001018555821561076b579182015b8281111561076b578251825591602001919060010190610750565b5061077792915061077b565b5090565b5b80821115610777576000815560010161077c565b6000815180845260005b818110156107b65760208185018101518683018201520161079a565b818111156107c8576000602083870101525b50601f01601f19169290920160200192915050565b60006020808301818452808551808352604092508286019150828160051b87010184880160005b8381101561089a57888303603f19018552815180518452878101516001600160a01b03908116898601528782015116878501526060808201519085015260808082015160e0828701819052919061085d83880182610790565b9250505060a080830151868303828801526108788382610790565b60c0948501519790940196909652505094870194925090860190600101610804565b509098975050505050505050565b80356001600160a01b03811681146108bf57600080fd5b919050565b634e487b7160e01b600052604160045260246000fd5b600082601f8301126108eb57600080fd5b81356001600160401b0380821115610905576109056108c4565b604051601f8301601f19908116603f0116810190828211818310171561092d5761092d6108c4565b8160405283815286602085880101111561094657600080fd5b836020870160208301376000602085830101528094505050505092915050565b60008060008060008060c0878903121561097f57600080fd5b8635955061098f602088016108a8565b945061099d604088016108a8565b93506060870135925060808701356001600160401b03808211156109c057600080fd5b6109cc8a838b016108da565b935060a08901359150808211156109e257600080fd5b506109ef89828a016108da565b9150509295509295509295565b600060208284031215610a0e57600080fd5b5035919050565b8781526001600160a01b038781166020830152861660408201526060810185905260e060808201819052600090610a4e90830186610790565b82810360a0840152610a608186610790565b9150508260c083015298975050505050505050565b600181811c90821680610a8957607f821691505b602082108103610aa957634e487b7160e01b600052602260045260246000fd5b50919050565b634e487b7160e01b600052603260045260246000fd5b634e487b7160e01b600052601160045260246000fd5b600060018201610aed57610aed610ac5565b5060010190565b600082821015610b0657610b06610ac5565b500390565b60008219821115610b1e57610b1e610ac5565b500190565b8781526001600160a01b03878116602083015286166040820152606081018590526080810184905260e060a08201819052600090610b6390830185610790565b82810360c0840152610b758185610790565b9a995050505050505050505056fea26469706673582212206e28ea17ac6ed2d33eece4179e36699b5ab652145c68ee5fbbe16789259328f364736f6c634300080d0033",
  "immutableReferences": {},
  "source": "//SPDX-License-Identifier: MIT\r\npragma solidity >=0.4.22 <0.9.0;\r\npragma experimental ABIEncoderV2;\r\n\r\nimport './Transactions.sol';\r\n\r\ncontract RawMaterial {\r\n    \r\n    address Owner;\r\n\r\n    enum packageStatus { atCreator, picked, delivered }\r\n    \r\n    event ShippmentUpdate(\r\n        address indexed ProductID,\r\n        address indexed Transporter,\r\n        address indexed Manufacturer,\r\n        uint TransporterType,\r\n        uint Status\r\n    );\r\n\r\n    address productid;\r\n    bytes32 description;\r\n    uint quantity;\r\n    address transporter;\r\n    address manufacturer;\r\n    address supplier;\r\n    packageStatus status;\r\n    bytes32 packageReceiverDescription;\r\n    address txnContractAddress;\r\n    \r\n    constructor (\r\n        address _creatorAddr,\r\n        address _productid,\r\n        bytes32 _description,\r\n        uint _quantity,\r\n        address _transporterAddr,\r\n        address _manufacturerAddr\r\n    )  {\r\n        Owner = _creatorAddr;\r\n        productid = _productid;\r\n        description = _description;\r\n        quantity = _quantity;\r\n        transporter = _transporterAddr;\r\n        manufacturer = _manufacturerAddr;\r\n        supplier = _creatorAddr;\r\n        status = packageStatus(0);\r\n        Transactions txnContract = new Transactions(_manufacturerAddr);\r\n        txnContractAddress = address(txnContract);\r\n    }\r\n\r\n\r\n    function getSuppliedRawMaterials () public view returns(\r\n        address,\r\n        bytes32,\r\n        uint,\r\n        address,\r\n        address,\r\n        address,\r\n        address\r\n    ) {\r\n        return (productid, description, quantity, supplier, transporter, manufacturer, txnContractAddress);\r\n    }\r\n\r\n\r\n\r\n    function getRawMaterialStatus() public view returns(\r\n        uint\r\n    ) {\r\n        return uint(status);\r\n    }\r\n\r\n\r\n\r\n    function pickPackage(\r\n        address _transporterAddr\r\n    ) public {\r\n        require(\r\n            _transporterAddr == transporter,\r\n            \"Only transporter of the package can pick package\"\r\n        );\r\n        require(\r\n            status == packageStatus(0),\r\n            \"Package must be at Supplier.\"\r\n        );\r\n        status = packageStatus(1);\r\n        emit ShippmentUpdate(productid, transporter, manufacturer, 1, 1);\r\n    }\r\n\r\n    \r\n    function receivedPackage(\r\n        address _manufacturerAddr\r\n    ) public {\r\n\r\n        require(\r\n            _manufacturerAddr == manufacturer,\r\n            \"Only Manufacturer of the package can receieve the package\"\r\n        );\r\n\r\n        require(\r\n            status == packageStatus(1),\r\n            \"Product not picked up yet\"\r\n        );\r\n        status = packageStatus(2);\r\n        emit ShippmentUpdate(productid, transporter, manufacturer, 1, 2);\r\n    }\r\n     function updateManufacturerAddress(address addr) public {\r\n        manufacturer = addr;\r\n    }\r\n}",
  "sourcePath": "D:\\Quote\\MediChain\\contracts\\RawMaterial.sol",
  "compiler": {
    "name": "solc",
    "version": "0.8.13+commit.abaa5c0e.Emscripten.clang"
  },
  "schemaVersion": "3.4.16",
  "updatedAt": "2023-11-19T03:21:44.952Z",
  "devdoc": {
    "kind": "dev",
    "methods": {},
    "version": 1
  },
  "userdoc": {
    "kind": "user",
    "methods": {},
    "version": 1
  }
}