{
  "contractName": "SupplyChain",
  "abi": [
    {
      "inputs": [],
      "stateMutability": "nonpayable",
      "type": "constructor"
    },
    {
      "anonymous": false,
      "inputs": [
        {
          "indexed": true,
          "internalType": "address",
          "name": "_address",
          "type": "address"
        },
        {
          "indexed": false,
          "internalType": "bytes32",
          "name": "name",
          "type": "bytes32"
        }
      ],
      "name": "UserRegister",
      "type": "event"
    },
    {
      "anonymous": false,
      "inputs": [
        {
          "indexed": false,
          "internalType": "address",
          "name": "buyer",
          "type": "address"
        },
        {
          "indexed": true,
          "internalType": "address",
          "name": "seller",
          "type": "address"
        },
        {
          "indexed": false,
          "internalType": "address",
          "name": "packageAddr",
          "type": "address"
        },
        {
          "indexed": false,
          "internalType": "bytes",
          "name": "signature",
          "type": "bytes"
        },
        {
          "indexed": true,
          "internalType": "uint256",
          "name": "timestamp",
          "type": "uint256"
        }
      ],
      "name": "buyEvent",
      "type": "event"
    },
    {
      "anonymous": false,
      "inputs": [
        {
          "indexed": true,
          "internalType": "address",
          "name": "buyer",
          "type": "address"
        },
        {
          "indexed": false,
          "internalType": "address",
          "name": "seller",
          "type": "address"
        },
        {
          "indexed": false,
          "internalType": "address",
          "name": "packageAddr",
          "type": "address"
        },
        {
          "indexed": false,
          "internalType": "bytes",
          "name": "signature",
          "type": "bytes"
        },
        {
          "indexed": true,
          "internalType": "uint256",
          "name": "timestamp",
          "type": "uint256"
        }
      ],
      "name": "receivedEvent",
      "type": "event"
    },
    {
      "anonymous": false,
      "inputs": [
        {
          "indexed": true,
          "internalType": "address",
          "name": "buyer",
          "type": "address"
        },
        {
          "indexed": false,
          "internalType": "address",
          "name": "seller",
          "type": "address"
        },
        {
          "indexed": false,
          "internalType": "address",
          "name": "packageAddr",
          "type": "address"
        },
        {
          "indexed": false,
          "internalType": "bytes",
          "name": "signature",
          "type": "bytes"
        },
        {
          "indexed": true,
          "internalType": "uint256",
          "name": "timestamp",
          "type": "uint256"
        }
      ],
      "name": "respondEvent",
      "type": "event"
    },
    {
      "anonymous": false,
      "inputs": [
        {
          "indexed": false,
          "internalType": "address",
          "name": "seller",
          "type": "address"
        },
        {
          "indexed": false,
          "internalType": "address",
          "name": "buyer",
          "type": "address"
        },
        {
          "indexed": true,
          "internalType": "address",
          "name": "packageAddr",
          "type": "address"
        },
        {
          "indexed": false,
          "internalType": "bytes",
          "name": "signature",
          "type": "bytes"
        },
        {
          "indexed": true,
          "internalType": "uint256",
          "name": "timestamp",
          "type": "uint256"
        }
      ],
      "name": "sendEvent",
      "type": "event"
    },
    {
      "inputs": [],
      "name": "Owner",
      "outputs": [
        {
          "internalType": "address",
          "name": "",
          "type": "address"
        }
      ],
      "stateMutability": "view",
      "type": "function",
      "constant": true
    },
    {
      "inputs": [
        {
          "internalType": "bytes32",
          "name": "_description",
          "type": "bytes32"
        },
        {
          "internalType": "uint256",
          "name": "_quantity",
          "type": "uint256"
        },
        {
          "internalType": "address",
          "name": "_transporterAddr",
          "type": "address"
        },
        {
          "internalType": "address",
          "name": "_manufacturerAddr",
          "type": "address"
        }
      ],
      "name": "createRawMaterialPackage",
      "outputs": [],
      "stateMutability": "nonpayable",
      "type": "function"
    },
    {
      "inputs": [],
      "name": "getAllPackages",
      "outputs": [
        {
          "internalType": "address[]",
          "name": "",
          "type": "address[]"
        }
      ],
      "stateMutability": "view",
      "type": "function",
      "constant": true
    },
    {
      "inputs": [],
      "name": "getNoOfPackagesOfSupplier",
      "outputs": [
        {
          "internalType": "uint256",
          "name": "",
          "type": "uint256"
        }
      ],
      "stateMutability": "view",
      "type": "function",
      "constant": true
    },
    {
      "inputs": [
        {
          "internalType": "address",
          "name": "_addr",
          "type": "address"
        },
        {
          "internalType": "uint256",
          "name": "transportertype",
          "type": "uint256"
        },
        {
          "internalType": "address",
          "name": "cid",
          "type": "address"
        }
      ],
      "name": "handlePackage",
      "outputs": [],
      "stateMutability": "nonpayable",
      "type": "function"
    },
    {
      "inputs": [
        {
          "internalType": "address",
          "name": "",
          "type": "address"
        },
        {
          "internalType": "uint256",
          "name": "",
          "type": "uint256"
        }
      ],
      "name": "supplierRawMaterials",
      "outputs": [
        {
          "internalType": "address",
          "name": "",
          "type": "address"
        }
      ],
      "stateMutability": "view",
      "type": "function",
      "constant": true
    },
    {
      "inputs": [
        {
          "internalType": "address",
          "name": "",
          "type": "address"
        }
      ],
      "name": "userInfo",
      "outputs": [
        {
          "internalType": "bytes32",
          "name": "name",
          "type": "bytes32"
        },
        {
          "internalType": "enum SupplyChain.roles",
          "name": "role",
          "type": "uint8"
        },
        {
          "internalType": "address",
          "name": "userAddr",
          "type": "address"
        }
      ],
      "stateMutability": "view",
      "type": "function",
      "constant": true
    },
    {
      "inputs": [
        {
          "internalType": "address",
          "name": "buyer",
          "type": "address"
        },
        {
          "internalType": "address",
          "name": "seller",
          "type": "address"
        },
        {
          "internalType": "address",
          "name": "packageAddr",
          "type": "address"
        },
        {
          "internalType": "bytes",
          "name": "signature",
          "type": "bytes"
        }
      ],
      "name": "requestProduct",
      "outputs": [],
      "stateMutability": "nonpayable",
      "type": "function"
    },
    {
      "inputs": [
        {
          "internalType": "address",
          "name": "buyer",
          "type": "address"
        },
        {
          "internalType": "address",
          "name": "seller",
          "type": "address"
        },
        {
          "internalType": "address",
          "name": "packageAddr",
          "type": "address"
        },
        {
          "internalType": "bytes",
          "name": "signature",
          "type": "bytes"
        }
      ],
      "name": "respondToEntity",
      "outputs": [],
      "stateMutability": "nonpayable",
      "type": "function"
    },
    {
      "inputs": [
        {
          "internalType": "address",
          "name": "buyer",
          "type": "address"
        },
        {
          "internalType": "address",
          "name": "seller",
          "type": "address"
        },
        {
          "internalType": "address",
          "name": "packageAddr",
          "type": "address"
        },
        {
          "internalType": "bytes",
          "name": "signature",
          "type": "bytes"
        }
      ],
      "name": "sendPackageToEntity",
      "outputs": [],
      "stateMutability": "nonpayable",
      "type": "function"
    },
    {
      "inputs": [
        {
          "internalType": "bytes32",
          "name": "_name",
          "type": "bytes32"
        },
        {
          "internalType": "string[]",
          "name": "loc",
          "type": "string[]"
        },
        {
          "internalType": "uint256",
          "name": "_role",
          "type": "uint256"
        },
        {
          "internalType": "address",
          "name": "_addr",
          "type": "address"
        }
      ],
      "name": "registerUser",
      "outputs": [
        {
          "internalType": "string",
          "name": "",
          "type": "string"
        }
      ],
      "stateMutability": "nonpayable",
      "type": "function"
    },
    {
      "inputs": [
        {
          "internalType": "uint256",
          "name": "_role",
          "type": "uint256"
        },
        {
          "internalType": "address",
          "name": "_addr",
          "type": "address"
        }
      ],
      "name": "changeUserRole",
      "outputs": [
        {
          "internalType": "string",
          "name": "",
          "type": "string"
        }
      ],
      "stateMutability": "nonpayable",
      "type": "function"
    },
    {
      "inputs": [
        {
          "internalType": "address",
          "name": "_addr",
          "type": "address"
        }
      ],
      "name": "getUser",
      "outputs": [
        {
          "internalType": "bytes32",
          "name": "",
          "type": "bytes32"
        },
        {
          "internalType": "string[]",
          "name": "",
          "type": "string[]"
        },
        {
          "internalType": "uint256",
          "name": "",
          "type": "uint256"
        },
        {
          "internalType": "address",
          "name": "",
          "type": "address"
        }
      ],
      "stateMutability": "view",
      "type": "function",
      "constant": true
    },
    {
      "inputs": [
        {
          "internalType": "bytes32",
          "name": "_description",
          "type": "bytes32"
        },
        {
          "internalType": "uint256",
          "name": "_quantity",
          "type": "uint256"
        },
        {
          "internalType": "address",
          "name": "_transporterAddr",
          "type": "address"
        },
        {
          "internalType": "address",
          "name": "_manufacturerAddr",
          "type": "address"
        }
      ],
      "name": "supplierCreatesRawPackage",
      "outputs": [],
      "stateMutability": "nonpayable",
      "type": "function"
    },
    {
      "inputs": [],
      "name": "supplierGetPackageCount",
      "outputs": [
        {
          "internalType": "uint256",
          "name": "",
          "type": "uint256"
        }
      ],
      "stateMutability": "view",
      "type": "function",
      "constant": true
    },
    {
      "inputs": [],
      "name": "supplierGetRawMaterialAddresses",
      "outputs": [
        {
          "internalType": "address[]",
          "name": "",
          "type": "address[]"
        }
      ],
      "stateMutability": "view",
      "type": "function",
      "constant": true
    },
    {
      "inputs": [
        {
          "internalType": "address",
          "name": "p",
          "type": "address"
        },
        {
          "internalType": "bytes32",
          "name": "hash",
          "type": "bytes32"
        },
        {
          "internalType": "uint8",
          "name": "v",
          "type": "uint8"
        },
        {
          "internalType": "bytes32",
          "name": "r",
          "type": "bytes32"
        },
        {
          "internalType": "bytes32",
          "name": "s",
          "type": "bytes32"
        }
      ],
      "name": "verify",
      "outputs": [
        {
          "internalType": "bool",
          "name": "",
          "type": "bool"
        }
      ],
      "stateMutability": "pure",
      "type": "function",
      "constant": true
    },
    {
      "inputs": [
        {
          "internalType": "address",
          "name": "_address",
          "type": "address"
        },
        {
          "internalType": "uint256",
          "name": "transporterType",
          "type": "uint256"
        },
        {
          "internalType": "address",
          "name": "cid",
          "type": "address"
        }
      ],
      "name": "transporterHandlePackage",
      "outputs": [],
      "stateMutability": "nonpayable",
      "type": "function"
    }
  ],
  "bytecode": "0x608060405234801561001057600080fd5b5033600160006101000a81548173ffffffffffffffffffffffffffffffffffffffff021916908373ffffffffffffffffffffffffffffffffffffffff160217905550614cae806100616000396000f3fe60806040523480156200001157600080fd5b5060043610620001305760003560e01c80639100978611620000b1578063c22470ea116200007b578063c22470ea1462000364578063d06f7b551462000386578063d1acb52714620003a6578063e0cf92fe14620003c8578063fc7e01f314620003e85762000130565b80639100978614620002cc578063b4a99a4e1462000302578063b8b16ca31462000324578063be7ef9c014620003445762000130565b80631f90ddaf11620000ff5780631f90ddaf14620001e5578063506535f3146200021b5780636f41507c14620002515780636f77926b1462000271578063824e43e714620002aa5762000130565b806306db832414620001355780630a421f0f146200016b57806311789ca6146200018d5780631959a00214620001ad575b600080fd5b6200015360048036038101906200014d91906200175e565b62000408565b604051620001629190620017b6565b60405180910390f35b6200017562000457565b604051620001849190620018a1565b60405180910390f35b620001ab6004803603810190620001a5919062001900565b620005e9565b005b620001cb6004803603810190620001c5919062001972565b620006bc565b604051620001dc9392919062001a35565b60405180910390f35b620002036004803603810190620001fd919062001cd0565b62000713565b60405162000212919062001df4565b60405180910390f35b62000239600480360381019062000233919062001e56565b620009a3565b60405162000248919062001efb565b60405180910390f35b6200026f600480360381019062000269919062001f18565b62000a30565b005b6200028f600480360381019062000289919062001972565b62000c2f565b604051620002a19493929190620020a7565b60405180910390f35b620002b462000f15565b604051620002c39190620018a1565b60405180910390f35b620002ea6004803603810190620002e49190620020fb565b62000f2c565b604051620002f9919062001df4565b60405180910390f35b6200030c62001049565b6040516200031b9190620017b6565b60405180910390f35b6200034260048036038101906200033c9190620021f6565b6200106f565b005b6200036260048036038101906200035c919062001f18565b620010ca565b005b6200036e620011e1565b6040516200037d919062002287565b60405180910390f35b620003a460048036038101906200039e9190620021f6565b6200122a565b005b620003b062001285565b604051620003bf919062002287565b60405180910390f35b620003e66004803603810190620003e09190620021f6565b62001355565b005b62000406600480360381019062000400919062001900565b620013b0565b005b600060205281600052604060002081815481106200042557600080fd5b906000526020600020016000915091509054906101000a900473ffffffffffffffffffffffffffffffffffffffff1681565b606060008060003373ffffffffffffffffffffffffffffffffffffffff1673ffffffffffffffffffffffffffffffffffffffff16815260200190815260200160002080549050905060008167ffffffffffffffff811115620004be57620004bd62001a88565b5b604051908082528060200260200182016040528015620004ed5781602001602082028036833780820191505090505b50905060005b82811015620005e0576000803373ffffffffffffffffffffffffffffffffffffffff1673ffffffffffffffffffffffffffffffffffffffff16815260200190815260200160002081815481106200054f576200054e620022a4565b5b9060005260206000200160009054906101000a900473ffffffffffffffffffffffffffffffffffffffff1682828151811062000590576200058f620022a4565b5b602002602001019073ffffffffffffffffffffffffffffffffffffffff16908173ffffffffffffffffffffffffffffffffffffffff16815250508080620005d79062002302565b915050620004f3565b50809250505090565b600160068111156200060057620005ff620019b5565b5b600260003373ffffffffffffffffffffffffffffffffffffffff1673ffffffffffffffffffffffffffffffffffffffff16815260200190815260200160002060020160009054906101000a900460ff166006811115620006655762000664620019b5565b5b14620006a8576040517f08c379a00000000000000000000000000000000000000000000000000000000081526004016200069f90620023c5565b60405180910390fd5b620006b684848484620013b0565b50505050565b60026020528060005260406000206000915090508060000154908060020160009054906101000a900460ff16908060020160019054906101000a900473ffffffffffffffffffffffffffffffffffffffff16905083565b60603373ffffffffffffffffffffffffffffffffffffffff16600160009054906101000a900473ffffffffffffffffffffffffffffffffffffffff1673ffffffffffffffffffffffffffffffffffffffff16146200077057600080fd5b84600260008473ffffffffffffffffffffffffffffffffffffffff1673ffffffffffffffffffffffffffffffffffffffff1681526020019081526020016000206000018190555083600260008473ffffffffffffffffffffffffffffffffffffffff1673ffffffffffffffffffffffffffffffffffffffff16815260200190815260200160002060010190805190602001906200080f92919062001517565b50826006811115620008265762000825620019b5565b5b600260008473ffffffffffffffffffffffffffffffffffffffff1673ffffffffffffffffffffffffffffffffffffffff16815260200190815260200160002060020160006101000a81548160ff021916908360068111156200088d576200088c620019b5565b5b021790555081600260008473ffffffffffffffffffffffffffffffffffffffff1673ffffffffffffffffffffffffffffffffffffffff16815260200190815260200160002060020160016101000a81548173ffffffffffffffffffffffffffffffffffffffff021916908373ffffffffffffffffffffffffffffffffffffffff1602179055508173ffffffffffffffffffffffffffffffffffffffff167f33a7170f028b1e4f5ba321064a00ed820856a920c7f9c6636fbcf385427b1b0f866040516200095b9190620023e7565b60405180910390a26040518060400160405280601081526020017f55736572205265676973746572656421000000000000000000000000000000008152509050949350505050565b60008573ffffffffffffffffffffffffffffffffffffffff1660018686868660405160008152602001604052604051620009e1949392919062002415565b6020604051602081039080840390855afa15801562000a04573d6000803e3d6000fd5b5050506020604051035173ffffffffffffffffffffffffffffffffffffffff1614905095945050505050565b6001820362000aae578273ffffffffffffffffffffffffffffffffffffffff1663638e9a3d336040518263ffffffff1660e01b815260040162000a749190620017b6565b600060405180830381600087803b15801562000a8f57600080fd5b505af115801562000aa4573d6000803e3d6000fd5b5050505062000c2a565b6002820362000b2c578273ffffffffffffffffffffffffffffffffffffffff1663ac42a415336040518263ffffffff1660e01b815260040162000af29190620017b6565b600060405180830381600087803b15801562000b0d57600080fd5b505af115801562000b22573d6000803e3d6000fd5b5050505062000c29565b6003820362000bac578073ffffffffffffffffffffffffffffffffffffffff1663443c28d884336040518363ffffffff1660e01b815260040162000b7292919062002462565b600060405180830381600087803b15801562000b8d57600080fd5b505af115801562000ba2573d6000803e3d6000fd5b5050505062000c28565b6004820362000c27578073ffffffffffffffffffffffffffffffffffffffff166353157b1a84336040518363ffffffff1660e01b815260040162000bf292919062002462565b600060405180830381600087803b15801562000c0d57600080fd5b505af115801562000c22573d6000803e3d6000fd5b505050505b5b5b5b505050565b60006060600080600073ffffffffffffffffffffffffffffffffffffffff16600260008773ffffffffffffffffffffffffffffffffffffffff1673ffffffffffffffffffffffffffffffffffffffff16815260200190815260200160002060020160019054906101000a900473ffffffffffffffffffffffffffffffffffffffff1673ffffffffffffffffffffffffffffffffffffffff160362000d0a576040517f08c379a000000000000000000000000000000000000000000000000000000000815260040162000d0190620024df565b60405180910390fd5b6000600260008773ffffffffffffffffffffffffffffffffffffffff1673ffffffffffffffffffffffffffffffffffffffff1681526020019081526020016000206040518060800160405290816000820154815260200160018201805480602002602001604051908101604052809291908181526020016000905b8282101562000e3b57838290600052602060002001805462000da79062002530565b80601f016020809104026020016040519081016040528092919081815260200182805462000dd59062002530565b801562000e265780601f1062000dfa5761010080835404028352916020019162000e26565b820191906000526020600020905b81548152906001019060200180831162000e0857829003601f168201915b50505050508152602001906001019062000d85565b5050505081526020016002820160009054906101000a900460ff16600681111562000e6b5762000e6a620019b5565b5b600681111562000e805762000e7f620019b5565b5b81526020016002820160019054906101000a900473ffffffffffffffffffffffffffffffffffffffff1673ffffffffffffffffffffffffffffffffffffffff1673ffffffffffffffffffffffffffffffffffffffff16815250509050806000015181602001518260400151600681111562000f005762000eff620019b5565b5b83606001519450945094509450509193509193565b6060600062000f2362000457565b90508091505090565b60603373ffffffffffffffffffffffffffffffffffffffff16600160009054906101000a900473ffffffffffffffffffffffffffffffffffffffff1673ffffffffffffffffffffffffffffffffffffffff161462000f8957600080fd5b82600681111562000f9f5762000f9e620019b5565b5b600260008473ffffffffffffffffffffffffffffffffffffffff1673ffffffffffffffffffffffffffffffffffffffff16815260200190815260200160002060020160006101000a81548160ff02191690836006811115620010065762001005620019b5565b5b02179055506040518060400160405280600d81526020017f526f6c6520557064617465642100000000000000000000000000000000000000815250905092915050565b600160009054906101000a900473ffffffffffffffffffffffffffffffffffffffff1681565b428373ffffffffffffffffffffffffffffffffffffffff167f22561ca0666e99052dd8231a6c5c337204ed5658c357aa6afcd53c207acfac67868585604051620010bc93929190620025c2565b60405180910390a350505050565b60026006811115620010e157620010e0620019b5565b5b600260003373ffffffffffffffffffffffffffffffffffffffff1673ffffffffffffffffffffffffffffffffffffffff16815260200190815260200160002060020160009054906101000a900460ff166006811115620011465762001145620019b5565b5b1462001189576040517f08c379a000000000000000000000000000000000000000000000000000000000815260040162001180906200267c565b60405180910390fd5b60008211620011cf576040517f08c379a0000000000000000000000000000000000000000000000000000000008152600401620011c690620026ee565b60405180910390fd5b620011dc83838362000a30565b505050565b60008060003373ffffffffffffffffffffffffffffffffffffffff1673ffffffffffffffffffffffffffffffffffffffff16815260200190815260200160002080549050905090565b428273ffffffffffffffffffffffffffffffffffffffff167f31f87de04fd141167b8131be7a8ccb2bac63361a15671c96d90c39ddc9ef909d8587856040516200127793929190620025c2565b60405180910390a350505050565b6000600160068111156200129e576200129d620019b5565b5b600260003373ffffffffffffffffffffffffffffffffffffffff1673ffffffffffffffffffffffffffffffffffffffff16815260200190815260200160002060020160009054906101000a900460ff166006811115620013035762001302620019b5565b5b1462001346576040517f08c379a00000000000000000000000000000000000000000000000000000000081526004016200133d90620023c5565b60405180910390fd5b62001350620011e1565b905090565b428473ffffffffffffffffffffffffffffffffffffffff167f9151271dfe612a18bf915ee1609e6f94f62fd775c704a0ae2ef091519f0c9b39858585604051620013a293929190620025c2565b60405180910390a350505050565b60003360023342604051602001620013ca92919062002785565b604051602081830303815290604052604051620013e89190620027f7565b602060405180830381855afa15801562001406573d6000803e3d6000fd5b5050506040513d601f19601f820116820180604052508101906200142b919062002827565b60601c8686868660405162001440906200157e565b620014519695949392919062002859565b604051809103906000f0801580156200146e573d6000803e3d6000fd5b5090506000803373ffffffffffffffffffffffffffffffffffffffff1673ffffffffffffffffffffffffffffffffffffffff168152602001908152602001600020819080600181540180825580915050600190039060005260206000200160009091909190916101000a81548173ffffffffffffffffffffffffffffffffffffffff021916908373ffffffffffffffffffffffffffffffffffffffff1602179055505050505050565b8280548282559060005260206000209081019282156200156b579160200282015b828111156200156a578251829080519060200190620015599291906200158c565b509160200191906001019062001538565b5b5090506200157a91906200161d565b5090565b6123b280620028c783390190565b8280546200159a9062002530565b90600052602060002090601f016020900481019282620015be57600085556200160a565b82601f10620015d957805160ff19168380011785556200160a565b828001600101855582156200160a579182015b8281111562001609578251825591602001919060010190620015ec565b5b50905062001619919062001645565b5090565b5b8082111562001641576000818162001637919062001664565b506001016200161e565b5090565b5b808211156200166057600081600090555060010162001646565b5090565b508054620016729062002530565b6000825580601f10620016865750620016a7565b601f016020900490600052602060002090810190620016a6919062001645565b5b50565b6000604051905090565b600080fd5b600080fd5b600073ffffffffffffffffffffffffffffffffffffffff82169050919050565b6000620016eb82620016be565b9050919050565b620016fd81620016de565b81146200170957600080fd5b50565b6000813590506200171d81620016f2565b92915050565b6000819050919050565b620017388162001723565b81146200174457600080fd5b50565b60008135905062001758816200172d565b92915050565b60008060408385031215620017785762001777620016b4565b5b600062001788858286016200170c565b92505060206200179b8582860162001747565b9150509250929050565b620017b081620016de565b82525050565b6000602082019050620017cd6000830184620017a5565b92915050565b600081519050919050565b600082825260208201905092915050565b6000819050602082019050919050565b6200180a81620016de565b82525050565b60006200181e8383620017ff565b60208301905092915050565b6000602082019050919050565b60006200184482620017d3565b620018508185620017de565b93506200185d83620017ef565b8060005b838110156200189457815162001878888262001810565b975062001885836200182a565b92505060018101905062001861565b5085935050505092915050565b60006020820190508181036000830152620018bd818462001837565b905092915050565b6000819050919050565b620018da81620018c5565b8114620018e657600080fd5b50565b600081359050620018fa81620018cf565b92915050565b600080600080608085870312156200191d576200191c620016b4565b5b60006200192d87828801620018e9565b9450506020620019408782880162001747565b935050604062001953878288016200170c565b925050606062001966878288016200170c565b91505092959194509250565b6000602082840312156200198b576200198a620016b4565b5b60006200199b848285016200170c565b91505092915050565b620019af81620018c5565b82525050565b7f4e487b7100000000000000000000000000000000000000000000000000000000600052602160045260246000fd5b60078110620019f857620019f7620019b5565b5b50565b600081905062001a0b82620019e4565b919050565b600062001a1d82620019fb565b9050919050565b62001a2f8162001a10565b82525050565b600060608201905062001a4c6000830186620019a4565b62001a5b602083018562001a24565b62001a6a6040830184620017a5565b949350505050565b600080fd5b6000601f19601f8301169050919050565b7f4e487b7100000000000000000000000000000000000000000000000000000000600052604160045260246000fd5b62001ac28262001a77565b810181811067ffffffffffffffff8211171562001ae45762001ae362001a88565b5b80604052505050565b600062001af9620016aa565b905062001b07828262001ab7565b919050565b600067ffffffffffffffff82111562001b2a5762001b2962001a88565b5b602082029050602081019050919050565b600080fd5b600080fd5b600067ffffffffffffffff82111562001b635762001b6262001a88565b5b62001b6e8262001a77565b9050602081019050919050565b82818337600083830152505050565b600062001ba162001b9b8462001b45565b62001aed565b90508281526020810184848401111562001bc05762001bbf62001b40565b5b62001bcd84828562001b7b565b509392505050565b600082601f83011262001bed5762001bec62001a72565b5b813562001bff84826020860162001b8a565b91505092915050565b600062001c1f62001c198462001b0c565b62001aed565b9050808382526020820190506020840283018581111562001c455762001c4462001b3b565b5b835b8181101562001c9357803567ffffffffffffffff81111562001c6e5762001c6d62001a72565b5b80860162001c7d898262001bd5565b8552602085019450505060208101905062001c47565b5050509392505050565b600082601f83011262001cb55762001cb462001a72565b5b813562001cc784826020860162001c08565b91505092915050565b6000806000806080858703121562001ced5762001cec620016b4565b5b600062001cfd87828801620018e9565b945050602085013567ffffffffffffffff81111562001d215762001d20620016b9565b5b62001d2f8782880162001c9d565b935050604062001d428782880162001747565b925050606062001d55878288016200170c565b91505092959194509250565b600081519050919050565b600082825260208201905092915050565b60005b8381101562001d9d57808201518184015260208101905062001d80565b8381111562001dad576000848401525b50505050565b600062001dc08262001d61565b62001dcc818562001d6c565b935062001dde81856020860162001d7d565b62001de98162001a77565b840191505092915050565b6000602082019050818103600083015262001e10818462001db3565b905092915050565b600060ff82169050919050565b62001e308162001e18565b811462001e3c57600080fd5b50565b60008135905062001e508162001e25565b92915050565b600080600080600060a0868803121562001e755762001e74620016b4565b5b600062001e85888289016200170c565b955050602062001e9888828901620018e9565b945050604062001eab8882890162001e3f565b935050606062001ebe88828901620018e9565b925050608062001ed188828901620018e9565b9150509295509295909350565b60008115159050919050565b62001ef58162001ede565b82525050565b600060208201905062001f12600083018462001eea565b92915050565b60008060006060848603121562001f345762001f33620016b4565b5b600062001f44868287016200170c565b935050602062001f578682870162001747565b925050604062001f6a868287016200170c565b9150509250925092565b600081519050919050565b600082825260208201905092915050565b6000819050602082019050919050565b600082825260208201905092915050565b600062001fbe8262001d61565b62001fca818562001fa0565b935062001fdc81856020860162001d7d565b62001fe78162001a77565b840191505092915050565b600062002000838362001fb1565b905092915050565b6000602082019050919050565b6000620020228262001f74565b6200202e818562001f7f565b935083602082028501620020428562001f90565b8060005b8581101562002084578484038952815162002062858262001ff2565b94506200206f8362002008565b925060208a0199505060018101905062002046565b50829750879550505050505092915050565b620020a18162001723565b82525050565b6000608082019050620020be6000830187620019a4565b8181036020830152620020d2818662002015565b9050620020e3604083018562002096565b620020f26060830184620017a5565b95945050505050565b60008060408385031215620021155762002114620016b4565b5b6000620021258582860162001747565b925050602062002138858286016200170c565b9150509250929050565b600067ffffffffffffffff82111562002160576200215f62001a88565b5b6200216b8262001a77565b9050602081019050919050565b60006200218f620021898462002142565b62001aed565b905082815260208101848484011115620021ae57620021ad62001b40565b5b620021bb84828562001b7b565b509392505050565b600082601f830112620021db57620021da62001a72565b5b8135620021ed84826020860162002178565b91505092915050565b60008060008060808587031215620022135762002212620016b4565b5b600062002223878288016200170c565b945050602062002236878288016200170c565b935050604062002249878288016200170c565b925050606085013567ffffffffffffffff8111156200226d576200226c620016b9565b5b6200227b87828801620021c3565b91505092959194509250565b60006020820190506200229e600083018462002096565b92915050565b7f4e487b7100000000000000000000000000000000000000000000000000000000600052603260045260246000fd5b7f4e487b7100000000000000000000000000000000000000000000000000000000600052601160045260246000fd5b60006200230f8262001723565b91507fffffffffffffffffffffffffffffffffffffffffffffffffffffffffffffffff8203620023445762002343620022d3565b5b600182019050919050565b7f526f6c653d3e537570706c6965722063616e2075736520746869732066756e6360008201527f74696f6e00000000000000000000000000000000000000000000000000000000602082015250565b6000620023ad60248362001d6c565b9150620023ba826200234f565b604082019050919050565b60006020820190508181036000830152620023e0816200239e565b9050919050565b6000602082019050620023fe6000830184620019a4565b92915050565b6200240f8162001e18565b82525050565b60006080820190506200242c6000830187620019a4565b6200243b602083018662002404565b6200244a6040830185620019a4565b620024596060830184620019a4565b95945050505050565b6000604082019050620024796000830185620017a5565b620024886020830184620017a5565b9392505050565b7f5573657220646f6573206e6f7420657869737400000000000000000000000000600082015250565b6000620024c760138362001d6c565b9150620024d4826200248f565b602082019050919050565b60006020820190508181036000830152620024fa81620024b8565b9050919050565b7f4e487b7100000000000000000000000000000000000000000000000000000000600052602260045260246000fd5b600060028204905060018216806200254957607f821691505b6020821081036200255f576200255e62002501565b5b50919050565b600081519050919050565b600082825260208201905092915050565b60006200258e8262002565565b6200259a818562002570565b9350620025ac81856020860162001d7d565b620025b78162001a77565b840191505092915050565b6000606082019050620025d96000830186620017a5565b620025e86020830185620017a5565b8181036040830152620025fc818462002581565b9050949350505050565b7f4f6e6c79205472616e73706f727465722063616e2063616c6c2074686973206660008201527f756e6374696f6e00000000000000000000000000000000000000000000000000602082015250565b60006200266460278362001d6c565b9150620026718262002606565b604082019050919050565b60006020820190508181036000830152620026978162002655565b9050919050565b7f5472616e73706f72746572205479706520697320696e636f7272656374000000600082015250565b6000620026d6601d8362001d6c565b9150620026e3826200269e565b602082019050919050565b600060208201905081810360008301526200270981620026c7565b9050919050565b60008160601b9050919050565b60006200272a8262002710565b9050919050565b60006200273e826200271d565b9050919050565b6200275a6200275482620016de565b62002731565b82525050565b6000819050919050565b6200277f620027798262001723565b62002760565b82525050565b600062002793828562002745565b601482019150620027a582846200276a565b6020820191508190509392505050565b600081905092915050565b6000620027cd8262002565565b620027d98185620027b5565b9350620027eb81856020860162001d7d565b80840191505092915050565b6000620028058284620027c0565b915081905092915050565b6000815190506200282181620018cf565b92915050565b60006020828403121562002840576200283f620016b4565b5b6000620028508482850162002810565b91505092915050565b600060c082019050620028706000830189620017a5565b6200287f6020830188620017a5565b6200288e6040830187620019a4565b6200289d606083018662002096565b620028ac6080830185620017a5565b620028bb60a0830184620017a5565b97965050505050505056fe60806040523480156200001157600080fd5b50604051620023b2380380620023b2833981810160405281019062000037919062000345565b856000806101000a81548173ffffffffffffffffffffffffffffffffffffffff021916908373ffffffffffffffffffffffffffffffffffffffff16021790555084600160006101000a81548173ffffffffffffffffffffffffffffffffffffffff021916908373ffffffffffffffffffffffffffffffffffffffff160217905550836002819055508260038190555081600460006101000a81548173ffffffffffffffffffffffffffffffffffffffff021916908373ffffffffffffffffffffffffffffffffffffffff16021790555080600560006101000a81548173ffffffffffffffffffffffffffffffffffffffff021916908373ffffffffffffffffffffffffffffffffffffffff16021790555085600660006101000a81548173ffffffffffffffffffffffffffffffffffffffff021916908373ffffffffffffffffffffffffffffffffffffffff16021790555060006002811115620001a0576200019f620003e1565b5b600660146101000a81548160ff02191690836002811115620001c757620001c6620003e1565b5b0217905550600081604051620001dd9062000257565b620001e9919062000421565b604051809103906000f08015801562000206573d6000803e3d6000fd5b50905080600860006101000a81548173ffffffffffffffffffffffffffffffffffffffff021916908373ffffffffffffffffffffffffffffffffffffffff160217905550505050505050506200043e565b6114158062000f9d83390190565b600080fd5b600073ffffffffffffffffffffffffffffffffffffffff82169050919050565b600062000297826200026a565b9050919050565b620002a9816200028a565b8114620002b557600080fd5b50565b600081519050620002c9816200029e565b92915050565b6000819050919050565b620002e481620002cf565b8114620002f057600080fd5b50565b6000815190506200030481620002d9565b92915050565b6000819050919050565b6200031f816200030a565b81146200032b57600080fd5b50565b6000815190506200033f8162000314565b92915050565b60008060008060008060c0878903121562000365576200036462000265565b5b60006200037589828a01620002b8565b96505060206200038889828a01620002b8565b95505060406200039b89828a01620002f3565b9450506060620003ae89828a016200032e565b9350506080620003c189828a01620002b8565b92505060a0620003d489828a01620002b8565b9150509295509295509295565b7f4e487b7100000000000000000000000000000000000000000000000000000000600052602160045260246000fd5b6200041b816200028a565b82525050565b600060208201905062000438600083018462000410565b92915050565b610b4f806200044e6000396000f3fe608060405234801561001057600080fd5b50600436106100575760003560e01c806350e073bc1461005c57806352b9996814610078578063638e9a3d146100945780636b099dca146100b057806380723520146100ce575b600080fd5b61007660048036038101906100719190610713565b6100f2565b005b610092600480360381019061008d9190610713565b610136565b005b6100ae60048036038101906100a99190610713565b610373565b005b6100b86105b0565b6040516100c59190610759565b60405180910390f35b6100d66105d9565b6040516100e9979695949392919061079c565b60405180910390f35b80600560006101000a81548173ffffffffffffffffffffffffffffffffffffffff021916908373ffffffffffffffffffffffffffffffffffffffff16021790555050565b600560009054906101000a900473ffffffffffffffffffffffffffffffffffffffff1673ffffffffffffffffffffffffffffffffffffffff168173ffffffffffffffffffffffffffffffffffffffff16146101c6576040517f08c379a00000000000000000000000000000000000000000000000000000000081526004016101bd9061088e565b60405180910390fd5b600160028111156101da576101d96108ae565b5b60028111156101ec576101eb6108ae565b5b600660149054906101000a900460ff16600281111561020e5761020d6108ae565b5b1461024e576040517f08c379a000000000000000000000000000000000000000000000000000000000815260040161024590610929565b60405180910390fd5b600280811115610261576102606108ae565b5b600660146101000a81548160ff02191690836002811115610285576102846108ae565b5b0217905550600560009054906101000a900473ffffffffffffffffffffffffffffffffffffffff1673ffffffffffffffffffffffffffffffffffffffff16600460009054906101000a900473ffffffffffffffffffffffffffffffffffffffff1673ffffffffffffffffffffffffffffffffffffffff16600160009054906101000a900473ffffffffffffffffffffffffffffffffffffffff1673ffffffffffffffffffffffffffffffffffffffff167f7e89c4b1a4e2b51aae84eb1f90e8a34cb792ece5ac5cb63db4830c891220b28d600160026040516103689291906109c9565b60405180910390a450565b600460009054906101000a900473ffffffffffffffffffffffffffffffffffffffff1673ffffffffffffffffffffffffffffffffffffffff168173ffffffffffffffffffffffffffffffffffffffff1614610403576040517f08c379a00000000000000000000000000000000000000000000000000000000081526004016103fa90610a64565b60405180910390fd5b60006002811115610417576104166108ae565b5b6002811115610429576104286108ae565b5b600660149054906101000a900460ff16600281111561044b5761044a6108ae565b5b1461048b576040517f08c379a000000000000000000000000000000000000000000000000000000000815260040161048290610ad0565b60405180910390fd5b6001600281111561049f5761049e6108ae565b5b600660146101000a81548160ff021916908360028111156104c3576104c26108ae565b5b0217905550600560009054906101000a900473ffffffffffffffffffffffffffffffffffffffff1673ffffffffffffffffffffffffffffffffffffffff16600460009054906101000a900473ffffffffffffffffffffffffffffffffffffffff1673ffffffffffffffffffffffffffffffffffffffff16600160009054906101000a900473ffffffffffffffffffffffffffffffffffffffff1673ffffffffffffffffffffffffffffffffffffffff167f7e89c4b1a4e2b51aae84eb1f90e8a34cb792ece5ac5cb63db4830c891220b28d6001806040516105a5929190610af0565b60405180910390a450565b6000600660149054906101000a900460ff1660028111156105d4576105d36108ae565b5b905090565b6000806000806000806000600160009054906101000a900473ffffffffffffffffffffffffffffffffffffffff16600254600354600660009054906101000a900473ffffffffffffffffffffffffffffffffffffffff16600460009054906101000a900473ffffffffffffffffffffffffffffffffffffffff16600560009054906101000a900473ffffffffffffffffffffffffffffffffffffffff16600860009054906101000a900473ffffffffffffffffffffffffffffffffffffffff16965096509650965096509650965090919293949596565b600080fd5b600073ffffffffffffffffffffffffffffffffffffffff82169050919050565b60006106e0826106b5565b9050919050565b6106f0816106d5565b81146106fb57600080fd5b50565b60008135905061070d816106e7565b92915050565b600060208284031215610729576107286106b0565b5b6000610737848285016106fe565b91505092915050565b6000819050919050565b61075381610740565b82525050565b600060208201905061076e600083018461074a565b92915050565b61077d816106d5565b82525050565b6000819050919050565b61079681610783565b82525050565b600060e0820190506107b1600083018a610774565b6107be602083018961078d565b6107cb604083018861074a565b6107d86060830187610774565b6107e56080830186610774565b6107f260a0830185610774565b6107ff60c0830184610774565b98975050505050505050565b600082825260208201905092915050565b7f4f6e6c79204d616e756661637475726572206f6620746865207061636b61676560008201527f2063616e20726563656965766520746865207061636b61676500000000000000602082015250565b600061087860398361080b565b91506108838261081c565b604082019050919050565b600060208201905081810360008301526108a78161086b565b9050919050565b7f4e487b7100000000000000000000000000000000000000000000000000000000600052602160045260246000fd5b7f50726f64756374206e6f74207069636b65642075702079657400000000000000600082015250565b600061091360198361080b565b915061091e826108dd565b602082019050919050565b6000602082019050818103600083015261094281610906565b9050919050565b6000819050919050565b6000819050919050565b600061097861097361096e84610949565b610953565b610740565b9050919050565b6109888161095d565b82525050565b6000819050919050565b60006109b36109ae6109a98461098e565b610953565b610740565b9050919050565b6109c381610998565b82525050565b60006040820190506109de600083018561097f565b6109eb60208301846109ba565b9392505050565b7f4f6e6c79207472616e73706f72746572206f6620746865207061636b6167652060008201527f63616e207069636b207061636b61676500000000000000000000000000000000602082015250565b6000610a4e60308361080b565b9150610a59826109f2565b604082019050919050565b60006020820190508181036000830152610a7d81610a41565b9050919050565b7f5061636b616765206d75737420626520617420537570706c6965722e00000000600082015250565b6000610aba601c8361080b565b9150610ac582610a84565b602082019050919050565b60006020820190508181036000830152610ae981610aad565b9050919050565b6000604082019050610b05600083018561097f565b610b12602083018461097f565b939250505056fea26469706673582212203c847a05bb88719302c55599d61fc33886587cb5fa38abc9e7c75508c665fb0a64736f6c634300080d0033608060405260006002553480156200001657600080fd5b50604051620014153803806200141583398181016040528101906200003c9190620000ed565b806000806101000a81548173ffffffffffffffffffffffffffffffffffffffff021916908373ffffffffffffffffffffffffffffffffffffffff160217905550506200011f565b600080fd5b600073ffffffffffffffffffffffffffffffffffffffff82169050919050565b6000620000b58262000088565b9050919050565b620000c781620000a8565b8114620000d357600080fd5b50565b600081519050620000e781620000bc565b92915050565b60006020828403121562000106576200010562000083565b5b60006200011684828501620000d6565b91505092915050565b6112e6806200012f6000396000f3fe608060405234801561001057600080fd5b506004361061004c5760003560e01c806327506f53146100515780633626a3681461006f57806378ce13651461008b5780639ace38c2146100a9575b600080fd5b6100596100df565b6040516100669190610c47565b60405180910390f35b61008960048036038101906100849190610e0a565b610391565b005b61009361072c565b6040516100a09190610ede565b60405180910390f35b6100c360048036038101906100be9190610f25565b610732565b6040516100d69796959493929190610fba565b60405180910390f35b60606000600254905060008167ffffffffffffffff81111561010457610103610cdf565b5b60405190808252806020026020018201604052801561013d57816020015b61012a6108c4565b8152602001906001900390816101225790505b50905060005b8281101561038857600160008281526020019081526020016000206040518060e0016040529081600082015481526020016001820160009054906101000a900473ffffffffffffffffffffffffffffffffffffffff1673ffffffffffffffffffffffffffffffffffffffff1673ffffffffffffffffffffffffffffffffffffffff1681526020016002820160009054906101000a900473ffffffffffffffffffffffffffffffffffffffff1673ffffffffffffffffffffffffffffffffffffffff1673ffffffffffffffffffffffffffffffffffffffff1681526020016003820154815260200160048201805461023990611066565b80601f016020809104026020016040519081016040528092919081815260200182805461026590611066565b80156102b25780601f10610287576101008083540402835291602001916102b2565b820191906000526020600020905b81548152906001019060200180831161029557829003601f168201915b505050505081526020016005820180546102cb90611066565b80601f01602080910402602001604051908101604052809291908181526020018280546102f790611066565b80156103445780601f1061031957610100808354040283529160200191610344565b820191906000526020600020905b81548152906001019060200180831161032757829003601f168201915b5050505050815260200160068201548152505082828151811061036a57610369611097565b5b60200260200101819052508080610380906110f5565b915050610143565b50809250505090565b6000429050600060025403610502576040518060e001604052808881526020018773ffffffffffffffffffffffffffffffffffffffff1681526020018673ffffffffffffffffffffffffffffffffffffffff168152602001858152602001848152602001838152602001828152506001600060025481526020019081526020016000206000820151816000015560208201518160010160006101000a81548173ffffffffffffffffffffffffffffffffffffffff021916908373ffffffffffffffffffffffffffffffffffffffff16021790555060408201518160020160006101000a81548173ffffffffffffffffffffffffffffffffffffffff021916908373ffffffffffffffffffffffffffffffffffffffff1602179055506060820151816003015560808201518160040190805190602001906104d2929190610933565b5060a08201518160050190805190602001906104ef929190610933565b5060c082015181600601559050506106c6565b83600160006001600254610516919061113d565b81526020019081526020016000206000015414610568576040517f08c379a000000000000000000000000000000000000000000000000000000000815260040161055f906111bd565b60405180910390fd5b6040518060e001604052808881526020018773ffffffffffffffffffffffffffffffffffffffff1681526020018673ffffffffffffffffffffffffffffffffffffffff168152602001858152602001848152602001838152602001828152506001600060025481526020019081526020016000206000820151816000015560208201518160010160006101000a81548173ffffffffffffffffffffffffffffffffffffffff021916908373ffffffffffffffffffffffffffffffffffffffff16021790555060408201518160020160006101000a81548173ffffffffffffffffffffffffffffffffffffffff021916908373ffffffffffffffffffffffffffffffffffffffff16021790555060608201518160030155608082015181600401908051906020019061069a929190610933565b5060a08201518160050190805190602001906106b7929190610933565b5060c082015181600601559050505b6001600260008282546106d991906111dd565b925050819055507f30d01d358fb0899fe4d50947b2e9301c952d9eed09b14c7ecdcbeed4434557c48787878785888860405161071b9796959493929190611233565b60405180910390a150505050505050565b60025481565b60016020528060005260406000206000915090508060000154908060010160009054906101000a900473ffffffffffffffffffffffffffffffffffffffff16908060020160009054906101000a900473ffffffffffffffffffffffffffffffffffffffff16908060030154908060040180546107ad90611066565b80601f01602080910402602001604051908101604052809291908181526020018280546107d990611066565b80156108265780601f106107fb57610100808354040283529160200191610826565b820191906000526020600020905b81548152906001019060200180831161080957829003601f168201915b50505050509080600501805461083b90611066565b80601f016020809104026020016040519081016040528092919081815260200182805461086790611066565b80156108b45780601f10610889576101008083540402835291602001916108b4565b820191906000526020600020905b81548152906001019060200180831161089757829003601f168201915b5050505050908060060154905087565b6040518060e0016040528060008019168152602001600073ffffffffffffffffffffffffffffffffffffffff168152602001600073ffffffffffffffffffffffffffffffffffffffff168152602001600080191681526020016060815260200160608152602001600081525090565b82805461093f90611066565b90600052602060002090601f01602090048101928261096157600085556109a8565b82601f1061097a57805160ff19168380011785556109a8565b828001600101855582156109a8579182015b828111156109a757825182559160200191906001019061098c565b5b5090506109b591906109b9565b5090565b5b808211156109d25760008160009055506001016109ba565b5090565b600081519050919050565b600082825260208201905092915050565b6000819050602082019050919050565b6000819050919050565b610a1581610a02565b82525050565b600073ffffffffffffffffffffffffffffffffffffffff82169050919050565b6000610a4682610a1b565b9050919050565b610a5681610a3b565b82525050565b600081519050919050565b600082825260208201905092915050565b60005b83811015610a96578082015181840152602081019050610a7b565b83811115610aa5576000848401525b50505050565b6000601f19601f8301169050919050565b6000610ac782610a5c565b610ad18185610a67565b9350610ae1818560208601610a78565b610aea81610aab565b840191505092915050565b6000819050919050565b610b0881610af5565b82525050565b600060e083016000830151610b266000860182610a0c565b506020830151610b396020860182610a4d565b506040830151610b4c6040860182610a4d565b506060830151610b5f6060860182610a0c565b5060808301518482036080860152610b778282610abc565b91505060a083015184820360a0860152610b918282610abc565b91505060c0830151610ba660c0860182610aff565b508091505092915050565b6000610bbd8383610b0e565b905092915050565b6000602082019050919050565b6000610bdd826109d6565b610be781856109e1565b935083602082028501610bf9856109f2565b8060005b85811015610c355784840389528151610c168582610bb1565b9450610c2183610bc5565b925060208a01995050600181019050610bfd565b50829750879550505050505092915050565b60006020820190508181036000830152610c618184610bd2565b905092915050565b6000604051905090565b600080fd5b600080fd5b610c8681610a02565b8114610c9157600080fd5b50565b600081359050610ca381610c7d565b92915050565b610cb281610a3b565b8114610cbd57600080fd5b50565b600081359050610ccf81610ca9565b92915050565b600080fd5b600080fd5b7f4e487b7100000000000000000000000000000000000000000000000000000000600052604160045260246000fd5b610d1782610aab565b810181811067ffffffffffffffff82111715610d3657610d35610cdf565b5b80604052505050565b6000610d49610c69565b9050610d558282610d0e565b919050565b600067ffffffffffffffff821115610d7557610d74610cdf565b5b610d7e82610aab565b9050602081019050919050565b82818337600083830152505050565b6000610dad610da884610d5a565b610d3f565b905082815260208101848484011115610dc957610dc8610cda565b5b610dd4848285610d8b565b509392505050565b600082601f830112610df157610df0610cd5565b5b8135610e01848260208601610d9a565b91505092915050565b60008060008060008060c08789031215610e2757610e26610c73565b5b6000610e3589828a01610c94565b9650506020610e4689828a01610cc0565b9550506040610e5789828a01610cc0565b9450506060610e6889828a01610c94565b935050608087013567ffffffffffffffff811115610e8957610e88610c78565b5b610e9589828a01610ddc565b92505060a087013567ffffffffffffffff811115610eb657610eb5610c78565b5b610ec289828a01610ddc565b9150509295509295509295565b610ed881610af5565b82525050565b6000602082019050610ef36000830184610ecf565b92915050565b610f0281610af5565b8114610f0d57600080fd5b50565b600081359050610f1f81610ef9565b92915050565b600060208284031215610f3b57610f3a610c73565b5b6000610f4984828501610f10565b91505092915050565b610f5b81610a02565b82525050565b610f6a81610a3b565b82525050565b600082825260208201905092915050565b6000610f8c82610a5c565b610f968185610f70565b9350610fa6818560208601610a78565b610faf81610aab565b840191505092915050565b600060e082019050610fcf600083018a610f52565b610fdc6020830189610f61565b610fe96040830188610f61565b610ff66060830187610f52565b81810360808301526110088186610f81565b905081810360a083015261101c8185610f81565b905061102b60c0830184610ecf565b98975050505050505050565b7f4e487b7100000000000000000000000000000000000000000000000000000000600052602260045260246000fd5b6000600282049050600182168061107e57607f821691505b60208210810361109157611090611037565b5b50919050565b7f4e487b7100000000000000000000000000000000000000000000000000000000600052603260045260246000fd5b7f4e487b7100000000000000000000000000000000000000000000000000000000600052601160045260246000fd5b600061110082610af5565b91507fffffffffffffffffffffffffffffffffffffffffffffffffffffffffffffffff8203611132576111316110c6565b5b600182019050919050565b600061114882610af5565b915061115383610af5565b925082821015611166576111656110c6565b5b828203905092915050565b7f5472616e73616374696f6e206572726f72206f63637572726564210000000000600082015250565b60006111a7601b83610f70565b91506111b282611171565b602082019050919050565b600060208201905081810360008301526111d68161119a565b9050919050565b60006111e882610af5565b91506111f383610af5565b9250827fffffffffffffffffffffffffffffffffffffffffffffffffffffffffffffffff03821115611228576112276110c6565b5b828201905092915050565b600060e082019050611248600083018a610f52565b6112556020830189610f61565b6112626040830188610f61565b61126f6060830187610f52565b61127c6080830186610ecf565b81810360a083015261128e8185610f81565b905081810360c08301526112a28184610f81565b90509897505050505050505056fea26469706673582212205165ac39670d5e25c3254f88012313e2ed1c7a0462c41647254a654cb356196e64736f6c634300080d0033a2646970667358221220403eea1c982e661685a8b6de30c11e110022f445d9aba2131d660713a68eed5f64736f6c634300080d0033",
  "immutableReferences": {},
  "source": "//SPDX-License-Identifier: MIT\r\npragma solidity >=0.4.22 <0.9.0;\r\nimport './Supplier.sol';\r\nimport './Transporter.sol';\r\n//// New supply chain : supplier -> transporter -> manufacturer -> transporter -> whole-saler -> transporter -> distributor -> transporter -> customer/hospital/pharmacy\r\n\r\n\r\n// contract SupplyChain is Supplier, Transporter, Manufacturer, Wholesaler, Distributor, Customer {\r\ncontract SupplyChain is Supplier, Transporter {\r\n    \r\n    address public Owner;\r\n    \r\n    constructor()  {\r\n        Owner = msg.sender;\r\n    }\r\n    \r\n    modifier onlyOwner() {\r\n        require(Owner == msg.sender);\r\n        _;\r\n    }\r\n    \r\n    modifier checkUser(address addr) {\r\n        require(addr == msg.sender);\r\n        _;\r\n    }\r\n    \r\n    enum roles {\r\n        noRole,\r\n        supplier,\r\n        transporter,\r\n        manufacturer,\r\n        wholesaler,\r\n        distributor,\r\n        customer\r\n    }\r\n    \r\n    \r\n    //////////////// Events ////////////////////\r\n    \r\n    event UserRegister(address indexed _address, bytes32 name);\r\n    event buyEvent(address buyer, address indexed seller, address packageAddr, bytes signature, uint indexed timestamp);\r\n    event respondEvent(address indexed buyer, address seller, address packageAddr, bytes signature, uint indexed timestamp);\r\n    event sendEvent(address seller, address buyer, address indexed packageAddr, bytes signature, uint indexed timestamp);\r\n    event receivedEvent(address indexed buyer, address seller, address packageAddr, bytes signature, uint indexed timestamp);\r\n    \r\n    \r\n    //////////////// Event functions (All entities) ////////////////////\r\n\r\n    \r\n    function requestProduct(address buyer, address seller, address packageAddr, bytes memory signature) public {\r\n        emit buyEvent(buyer, seller, packageAddr, signature, block.timestamp);\r\n    }\r\n    \r\n    function respondToEntity(address buyer, address seller, address packageAddr, bytes memory signature) public {\r\n        emit respondEvent(buyer, seller, packageAddr, signature, block.timestamp);\r\n    }\r\n    \r\n    function sendPackageToEntity(address buyer, address seller, address packageAddr, bytes memory signature) public {\r\n        emit sendEvent(seller, buyer, packageAddr, signature, block.timestamp);\r\n    }\r\n\r\n    /////////////// Users (Only Owner Executable) //////////////////////\r\n    \r\n    struct userData {\r\n        bytes32 name;\r\n        string[] userLoc;\r\n        roles role;\r\n        address userAddr;\r\n    }\r\n    \r\n    mapping (address => userData) public userInfo;\r\n    \r\n    function registerUser(bytes32 _name,string[] memory loc, uint _role, address _addr) external onlyOwner returns(string memory) {\r\n        userInfo[_addr].name = _name;\r\n        userInfo[_addr].userLoc = loc;\r\n        userInfo[_addr].role = roles(_role);\r\n        userInfo[_addr].userAddr = _addr;\r\n        emit UserRegister(_addr, _name);\r\n        return \"User Registered!\";\r\n    }\r\n    \r\n    function changeUserRole(uint _role, address _addr) external onlyOwner returns(string memory) {\r\n        userInfo[_addr].role = roles(_role);\r\n       return \"Role Updated!\";\r\n    }\r\n\r\n    function getUser(address _addr) external view returns (bytes32, string[] memory, uint, address) {\r\n        require(userInfo[_addr].userAddr != address(0), \"User does not exist\");\r\n        userData memory user = userInfo[_addr];\r\n        return (user.name, user.userLoc, uint(user.role), user.userAddr);\r\n    }\r\n    /////////////// Supplier //////////////////////\r\n    \r\n    \r\n    function supplierCreatesRawPackage(\r\n        bytes32 _description,\r\n        uint _quantity,\r\n        address _transporterAddr,\r\n        address _manufacturerAddr\r\n        ) external {\r\n            require(userInfo[msg.sender].role == roles.supplier, \"Role=>Supplier can use this function\");\r\n            createRawMaterialPackage(_description, _quantity, _transporterAddr,_manufacturerAddr);\r\n    }\r\n    \r\n    function supplierGetPackageCount() external view returns(uint) {\r\n        require(userInfo[msg.sender].role == roles.supplier, \"Role=>Supplier can use this function\");\r\n        \r\n        return getNoOfPackagesOfSupplier();\r\n    }\r\n    \r\n    function supplierGetRawMaterialAddresses() external view returns(address[] memory) {\r\n        address[] memory ret = getAllPackages();\r\n        return ret;\r\n    }\r\n    \r\n\r\n    function verify(address p, bytes32 hash, uint8 v, bytes32 r, bytes32 s) public pure returns(bool) {\r\n        return ecrecover(hash, v, r, s) == p;\r\n    }  \r\n\r\n\r\n    ///////////////  Transporter ///////////////\r\n    \r\n    \r\n    function transporterHandlePackage(\r\n        address _address,\r\n        uint transporterType,\r\n        address cid\r\n        ) external {\r\n            \r\n        require(\r\n            userInfo[msg.sender].role == roles.transporter,\r\n            \"Only Transporter can call this function\"\r\n        );\r\n        require(\r\n            transporterType > 0,\r\n            \"Transporter Type is incorrect\"\r\n        );\r\n        \r\n        handlePackage(_address, transporterType, cid);\r\n    }\r\n\r\n}",
  "sourcePath": "D:\\Quote\\MediChain\\contracts\\SupplyChain.sol",
  "compiler": {
    "name": "solc",
    "version": "0.8.13+commit.abaa5c0e.Emscripten.clang"
  },
  "schemaVersion": "3.4.16",
  "updatedAt": "2023-11-15T12:45:10.696Z",
  "networkType": "ethereum",
  "devdoc": {
    "kind": "dev",
    "methods": {},
    "version": 1
  },
  "userdoc": {
    "kind": "user",
    "methods": {},
    "version": 1
  }
}