{
  "contractName": "SupplyChain",
  "abi": [
    {
      "inputs": [],
      "stateMutability": "nonpayable",
      "type": "constructor"
    },
    {
      "anonymous": false,
      "inputs": [
        {
          "indexed": true,
          "internalType": "address",
          "name": "_address",
          "type": "address"
        },
        {
          "indexed": false,
          "internalType": "bytes32",
          "name": "name",
          "type": "bytes32"
        }
      ],
      "name": "UserRegister",
      "type": "event"
    },
    {
      "inputs": [],
      "name": "Owner",
      "outputs": [
        {
          "internalType": "address",
          "name": "",
          "type": "address"
        }
      ],
      "stateMutability": "view",
      "type": "function",
      "constant": true
    },
    {
      "inputs": [
        {
          "internalType": "bytes32",
          "name": "_description",
          "type": "bytes32"
        },
        {
          "internalType": "uint256",
          "name": "_quantity",
          "type": "uint256"
        },
        {
          "internalType": "address",
          "name": "_transporterAddr",
          "type": "address"
        },
        {
          "internalType": "address",
          "name": "_manufacturerAddr",
          "type": "address"
        }
      ],
      "name": "createRawMaterialPackage",
      "outputs": [],
      "stateMutability": "nonpayable",
      "type": "function"
    },
    {
      "inputs": [],
      "name": "getAllPackages",
      "outputs": [
        {
          "internalType": "address[]",
          "name": "",
          "type": "address[]"
        }
      ],
      "stateMutability": "view",
      "type": "function",
      "constant": true
    },
    {
      "inputs": [],
      "name": "getNoOfPackagesOfSupplier",
      "outputs": [
        {
          "internalType": "uint256",
          "name": "",
          "type": "uint256"
        }
      ],
      "stateMutability": "view",
      "type": "function",
      "constant": true
    },
    {
      "inputs": [
        {
          "internalType": "address",
          "name": "",
          "type": "address"
        },
        {
          "internalType": "uint256",
          "name": "",
          "type": "uint256"
        }
      ],
      "name": "supplierRawMaterials",
      "outputs": [
        {
          "internalType": "address",
          "name": "",
          "type": "address"
        }
      ],
      "stateMutability": "view",
      "type": "function",
      "constant": true
    },
    {
      "inputs": [
        {
          "internalType": "address",
          "name": "",
          "type": "address"
        }
      ],
      "name": "userInfo",
      "outputs": [
        {
          "internalType": "bytes32",
          "name": "name",
          "type": "bytes32"
        },
        {
          "internalType": "enum SupplyChain.roles",
          "name": "role",
          "type": "uint8"
        },
        {
          "internalType": "address",
          "name": "userAddr",
          "type": "address"
        }
      ],
      "stateMutability": "view",
      "type": "function",
      "constant": true
    },
    {
      "inputs": [
        {
          "internalType": "bytes32",
          "name": "_name",
          "type": "bytes32"
        },
        {
          "internalType": "string[]",
          "name": "loc",
          "type": "string[]"
        },
        {
          "internalType": "uint256",
          "name": "_role",
          "type": "uint256"
        },
        {
          "internalType": "address",
          "name": "_addr",
          "type": "address"
        }
      ],
      "name": "registerUser",
      "outputs": [
        {
          "internalType": "string",
          "name": "",
          "type": "string"
        }
      ],
      "stateMutability": "nonpayable",
      "type": "function"
    },
    {
      "inputs": [
        {
          "internalType": "uint256",
          "name": "_role",
          "type": "uint256"
        },
        {
          "internalType": "address",
          "name": "_addr",
          "type": "address"
        }
      ],
      "name": "changeUserRole",
      "outputs": [
        {
          "internalType": "string",
          "name": "",
          "type": "string"
        }
      ],
      "stateMutability": "nonpayable",
      "type": "function"
    },
    {
      "inputs": [
        {
          "internalType": "address",
          "name": "_addr",
          "type": "address"
        }
      ],
      "name": "getUser",
      "outputs": [
        {
          "internalType": "bytes32",
          "name": "",
          "type": "bytes32"
        },
        {
          "internalType": "string[]",
          "name": "",
          "type": "string[]"
        },
        {
          "internalType": "uint256",
          "name": "",
          "type": "uint256"
        },
        {
          "internalType": "address",
          "name": "",
          "type": "address"
        }
      ],
      "stateMutability": "view",
      "type": "function",
      "constant": true
    },
    {
      "inputs": [
        {
          "internalType": "bytes32",
          "name": "_description",
          "type": "bytes32"
        },
        {
          "internalType": "uint256",
          "name": "_quantity",
          "type": "uint256"
        },
        {
          "internalType": "address",
          "name": "_transporterAddr",
          "type": "address"
        },
        {
          "internalType": "address",
          "name": "_manufacturerAddr",
          "type": "address"
        }
      ],
      "name": "supplierCreatesRawPackage",
      "outputs": [],
      "stateMutability": "nonpayable",
      "type": "function"
    },
    {
      "inputs": [],
      "name": "supplierGetPackageCount",
      "outputs": [
        {
          "internalType": "uint256",
          "name": "",
          "type": "uint256"
        }
      ],
      "stateMutability": "view",
      "type": "function",
      "constant": true
    },
    {
      "inputs": [],
      "name": "supplierGetRawMaterialAddresses",
      "outputs": [
        {
          "internalType": "address[]",
          "name": "",
          "type": "address[]"
        }
      ],
      "stateMutability": "view",
      "type": "function",
      "constant": true
    }
  ],
  "bytecode": "0x608060405234801561001057600080fd5b5033600160006101000a81548173ffffffffffffffffffffffffffffffffffffffff021916908373ffffffffffffffffffffffffffffffffffffffff160217905550614181806100616000396000f3fe60806040523480156200001157600080fd5b5060043610620000c45760003560e01c8063824e43e7116200007b578063824e43e714620001e857806391009786146200020a578063b4a99a4e1462000240578063c22470ea1462000262578063d1acb5271462000284578063fc7e01f314620002a657620000c4565b806306db832414620000c95780630a421f0f14620000ff57806311789ca614620001215780631959a00214620001415780631f90ddaf14620001795780636f77926b14620001af575b600080fd5b620000e76004803603810190620000e1919062001168565b620002c6565b604051620000f69190620011c0565b60405180910390f35b6200010962000315565b604051620001189190620012ab565b60405180910390f35b6200013f60048036038101906200013991906200130a565b620004a7565b005b6200015f60048036038101906200015991906200137c565b6200057a565b60405162000170939291906200143f565b60405180910390f35b620001976004803603810190620001919190620016da565b620005d1565b604051620001a69190620017fe565b60405180910390f35b620001cd6004803603810190620001c791906200137c565b62000861565b604051620001df949392919062001955565b60405180910390f35b620001f262000b47565b604051620002019190620012ab565b60405180910390f35b620002286004803603810190620002229190620019a9565b62000b5e565b604051620002379190620017fe565b60405180910390f35b6200024a62000c7b565b604051620002599190620011c0565b60405180910390f35b6200026c62000ca1565b6040516200027b9190620019f0565b60405180910390f35b6200028e62000cea565b6040516200029d9190620019f0565b60405180910390f35b620002c46004803603810190620002be91906200130a565b62000dba565b005b60006020528160005260406000208181548110620002e357600080fd5b906000526020600020016000915091509054906101000a900473ffffffffffffffffffffffffffffffffffffffff1681565b606060008060003373ffffffffffffffffffffffffffffffffffffffff1673ffffffffffffffffffffffffffffffffffffffff16815260200190815260200160002080549050905060008167ffffffffffffffff8111156200037c576200037b62001492565b5b604051908082528060200260200182016040528015620003ab5781602001602082028036833780820191505090505b50905060005b828110156200049e576000803373ffffffffffffffffffffffffffffffffffffffff1673ffffffffffffffffffffffffffffffffffffffff16815260200190815260200160002081815481106200040d576200040c62001a0d565b5b9060005260206000200160009054906101000a900473ffffffffffffffffffffffffffffffffffffffff168282815181106200044e576200044d62001a0d565b5b602002602001019073ffffffffffffffffffffffffffffffffffffffff16908173ffffffffffffffffffffffffffffffffffffffff16815250508080620004959062001a6b565b915050620003b1565b50809250505090565b60016006811115620004be57620004bd620013bf565b5b600260003373ffffffffffffffffffffffffffffffffffffffff1673ffffffffffffffffffffffffffffffffffffffff16815260200190815260200160002060020160009054906101000a900460ff166006811115620005235762000522620013bf565b5b1462000566576040517f08c379a00000000000000000000000000000000000000000000000000000000081526004016200055d9062001b2e565b60405180910390fd5b620005748484848462000dba565b50505050565b60026020528060005260406000206000915090508060000154908060020160009054906101000a900460ff16908060020160019054906101000a900473ffffffffffffffffffffffffffffffffffffffff16905083565b60603373ffffffffffffffffffffffffffffffffffffffff16600160009054906101000a900473ffffffffffffffffffffffffffffffffffffffff1673ffffffffffffffffffffffffffffffffffffffff16146200062e57600080fd5b84600260008473ffffffffffffffffffffffffffffffffffffffff1673ffffffffffffffffffffffffffffffffffffffff1681526020019081526020016000206000018190555083600260008473ffffffffffffffffffffffffffffffffffffffff1673ffffffffffffffffffffffffffffffffffffffff1681526020019081526020016000206001019080519060200190620006cd92919062000f21565b50826006811115620006e457620006e3620013bf565b5b600260008473ffffffffffffffffffffffffffffffffffffffff1673ffffffffffffffffffffffffffffffffffffffff16815260200190815260200160002060020160006101000a81548160ff021916908360068111156200074b576200074a620013bf565b5b021790555081600260008473ffffffffffffffffffffffffffffffffffffffff1673ffffffffffffffffffffffffffffffffffffffff16815260200190815260200160002060020160016101000a81548173ffffffffffffffffffffffffffffffffffffffff021916908373ffffffffffffffffffffffffffffffffffffffff1602179055508173ffffffffffffffffffffffffffffffffffffffff167f33a7170f028b1e4f5ba321064a00ed820856a920c7f9c6636fbcf385427b1b0f8660405162000819919062001b50565b60405180910390a26040518060400160405280601081526020017f55736572205265676973746572656421000000000000000000000000000000008152509050949350505050565b60006060600080600073ffffffffffffffffffffffffffffffffffffffff16600260008773ffffffffffffffffffffffffffffffffffffffff1673ffffffffffffffffffffffffffffffffffffffff16815260200190815260200160002060020160019054906101000a900473ffffffffffffffffffffffffffffffffffffffff1673ffffffffffffffffffffffffffffffffffffffff16036200093c576040517f08c379a0000000000000000000000000000000000000000000000000000000008152600401620009339062001bbd565b60405180910390fd5b6000600260008773ffffffffffffffffffffffffffffffffffffffff1673ffffffffffffffffffffffffffffffffffffffff1681526020019081526020016000206040518060800160405290816000820154815260200160018201805480602002602001604051908101604052809291908181526020016000905b8282101562000a6d578382906000526020600020018054620009d99062001c0e565b80601f016020809104026020016040519081016040528092919081815260200182805462000a079062001c0e565b801562000a585780601f1062000a2c5761010080835404028352916020019162000a58565b820191906000526020600020905b81548152906001019060200180831162000a3a57829003601f168201915b505050505081526020019060010190620009b7565b5050505081526020016002820160009054906101000a900460ff16600681111562000a9d5762000a9c620013bf565b5b600681111562000ab25762000ab1620013bf565b5b81526020016002820160019054906101000a900473ffffffffffffffffffffffffffffffffffffffff1673ffffffffffffffffffffffffffffffffffffffff1673ffffffffffffffffffffffffffffffffffffffff16815250509050806000015181602001518260400151600681111562000b325762000b31620013bf565b5b83606001519450945094509450509193509193565b6060600062000b5562000315565b90508091505090565b60603373ffffffffffffffffffffffffffffffffffffffff16600160009054906101000a900473ffffffffffffffffffffffffffffffffffffffff1673ffffffffffffffffffffffffffffffffffffffff161462000bbb57600080fd5b82600681111562000bd15762000bd0620013bf565b5b600260008473ffffffffffffffffffffffffffffffffffffffff1673ffffffffffffffffffffffffffffffffffffffff16815260200190815260200160002060020160006101000a81548160ff0219169083600681111562000c385762000c37620013bf565b5b02179055506040518060400160405280600d81526020017f526f6c6520557064617465642100000000000000000000000000000000000000815250905092915050565b600160009054906101000a900473ffffffffffffffffffffffffffffffffffffffff1681565b60008060003373ffffffffffffffffffffffffffffffffffffffff1673ffffffffffffffffffffffffffffffffffffffff16815260200190815260200160002080549050905090565b60006001600681111562000d035762000d02620013bf565b5b600260003373ffffffffffffffffffffffffffffffffffffffff1673ffffffffffffffffffffffffffffffffffffffff16815260200190815260200160002060020160009054906101000a900460ff16600681111562000d685762000d67620013bf565b5b1462000dab576040517f08c379a000000000000000000000000000000000000000000000000000000000815260040162000da29062001b2e565b60405180910390fd5b62000db562000ca1565b905090565b6000336002334260405160200162000dd492919062001cb8565b60405160208183030381529060405260405162000df2919062001d35565b602060405180830381855afa15801562000e10573d6000803e3d6000fd5b5050506040513d601f19601f8201168201806040525081019062000e35919062001d65565b60601c8686868660405162000e4a9062000f88565b62000e5b9695949392919062001d97565b604051809103906000f08015801562000e78573d6000803e3d6000fd5b5090506000803373ffffffffffffffffffffffffffffffffffffffff1673ffffffffffffffffffffffffffffffffffffffff168152602001908152602001600020819080600181540180825580915050600190039060005260206000200160009091909190916101000a81548173ffffffffffffffffffffffffffffffffffffffff021916908373ffffffffffffffffffffffffffffffffffffffff1602179055505050505050565b82805482825590600052602060002090810192821562000f75579160200282015b8281111562000f7457825182908051906020019062000f6392919062000f96565b509160200191906001019062000f42565b5b50905062000f84919062001027565b5090565b6123478062001e0583390190565b82805462000fa49062001c0e565b90600052602060002090601f01602090048101928262000fc8576000855562001014565b82601f1062000fe357805160ff191683800117855562001014565b8280016001018555821562001014579182015b828111156200101357825182559160200191906001019062000ff6565b5b5090506200102391906200104f565b5090565b5b808211156200104b57600081816200104191906200106e565b5060010162001028565b5090565b5b808211156200106a57600081600090555060010162001050565b5090565b5080546200107c9062001c0e565b6000825580601f10620010905750620010b1565b601f016020900490600052602060002090810190620010b091906200104f565b5b50565b6000604051905090565b600080fd5b600080fd5b600073ffffffffffffffffffffffffffffffffffffffff82169050919050565b6000620010f582620010c8565b9050919050565b6200110781620010e8565b81146200111357600080fd5b50565b6000813590506200112781620010fc565b92915050565b6000819050919050565b62001142816200112d565b81146200114e57600080fd5b50565b600081359050620011628162001137565b92915050565b60008060408385031215620011825762001181620010be565b5b6000620011928582860162001116565b9250506020620011a58582860162001151565b9150509250929050565b620011ba81620010e8565b82525050565b6000602082019050620011d76000830184620011af565b92915050565b600081519050919050565b600082825260208201905092915050565b6000819050602082019050919050565b6200121481620010e8565b82525050565b600062001228838362001209565b60208301905092915050565b6000602082019050919050565b60006200124e82620011dd565b6200125a8185620011e8565b93506200126783620011f9565b8060005b838110156200129e5781516200128288826200121a565b97506200128f8362001234565b9250506001810190506200126b565b5085935050505092915050565b60006020820190508181036000830152620012c7818462001241565b905092915050565b6000819050919050565b620012e481620012cf565b8114620012f057600080fd5b50565b6000813590506200130481620012d9565b92915050565b60008060008060808587031215620013275762001326620010be565b5b60006200133787828801620012f3565b94505060206200134a8782880162001151565b93505060406200135d8782880162001116565b9250506060620013708782880162001116565b91505092959194509250565b600060208284031215620013955762001394620010be565b5b6000620013a58482850162001116565b91505092915050565b620013b981620012cf565b82525050565b7f4e487b7100000000000000000000000000000000000000000000000000000000600052602160045260246000fd5b60078110620014025762001401620013bf565b5b50565b60008190506200141582620013ee565b919050565b6000620014278262001405565b9050919050565b62001439816200141a565b82525050565b6000606082019050620014566000830186620013ae565b6200146560208301856200142e565b620014746040830184620011af565b949350505050565b600080fd5b6000601f19601f8301169050919050565b7f4e487b7100000000000000000000000000000000000000000000000000000000600052604160045260246000fd5b620014cc8262001481565b810181811067ffffffffffffffff82111715620014ee57620014ed62001492565b5b80604052505050565b600062001503620010b4565b9050620015118282620014c1565b919050565b600067ffffffffffffffff82111562001534576200153362001492565b5b602082029050602081019050919050565b600080fd5b600080fd5b600067ffffffffffffffff8211156200156d576200156c62001492565b5b620015788262001481565b9050602081019050919050565b82818337600083830152505050565b6000620015ab620015a5846200154f565b620014f7565b905082815260208101848484011115620015ca57620015c96200154a565b5b620015d784828562001585565b509392505050565b600082601f830112620015f757620015f66200147c565b5b81356200160984826020860162001594565b91505092915050565b600062001629620016238462001516565b620014f7565b905080838252602082019050602084028301858111156200164f576200164e62001545565b5b835b818110156200169d57803567ffffffffffffffff8111156200167857620016776200147c565b5b808601620016878982620015df565b8552602085019450505060208101905062001651565b5050509392505050565b600082601f830112620016bf57620016be6200147c565b5b8135620016d184826020860162001612565b91505092915050565b60008060008060808587031215620016f757620016f6620010be565b5b60006200170787828801620012f3565b945050602085013567ffffffffffffffff8111156200172b576200172a620010c3565b5b6200173987828801620016a7565b93505060406200174c8782880162001151565b92505060606200175f8782880162001116565b91505092959194509250565b600081519050919050565b600082825260208201905092915050565b60005b83811015620017a75780820151818401526020810190506200178a565b83811115620017b7576000848401525b50505050565b6000620017ca826200176b565b620017d6818562001776565b9350620017e881856020860162001787565b620017f38162001481565b840191505092915050565b600060208201905081810360008301526200181a8184620017bd565b905092915050565b600081519050919050565b600082825260208201905092915050565b6000819050602082019050919050565b600082825260208201905092915050565b60006200186c826200176b565b6200187881856200184e565b93506200188a81856020860162001787565b620018958162001481565b840191505092915050565b6000620018ae83836200185f565b905092915050565b6000602082019050919050565b6000620018d08262001822565b620018dc81856200182d565b935083602082028501620018f0856200183e565b8060005b85811015620019325784840389528151620019108582620018a0565b94506200191d83620018b6565b925060208a01995050600181019050620018f4565b50829750879550505050505092915050565b6200194f816200112d565b82525050565b60006080820190506200196c6000830187620013ae565b8181036020830152620019808186620018c3565b905062001991604083018562001944565b620019a06060830184620011af565b95945050505050565b60008060408385031215620019c357620019c2620010be565b5b6000620019d38582860162001151565b9250506020620019e68582860162001116565b9150509250929050565b600060208201905062001a07600083018462001944565b92915050565b7f4e487b7100000000000000000000000000000000000000000000000000000000600052603260045260246000fd5b7f4e487b7100000000000000000000000000000000000000000000000000000000600052601160045260246000fd5b600062001a78826200112d565b91507fffffffffffffffffffffffffffffffffffffffffffffffffffffffffffffffff820362001aad5762001aac62001a3c565b5b600182019050919050565b7f526f6c653d3e537570706c6965722063616e2075736520746869732066756e6360008201527f74696f6e00000000000000000000000000000000000000000000000000000000602082015250565b600062001b1660248362001776565b915062001b238262001ab8565b604082019050919050565b6000602082019050818103600083015262001b498162001b07565b9050919050565b600060208201905062001b676000830184620013ae565b92915050565b7f5573657220646f6573206e6f7420657869737400000000000000000000000000600082015250565b600062001ba560138362001776565b915062001bb28262001b6d565b602082019050919050565b6000602082019050818103600083015262001bd88162001b96565b9050919050565b7f4e487b7100000000000000000000000000000000000000000000000000000000600052602260045260246000fd5b6000600282049050600182168062001c2757607f821691505b60208210810362001c3d5762001c3c62001bdf565b5b50919050565b60008160601b9050919050565b600062001c5d8262001c43565b9050919050565b600062001c718262001c50565b9050919050565b62001c8d62001c8782620010e8565b62001c64565b82525050565b6000819050919050565b62001cb262001cac826200112d565b62001c93565b82525050565b600062001cc6828562001c78565b60148201915062001cd8828462001c9d565b6020820191508190509392505050565b600081519050919050565b600081905092915050565b600062001d0b8262001ce8565b62001d17818562001cf3565b935062001d2981856020860162001787565b80840191505092915050565b600062001d43828462001cfe565b915081905092915050565b60008151905062001d5f81620012d9565b92915050565b60006020828403121562001d7e5762001d7d620010be565b5b600062001d8e8482850162001d4e565b91505092915050565b600060c08201905062001dae6000830189620011af565b62001dbd6020830188620011af565b62001dcc6040830187620013ae565b62001ddb606083018662001944565b62001dea6080830185620011af565b62001df960a0830184620011af565b97965050505050505056fe60806040523480156200001157600080fd5b506040516200234738038062002347833981810160405281019062000037919062000345565b856000806101000a81548173ffffffffffffffffffffffffffffffffffffffff021916908373ffffffffffffffffffffffffffffffffffffffff16021790555084600160006101000a81548173ffffffffffffffffffffffffffffffffffffffff021916908373ffffffffffffffffffffffffffffffffffffffff160217905550836002819055508260038190555081600460006101000a81548173ffffffffffffffffffffffffffffffffffffffff021916908373ffffffffffffffffffffffffffffffffffffffff16021790555080600560006101000a81548173ffffffffffffffffffffffffffffffffffffffff021916908373ffffffffffffffffffffffffffffffffffffffff16021790555085600660006101000a81548173ffffffffffffffffffffffffffffffffffffffff021916908373ffffffffffffffffffffffffffffffffffffffff16021790555060006002811115620001a0576200019f620003e1565b5b600660146101000a81548160ff02191690836002811115620001c757620001c6620003e1565b5b0217905550600081604051620001dd9062000257565b620001e9919062000421565b604051809103906000f08015801562000206573d6000803e3d6000fd5b50905080600860006101000a81548173ffffffffffffffffffffffffffffffffffffffff021916908373ffffffffffffffffffffffffffffffffffffffff160217905550505050505050506200043e565b6114158062000f3283390190565b600080fd5b600073ffffffffffffffffffffffffffffffffffffffff82169050919050565b600062000297826200026a565b9050919050565b620002a9816200028a565b8114620002b557600080fd5b50565b600081519050620002c9816200029e565b92915050565b6000819050919050565b620002e481620002cf565b8114620002f057600080fd5b50565b6000815190506200030481620002d9565b92915050565b6000819050919050565b6200031f816200030a565b81146200032b57600080fd5b50565b6000815190506200033f8162000314565b92915050565b60008060008060008060c0878903121562000365576200036462000265565b5b60006200037589828a01620002b8565b96505060206200038889828a01620002b8565b95505060406200039b89828a01620002f3565b9450506060620003ae89828a016200032e565b9350506080620003c189828a01620002b8565b92505060a0620003d489828a01620002b8565b9150509295509295509295565b7f4e487b7100000000000000000000000000000000000000000000000000000000600052602160045260246000fd5b6200041b816200028a565b82525050565b600060208201905062000438600083018462000410565b92915050565b610ae4806200044e6000396000f3fe608060405234801561001057600080fd5b506004361061004c5760003560e01c806352b9996814610051578063638e9a3d1461006d5780636b099dca1461008957806380723520146100a7575b600080fd5b61006b600480360381019061006691906106a8565b6100cb565b005b610087600480360381019061008291906106a8565b610308565b005b610091610545565b60405161009e91906106ee565b60405180910390f35b6100af61056e565b6040516100c29796959493929190610731565b60405180910390f35b600560009054906101000a900473ffffffffffffffffffffffffffffffffffffffff1673ffffffffffffffffffffffffffffffffffffffff168173ffffffffffffffffffffffffffffffffffffffff161461015b576040517f08c379a000000000000000000000000000000000000000000000000000000000815260040161015290610823565b60405180910390fd5b6001600281111561016f5761016e610843565b5b600281111561018157610180610843565b5b600660149054906101000a900460ff1660028111156101a3576101a2610843565b5b146101e3576040517f08c379a00000000000000000000000000000000000000000000000000000000081526004016101da906108be565b60405180910390fd5b6002808111156101f6576101f5610843565b5b600660146101000a81548160ff0219169083600281111561021a57610219610843565b5b0217905550600560009054906101000a900473ffffffffffffffffffffffffffffffffffffffff1673ffffffffffffffffffffffffffffffffffffffff16600460009054906101000a900473ffffffffffffffffffffffffffffffffffffffff1673ffffffffffffffffffffffffffffffffffffffff16600160009054906101000a900473ffffffffffffffffffffffffffffffffffffffff1673ffffffffffffffffffffffffffffffffffffffff167f7e89c4b1a4e2b51aae84eb1f90e8a34cb792ece5ac5cb63db4830c891220b28d600160026040516102fd92919061095e565b60405180910390a450565b600460009054906101000a900473ffffffffffffffffffffffffffffffffffffffff1673ffffffffffffffffffffffffffffffffffffffff168173ffffffffffffffffffffffffffffffffffffffff1614610398576040517f08c379a000000000000000000000000000000000000000000000000000000000815260040161038f906109f9565b60405180910390fd5b600060028111156103ac576103ab610843565b5b60028111156103be576103bd610843565b5b600660149054906101000a900460ff1660028111156103e0576103df610843565b5b14610420576040517f08c379a000000000000000000000000000000000000000000000000000000000815260040161041790610a65565b60405180910390fd5b6001600281111561043457610433610843565b5b600660146101000a81548160ff0219169083600281111561045857610457610843565b5b0217905550600560009054906101000a900473ffffffffffffffffffffffffffffffffffffffff1673ffffffffffffffffffffffffffffffffffffffff16600460009054906101000a900473ffffffffffffffffffffffffffffffffffffffff1673ffffffffffffffffffffffffffffffffffffffff16600160009054906101000a900473ffffffffffffffffffffffffffffffffffffffff1673ffffffffffffffffffffffffffffffffffffffff167f7e89c4b1a4e2b51aae84eb1f90e8a34cb792ece5ac5cb63db4830c891220b28d60018060405161053a929190610a85565b60405180910390a450565b6000600660149054906101000a900460ff16600281111561056957610568610843565b5b905090565b6000806000806000806000600160009054906101000a900473ffffffffffffffffffffffffffffffffffffffff16600254600354600660009054906101000a900473ffffffffffffffffffffffffffffffffffffffff16600460009054906101000a900473ffffffffffffffffffffffffffffffffffffffff16600560009054906101000a900473ffffffffffffffffffffffffffffffffffffffff16600860009054906101000a900473ffffffffffffffffffffffffffffffffffffffff16965096509650965096509650965090919293949596565b600080fd5b600073ffffffffffffffffffffffffffffffffffffffff82169050919050565b60006106758261064a565b9050919050565b6106858161066a565b811461069057600080fd5b50565b6000813590506106a28161067c565b92915050565b6000602082840312156106be576106bd610645565b5b60006106cc84828501610693565b91505092915050565b6000819050919050565b6106e8816106d5565b82525050565b600060208201905061070360008301846106df565b92915050565b6107128161066a565b82525050565b6000819050919050565b61072b81610718565b82525050565b600060e082019050610746600083018a610709565b6107536020830189610722565b61076060408301886106df565b61076d6060830187610709565b61077a6080830186610709565b61078760a0830185610709565b61079460c0830184610709565b98975050505050505050565b600082825260208201905092915050565b7f4f6e6c79204d616e756661637475726572206f6620746865207061636b61676560008201527f2063616e20726563656965766520746865207061636b61676500000000000000602082015250565b600061080d6039836107a0565b9150610818826107b1565b604082019050919050565b6000602082019050818103600083015261083c81610800565b9050919050565b7f4e487b7100000000000000000000000000000000000000000000000000000000600052602160045260246000fd5b7f50726f64756374206e6f74207069636b65642075702079657400000000000000600082015250565b60006108a86019836107a0565b91506108b382610872565b602082019050919050565b600060208201905081810360008301526108d78161089b565b9050919050565b6000819050919050565b6000819050919050565b600061090d610908610903846108de565b6108e8565b6106d5565b9050919050565b61091d816108f2565b82525050565b6000819050919050565b600061094861094361093e84610923565b6108e8565b6106d5565b9050919050565b6109588161092d565b82525050565b60006040820190506109736000830185610914565b610980602083018461094f565b9392505050565b7f4f6e6c79207472616e73706f72746572206f6620746865207061636b6167652060008201527f63616e207069636b207061636b61676500000000000000000000000000000000602082015250565b60006109e36030836107a0565b91506109ee82610987565b604082019050919050565b60006020820190508181036000830152610a12816109d6565b9050919050565b7f5061636b616765206d75737420626520617420537570706c6965722e00000000600082015250565b6000610a4f601c836107a0565b9150610a5a82610a19565b602082019050919050565b60006020820190508181036000830152610a7e81610a42565b9050919050565b6000604082019050610a9a6000830185610914565b610aa76020830184610914565b939250505056fea264697066735822122049beb49c56306f0b31cda3b18aecbf1294a1c12321f12f3a122d425a99c1dcb664736f6c634300080d0033608060405260006002553480156200001657600080fd5b50604051620014153803806200141583398181016040528101906200003c9190620000ed565b806000806101000a81548173ffffffffffffffffffffffffffffffffffffffff021916908373ffffffffffffffffffffffffffffffffffffffff160217905550506200011f565b600080fd5b600073ffffffffffffffffffffffffffffffffffffffff82169050919050565b6000620000b58262000088565b9050919050565b620000c781620000a8565b8114620000d357600080fd5b50565b600081519050620000e781620000bc565b92915050565b60006020828403121562000106576200010562000083565b5b60006200011684828501620000d6565b91505092915050565b6112e6806200012f6000396000f3fe608060405234801561001057600080fd5b506004361061004c5760003560e01c806327506f53146100515780633626a3681461006f57806378ce13651461008b5780639ace38c2146100a9575b600080fd5b6100596100df565b6040516100669190610c47565b60405180910390f35b61008960048036038101906100849190610e0a565b610391565b005b61009361072c565b6040516100a09190610ede565b60405180910390f35b6100c360048036038101906100be9190610f25565b610732565b6040516100d69796959493929190610fba565b60405180910390f35b60606000600254905060008167ffffffffffffffff81111561010457610103610cdf565b5b60405190808252806020026020018201604052801561013d57816020015b61012a6108c4565b8152602001906001900390816101225790505b50905060005b8281101561038857600160008281526020019081526020016000206040518060e0016040529081600082015481526020016001820160009054906101000a900473ffffffffffffffffffffffffffffffffffffffff1673ffffffffffffffffffffffffffffffffffffffff1673ffffffffffffffffffffffffffffffffffffffff1681526020016002820160009054906101000a900473ffffffffffffffffffffffffffffffffffffffff1673ffffffffffffffffffffffffffffffffffffffff1673ffffffffffffffffffffffffffffffffffffffff1681526020016003820154815260200160048201805461023990611066565b80601f016020809104026020016040519081016040528092919081815260200182805461026590611066565b80156102b25780601f10610287576101008083540402835291602001916102b2565b820191906000526020600020905b81548152906001019060200180831161029557829003601f168201915b505050505081526020016005820180546102cb90611066565b80601f01602080910402602001604051908101604052809291908181526020018280546102f790611066565b80156103445780601f1061031957610100808354040283529160200191610344565b820191906000526020600020905b81548152906001019060200180831161032757829003601f168201915b5050505050815260200160068201548152505082828151811061036a57610369611097565b5b60200260200101819052508080610380906110f5565b915050610143565b50809250505090565b6000429050600060025403610502576040518060e001604052808881526020018773ffffffffffffffffffffffffffffffffffffffff1681526020018673ffffffffffffffffffffffffffffffffffffffff168152602001858152602001848152602001838152602001828152506001600060025481526020019081526020016000206000820151816000015560208201518160010160006101000a81548173ffffffffffffffffffffffffffffffffffffffff021916908373ffffffffffffffffffffffffffffffffffffffff16021790555060408201518160020160006101000a81548173ffffffffffffffffffffffffffffffffffffffff021916908373ffffffffffffffffffffffffffffffffffffffff1602179055506060820151816003015560808201518160040190805190602001906104d2929190610933565b5060a08201518160050190805190602001906104ef929190610933565b5060c082015181600601559050506106c6565b83600160006001600254610516919061113d565b81526020019081526020016000206000015414610568576040517f08c379a000000000000000000000000000000000000000000000000000000000815260040161055f906111bd565b60405180910390fd5b6040518060e001604052808881526020018773ffffffffffffffffffffffffffffffffffffffff1681526020018673ffffffffffffffffffffffffffffffffffffffff168152602001858152602001848152602001838152602001828152506001600060025481526020019081526020016000206000820151816000015560208201518160010160006101000a81548173ffffffffffffffffffffffffffffffffffffffff021916908373ffffffffffffffffffffffffffffffffffffffff16021790555060408201518160020160006101000a81548173ffffffffffffffffffffffffffffffffffffffff021916908373ffffffffffffffffffffffffffffffffffffffff16021790555060608201518160030155608082015181600401908051906020019061069a929190610933565b5060a08201518160050190805190602001906106b7929190610933565b5060c082015181600601559050505b6001600260008282546106d991906111dd565b925050819055507f30d01d358fb0899fe4d50947b2e9301c952d9eed09b14c7ecdcbeed4434557c48787878785888860405161071b9796959493929190611233565b60405180910390a150505050505050565b60025481565b60016020528060005260406000206000915090508060000154908060010160009054906101000a900473ffffffffffffffffffffffffffffffffffffffff16908060020160009054906101000a900473ffffffffffffffffffffffffffffffffffffffff16908060030154908060040180546107ad90611066565b80601f01602080910402602001604051908101604052809291908181526020018280546107d990611066565b80156108265780601f106107fb57610100808354040283529160200191610826565b820191906000526020600020905b81548152906001019060200180831161080957829003601f168201915b50505050509080600501805461083b90611066565b80601f016020809104026020016040519081016040528092919081815260200182805461086790611066565b80156108b45780601f10610889576101008083540402835291602001916108b4565b820191906000526020600020905b81548152906001019060200180831161089757829003601f168201915b5050505050908060060154905087565b6040518060e0016040528060008019168152602001600073ffffffffffffffffffffffffffffffffffffffff168152602001600073ffffffffffffffffffffffffffffffffffffffff168152602001600080191681526020016060815260200160608152602001600081525090565b82805461093f90611066565b90600052602060002090601f01602090048101928261096157600085556109a8565b82601f1061097a57805160ff19168380011785556109a8565b828001600101855582156109a8579182015b828111156109a757825182559160200191906001019061098c565b5b5090506109b591906109b9565b5090565b5b808211156109d25760008160009055506001016109ba565b5090565b600081519050919050565b600082825260208201905092915050565b6000819050602082019050919050565b6000819050919050565b610a1581610a02565b82525050565b600073ffffffffffffffffffffffffffffffffffffffff82169050919050565b6000610a4682610a1b565b9050919050565b610a5681610a3b565b82525050565b600081519050919050565b600082825260208201905092915050565b60005b83811015610a96578082015181840152602081019050610a7b565b83811115610aa5576000848401525b50505050565b6000601f19601f8301169050919050565b6000610ac782610a5c565b610ad18185610a67565b9350610ae1818560208601610a78565b610aea81610aab565b840191505092915050565b6000819050919050565b610b0881610af5565b82525050565b600060e083016000830151610b266000860182610a0c565b506020830151610b396020860182610a4d565b506040830151610b4c6040860182610a4d565b506060830151610b5f6060860182610a0c565b5060808301518482036080860152610b778282610abc565b91505060a083015184820360a0860152610b918282610abc565b91505060c0830151610ba660c0860182610aff565b508091505092915050565b6000610bbd8383610b0e565b905092915050565b6000602082019050919050565b6000610bdd826109d6565b610be781856109e1565b935083602082028501610bf9856109f2565b8060005b85811015610c355784840389528151610c168582610bb1565b9450610c2183610bc5565b925060208a01995050600181019050610bfd565b50829750879550505050505092915050565b60006020820190508181036000830152610c618184610bd2565b905092915050565b6000604051905090565b600080fd5b600080fd5b610c8681610a02565b8114610c9157600080fd5b50565b600081359050610ca381610c7d565b92915050565b610cb281610a3b565b8114610cbd57600080fd5b50565b600081359050610ccf81610ca9565b92915050565b600080fd5b600080fd5b7f4e487b7100000000000000000000000000000000000000000000000000000000600052604160045260246000fd5b610d1782610aab565b810181811067ffffffffffffffff82111715610d3657610d35610cdf565b5b80604052505050565b6000610d49610c69565b9050610d558282610d0e565b919050565b600067ffffffffffffffff821115610d7557610d74610cdf565b5b610d7e82610aab565b9050602081019050919050565b82818337600083830152505050565b6000610dad610da884610d5a565b610d3f565b905082815260208101848484011115610dc957610dc8610cda565b5b610dd4848285610d8b565b509392505050565b600082601f830112610df157610df0610cd5565b5b8135610e01848260208601610d9a565b91505092915050565b60008060008060008060c08789031215610e2757610e26610c73565b5b6000610e3589828a01610c94565b9650506020610e4689828a01610cc0565b9550506040610e5789828a01610cc0565b9450506060610e6889828a01610c94565b935050608087013567ffffffffffffffff811115610e8957610e88610c78565b5b610e9589828a01610ddc565b92505060a087013567ffffffffffffffff811115610eb657610eb5610c78565b5b610ec289828a01610ddc565b9150509295509295509295565b610ed881610af5565b82525050565b6000602082019050610ef36000830184610ecf565b92915050565b610f0281610af5565b8114610f0d57600080fd5b50565b600081359050610f1f81610ef9565b92915050565b600060208284031215610f3b57610f3a610c73565b5b6000610f4984828501610f10565b91505092915050565b610f5b81610a02565b82525050565b610f6a81610a3b565b82525050565b600082825260208201905092915050565b6000610f8c82610a5c565b610f968185610f70565b9350610fa6818560208601610a78565b610faf81610aab565b840191505092915050565b600060e082019050610fcf600083018a610f52565b610fdc6020830189610f61565b610fe96040830188610f61565b610ff66060830187610f52565b81810360808301526110088186610f81565b905081810360a083015261101c8185610f81565b905061102b60c0830184610ecf565b98975050505050505050565b7f4e487b7100000000000000000000000000000000000000000000000000000000600052602260045260246000fd5b6000600282049050600182168061107e57607f821691505b60208210810361109157611090611037565b5b50919050565b7f4e487b7100000000000000000000000000000000000000000000000000000000600052603260045260246000fd5b7f4e487b7100000000000000000000000000000000000000000000000000000000600052601160045260246000fd5b600061110082610af5565b91507fffffffffffffffffffffffffffffffffffffffffffffffffffffffffffffffff8203611132576111316110c6565b5b600182019050919050565b600061114882610af5565b915061115383610af5565b925082821015611166576111656110c6565b5b828203905092915050565b7f5472616e73616374696f6e206572726f72206f63637572726564210000000000600082015250565b60006111a7601b83610f70565b91506111b282611171565b602082019050919050565b600060208201905081810360008301526111d68161119a565b9050919050565b60006111e882610af5565b91506111f383610af5565b9250827fffffffffffffffffffffffffffffffffffffffffffffffffffffffffffffffff03821115611228576112276110c6565b5b828201905092915050565b600060e082019050611248600083018a610f52565b6112556020830189610f61565b6112626040830188610f61565b61126f6060830187610f52565b61127c6080830186610ecf565b81810360a083015261128e8185610f81565b905081810360c08301526112a28184610f81565b90509897505050505050505056fea26469706673582212205165ac39670d5e25c3254f88012313e2ed1c7a0462c41647254a654cb356196e64736f6c634300080d0033a26469706673582212207f153e0582ae2aeb0a086647f1c044c5abb7a466b4783b8be89d737aa2627e5064736f6c634300080d0033",
  "immutableReferences": {},
  "source": "//SPDX-License-Identifier: MIT\r\npragma solidity >=0.4.22 <0.9.0;\r\nimport './Supplier.sol';\r\n//// New supply chain : supplier -> transporter -> manufacturer -> transporter -> whole-saler -> transporter -> distributor -> transporter -> customer/hospital/pharmacy\r\n\r\n\r\n// contract SupplyChain is Supplier, Transporter, Manufacturer, Wholesaler, Distributor, Customer {\r\ncontract SupplyChain is Supplier {\r\n    \r\n    address public Owner;\r\n    \r\n    constructor()  {\r\n        Owner = msg.sender;\r\n    }\r\n    \r\n    modifier onlyOwner() {\r\n        require(Owner == msg.sender);\r\n        _;\r\n    }\r\n    \r\n    modifier checkUser(address addr) {\r\n        require(addr == msg.sender);\r\n        _;\r\n    }\r\n    \r\n    enum roles {\r\n        noRole,\r\n        supplier,\r\n        transporter,\r\n        manufacturer,\r\n        wholesaler,\r\n        distributor,\r\n        customer\r\n    }\r\n    \r\n    \r\n    //////////////// Events ////////////////////\r\n    \r\n    event UserRegister(address indexed _address, bytes32 name);\r\n\r\n    /////////////// Users (Only Owner Executable) //////////////////////\r\n    \r\n    struct userData {\r\n        bytes32 name;\r\n        string[] userLoc;\r\n        roles role;\r\n        address userAddr;\r\n    }\r\n    \r\n    mapping (address => userData) public userInfo;\r\n    \r\n    function registerUser(bytes32 _name,string[] memory loc, uint _role, address _addr) external onlyOwner returns(string memory) {\r\n        userInfo[_addr].name = _name;\r\n        userInfo[_addr].userLoc = loc;\r\n        userInfo[_addr].role = roles(_role);\r\n        userInfo[_addr].userAddr = _addr;\r\n        emit UserRegister(_addr, _name);\r\n        return \"User Registered!\";\r\n    }\r\n    \r\n    function changeUserRole(uint _role, address _addr) external onlyOwner returns(string memory) {\r\n        userInfo[_addr].role = roles(_role);\r\n       return \"Role Updated!\";\r\n    }\r\n\r\n    function getUser(address _addr) external view returns (bytes32, string[] memory, uint, address) {\r\n        require(userInfo[_addr].userAddr != address(0), \"User does not exist\");\r\n        userData memory user = userInfo[_addr];\r\n        return (user.name, user.userLoc, uint(user.role), user.userAddr);\r\n    }\r\n    /////////////// Supplier //////////////////////\r\n    \r\n    \r\n    function supplierCreatesRawPackage(\r\n        bytes32 _description,\r\n        uint _quantity,\r\n        address _transporterAddr,\r\n        address _manufacturerAddr\r\n        ) external {\r\n            require(userInfo[msg.sender].role == roles.supplier, \"Role=>Supplier can use this function\");\r\n            createRawMaterialPackage(_description, _quantity, _transporterAddr,_manufacturerAddr);\r\n    }\r\n    \r\n    function supplierGetPackageCount() external view returns(uint) {\r\n        require(userInfo[msg.sender].role == roles.supplier, \"Role=>Supplier can use this function\");\r\n        \r\n        return getNoOfPackagesOfSupplier();\r\n    }\r\n    \r\n    function supplierGetRawMaterialAddresses() external view returns(address[] memory) {\r\n        address[] memory ret = getAllPackages();\r\n        return ret;\r\n    }\r\n    \r\n\r\n\r\n\r\n}",
  "sourcePath": "D:\\Quote\\MediChain\\contracts\\SupplyChain.sol",
  "compiler": {
    "name": "solc",
    "version": "0.8.13+commit.abaa5c0e.Emscripten.clang"
  },
  "schemaVersion": "3.4.16",
  "updatedAt": "2023-10-07T03:54:36.746Z",
  "networkType": "ethereum",
  "devdoc": {
    "kind": "dev",
    "methods": {},
    "version": 1
  },
  "userdoc": {
    "kind": "user",
    "methods": {},
    "version": 1
  }
}