{
  "contractName": "SupplyChain",
  "abi": [
    {
      "inputs": [],
      "stateMutability": "nonpayable",
      "type": "constructor"
    },
    {
      "anonymous": false,
      "inputs": [
        {
          "indexed": true,
          "internalType": "address",
          "name": "_address",
          "type": "address"
        },
        {
          "indexed": false,
          "internalType": "bytes32",
          "name": "name",
          "type": "bytes32"
        }
      ],
      "name": "UserRegister",
      "type": "event"
    },
    {
      "anonymous": false,
      "inputs": [
        {
          "indexed": false,
          "internalType": "address",
          "name": "buyer",
          "type": "address"
        },
        {
          "indexed": true,
          "internalType": "address",
          "name": "seller",
          "type": "address"
        },
        {
          "indexed": false,
          "internalType": "address",
          "name": "packageAddr",
          "type": "address"
        },
        {
          "indexed": false,
          "internalType": "bytes",
          "name": "signature",
          "type": "bytes"
        },
        {
          "indexed": true,
          "internalType": "uint256",
          "name": "timestamp",
          "type": "uint256"
        }
      ],
      "name": "buyEvent",
      "type": "event"
    },
    {
      "anonymous": false,
      "inputs": [
        {
          "indexed": true,
          "internalType": "address",
          "name": "buyer",
          "type": "address"
        },
        {
          "indexed": false,
          "internalType": "address",
          "name": "seller",
          "type": "address"
        },
        {
          "indexed": false,
          "internalType": "address",
          "name": "packageAddr",
          "type": "address"
        },
        {
          "indexed": false,
          "internalType": "bytes",
          "name": "signature",
          "type": "bytes"
        },
        {
          "indexed": true,
          "internalType": "uint256",
          "name": "timestamp",
          "type": "uint256"
        }
      ],
      "name": "receivedEvent",
      "type": "event"
    },
    {
      "anonymous": false,
      "inputs": [
        {
          "indexed": true,
          "internalType": "address",
          "name": "buyer",
          "type": "address"
        },
        {
          "indexed": false,
          "internalType": "address",
          "name": "seller",
          "type": "address"
        },
        {
          "indexed": false,
          "internalType": "address",
          "name": "packageAddr",
          "type": "address"
        },
        {
          "indexed": false,
          "internalType": "bytes",
          "name": "signature",
          "type": "bytes"
        },
        {
          "indexed": true,
          "internalType": "uint256",
          "name": "timestamp",
          "type": "uint256"
        }
      ],
      "name": "respondEvent",
      "type": "event"
    },
    {
      "anonymous": false,
      "inputs": [
        {
          "indexed": false,
          "internalType": "address",
          "name": "seller",
          "type": "address"
        },
        {
          "indexed": false,
          "internalType": "address",
          "name": "buyer",
          "type": "address"
        },
        {
          "indexed": true,
          "internalType": "address",
          "name": "packageAddr",
          "type": "address"
        },
        {
          "indexed": false,
          "internalType": "bytes",
          "name": "signature",
          "type": "bytes"
        },
        {
          "indexed": true,
          "internalType": "uint256",
          "name": "timestamp",
          "type": "uint256"
        }
      ],
      "name": "sendEvent",
      "type": "event"
    },
    {
      "inputs": [],
      "name": "Owner",
      "outputs": [
        {
          "internalType": "address",
          "name": "",
          "type": "address"
        }
      ],
      "stateMutability": "view",
      "type": "function",
      "constant": true
    },
    {
      "inputs": [
        {
          "internalType": "bytes32",
          "name": "_description",
          "type": "bytes32"
        },
        {
          "internalType": "uint256",
          "name": "_quantity",
          "type": "uint256"
        },
        {
          "internalType": "address",
          "name": "_transporterAddr",
          "type": "address"
        },
        {
          "internalType": "address",
          "name": "_manufacturerAddr",
          "type": "address"
        }
      ],
      "name": "createRawMaterialPackage",
      "outputs": [],
      "stateMutability": "nonpayable",
      "type": "function"
    },
    {
      "inputs": [],
      "name": "getAllPackages",
      "outputs": [
        {
          "internalType": "address[]",
          "name": "",
          "type": "address[]"
        }
      ],
      "stateMutability": "view",
      "type": "function",
      "constant": true
    },
    {
      "inputs": [],
      "name": "getNoOfPackagesOfSupplier",
      "outputs": [
        {
          "internalType": "uint256",
          "name": "",
          "type": "uint256"
        }
      ],
      "stateMutability": "view",
      "type": "function",
      "constant": true
    },
    {
      "inputs": [
        {
          "internalType": "address",
          "name": "",
          "type": "address"
        },
        {
          "internalType": "uint256",
          "name": "",
          "type": "uint256"
        }
      ],
      "name": "supplierRawMaterials",
      "outputs": [
        {
          "internalType": "address",
          "name": "",
          "type": "address"
        }
      ],
      "stateMutability": "view",
      "type": "function",
      "constant": true
    },
    {
      "inputs": [
        {
          "internalType": "address",
          "name": "",
          "type": "address"
        }
      ],
      "name": "userInfo",
      "outputs": [
        {
          "internalType": "bytes32",
          "name": "name",
          "type": "bytes32"
        },
        {
          "internalType": "enum SupplyChain.roles",
          "name": "role",
          "type": "uint8"
        },
        {
          "internalType": "address",
          "name": "userAddr",
          "type": "address"
        }
      ],
      "stateMutability": "view",
      "type": "function",
      "constant": true
    },
    {
      "inputs": [
        {
          "internalType": "address",
          "name": "buyer",
          "type": "address"
        },
        {
          "internalType": "address",
          "name": "seller",
          "type": "address"
        },
        {
          "internalType": "address",
          "name": "packageAddr",
          "type": "address"
        },
        {
          "internalType": "bytes",
          "name": "signature",
          "type": "bytes"
        }
      ],
      "name": "requestProduct",
      "outputs": [],
      "stateMutability": "nonpayable",
      "type": "function"
    },
    {
      "inputs": [
        {
          "internalType": "address",
          "name": "buyer",
          "type": "address"
        },
        {
          "internalType": "address",
          "name": "seller",
          "type": "address"
        },
        {
          "internalType": "address",
          "name": "packageAddr",
          "type": "address"
        },
        {
          "internalType": "bytes",
          "name": "signature",
          "type": "bytes"
        }
      ],
      "name": "respondToEntity",
      "outputs": [],
      "stateMutability": "nonpayable",
      "type": "function"
    },
    {
      "inputs": [
        {
          "internalType": "address",
          "name": "buyer",
          "type": "address"
        },
        {
          "internalType": "address",
          "name": "seller",
          "type": "address"
        },
        {
          "internalType": "address",
          "name": "packageAddr",
          "type": "address"
        },
        {
          "internalType": "bytes",
          "name": "signature",
          "type": "bytes"
        }
      ],
      "name": "sendPackageToEntity",
      "outputs": [],
      "stateMutability": "nonpayable",
      "type": "function"
    },
    {
      "inputs": [
        {
          "internalType": "bytes32",
          "name": "_name",
          "type": "bytes32"
        },
        {
          "internalType": "string[]",
          "name": "loc",
          "type": "string[]"
        },
        {
          "internalType": "uint256",
          "name": "_role",
          "type": "uint256"
        },
        {
          "internalType": "address",
          "name": "_addr",
          "type": "address"
        }
      ],
      "name": "registerUser",
      "outputs": [
        {
          "internalType": "string",
          "name": "",
          "type": "string"
        }
      ],
      "stateMutability": "nonpayable",
      "type": "function"
    },
    {
      "inputs": [
        {
          "internalType": "uint256",
          "name": "_role",
          "type": "uint256"
        },
        {
          "internalType": "address",
          "name": "_addr",
          "type": "address"
        }
      ],
      "name": "changeUserRole",
      "outputs": [
        {
          "internalType": "string",
          "name": "",
          "type": "string"
        }
      ],
      "stateMutability": "nonpayable",
      "type": "function"
    },
    {
      "inputs": [
        {
          "internalType": "address",
          "name": "_addr",
          "type": "address"
        }
      ],
      "name": "getUser",
      "outputs": [
        {
          "internalType": "bytes32",
          "name": "",
          "type": "bytes32"
        },
        {
          "internalType": "string[]",
          "name": "",
          "type": "string[]"
        },
        {
          "internalType": "uint256",
          "name": "",
          "type": "uint256"
        },
        {
          "internalType": "address",
          "name": "",
          "type": "address"
        }
      ],
      "stateMutability": "view",
      "type": "function",
      "constant": true
    },
    {
      "inputs": [
        {
          "internalType": "bytes32",
          "name": "_description",
          "type": "bytes32"
        },
        {
          "internalType": "uint256",
          "name": "_quantity",
          "type": "uint256"
        },
        {
          "internalType": "address",
          "name": "_transporterAddr",
          "type": "address"
        },
        {
          "internalType": "address",
          "name": "_manufacturerAddr",
          "type": "address"
        }
      ],
      "name": "supplierCreatesRawPackage",
      "outputs": [],
      "stateMutability": "nonpayable",
      "type": "function"
    },
    {
      "inputs": [],
      "name": "supplierGetPackageCount",
      "outputs": [
        {
          "internalType": "uint256",
          "name": "",
          "type": "uint256"
        }
      ],
      "stateMutability": "view",
      "type": "function",
      "constant": true
    },
    {
      "inputs": [],
      "name": "supplierGetRawMaterialAddresses",
      "outputs": [
        {
          "internalType": "address[]",
          "name": "",
          "type": "address[]"
        }
      ],
      "stateMutability": "view",
      "type": "function",
      "constant": true
    },
    {
      "inputs": [
        {
          "internalType": "address",
          "name": "p",
          "type": "address"
        },
        {
          "internalType": "bytes32",
          "name": "hash",
          "type": "bytes32"
        },
        {
          "internalType": "uint8",
          "name": "v",
          "type": "uint8"
        },
        {
          "internalType": "bytes32",
          "name": "r",
          "type": "bytes32"
        },
        {
          "internalType": "bytes32",
          "name": "s",
          "type": "bytes32"
        }
      ],
      "name": "verify",
      "outputs": [
        {
          "internalType": "bool",
          "name": "",
          "type": "bool"
        }
      ],
      "stateMutability": "pure",
      "type": "function",
      "constant": true
    }
  ],
  "bytecode": "0x608060405234801561001057600080fd5b5033600160006101000a81548173ffffffffffffffffffffffffffffffffffffffff021916908373ffffffffffffffffffffffffffffffffffffffff1602179055506147ad806100616000396000f3fe60806040523480156200001157600080fd5b5060043610620001185760003560e01c80639100978611620000a5578063d06f7b55116200006f578063d06f7b55146200032e578063d1acb527146200034e578063e0cf92fe1462000370578063fc7e01f314620003905762000118565b8063910097861462000294578063b4a99a4e14620002ca578063b8b16ca314620002ec578063c22470ea146200030c5762000118565b80631f90ddaf11620000e75780631f90ddaf14620001cd578063506535f314620002035780636f77926b1462000239578063824e43e714620002725762000118565b806306db8324146200011d5780630a421f0f146200015357806311789ca614620001755780631959a0021462000195575b600080fd5b6200013b6004803603810190620001359190620013f0565b620003b0565b6040516200014a919062001448565b60405180910390f35b6200015d620003ff565b6040516200016c919062001533565b60405180910390f35b6200019360048036038101906200018d919062001592565b62000591565b005b620001b36004803603810190620001ad919062001604565b62000664565b604051620001c493929190620016c7565b60405180910390f35b620001eb6004803603810190620001e5919062001962565b620006bb565b604051620001fa919062001a86565b60405180910390f35b6200022160048036038101906200021b919062001ae8565b6200094b565b60405162000230919062001b8d565b60405180910390f35b62000257600480360381019062000251919062001604565b620009d8565b60405162000269949392919062001cdd565b60405180910390f35b6200027c62000cbe565b6040516200028b919062001533565b60405180910390f35b620002b26004803603810190620002ac919062001d31565b62000cd5565b604051620002c1919062001a86565b60405180910390f35b620002d462000df2565b604051620002e3919062001448565b60405180910390f35b6200030a600480360381019062000304919062001e2c565b62000e18565b005b6200031662000e73565b60405162000325919062001ebd565b60405180910390f35b6200034c600480360381019062000346919062001e2c565b62000ebc565b005b6200035862000f17565b60405162000367919062001ebd565b60405180910390f35b6200038e600480360381019062000388919062001e2c565b62000fe7565b005b620003ae6004803603810190620003a8919062001592565b62001042565b005b60006020528160005260406000208181548110620003cd57600080fd5b906000526020600020016000915091509054906101000a900473ffffffffffffffffffffffffffffffffffffffff1681565b606060008060003373ffffffffffffffffffffffffffffffffffffffff1673ffffffffffffffffffffffffffffffffffffffff16815260200190815260200160002080549050905060008167ffffffffffffffff8111156200046657620004656200171a565b5b604051908082528060200260200182016040528015620004955781602001602082028036833780820191505090505b50905060005b8281101562000588576000803373ffffffffffffffffffffffffffffffffffffffff1673ffffffffffffffffffffffffffffffffffffffff1681526020019081526020016000208181548110620004f757620004f662001eda565b5b9060005260206000200160009054906101000a900473ffffffffffffffffffffffffffffffffffffffff1682828151811062000538576200053762001eda565b5b602002602001019073ffffffffffffffffffffffffffffffffffffffff16908173ffffffffffffffffffffffffffffffffffffffff168152505080806200057f9062001f38565b9150506200049b565b50809250505090565b60016006811115620005a857620005a762001647565b5b600260003373ffffffffffffffffffffffffffffffffffffffff1673ffffffffffffffffffffffffffffffffffffffff16815260200190815260200160002060020160009054906101000a900460ff1660068111156200060d576200060c62001647565b5b1462000650576040517f08c379a0000000000000000000000000000000000000000000000000000000008152600401620006479062001ffb565b60405180910390fd5b6200065e8484848462001042565b50505050565b60026020528060005260406000206000915090508060000154908060020160009054906101000a900460ff16908060020160019054906101000a900473ffffffffffffffffffffffffffffffffffffffff16905083565b60603373ffffffffffffffffffffffffffffffffffffffff16600160009054906101000a900473ffffffffffffffffffffffffffffffffffffffff1673ffffffffffffffffffffffffffffffffffffffff16146200071857600080fd5b84600260008473ffffffffffffffffffffffffffffffffffffffff1673ffffffffffffffffffffffffffffffffffffffff1681526020019081526020016000206000018190555083600260008473ffffffffffffffffffffffffffffffffffffffff1673ffffffffffffffffffffffffffffffffffffffff1681526020019081526020016000206001019080519060200190620007b7929190620011a9565b50826006811115620007ce57620007cd62001647565b5b600260008473ffffffffffffffffffffffffffffffffffffffff1673ffffffffffffffffffffffffffffffffffffffff16815260200190815260200160002060020160006101000a81548160ff0219169083600681111562000835576200083462001647565b5b021790555081600260008473ffffffffffffffffffffffffffffffffffffffff1673ffffffffffffffffffffffffffffffffffffffff16815260200190815260200160002060020160016101000a81548173ffffffffffffffffffffffffffffffffffffffff021916908373ffffffffffffffffffffffffffffffffffffffff1602179055508173ffffffffffffffffffffffffffffffffffffffff167f33a7170f028b1e4f5ba321064a00ed820856a920c7f9c6636fbcf385427b1b0f866040516200090391906200201d565b60405180910390a26040518060400160405280601081526020017f55736572205265676973746572656421000000000000000000000000000000008152509050949350505050565b60008573ffffffffffffffffffffffffffffffffffffffff16600186868686604051600081526020016040526040516200098994939291906200204b565b6020604051602081039080840390855afa158015620009ac573d6000803e3d6000fd5b5050506020604051035173ffffffffffffffffffffffffffffffffffffffff1614905095945050505050565b60006060600080600073ffffffffffffffffffffffffffffffffffffffff16600260008773ffffffffffffffffffffffffffffffffffffffff1673ffffffffffffffffffffffffffffffffffffffff16815260200190815260200160002060020160019054906101000a900473ffffffffffffffffffffffffffffffffffffffff1673ffffffffffffffffffffffffffffffffffffffff160362000ab3576040517f08c379a000000000000000000000000000000000000000000000000000000000815260040162000aaa90620020e8565b60405180910390fd5b6000600260008773ffffffffffffffffffffffffffffffffffffffff1673ffffffffffffffffffffffffffffffffffffffff1681526020019081526020016000206040518060800160405290816000820154815260200160018201805480602002602001604051908101604052809291908181526020016000905b8282101562000be457838290600052602060002001805462000b509062002139565b80601f016020809104026020016040519081016040528092919081815260200182805462000b7e9062002139565b801562000bcf5780601f1062000ba35761010080835404028352916020019162000bcf565b820191906000526020600020905b81548152906001019060200180831162000bb157829003601f168201915b50505050508152602001906001019062000b2e565b5050505081526020016002820160009054906101000a900460ff16600681111562000c145762000c1362001647565b5b600681111562000c295762000c2862001647565b5b81526020016002820160019054906101000a900473ffffffffffffffffffffffffffffffffffffffff1673ffffffffffffffffffffffffffffffffffffffff1673ffffffffffffffffffffffffffffffffffffffff16815250509050806000015181602001518260400151600681111562000ca95762000ca862001647565b5b83606001519450945094509450509193509193565b6060600062000ccc620003ff565b90508091505090565b60603373ffffffffffffffffffffffffffffffffffffffff16600160009054906101000a900473ffffffffffffffffffffffffffffffffffffffff1673ffffffffffffffffffffffffffffffffffffffff161462000d3257600080fd5b82600681111562000d485762000d4762001647565b5b600260008473ffffffffffffffffffffffffffffffffffffffff1673ffffffffffffffffffffffffffffffffffffffff16815260200190815260200160002060020160006101000a81548160ff0219169083600681111562000daf5762000dae62001647565b5b02179055506040518060400160405280600d81526020017f526f6c6520557064617465642100000000000000000000000000000000000000815250905092915050565b600160009054906101000a900473ffffffffffffffffffffffffffffffffffffffff1681565b428373ffffffffffffffffffffffffffffffffffffffff167f22561ca0666e99052dd8231a6c5c337204ed5658c357aa6afcd53c207acfac6786858560405162000e6593929190620021cb565b60405180910390a350505050565b60008060003373ffffffffffffffffffffffffffffffffffffffff1673ffffffffffffffffffffffffffffffffffffffff16815260200190815260200160002080549050905090565b428273ffffffffffffffffffffffffffffffffffffffff167f31f87de04fd141167b8131be7a8ccb2bac63361a15671c96d90c39ddc9ef909d85878560405162000f0993929190620021cb565b60405180910390a350505050565b60006001600681111562000f305762000f2f62001647565b5b600260003373ffffffffffffffffffffffffffffffffffffffff1673ffffffffffffffffffffffffffffffffffffffff16815260200190815260200160002060020160009054906101000a900460ff16600681111562000f955762000f9462001647565b5b1462000fd8576040517f08c379a000000000000000000000000000000000000000000000000000000000815260040162000fcf9062001ffb565b60405180910390fd5b62000fe262000e73565b905090565b428473ffffffffffffffffffffffffffffffffffffffff167f9151271dfe612a18bf915ee1609e6f94f62fd775c704a0ae2ef091519f0c9b398585856040516200103493929190620021cb565b60405180910390a350505050565b600033600233426040516020016200105c92919062002284565b6040516020818303038152906040526040516200107a9190620022f6565b602060405180830381855afa15801562001098573d6000803e3d6000fd5b5050506040513d601f19601f82011682018060405250810190620010bd919062002326565b60601c86868686604051620010d29062001210565b620010e39695949392919062002358565b604051809103906000f08015801562001100573d6000803e3d6000fd5b5090506000803373ffffffffffffffffffffffffffffffffffffffff1673ffffffffffffffffffffffffffffffffffffffff168152602001908152602001600020819080600181540180825580915050600190039060005260206000200160009091909190916101000a81548173ffffffffffffffffffffffffffffffffffffffff021916908373ffffffffffffffffffffffffffffffffffffffff1602179055505050505050565b828054828255906000526020600020908101928215620011fd579160200282015b82811115620011fc578251829080519060200190620011eb9291906200121e565b5091602001919060010190620011ca565b5b5090506200120c9190620012af565b5090565b6123b280620023c683390190565b8280546200122c9062002139565b90600052602060002090601f0160209004810192826200125057600085556200129c565b82601f106200126b57805160ff19168380011785556200129c565b828001600101855582156200129c579182015b828111156200129b5782518255916020019190600101906200127e565b5b509050620012ab9190620012d7565b5090565b5b80821115620012d35760008181620012c99190620012f6565b50600101620012b0565b5090565b5b80821115620012f2576000816000905550600101620012d8565b5090565b508054620013049062002139565b6000825580601f1062001318575062001339565b601f016020900490600052602060002090810190620013389190620012d7565b5b50565b6000604051905090565b600080fd5b600080fd5b600073ffffffffffffffffffffffffffffffffffffffff82169050919050565b60006200137d8262001350565b9050919050565b6200138f8162001370565b81146200139b57600080fd5b50565b600081359050620013af8162001384565b92915050565b6000819050919050565b620013ca81620013b5565b8114620013d657600080fd5b50565b600081359050620013ea81620013bf565b92915050565b600080604083850312156200140a576200140962001346565b5b60006200141a858286016200139e565b92505060206200142d85828601620013d9565b9150509250929050565b620014428162001370565b82525050565b60006020820190506200145f600083018462001437565b92915050565b600081519050919050565b600082825260208201905092915050565b6000819050602082019050919050565b6200149c8162001370565b82525050565b6000620014b0838362001491565b60208301905092915050565b6000602082019050919050565b6000620014d68262001465565b620014e2818562001470565b9350620014ef8362001481565b8060005b83811015620015265781516200150a8882620014a2565b97506200151783620014bc565b925050600181019050620014f3565b5085935050505092915050565b600060208201905081810360008301526200154f8184620014c9565b905092915050565b6000819050919050565b6200156c8162001557565b81146200157857600080fd5b50565b6000813590506200158c8162001561565b92915050565b60008060008060808587031215620015af57620015ae62001346565b5b6000620015bf878288016200157b565b9450506020620015d287828801620013d9565b9350506040620015e5878288016200139e565b9250506060620015f8878288016200139e565b91505092959194509250565b6000602082840312156200161d576200161c62001346565b5b60006200162d848285016200139e565b91505092915050565b620016418162001557565b82525050565b7f4e487b7100000000000000000000000000000000000000000000000000000000600052602160045260246000fd5b600781106200168a576200168962001647565b5b50565b60008190506200169d8262001676565b919050565b6000620016af826200168d565b9050919050565b620016c181620016a2565b82525050565b6000606082019050620016de600083018662001636565b620016ed6020830185620016b6565b620016fc604083018462001437565b949350505050565b600080fd5b6000601f19601f8301169050919050565b7f4e487b7100000000000000000000000000000000000000000000000000000000600052604160045260246000fd5b620017548262001709565b810181811067ffffffffffffffff821117156200177657620017756200171a565b5b80604052505050565b60006200178b6200133c565b905062001799828262001749565b919050565b600067ffffffffffffffff821115620017bc57620017bb6200171a565b5b602082029050602081019050919050565b600080fd5b600080fd5b600067ffffffffffffffff821115620017f557620017f46200171a565b5b620018008262001709565b9050602081019050919050565b82818337600083830152505050565b6000620018336200182d84620017d7565b6200177f565b905082815260208101848484011115620018525762001851620017d2565b5b6200185f8482856200180d565b509392505050565b600082601f8301126200187f576200187e62001704565b5b8135620018918482602086016200181c565b91505092915050565b6000620018b1620018ab846200179e565b6200177f565b90508083825260208201905060208402830185811115620018d757620018d6620017cd565b5b835b818110156200192557803567ffffffffffffffff8111156200190057620018ff62001704565b5b8086016200190f898262001867565b85526020850194505050602081019050620018d9565b5050509392505050565b600082601f83011262001947576200194662001704565b5b8135620019598482602086016200189a565b91505092915050565b600080600080608085870312156200197f576200197e62001346565b5b60006200198f878288016200157b565b945050602085013567ffffffffffffffff811115620019b357620019b26200134b565b5b620019c1878288016200192f565b9350506040620019d487828801620013d9565b9250506060620019e7878288016200139e565b91505092959194509250565b600081519050919050565b600082825260208201905092915050565b60005b8381101562001a2f57808201518184015260208101905062001a12565b8381111562001a3f576000848401525b50505050565b600062001a5282620019f3565b62001a5e8185620019fe565b935062001a7081856020860162001a0f565b62001a7b8162001709565b840191505092915050565b6000602082019050818103600083015262001aa2818462001a45565b905092915050565b600060ff82169050919050565b62001ac28162001aaa565b811462001ace57600080fd5b50565b60008135905062001ae28162001ab7565b92915050565b600080600080600060a0868803121562001b075762001b0662001346565b5b600062001b17888289016200139e565b955050602062001b2a888289016200157b565b945050604062001b3d8882890162001ad1565b935050606062001b50888289016200157b565b925050608062001b63888289016200157b565b9150509295509295909350565b60008115159050919050565b62001b878162001b70565b82525050565b600060208201905062001ba4600083018462001b7c565b92915050565b600081519050919050565b600082825260208201905092915050565b6000819050602082019050919050565b600082825260208201905092915050565b600062001bf482620019f3565b62001c00818562001bd6565b935062001c1281856020860162001a0f565b62001c1d8162001709565b840191505092915050565b600062001c36838362001be7565b905092915050565b6000602082019050919050565b600062001c588262001baa565b62001c64818562001bb5565b93508360208202850162001c788562001bc6565b8060005b8581101562001cba578484038952815162001c98858262001c28565b945062001ca58362001c3e565b925060208a0199505060018101905062001c7c565b50829750879550505050505092915050565b62001cd781620013b5565b82525050565b600060808201905062001cf4600083018762001636565b818103602083015262001d08818662001c4b565b905062001d19604083018562001ccc565b62001d28606083018462001437565b95945050505050565b6000806040838503121562001d4b5762001d4a62001346565b5b600062001d5b85828601620013d9565b925050602062001d6e858286016200139e565b9150509250929050565b600067ffffffffffffffff82111562001d965762001d956200171a565b5b62001da18262001709565b9050602081019050919050565b600062001dc562001dbf8462001d78565b6200177f565b90508281526020810184848401111562001de45762001de3620017d2565b5b62001df18482856200180d565b509392505050565b600082601f83011262001e115762001e1062001704565b5b813562001e2384826020860162001dae565b91505092915050565b6000806000806080858703121562001e495762001e4862001346565b5b600062001e59878288016200139e565b945050602062001e6c878288016200139e565b935050604062001e7f878288016200139e565b925050606085013567ffffffffffffffff81111562001ea35762001ea26200134b565b5b62001eb18782880162001df9565b91505092959194509250565b600060208201905062001ed4600083018462001ccc565b92915050565b7f4e487b7100000000000000000000000000000000000000000000000000000000600052603260045260246000fd5b7f4e487b7100000000000000000000000000000000000000000000000000000000600052601160045260246000fd5b600062001f4582620013b5565b91507fffffffffffffffffffffffffffffffffffffffffffffffffffffffffffffffff820362001f7a5762001f7962001f09565b5b600182019050919050565b7f526f6c653d3e537570706c6965722063616e2075736520746869732066756e6360008201527f74696f6e00000000000000000000000000000000000000000000000000000000602082015250565b600062001fe3602483620019fe565b915062001ff08262001f85565b604082019050919050565b60006020820190508181036000830152620020168162001fd4565b9050919050565b600060208201905062002034600083018462001636565b92915050565b620020458162001aaa565b82525050565b600060808201905062002062600083018762001636565b6200207160208301866200203a565b62002080604083018562001636565b6200208f606083018462001636565b95945050505050565b7f5573657220646f6573206e6f7420657869737400000000000000000000000000600082015250565b6000620020d0601383620019fe565b9150620020dd8262002098565b602082019050919050565b600060208201905081810360008301526200210381620020c1565b9050919050565b7f4e487b7100000000000000000000000000000000000000000000000000000000600052602260045260246000fd5b600060028204905060018216806200215257607f821691505b6020821081036200216857620021676200210a565b5b50919050565b600081519050919050565b600082825260208201905092915050565b600062002197826200216e565b620021a3818562002179565b9350620021b581856020860162001a0f565b620021c08162001709565b840191505092915050565b6000606082019050620021e2600083018662001437565b620021f1602083018562001437565b81810360408301526200220581846200218a565b9050949350505050565b60008160601b9050919050565b600062002229826200220f565b9050919050565b60006200223d826200221c565b9050919050565b62002259620022538262001370565b62002230565b82525050565b6000819050919050565b6200227e6200227882620013b5565b6200225f565b82525050565b600062002292828562002244565b601482019150620022a4828462002269565b6020820191508190509392505050565b600081905092915050565b6000620022cc826200216e565b620022d88185620022b4565b9350620022ea81856020860162001a0f565b80840191505092915050565b6000620023048284620022bf565b915081905092915050565b600081519050620023208162001561565b92915050565b6000602082840312156200233f576200233e62001346565b5b60006200234f848285016200230f565b91505092915050565b600060c0820190506200236f600083018962001437565b6200237e602083018862001437565b6200238d604083018762001636565b6200239c606083018662001ccc565b620023ab608083018562001437565b620023ba60a083018462001437565b97965050505050505056fe60806040523480156200001157600080fd5b50604051620023b2380380620023b2833981810160405281019062000037919062000345565b856000806101000a81548173ffffffffffffffffffffffffffffffffffffffff021916908373ffffffffffffffffffffffffffffffffffffffff16021790555084600160006101000a81548173ffffffffffffffffffffffffffffffffffffffff021916908373ffffffffffffffffffffffffffffffffffffffff160217905550836002819055508260038190555081600460006101000a81548173ffffffffffffffffffffffffffffffffffffffff021916908373ffffffffffffffffffffffffffffffffffffffff16021790555080600560006101000a81548173ffffffffffffffffffffffffffffffffffffffff021916908373ffffffffffffffffffffffffffffffffffffffff16021790555085600660006101000a81548173ffffffffffffffffffffffffffffffffffffffff021916908373ffffffffffffffffffffffffffffffffffffffff16021790555060006002811115620001a0576200019f620003e1565b5b600660146101000a81548160ff02191690836002811115620001c757620001c6620003e1565b5b0217905550600081604051620001dd9062000257565b620001e9919062000421565b604051809103906000f08015801562000206573d6000803e3d6000fd5b50905080600860006101000a81548173ffffffffffffffffffffffffffffffffffffffff021916908373ffffffffffffffffffffffffffffffffffffffff160217905550505050505050506200043e565b6114158062000f9d83390190565b600080fd5b600073ffffffffffffffffffffffffffffffffffffffff82169050919050565b600062000297826200026a565b9050919050565b620002a9816200028a565b8114620002b557600080fd5b50565b600081519050620002c9816200029e565b92915050565b6000819050919050565b620002e481620002cf565b8114620002f057600080fd5b50565b6000815190506200030481620002d9565b92915050565b6000819050919050565b6200031f816200030a565b81146200032b57600080fd5b50565b6000815190506200033f8162000314565b92915050565b60008060008060008060c0878903121562000365576200036462000265565b5b60006200037589828a01620002b8565b96505060206200038889828a01620002b8565b95505060406200039b89828a01620002f3565b9450506060620003ae89828a016200032e565b9350506080620003c189828a01620002b8565b92505060a0620003d489828a01620002b8565b9150509295509295509295565b7f4e487b7100000000000000000000000000000000000000000000000000000000600052602160045260246000fd5b6200041b816200028a565b82525050565b600060208201905062000438600083018462000410565b92915050565b610b4f806200044e6000396000f3fe608060405234801561001057600080fd5b50600436106100575760003560e01c806350e073bc1461005c57806352b9996814610078578063638e9a3d146100945780636b099dca146100b057806380723520146100ce575b600080fd5b61007660048036038101906100719190610713565b6100f2565b005b610092600480360381019061008d9190610713565b610136565b005b6100ae60048036038101906100a99190610713565b610373565b005b6100b86105b0565b6040516100c59190610759565b60405180910390f35b6100d66105d9565b6040516100e9979695949392919061079c565b60405180910390f35b80600560006101000a81548173ffffffffffffffffffffffffffffffffffffffff021916908373ffffffffffffffffffffffffffffffffffffffff16021790555050565b600560009054906101000a900473ffffffffffffffffffffffffffffffffffffffff1673ffffffffffffffffffffffffffffffffffffffff168173ffffffffffffffffffffffffffffffffffffffff16146101c6576040517f08c379a00000000000000000000000000000000000000000000000000000000081526004016101bd9061088e565b60405180910390fd5b600160028111156101da576101d96108ae565b5b60028111156101ec576101eb6108ae565b5b600660149054906101000a900460ff16600281111561020e5761020d6108ae565b5b1461024e576040517f08c379a000000000000000000000000000000000000000000000000000000000815260040161024590610929565b60405180910390fd5b600280811115610261576102606108ae565b5b600660146101000a81548160ff02191690836002811115610285576102846108ae565b5b0217905550600560009054906101000a900473ffffffffffffffffffffffffffffffffffffffff1673ffffffffffffffffffffffffffffffffffffffff16600460009054906101000a900473ffffffffffffffffffffffffffffffffffffffff1673ffffffffffffffffffffffffffffffffffffffff16600160009054906101000a900473ffffffffffffffffffffffffffffffffffffffff1673ffffffffffffffffffffffffffffffffffffffff167f7e89c4b1a4e2b51aae84eb1f90e8a34cb792ece5ac5cb63db4830c891220b28d600160026040516103689291906109c9565b60405180910390a450565b600460009054906101000a900473ffffffffffffffffffffffffffffffffffffffff1673ffffffffffffffffffffffffffffffffffffffff168173ffffffffffffffffffffffffffffffffffffffff1614610403576040517f08c379a00000000000000000000000000000000000000000000000000000000081526004016103fa90610a64565b60405180910390fd5b60006002811115610417576104166108ae565b5b6002811115610429576104286108ae565b5b600660149054906101000a900460ff16600281111561044b5761044a6108ae565b5b1461048b576040517f08c379a000000000000000000000000000000000000000000000000000000000815260040161048290610ad0565b60405180910390fd5b6001600281111561049f5761049e6108ae565b5b600660146101000a81548160ff021916908360028111156104c3576104c26108ae565b5b0217905550600560009054906101000a900473ffffffffffffffffffffffffffffffffffffffff1673ffffffffffffffffffffffffffffffffffffffff16600460009054906101000a900473ffffffffffffffffffffffffffffffffffffffff1673ffffffffffffffffffffffffffffffffffffffff16600160009054906101000a900473ffffffffffffffffffffffffffffffffffffffff1673ffffffffffffffffffffffffffffffffffffffff167f7e89c4b1a4e2b51aae84eb1f90e8a34cb792ece5ac5cb63db4830c891220b28d6001806040516105a5929190610af0565b60405180910390a450565b6000600660149054906101000a900460ff1660028111156105d4576105d36108ae565b5b905090565b6000806000806000806000600160009054906101000a900473ffffffffffffffffffffffffffffffffffffffff16600254600354600660009054906101000a900473ffffffffffffffffffffffffffffffffffffffff16600460009054906101000a900473ffffffffffffffffffffffffffffffffffffffff16600560009054906101000a900473ffffffffffffffffffffffffffffffffffffffff16600860009054906101000a900473ffffffffffffffffffffffffffffffffffffffff16965096509650965096509650965090919293949596565b600080fd5b600073ffffffffffffffffffffffffffffffffffffffff82169050919050565b60006106e0826106b5565b9050919050565b6106f0816106d5565b81146106fb57600080fd5b50565b60008135905061070d816106e7565b92915050565b600060208284031215610729576107286106b0565b5b6000610737848285016106fe565b91505092915050565b6000819050919050565b61075381610740565b82525050565b600060208201905061076e600083018461074a565b92915050565b61077d816106d5565b82525050565b6000819050919050565b61079681610783565b82525050565b600060e0820190506107b1600083018a610774565b6107be602083018961078d565b6107cb604083018861074a565b6107d86060830187610774565b6107e56080830186610774565b6107f260a0830185610774565b6107ff60c0830184610774565b98975050505050505050565b600082825260208201905092915050565b7f4f6e6c79204d616e756661637475726572206f6620746865207061636b61676560008201527f2063616e20726563656965766520746865207061636b61676500000000000000602082015250565b600061087860398361080b565b91506108838261081c565b604082019050919050565b600060208201905081810360008301526108a78161086b565b9050919050565b7f4e487b7100000000000000000000000000000000000000000000000000000000600052602160045260246000fd5b7f50726f64756374206e6f74207069636b65642075702079657400000000000000600082015250565b600061091360198361080b565b915061091e826108dd565b602082019050919050565b6000602082019050818103600083015261094281610906565b9050919050565b6000819050919050565b6000819050919050565b600061097861097361096e84610949565b610953565b610740565b9050919050565b6109888161095d565b82525050565b6000819050919050565b60006109b36109ae6109a98461098e565b610953565b610740565b9050919050565b6109c381610998565b82525050565b60006040820190506109de600083018561097f565b6109eb60208301846109ba565b9392505050565b7f4f6e6c79207472616e73706f72746572206f6620746865207061636b6167652060008201527f63616e207069636b207061636b61676500000000000000000000000000000000602082015250565b6000610a4e60308361080b565b9150610a59826109f2565b604082019050919050565b60006020820190508181036000830152610a7d81610a41565b9050919050565b7f5061636b616765206d75737420626520617420537570706c6965722e00000000600082015250565b6000610aba601c8361080b565b9150610ac582610a84565b602082019050919050565b60006020820190508181036000830152610ae981610aad565b9050919050565b6000604082019050610b05600083018561097f565b610b12602083018461097f565b939250505056fea26469706673582212203c847a05bb88719302c55599d61fc33886587cb5fa38abc9e7c75508c665fb0a64736f6c634300080d0033608060405260006002553480156200001657600080fd5b50604051620014153803806200141583398181016040528101906200003c9190620000ed565b806000806101000a81548173ffffffffffffffffffffffffffffffffffffffff021916908373ffffffffffffffffffffffffffffffffffffffff160217905550506200011f565b600080fd5b600073ffffffffffffffffffffffffffffffffffffffff82169050919050565b6000620000b58262000088565b9050919050565b620000c781620000a8565b8114620000d357600080fd5b50565b600081519050620000e781620000bc565b92915050565b60006020828403121562000106576200010562000083565b5b60006200011684828501620000d6565b91505092915050565b6112e6806200012f6000396000f3fe608060405234801561001057600080fd5b506004361061004c5760003560e01c806327506f53146100515780633626a3681461006f57806378ce13651461008b5780639ace38c2146100a9575b600080fd5b6100596100df565b6040516100669190610c47565b60405180910390f35b61008960048036038101906100849190610e0a565b610391565b005b61009361072c565b6040516100a09190610ede565b60405180910390f35b6100c360048036038101906100be9190610f25565b610732565b6040516100d69796959493929190610fba565b60405180910390f35b60606000600254905060008167ffffffffffffffff81111561010457610103610cdf565b5b60405190808252806020026020018201604052801561013d57816020015b61012a6108c4565b8152602001906001900390816101225790505b50905060005b8281101561038857600160008281526020019081526020016000206040518060e0016040529081600082015481526020016001820160009054906101000a900473ffffffffffffffffffffffffffffffffffffffff1673ffffffffffffffffffffffffffffffffffffffff1673ffffffffffffffffffffffffffffffffffffffff1681526020016002820160009054906101000a900473ffffffffffffffffffffffffffffffffffffffff1673ffffffffffffffffffffffffffffffffffffffff1673ffffffffffffffffffffffffffffffffffffffff1681526020016003820154815260200160048201805461023990611066565b80601f016020809104026020016040519081016040528092919081815260200182805461026590611066565b80156102b25780601f10610287576101008083540402835291602001916102b2565b820191906000526020600020905b81548152906001019060200180831161029557829003601f168201915b505050505081526020016005820180546102cb90611066565b80601f01602080910402602001604051908101604052809291908181526020018280546102f790611066565b80156103445780601f1061031957610100808354040283529160200191610344565b820191906000526020600020905b81548152906001019060200180831161032757829003601f168201915b5050505050815260200160068201548152505082828151811061036a57610369611097565b5b60200260200101819052508080610380906110f5565b915050610143565b50809250505090565b6000429050600060025403610502576040518060e001604052808881526020018773ffffffffffffffffffffffffffffffffffffffff1681526020018673ffffffffffffffffffffffffffffffffffffffff168152602001858152602001848152602001838152602001828152506001600060025481526020019081526020016000206000820151816000015560208201518160010160006101000a81548173ffffffffffffffffffffffffffffffffffffffff021916908373ffffffffffffffffffffffffffffffffffffffff16021790555060408201518160020160006101000a81548173ffffffffffffffffffffffffffffffffffffffff021916908373ffffffffffffffffffffffffffffffffffffffff1602179055506060820151816003015560808201518160040190805190602001906104d2929190610933565b5060a08201518160050190805190602001906104ef929190610933565b5060c082015181600601559050506106c6565b83600160006001600254610516919061113d565b81526020019081526020016000206000015414610568576040517f08c379a000000000000000000000000000000000000000000000000000000000815260040161055f906111bd565b60405180910390fd5b6040518060e001604052808881526020018773ffffffffffffffffffffffffffffffffffffffff1681526020018673ffffffffffffffffffffffffffffffffffffffff168152602001858152602001848152602001838152602001828152506001600060025481526020019081526020016000206000820151816000015560208201518160010160006101000a81548173ffffffffffffffffffffffffffffffffffffffff021916908373ffffffffffffffffffffffffffffffffffffffff16021790555060408201518160020160006101000a81548173ffffffffffffffffffffffffffffffffffffffff021916908373ffffffffffffffffffffffffffffffffffffffff16021790555060608201518160030155608082015181600401908051906020019061069a929190610933565b5060a08201518160050190805190602001906106b7929190610933565b5060c082015181600601559050505b6001600260008282546106d991906111dd565b925050819055507f30d01d358fb0899fe4d50947b2e9301c952d9eed09b14c7ecdcbeed4434557c48787878785888860405161071b9796959493929190611233565b60405180910390a150505050505050565b60025481565b60016020528060005260406000206000915090508060000154908060010160009054906101000a900473ffffffffffffffffffffffffffffffffffffffff16908060020160009054906101000a900473ffffffffffffffffffffffffffffffffffffffff16908060030154908060040180546107ad90611066565b80601f01602080910402602001604051908101604052809291908181526020018280546107d990611066565b80156108265780601f106107fb57610100808354040283529160200191610826565b820191906000526020600020905b81548152906001019060200180831161080957829003601f168201915b50505050509080600501805461083b90611066565b80601f016020809104026020016040519081016040528092919081815260200182805461086790611066565b80156108b45780601f10610889576101008083540402835291602001916108b4565b820191906000526020600020905b81548152906001019060200180831161089757829003601f168201915b5050505050908060060154905087565b6040518060e0016040528060008019168152602001600073ffffffffffffffffffffffffffffffffffffffff168152602001600073ffffffffffffffffffffffffffffffffffffffff168152602001600080191681526020016060815260200160608152602001600081525090565b82805461093f90611066565b90600052602060002090601f01602090048101928261096157600085556109a8565b82601f1061097a57805160ff19168380011785556109a8565b828001600101855582156109a8579182015b828111156109a757825182559160200191906001019061098c565b5b5090506109b591906109b9565b5090565b5b808211156109d25760008160009055506001016109ba565b5090565b600081519050919050565b600082825260208201905092915050565b6000819050602082019050919050565b6000819050919050565b610a1581610a02565b82525050565b600073ffffffffffffffffffffffffffffffffffffffff82169050919050565b6000610a4682610a1b565b9050919050565b610a5681610a3b565b82525050565b600081519050919050565b600082825260208201905092915050565b60005b83811015610a96578082015181840152602081019050610a7b565b83811115610aa5576000848401525b50505050565b6000601f19601f8301169050919050565b6000610ac782610a5c565b610ad18185610a67565b9350610ae1818560208601610a78565b610aea81610aab565b840191505092915050565b6000819050919050565b610b0881610af5565b82525050565b600060e083016000830151610b266000860182610a0c565b506020830151610b396020860182610a4d565b506040830151610b4c6040860182610a4d565b506060830151610b5f6060860182610a0c565b5060808301518482036080860152610b778282610abc565b91505060a083015184820360a0860152610b918282610abc565b91505060c0830151610ba660c0860182610aff565b508091505092915050565b6000610bbd8383610b0e565b905092915050565b6000602082019050919050565b6000610bdd826109d6565b610be781856109e1565b935083602082028501610bf9856109f2565b8060005b85811015610c355784840389528151610c168582610bb1565b9450610c2183610bc5565b925060208a01995050600181019050610bfd565b50829750879550505050505092915050565b60006020820190508181036000830152610c618184610bd2565b905092915050565b6000604051905090565b600080fd5b600080fd5b610c8681610a02565b8114610c9157600080fd5b50565b600081359050610ca381610c7d565b92915050565b610cb281610a3b565b8114610cbd57600080fd5b50565b600081359050610ccf81610ca9565b92915050565b600080fd5b600080fd5b7f4e487b7100000000000000000000000000000000000000000000000000000000600052604160045260246000fd5b610d1782610aab565b810181811067ffffffffffffffff82111715610d3657610d35610cdf565b5b80604052505050565b6000610d49610c69565b9050610d558282610d0e565b919050565b600067ffffffffffffffff821115610d7557610d74610cdf565b5b610d7e82610aab565b9050602081019050919050565b82818337600083830152505050565b6000610dad610da884610d5a565b610d3f565b905082815260208101848484011115610dc957610dc8610cda565b5b610dd4848285610d8b565b509392505050565b600082601f830112610df157610df0610cd5565b5b8135610e01848260208601610d9a565b91505092915050565b60008060008060008060c08789031215610e2757610e26610c73565b5b6000610e3589828a01610c94565b9650506020610e4689828a01610cc0565b9550506040610e5789828a01610cc0565b9450506060610e6889828a01610c94565b935050608087013567ffffffffffffffff811115610e8957610e88610c78565b5b610e9589828a01610ddc565b92505060a087013567ffffffffffffffff811115610eb657610eb5610c78565b5b610ec289828a01610ddc565b9150509295509295509295565b610ed881610af5565b82525050565b6000602082019050610ef36000830184610ecf565b92915050565b610f0281610af5565b8114610f0d57600080fd5b50565b600081359050610f1f81610ef9565b92915050565b600060208284031215610f3b57610f3a610c73565b5b6000610f4984828501610f10565b91505092915050565b610f5b81610a02565b82525050565b610f6a81610a3b565b82525050565b600082825260208201905092915050565b6000610f8c82610a5c565b610f968185610f70565b9350610fa6818560208601610a78565b610faf81610aab565b840191505092915050565b600060e082019050610fcf600083018a610f52565b610fdc6020830189610f61565b610fe96040830188610f61565b610ff66060830187610f52565b81810360808301526110088186610f81565b905081810360a083015261101c8185610f81565b905061102b60c0830184610ecf565b98975050505050505050565b7f4e487b7100000000000000000000000000000000000000000000000000000000600052602260045260246000fd5b6000600282049050600182168061107e57607f821691505b60208210810361109157611090611037565b5b50919050565b7f4e487b7100000000000000000000000000000000000000000000000000000000600052603260045260246000fd5b7f4e487b7100000000000000000000000000000000000000000000000000000000600052601160045260246000fd5b600061110082610af5565b91507fffffffffffffffffffffffffffffffffffffffffffffffffffffffffffffffff8203611132576111316110c6565b5b600182019050919050565b600061114882610af5565b915061115383610af5565b925082821015611166576111656110c6565b5b828203905092915050565b7f5472616e73616374696f6e206572726f72206f63637572726564210000000000600082015250565b60006111a7601b83610f70565b91506111b282611171565b602082019050919050565b600060208201905081810360008301526111d68161119a565b9050919050565b60006111e882610af5565b91506111f383610af5565b9250827fffffffffffffffffffffffffffffffffffffffffffffffffffffffffffffffff03821115611228576112276110c6565b5b828201905092915050565b600060e082019050611248600083018a610f52565b6112556020830189610f61565b6112626040830188610f61565b61126f6060830187610f52565b61127c6080830186610ecf565b81810360a083015261128e8185610f81565b905081810360c08301526112a28184610f81565b90509897505050505050505056fea26469706673582212205165ac39670d5e25c3254f88012313e2ed1c7a0462c41647254a654cb356196e64736f6c634300080d0033a2646970667358221220daad3c905a1cbf09a2c53f27a28ee1cc153d2545e73284f0b7a23cc3306cf8b064736f6c634300080d0033",
  "immutableReferences": {},
  "source": "//SPDX-License-Identifier: MIT\r\npragma solidity >=0.4.22 <0.9.0;\r\nimport './Supplier.sol';\r\n//// New supply chain : supplier -> transporter -> manufacturer -> transporter -> whole-saler -> transporter -> distributor -> transporter -> customer/hospital/pharmacy\r\n\r\n\r\n// contract SupplyChain is Supplier, Transporter, Manufacturer, Wholesaler, Distributor, Customer {\r\ncontract SupplyChain is Supplier {\r\n    \r\n    address public Owner;\r\n    \r\n    constructor()  {\r\n        Owner = msg.sender;\r\n    }\r\n    \r\n    modifier onlyOwner() {\r\n        require(Owner == msg.sender);\r\n        _;\r\n    }\r\n    \r\n    modifier checkUser(address addr) {\r\n        require(addr == msg.sender);\r\n        _;\r\n    }\r\n    \r\n    enum roles {\r\n        noRole,\r\n        supplier,\r\n        transporter,\r\n        manufacturer,\r\n        wholesaler,\r\n        distributor,\r\n        customer\r\n    }\r\n    \r\n    \r\n    //////////////// Events ////////////////////\r\n    \r\n    event UserRegister(address indexed _address, bytes32 name);\r\n    event buyEvent(address buyer, address indexed seller, address packageAddr, bytes signature, uint indexed timestamp);\r\n    event respondEvent(address indexed buyer, address seller, address packageAddr, bytes signature, uint indexed timestamp);\r\n    event sendEvent(address seller, address buyer, address indexed packageAddr, bytes signature, uint indexed timestamp);\r\n    event receivedEvent(address indexed buyer, address seller, address packageAddr, bytes signature, uint indexed timestamp);\r\n    \r\n    \r\n    //////////////// Event functions (All entities) ////////////////////\r\n\r\n    \r\n    function requestProduct(address buyer, address seller, address packageAddr, bytes memory signature) public {\r\n        emit buyEvent(buyer, seller, packageAddr, signature, block.timestamp);\r\n    }\r\n    \r\n    function respondToEntity(address buyer, address seller, address packageAddr, bytes memory signature) public {\r\n        emit respondEvent(buyer, seller, packageAddr, signature, block.timestamp);\r\n    }\r\n    \r\n    function sendPackageToEntity(address buyer, address seller, address packageAddr, bytes memory signature) public {\r\n        emit sendEvent(seller, buyer, packageAddr, signature, block.timestamp);\r\n    }\r\n\r\n    /////////////// Users (Only Owner Executable) //////////////////////\r\n    \r\n    struct userData {\r\n        bytes32 name;\r\n        string[] userLoc;\r\n        roles role;\r\n        address userAddr;\r\n    }\r\n    \r\n    mapping (address => userData) public userInfo;\r\n    \r\n    function registerUser(bytes32 _name,string[] memory loc, uint _role, address _addr) external onlyOwner returns(string memory) {\r\n        userInfo[_addr].name = _name;\r\n        userInfo[_addr].userLoc = loc;\r\n        userInfo[_addr].role = roles(_role);\r\n        userInfo[_addr].userAddr = _addr;\r\n        emit UserRegister(_addr, _name);\r\n        return \"User Registered!\";\r\n    }\r\n    \r\n    function changeUserRole(uint _role, address _addr) external onlyOwner returns(string memory) {\r\n        userInfo[_addr].role = roles(_role);\r\n       return \"Role Updated!\";\r\n    }\r\n\r\n    function getUser(address _addr) external view returns (bytes32, string[] memory, uint, address) {\r\n        require(userInfo[_addr].userAddr != address(0), \"User does not exist\");\r\n        userData memory user = userInfo[_addr];\r\n        return (user.name, user.userLoc, uint(user.role), user.userAddr);\r\n    }\r\n    /////////////// Supplier //////////////////////\r\n    \r\n    \r\n    function supplierCreatesRawPackage(\r\n        bytes32 _description,\r\n        uint _quantity,\r\n        address _transporterAddr,\r\n        address _manufacturerAddr\r\n        ) external {\r\n            require(userInfo[msg.sender].role == roles.supplier, \"Role=>Supplier can use this function\");\r\n            createRawMaterialPackage(_description, _quantity, _transporterAddr,_manufacturerAddr);\r\n    }\r\n    \r\n    function supplierGetPackageCount() external view returns(uint) {\r\n        require(userInfo[msg.sender].role == roles.supplier, \"Role=>Supplier can use this function\");\r\n        \r\n        return getNoOfPackagesOfSupplier();\r\n    }\r\n    \r\n    function supplierGetRawMaterialAddresses() external view returns(address[] memory) {\r\n        address[] memory ret = getAllPackages();\r\n        return ret;\r\n    }\r\n    \r\n\r\n    function verify(address p, bytes32 hash, uint8 v, bytes32 r, bytes32 s) public pure returns(bool) {\r\n        return ecrecover(hash, v, r, s) == p;\r\n    }  \r\n\r\n}",
  "sourcePath": "D:\\Quote\\MediChain\\contracts\\SupplyChain.sol",
  "compiler": {
    "name": "solc",
    "version": "0.8.13+commit.abaa5c0e.Emscripten.clang"
  },
  "schemaVersion": "3.4.16",
  "updatedAt": "2023-11-14T04:59:49.783Z",
  "networkType": "ethereum",
  "devdoc": {
    "kind": "dev",
    "methods": {},
    "version": 1
  },
  "userdoc": {
    "kind": "user",
    "methods": {},
    "version": 1
  }
}