{
  "contractName": "SupplyChain",
  "abi": [
    {
      "inputs": [],
      "stateMutability": "nonpayable",
      "type": "constructor"
    },
    {
      "anonymous": false,
      "inputs": [
        {
          "indexed": true,
          "internalType": "address",
          "name": "_address",
          "type": "address"
        },
        {
          "indexed": false,
          "internalType": "bytes32",
          "name": "name",
          "type": "bytes32"
        }
      ],
      "name": "UserRegister",
      "type": "event"
    },
    {
      "anonymous": false,
      "inputs": [
        {
          "indexed": false,
          "internalType": "address",
          "name": "buyer",
          "type": "address"
        },
        {
          "indexed": true,
          "internalType": "address",
          "name": "seller",
          "type": "address"
        },
        {
          "indexed": false,
          "internalType": "address",
          "name": "packageAddr",
          "type": "address"
        },
        {
          "indexed": false,
          "internalType": "bytes",
          "name": "signature",
          "type": "bytes"
        },
        {
          "indexed": true,
          "internalType": "uint256",
          "name": "timestamp",
          "type": "uint256"
        }
      ],
      "name": "buyEvent",
      "type": "event"
    },
    {
      "anonymous": false,
      "inputs": [
        {
          "indexed": true,
          "internalType": "address",
          "name": "buyer",
          "type": "address"
        },
        {
          "indexed": false,
          "internalType": "address",
          "name": "seller",
          "type": "address"
        },
        {
          "indexed": false,
          "internalType": "address",
          "name": "packageAddr",
          "type": "address"
        },
        {
          "indexed": false,
          "internalType": "bytes",
          "name": "signature",
          "type": "bytes"
        },
        {
          "indexed": true,
          "internalType": "uint256",
          "name": "timestamp",
          "type": "uint256"
        }
      ],
      "name": "receivedEvent",
      "type": "event"
    },
    {
      "anonymous": false,
      "inputs": [
        {
          "indexed": true,
          "internalType": "address",
          "name": "buyer",
          "type": "address"
        },
        {
          "indexed": false,
          "internalType": "address",
          "name": "seller",
          "type": "address"
        },
        {
          "indexed": false,
          "internalType": "address",
          "name": "packageAddr",
          "type": "address"
        },
        {
          "indexed": false,
          "internalType": "bytes",
          "name": "signature",
          "type": "bytes"
        },
        {
          "indexed": true,
          "internalType": "uint256",
          "name": "timestamp",
          "type": "uint256"
        }
      ],
      "name": "respondEvent",
      "type": "event"
    },
    {
      "anonymous": false,
      "inputs": [
        {
          "indexed": false,
          "internalType": "address",
          "name": "seller",
          "type": "address"
        },
        {
          "indexed": false,
          "internalType": "address",
          "name": "buyer",
          "type": "address"
        },
        {
          "indexed": true,
          "internalType": "address",
          "name": "packageAddr",
          "type": "address"
        },
        {
          "indexed": false,
          "internalType": "bytes",
          "name": "signature",
          "type": "bytes"
        },
        {
          "indexed": true,
          "internalType": "uint256",
          "name": "timestamp",
          "type": "uint256"
        }
      ],
      "name": "sendEvent",
      "type": "event"
    },
    {
      "inputs": [
        {
          "internalType": "address",
          "name": "",
          "type": "address"
        },
        {
          "internalType": "uint256",
          "name": "",
          "type": "uint256"
        }
      ],
      "name": "MedicineDtoC",
      "outputs": [
        {
          "internalType": "address",
          "name": "",
          "type": "address"
        }
      ],
      "stateMutability": "view",
      "type": "function",
      "constant": true
    },
    {
      "inputs": [
        {
          "internalType": "address",
          "name": "",
          "type": "address"
        }
      ],
      "name": "MedicineDtoCTxContract",
      "outputs": [
        {
          "internalType": "address",
          "name": "",
          "type": "address"
        }
      ],
      "stateMutability": "view",
      "type": "function",
      "constant": true
    },
    {
      "inputs": [
        {
          "internalType": "address",
          "name": "",
          "type": "address"
        },
        {
          "internalType": "uint256",
          "name": "",
          "type": "uint256"
        }
      ],
      "name": "MedicineWtoD",
      "outputs": [
        {
          "internalType": "address",
          "name": "",
          "type": "address"
        }
      ],
      "stateMutability": "view",
      "type": "function",
      "constant": true
    },
    {
      "inputs": [
        {
          "internalType": "address",
          "name": "",
          "type": "address"
        }
      ],
      "name": "MedicineWtoDTxContract",
      "outputs": [
        {
          "internalType": "address",
          "name": "",
          "type": "address"
        }
      ],
      "stateMutability": "view",
      "type": "function",
      "constant": true
    },
    {
      "inputs": [
        {
          "internalType": "address",
          "name": "",
          "type": "address"
        },
        {
          "internalType": "uint256",
          "name": "",
          "type": "uint256"
        }
      ],
      "name": "MedicinesAtDistributor",
      "outputs": [
        {
          "internalType": "address",
          "name": "",
          "type": "address"
        }
      ],
      "stateMutability": "view",
      "type": "function",
      "constant": true
    },
    {
      "inputs": [
        {
          "internalType": "address",
          "name": "",
          "type": "address"
        },
        {
          "internalType": "uint256",
          "name": "",
          "type": "uint256"
        }
      ],
      "name": "MedicinesAtWholesaler",
      "outputs": [
        {
          "internalType": "address",
          "name": "",
          "type": "address"
        }
      ],
      "stateMutability": "view",
      "type": "function",
      "constant": true
    },
    {
      "inputs": [],
      "name": "Owner",
      "outputs": [
        {
          "internalType": "address",
          "name": "",
          "type": "address"
        }
      ],
      "stateMutability": "view",
      "type": "function",
      "constant": true
    },
    {
      "inputs": [
        {
          "internalType": "bytes32",
          "name": "_description",
          "type": "bytes32"
        },
        {
          "internalType": "uint256",
          "name": "_quantity",
          "type": "uint256"
        },
        {
          "internalType": "address",
          "name": "_transporterAddr",
          "type": "address"
        },
        {
          "internalType": "address",
          "name": "_manufacturerAddr",
          "type": "address"
        }
      ],
      "name": "createRawMaterialPackage",
      "outputs": [],
      "stateMutability": "nonpayable",
      "type": "function"
    },
    {
      "inputs": [],
      "name": "getAllPackages",
      "outputs": [
        {
          "internalType": "address[]",
          "name": "",
          "type": "address[]"
        }
      ],
      "stateMutability": "view",
      "type": "function",
      "constant": true
    },
    {
      "inputs": [],
      "name": "getNoOfPackagesOfSupplier",
      "outputs": [
        {
          "internalType": "uint256",
          "name": "",
          "type": "uint256"
        }
      ],
      "stateMutability": "view",
      "type": "function",
      "constant": true
    },
    {
      "inputs": [
        {
          "internalType": "address",
          "name": "_addr",
          "type": "address"
        },
        {
          "internalType": "uint256",
          "name": "transportertype",
          "type": "uint256"
        },
        {
          "internalType": "address",
          "name": "cid",
          "type": "address"
        }
      ],
      "name": "handlePackage",
      "outputs": [],
      "stateMutability": "nonpayable",
      "type": "function"
    },
    {
      "inputs": [
        {
          "internalType": "address",
          "name": "",
          "type": "address"
        },
        {
          "internalType": "uint256",
          "name": "",
          "type": "uint256"
        }
      ],
      "name": "manufacturerMedicines",
      "outputs": [
        {
          "internalType": "address",
          "name": "",
          "type": "address"
        }
      ],
      "stateMutability": "view",
      "type": "function",
      "constant": true
    },
    {
      "inputs": [
        {
          "internalType": "address",
          "name": "",
          "type": "address"
        },
        {
          "internalType": "uint256",
          "name": "",
          "type": "uint256"
        }
      ],
      "name": "manufacturerRawMaterials",
      "outputs": [
        {
          "internalType": "address",
          "name": "",
          "type": "address"
        }
      ],
      "stateMutability": "view",
      "type": "function",
      "constant": true
    },
    {
      "inputs": [
        {
          "internalType": "address",
          "name": "",
          "type": "address"
        },
        {
          "internalType": "uint256",
          "name": "",
          "type": "uint256"
        }
      ],
      "name": "supplierRawMaterials",
      "outputs": [
        {
          "internalType": "address",
          "name": "",
          "type": "address"
        }
      ],
      "stateMutability": "view",
      "type": "function",
      "constant": true
    },
    {
      "inputs": [
        {
          "internalType": "address",
          "name": "",
          "type": "address"
        }
      ],
      "name": "userInfo",
      "outputs": [
        {
          "internalType": "bytes32",
          "name": "name",
          "type": "bytes32"
        },
        {
          "internalType": "enum SupplyChain.roles",
          "name": "role",
          "type": "uint8"
        },
        {
          "internalType": "address",
          "name": "userAddr",
          "type": "address"
        }
      ],
      "stateMutability": "view",
      "type": "function",
      "constant": true
    },
    {
      "inputs": [
        {
          "internalType": "address",
          "name": "buyer",
          "type": "address"
        },
        {
          "internalType": "address",
          "name": "seller",
          "type": "address"
        },
        {
          "internalType": "address",
          "name": "packageAddr",
          "type": "address"
        },
        {
          "internalType": "bytes",
          "name": "signature",
          "type": "bytes"
        }
      ],
      "name": "requestProduct",
      "outputs": [],
      "stateMutability": "nonpayable",
      "type": "function"
    },
    {
      "inputs": [
        {
          "internalType": "address",
          "name": "buyer",
          "type": "address"
        },
        {
          "internalType": "address",
          "name": "seller",
          "type": "address"
        },
        {
          "internalType": "address",
          "name": "packageAddr",
          "type": "address"
        },
        {
          "internalType": "bytes",
          "name": "signature",
          "type": "bytes"
        }
      ],
      "name": "respondToEntity",
      "outputs": [],
      "stateMutability": "nonpayable",
      "type": "function"
    },
    {
      "inputs": [
        {
          "internalType": "address",
          "name": "buyer",
          "type": "address"
        },
        {
          "internalType": "address",
          "name": "seller",
          "type": "address"
        },
        {
          "internalType": "address",
          "name": "packageAddr",
          "type": "address"
        },
        {
          "internalType": "bytes",
          "name": "signature",
          "type": "bytes"
        }
      ],
      "name": "sendPackageToEntity",
      "outputs": [],
      "stateMutability": "nonpayable",
      "type": "function"
    },
    {
      "inputs": [
        {
          "internalType": "bytes32",
          "name": "_name",
          "type": "bytes32"
        },
        {
          "internalType": "string[]",
          "name": "loc",
          "type": "string[]"
        },
        {
          "internalType": "uint256",
          "name": "_role",
          "type": "uint256"
        },
        {
          "internalType": "address",
          "name": "_addr",
          "type": "address"
        }
      ],
      "name": "registerUser",
      "outputs": [
        {
          "internalType": "string",
          "name": "",
          "type": "string"
        }
      ],
      "stateMutability": "nonpayable",
      "type": "function"
    },
    {
      "inputs": [
        {
          "internalType": "uint256",
          "name": "_role",
          "type": "uint256"
        },
        {
          "internalType": "address",
          "name": "_addr",
          "type": "address"
        }
      ],
      "name": "changeUserRole",
      "outputs": [
        {
          "internalType": "string",
          "name": "",
          "type": "string"
        }
      ],
      "stateMutability": "nonpayable",
      "type": "function"
    },
    {
      "inputs": [
        {
          "internalType": "address",
          "name": "_addr",
          "type": "address"
        }
      ],
      "name": "getUser",
      "outputs": [
        {
          "internalType": "bytes32",
          "name": "",
          "type": "bytes32"
        },
        {
          "internalType": "string[]",
          "name": "",
          "type": "string[]"
        },
        {
          "internalType": "uint256",
          "name": "",
          "type": "uint256"
        },
        {
          "internalType": "address",
          "name": "",
          "type": "address"
        }
      ],
      "stateMutability": "view",
      "type": "function",
      "constant": true
    },
    {
      "inputs": [
        {
          "internalType": "bytes32",
          "name": "_description",
          "type": "bytes32"
        },
        {
          "internalType": "uint256",
          "name": "_quantity",
          "type": "uint256"
        },
        {
          "internalType": "address",
          "name": "_transporterAddr",
          "type": "address"
        },
        {
          "internalType": "address",
          "name": "_manufacturerAddr",
          "type": "address"
        }
      ],
      "name": "supplierCreatesRawPackage",
      "outputs": [],
      "stateMutability": "nonpayable",
      "type": "function"
    },
    {
      "inputs": [],
      "name": "supplierGetPackageCount",
      "outputs": [
        {
          "internalType": "uint256",
          "name": "",
          "type": "uint256"
        }
      ],
      "stateMutability": "view",
      "type": "function",
      "constant": true
    },
    {
      "inputs": [],
      "name": "supplierGetRawMaterialAddresses",
      "outputs": [
        {
          "internalType": "address[]",
          "name": "",
          "type": "address[]"
        }
      ],
      "stateMutability": "view",
      "type": "function",
      "constant": true
    },
    {
      "inputs": [
        {
          "internalType": "address",
          "name": "p",
          "type": "address"
        },
        {
          "internalType": "bytes32",
          "name": "hash",
          "type": "bytes32"
        },
        {
          "internalType": "uint8",
          "name": "v",
          "type": "uint8"
        },
        {
          "internalType": "bytes32",
          "name": "r",
          "type": "bytes32"
        },
        {
          "internalType": "bytes32",
          "name": "s",
          "type": "bytes32"
        }
      ],
      "name": "verify",
      "outputs": [
        {
          "internalType": "bool",
          "name": "",
          "type": "bool"
        }
      ],
      "stateMutability": "pure",
      "type": "function",
      "constant": true
    },
    {
      "inputs": [
        {
          "internalType": "address",
          "name": "_address",
          "type": "address"
        },
        {
          "internalType": "uint256",
          "name": "transporterType",
          "type": "uint256"
        },
        {
          "internalType": "address",
          "name": "cid",
          "type": "address"
        }
      ],
      "name": "transporterHandlePackage",
      "outputs": [],
      "stateMutability": "nonpayable",
      "type": "function"
    },
    {
      "inputs": [
        {
          "internalType": "address",
          "name": "_addr",
          "type": "address"
        },
        {
          "internalType": "address",
          "name": "_manufacturerAddress",
          "type": "address"
        },
        {
          "internalType": "address",
          "name": "_sellerAddr",
          "type": "address"
        },
        {
          "internalType": "bytes",
          "name": "signature",
          "type": "bytes"
        }
      ],
      "name": "manufacturerReceivedPackage",
      "outputs": [],
      "stateMutability": "nonpayable",
      "type": "function"
    },
    {
      "inputs": [],
      "name": "getAllRawMaterials",
      "outputs": [
        {
          "internalType": "address[]",
          "name": "",
          "type": "address[]"
        }
      ],
      "stateMutability": "view",
      "type": "function",
      "constant": true
    },
    {
      "inputs": [
        {
          "internalType": "address",
          "name": "_manufacturerAddr",
          "type": "address"
        },
        {
          "internalType": "bytes32",
          "name": "_description",
          "type": "bytes32"
        },
        {
          "internalType": "address[]",
          "name": "_rawAddr",
          "type": "address[]"
        },
        {
          "internalType": "uint256",
          "name": "_quantity",
          "type": "uint256"
        },
        {
          "internalType": "address[]",
          "name": "_transporterAddr",
          "type": "address[]"
        }
      ],
      "name": "manufacturerCreatesMedicine",
      "outputs": [],
      "stateMutability": "nonpayable",
      "type": "function"
    },
    {
      "inputs": [],
      "name": "getAllCreatedMedicines",
      "outputs": [
        {
          "internalType": "address[]",
          "name": "",
          "type": "address[]"
        }
      ],
      "stateMutability": "view",
      "type": "function",
      "constant": true
    },
    {
      "inputs": [
        {
          "internalType": "address",
          "name": "_address",
          "type": "address"
        },
        {
          "internalType": "address",
          "name": "_sellerAddr",
          "type": "address"
        },
        {
          "internalType": "bytes",
          "name": "signature",
          "type": "bytes"
        }
      ],
      "name": "wholesalerReceivedMedicine",
      "outputs": [],
      "stateMutability": "nonpayable",
      "type": "function"
    },
    {
      "inputs": [
        {
          "internalType": "address",
          "name": "_address",
          "type": "address"
        },
        {
          "internalType": "address",
          "name": "transporter",
          "type": "address"
        },
        {
          "internalType": "address",
          "name": "receiver",
          "type": "address"
        }
      ],
      "name": "transferMedicineWtoD",
      "outputs": [],
      "stateMutability": "nonpayable",
      "type": "function"
    },
    {
      "inputs": [
        {
          "internalType": "uint256",
          "name": "index",
          "type": "uint256"
        }
      ],
      "name": "getBatchIdByIndexWD",
      "outputs": [
        {
          "internalType": "address",
          "name": "packageID",
          "type": "address"
        }
      ],
      "stateMutability": "view",
      "type": "function",
      "constant": true
    },
    {
      "inputs": [
        {
          "internalType": "address",
          "name": "_address",
          "type": "address"
        }
      ],
      "name": "getSubContractWD",
      "outputs": [
        {
          "internalType": "address",
          "name": "SubContractWD",
          "type": "address"
        }
      ],
      "stateMutability": "view",
      "type": "function",
      "constant": true
    },
    {
      "inputs": [],
      "name": "getAllMedicinesAtWholesaler",
      "outputs": [
        {
          "internalType": "address[]",
          "name": "",
          "type": "address[]"
        }
      ],
      "stateMutability": "view",
      "type": "function",
      "constant": true
    },
    {
      "inputs": [
        {
          "internalType": "address",
          "name": "_address",
          "type": "address"
        },
        {
          "internalType": "address",
          "name": "cid",
          "type": "address"
        },
        {
          "internalType": "address",
          "name": "_sellerAddr",
          "type": "address"
        },
        {
          "internalType": "bytes",
          "name": "signature",
          "type": "bytes"
        }
      ],
      "name": "distributorReceivedMedicine",
      "outputs": [],
      "stateMutability": "nonpayable",
      "type": "function"
    },
    {
      "inputs": [
        {
          "internalType": "address",
          "name": "_address",
          "type": "address"
        },
        {
          "internalType": "address",
          "name": "transporter",
          "type": "address"
        },
        {
          "internalType": "address",
          "name": "receiver",
          "type": "address"
        }
      ],
      "name": "distributorTransferMedicinetoCustomer",
      "outputs": [],
      "stateMutability": "nonpayable",
      "type": "function"
    },
    {
      "inputs": [],
      "name": "getBatchesCountDC",
      "outputs": [
        {
          "internalType": "uint256",
          "name": "count",
          "type": "uint256"
        }
      ],
      "stateMutability": "view",
      "type": "function",
      "constant": true
    },
    {
      "inputs": [
        {
          "internalType": "uint256",
          "name": "index",
          "type": "uint256"
        }
      ],
      "name": "getBatchIdByIndexDC",
      "outputs": [
        {
          "internalType": "address",
          "name": "packageID",
          "type": "address"
        }
      ],
      "stateMutability": "view",
      "type": "function",
      "constant": true
    },
    {
      "inputs": [
        {
          "internalType": "address",
          "name": "_address",
          "type": "address"
        }
      ],
      "name": "getSubContractDC",
      "outputs": [
        {
          "internalType": "address",
          "name": "SubContractDP",
          "type": "address"
        }
      ],
      "stateMutability": "view",
      "type": "function",
      "constant": true
    },
    {
      "inputs": [],
      "name": "getAllMedicinesAtDistributor",
      "outputs": [
        {
          "internalType": "address[]",
          "name": "",
          "type": "address[]"
        }
      ],
      "stateMutability": "view",
      "type": "function",
      "constant": true
    }
  ],
  "bytecode": "0x608060405234801561001057600080fd5b50600180546001600160a01b03191633179055615fff806100326000396000f3fe60806040523480156200001157600080fd5b50600436106200020e5760003560e01c8063050e70db146200021357806306db832414620002425780630a421f0f146200025957806311789ca61462000272578063164bcd5b146200028b5780631959a00214620002a25780631f90ddaf14620002f057806327ddcd25146200031657806334759016146200032d5780633668669a146200035c578063381cb0dc1462000366578063412afbaf146200037d578063506535f3146200039457806362c1fe3914620003bc5780636f41507c14620003eb5780636f77926b1462000402578063798a826f146200042b5780637a0689f01462000457578063824e43e7146200046e5780638ccc8db714620004785780638dfa742d146200048f5780639100978614620004a65780639659803814620004bd5780639af035a314620004d4578063a205a12314620004eb578063a999cca114620004f5578063b0fc028d146200050c578063b4a99a4e1462000538578063b8b16ca3146200054c578063be7ef9c01462000563578063c22470ea146200057a578063cd55152e146200059a578063d06f7b5514620005a4578063d1acb52714620005bb578063e0cf92fe14620005c5578063e3938b7014620005dc578063f06822d814620005e6578063fac0992d14620005fd578063fc7e01f31462000607578063fd302c35146200061e578063ff2b065a1462000635575b600080fd5b6200022a6200022436600462001f69565b6200064c565b60405162000239919062001f98565b60405180910390f35b6200022a6200025336600462001f69565b62000685565b62000263620006a2565b60405162000239919062001ff2565b62000289620002833660046200200e565b62000794565b005b6200022a6200029c3660046200205d565b620007fe565b620002df620002b336600462002077565b6002602081905260009182526040909120805491015460ff81169061010090046001600160a01b031683565b6040516200023993929190620020ad565b6200030762000301366004620021be565b6200088a565b6040516200023991906200231a565b6200028962000327366004620023a7565b620009c1565b6200022a6200033e36600462002077565b6001600160a01b039081166000908152600760205260409020541690565b6200026362000a48565b62000289620003773660046200245c565b62000b33565b6200022a6200038e36600462001f69565b62000ca1565b620003ab620003a5366004620024c5565b62000cbe565b604051901515815260200162000239565b6200022a620003cd36600462002077565b6001600160a01b039081166000908152600a60205260409020541690565b62000289620003fc36600462002521565b62000d3d565b620004196200041336600462002077565b62000e5b565b60405162000239949392919062002568565b6200022a6200043c36600462002077565b600a602052600090815260409020546001600160a01b031681565b6200028962000468366004620025ee565b62001060565b6200026362001235565b6200022a6200048936600462001f69565b62001249565b6200022a620004a036600462001f69565b62001266565b62000307620004b73660046200266c565b62001283565b62000289620004ce366004620025ee565b6200131c565b6200022a620004e53660046200205d565b620013f5565b62000263620014a5565b6200022a6200050636600462001f69565b62001590565b6200022a6200051d36600462002077565b6007602052600090815260409020546001600160a01b031681565b6001546200022a906001600160a01b031681565b620002896200055d366004620025ee565b620015ad565b620002896200057436600462002521565b620015ed565b336000908152602081905260409020545b60405190815260200162000239565b6200058b620016d8565b62000289620005b5366004620025ee565b62001739565b6200058b62001779565b62000289620005d6366004620025ee565b620017da565b620002636200181a565b62000289620005f73660046200269f565b62001905565b62000263620019a0565b62000289620006183660046200200e565b62001a8b565b6200022a6200062f36600462001f69565b62001bbd565b62000289620006463660046200269f565b62001bda565b600660205281600052604060002081815481106200066957600080fd5b6000918252602090912001546001600160a01b03169150829050565b600060205281600052604060002081815481106200066957600080fd5b33600090815260208190526040812054606091816001600160401b03811115620006d057620006d0620020f2565b604051908082528060200260200182016040528015620006fa578160200160208202803683370190505b50905060005b828110156200078d573360009081526020819052604090208054829081106200072d576200072d620026e6565b9060005260206000200160009054906101000a90046001600160a01b0316828281518110620007605762000760620026e6565b6001600160a01b0390921660209283029190910190910152806200078481620026fc565b91505062000700565b5092915050565b6001336000908152600260208190526040909120015460ff166006811115620007c157620007c162002097565b14620007ea5760405162461bcd60e51b8152600401620007e19062002724565b60405180910390fd5b620007f88484848462001a8b565b50505050565b3360009081526002602081905260408220015460059060ff1660068111156200082b576200082b62002097565b146200084b5760405162461bcd60e51b8152600401620007e19062002768565b3360009081526009602052604090208054839081106200086f576200086f620026e6565b6000918252602090912001546001600160a01b031692915050565b6001546060906001600160a01b03163314620008a557600080fd5b6001600160a01b03821660009081526002602090815260409091208681558551620008d99260019092019187019062001da0565b50826006811115620008ef57620008ef62002097565b6001600160a01b038316600090815260026020819052604090912001805460ff1916600183600681111562000928576200092862002097565b02179055506001600160a01b0382166000818152600260208181526040928390209091018054610100600160a81b031916610100850217905590518781527f33a7170f028b1e4f5ba321064a00ed820856a920c7f9c6636fbcf385427b1b0f910160405180910390a25060408051808201909152601081526f5573657220526567697374657265642160801b6020820152949350505050565b60008585858585604051620009d69062001e04565b620009e6959493929190620027b0565b604051809103906000f08015801562000a03573d6000803e3d6000fd5b506001600160a01b0396871660009081526004602090815260408220805460018101825590835291200180546001600160a01b03191691909716179095555050505050565b33600090815260056020526040812054606091816001600160401b0381111562000a765762000a76620020f2565b60405190808252806020026020018201604052801562000aa0578160200160208202803683370190505b50905060005b828110156200078d5733600090815260056020526040902080548290811062000ad35762000ad3620026e6565b9060005260206000200160009054906101000a90046001600160a01b031682828151811062000b065762000b06620026e6565b6001600160a01b03909216602092830291909101909101528062000b2a81620026fc565b91505062000aa6565b6004336000908152600260208190526040909120015460ff16600681111562000b605762000b6062002097565b1462000bbe5760405162461bcd60e51b815260206004820152602660248201527f4f6e6c792057686f6c6573616c65722063616e2063616c6c20746869732066756044820152653731ba34b7b760d11b6064820152608401620007e1565b6040516307fb74db60e21b81526001600160a01b03841690631fedd36c9062000bec90339060040162001f98565b6020604051808303816000875af115801562000c0c573d6000803e3d6000fd5b505050506040513d601f19601f8201168201806040525081019062000c329190620027ff565b503360008181526005602090815260408083208054600181018255908452919092200180546001600160a01b0319166001600160a01b0387161790555142919060008051602062005faa8339815191529062000c949086908890879062002819565b60405180910390a3505050565b600560205281600052604060002081815481106200066957600080fd5b6040805160008082526020820180845287905260ff86169282019290925260608101849052608081018390526001600160a01b0387169060019060a0016020604051602081039080840390855afa15801562000d1e573d6000803e3d6000fd5b505050602060405103516001600160a01b031614905095945050505050565b8160010362000dad5760405163638e9a3d60e01b81526001600160a01b0384169063638e9a3d9062000d7490339060040162001f98565b600060405180830381600087803b15801562000d8f57600080fd5b505af115801562000da4573d6000803e3d6000fd5b50505050505050565b8160020362000de45760405163ac42a41560e01b81526001600160a01b0384169063ac42a4159062000d7490339060040162001f98565b8160030362000e1d57604051630887851b60e31b81526001600160a01b0382169063443c28d89062000d74908690339060040162002850565b8160040362000e565760405163298abd8d60e11b81526001600160a01b038216906353157b1a9062000d74908690339060040162002850565b505050565b6001600160a01b0381811660009081526002602081905260408220015490916060918391829161010090041662000ecb5760405162461bcd60e51b8152602060048201526013602482015272155cd95c88191bd95cc81b9bdd08195e1a5cdd606a1b6044820152606401620007e1565b6001600160a01b03851660009081526002602090815260408083208151608081018352815481526001820180548451818702810187019095528085529194929385840193909290879084015b8282101562000fcd57838290600052602060002001805462000f39906200286a565b80601f016020809104026020016040519081016040528092919081815260200182805462000f67906200286a565b801562000fb85780601f1062000f8c5761010080835404028352916020019162000fb8565b820191906000526020600020905b81548152906001019060200180831162000f9a57829003601f168201915b50505050508152602001906001019062000f17565b50505090825250600282015460209091019060ff16600681111562000ff65762000ff662002097565b60068111156200100a576200100a62002097565b81526002919091015461010090046001600160a01b03166020918201528151908201516040830151929350909160068111156200104b576200104b62002097565b83606001519450945094509450509193509193565b6040516307fb74db60e21b81526000906001600160a01b03861690631fedd36c906200109190339060040162001f98565b6020604051808303816000875af1158015620010b1573d6000803e3d6000fd5b505050506040513d601f19601f82011682018060405250810190620010d79190620027ff565b905080600203620011f757336000908152600860209081526040808320805460018101825590845291832090910180546001600160a01b0319166001600160a01b03891690811790915581516355da145360e11b81529151909163abb428a69160048083019260609291908290030181865afa1580156200115c573d6000803e3d6000fd5b505050506040513d601f19601f82011682018060405250810190620011829190620028a6565b516001600160a01b031614620011f75760405163d7dcbe3b60e01b81526001600160a01b0385169063d7dcbe3b90620011c2908890339060040162002850565b600060405180830381600087803b158015620011dd57600080fd5b505af1158015620011f2573d6000803e3d6000fd5b505050505b42336001600160a01b031660008051602062005faa833981519152858886604051620012269392919062002819565b60405180910390a35050505050565b6060600062001243620006a2565b92915050565b600360205281600052604060002081815481106200066957600080fd5b600860205281600052604060002081815481106200066957600080fd5b6001546060906001600160a01b031633146200129e57600080fd5b826006811115620012b357620012b362002097565b6001600160a01b038316600090815260026020819052604090912001805460ff19166001836006811115620012ec57620012ec62002097565b02179055505060408051808201909152600d81526c526f6c6520557064617465642160981b602082015292915050565b604051630a57332d60e31b81526001600160a01b038516906352b99968906200134a90869060040162001f98565b600060405180830381600087803b1580156200136557600080fd5b505af11580156200137a573d6000803e3d6000fd5b505050506001600160a01b0383811660009081526003602090815260408083208054600181018255908452919092200180546001600160a01b03191692871692909217909155514290339060008051602062005faa83398151915290620013e79086908990879062002819565b60405180910390a350505050565b3360009081526002602081905260408220015460049060ff16600681111562001422576200142262002097565b14620014815760405162461bcd60e51b815260206004820152602760248201527f4f6e6c792057686f6c6573616c65722043616e2063616c6c20746869732066756044820152663731ba34b7b71760c91b6064820152608401620007e1565b3360009081526006602052604090208054839081106200086f576200086f620026e6565b33600090815260046020526040812054606091816001600160401b03811115620014d357620014d3620020f2565b604051908082528060200260200182016040528015620014fd578160200160208202803683370190505b50905060005b828110156200078d57336000908152600460205260409020805482908110620015305762001530620026e6565b9060005260206000200160009054906101000a90046001600160a01b0316828281518110620015635762001563620026e6565b6001600160a01b0390921660209283029190910190910152806200158781620026fc565b91505062001503565b600460205281600052604060002081815481106200066957600080fd5b42836001600160a01b03167f22561ca0666e99052dd8231a6c5c337204ed5658c357aa6afcd53c207acfac67868585604051620013e79392919062002819565b6002336000908152600260208190526040909120015460ff1660068111156200161a576200161a62002097565b14620016795760405162461bcd60e51b815260206004820152602760248201527f4f6e6c79205472616e73706f727465722063616e2063616c6c207468697320666044820152663ab731ba34b7b760c91b6064820152608401620007e1565b60008211620016cb5760405162461bcd60e51b815260206004820152601d60248201527f5472616e73706f72746572205479706520697320696e636f72726563740000006044820152606401620007e1565b62000e5683838362000d3d565b3360009081526002602081905260408220015460059060ff16600681111562001705576200170562002097565b14620017255760405162461bcd60e51b8152600401620007e19062002768565b503360009081526009602052604090205490565b42826001600160a01b03167f31f87de04fd141167b8131be7a8ccb2bac63361a15671c96d90c39ddc9ef909d858785604051620013e79392919062002819565b3360009081526002602081905260408220015460019060ff166006811115620017a657620017a662002097565b14620017c65760405162461bcd60e51b8152600401620007e19062002724565b503360009081526020819052604090205490565b42846001600160a01b03167f9151271dfe612a18bf915ee1609e6f94f62fd775c704a0ae2ef091519f0c9b39858585604051620013e79392919062002819565b33600090815260086020526040812054606091816001600160401b03811115620018485762001848620020f2565b60405190808252806020026020018201604052801562001872578160200160208202803683370190505b50905060005b828110156200078d57336000908152600860205260409020805482908110620018a557620018a5620026e6565b9060005260206000200160009054906101000a90046001600160a01b0316828281518110620018d857620018d8620026e6565b6001600160a01b039092166020928302919091019091015280620018fc81620026fc565b91505062001878565b600083338484604051620019199062001e12565b62001928949392919062002936565b604051809103906000f08015801562001945573d6000803e3d6000fd5b5033600090815260066020908152604080832080546001810182559084528284200180546001600160a01b039586166001600160a01b0319918216811790925598909416835260079091529020805490951617909355505050565b33600090815260036020526040812054606091816001600160401b03811115620019ce57620019ce620020f2565b604051908082528060200260200182016040528015620019f8578160200160208202803683370190505b50905060005b828110156200078d5733600090815260036020526040902080548290811062001a2b5762001a2b620026e6565b9060005260206000200160009054906101000a90046001600160a01b031682828151811062001a5e5762001a5e620026e6565b6001600160a01b03909216602092830291909101909101528062001a8281620026fc565b915050620019fe565b60405133606081901b6001600160601b031916602083015242603483015260009160029060540160408051601f198184030181529082905262001ace9162002961565b602060405180830381855afa15801562001aec573d6000803e3d6000fd5b5050506040513d601f19601f8201168201806040525081019062001b119190620027ff565b60601c8686868660405162001b269062001e20565b6001600160a01b0396871681529486166020860152604085019390935260608401919091528316608083015290911660a082015260c001604051809103906000f08015801562001b7a573d6000803e3d6000fd5b50336000908152602081815260408220805460018101825590835291200180546001600160a01b0319166001600160a01b03929092169190911790555050505050565b600960205281600052604060002081815481106200066957600080fd5b6005336000908152600260208190526040909120015460ff16600681111562001c075762001c0762002097565b14801562001c855750826001600160a01b031663abb428a66040518163ffffffff1660e01b8152600401606060405180830381865afa15801562001c4f573d6000803e3d6000fd5b505050506040513d601f19601f8201168201806040525081019062001c759190620028a6565b602001516001600160a01b031633145b62001d055760405162461bcd60e51b815260206004820152604360248201527f4f6e6c79204469737472696275746f72206f722063757272656e74206f776e6560448201527f72206f66207061636b6167652063616e2063616c6c20746869732066756e637460648201526234b7b760e91b608482015260a401620007e1565b60008333848460405162001d199062001e2e565b62001d28949392919062002936565b604051809103906000f08015801562001d45573d6000803e3d6000fd5b5033600090815260096020908152604080832080546001810182559084528284200180546001600160a01b039586166001600160a01b03199182168117909255989094168352600a9091529020805490951617909355505050565b82805482825590600052602060002090810192821562001df2579160200282015b8281111562001df2578251805162001de191849160209091019062001e3c565b509160200191906001019062001dc1565b5062001e0092915062001ec7565b5090565b611b9c806200298083390190565b61041a806200451c83390190565b611256806200493683390190565b61041e8062005b8c83390190565b82805462001e4a906200286a565b90600052602060002090601f01602090048101928262001e6e576000855562001eb9565b82601f1062001e8957805160ff191683800117855562001eb9565b8280016001018555821562001eb9579182015b8281111562001eb957825182559160200191906001019062001e9c565b5062001e0092915062001ee8565b8082111562001e0057600062001ede828262001eff565b5060010162001ec7565b5b8082111562001e00576000815560010162001ee9565b50805462001f0d906200286a565b6000825580601f1062001f1e575050565b601f01602090049060005260206000209081019062001f3e919062001ee8565b50565b6001600160a01b038116811462001f3e57600080fd5b803562001f648162001f41565b919050565b6000806040838503121562001f7d57600080fd5b823562001f8a8162001f41565b946020939093013593505050565b6001600160a01b0391909116815260200190565b600081518084526020808501945080840160005b8381101562001fe75781516001600160a01b03168752958201959082019060010162001fc0565b509495945050505050565b60208152600062002007602083018462001fac565b9392505050565b600080600080608085870312156200202557600080fd5b84359350602085013592506040850135620020408162001f41565b91506060850135620020528162001f41565b939692955090935050565b6000602082840312156200207057600080fd5b5035919050565b6000602082840312156200208a57600080fd5b8135620020078162001f41565b634e487b7160e01b600052602160045260246000fd5b8381526060810160078410620020d357634e487b7160e01b600052602160045260246000fd5b60208201939093526001600160a01b0391909116604090910152919050565b634e487b7160e01b600052604160045260246000fd5b604051601f8201601f191681016001600160401b0381118282101715620021335762002133620020f2565b604052919050565b60006001600160401b03821115620021575762002157620020f2565b5060051b60200190565b60006001600160401b038311156200217d576200217d620020f2565b62002192601f8401601f191660200162002108565b9050828152838383011115620021a757600080fd5b828260208301376000602084830101529392505050565b60008060008060808587031215620021d557600080fd5b843593506020808601356001600160401b0380821115620021f557600080fd5b818801915088601f8301126200220a57600080fd5b8135620022216200221b826200213b565b62002108565b81815260059190911b8301840190848101908b8311156200224157600080fd5b8585015b8381101562002294578035858111156200225f5760008081fd5b8601603f81018e13620022725760008081fd5b620022858e898301356040840162002161565b84525091860191860162002245565b50975050505060408701359350620022b29150506060860162001f57565b905092959194509250565b60005b83811015620022da578181015183820152602001620022c0565b83811115620007f85750506000910152565b6000815180845262002306816020860160208601620022bd565b601f01601f19169290920160200192915050565b602081526000620020076020830184620022ec565b600082601f8301126200234157600080fd5b81356020620023546200221b836200213b565b82815260059290921b840181019181810190868411156200237457600080fd5b8286015b848110156200239c5780356200238e8162001f41565b835291830191830162002378565b509695505050505050565b600080600080600060a08688031215620023c057600080fd5b8535620023cd8162001f41565b94506020860135935060408601356001600160401b0380821115620023f157600080fd5b620023ff89838a016200232f565b94506060880135935060808801359150808211156200241d57600080fd5b506200242c888289016200232f565b9150509295509295909350565b600082601f8301126200244b57600080fd5b620020078383356020850162002161565b6000806000606084860312156200247257600080fd5b83356200247f8162001f41565b92506020840135620024918162001f41565b915060408401356001600160401b03811115620024ad57600080fd5b620024bb8682870162002439565b9150509250925092565b600080600080600060a08688031215620024de57600080fd5b8535620024eb8162001f41565b945060208601359350604086013560ff811681146200250957600080fd5b94979396509394606081013594506080013592915050565b6000806000606084860312156200253757600080fd5b8335620025448162001f41565b92506020840135915060408401356200255d8162001f41565b809150509250925092565b600060808201868352602060808185015281875180845260a08601915060a08160051b870101935082890160005b82811015620025c857609f19888703018452620025b5868351620022ec565b9550928401929084019060010162002596565b50505050506040830194909452506001600160a01b039190911660609091015292915050565b600080600080608085870312156200260557600080fd5b8435620026128162001f41565b93506020850135620026248162001f41565b92506040850135620026368162001f41565b915060608501356001600160401b038111156200265257600080fd5b620026608782880162002439565b91505092959194509250565b600080604083850312156200268057600080fd5b823591506020830135620026948162001f41565b809150509250929050565b600080600060608486031215620026b557600080fd5b8335620026c28162001f41565b92506020840135620026d48162001f41565b915060408401356200255d8162001f41565b634e487b7160e01b600052603260045260246000fd5b6000600182016200271d57634e487b7160e01b600052601160045260246000fd5b5060010190565b60208082526024908201527f526f6c653d3e537570706c6965722063616e2075736520746869732066756e636040820152633a34b7b760e11b606082015260800190565b60208082526028908201527f4f6e6c79204469737472696275746f722043616e2063616c6c207468697320666040820152673ab731ba34b7b71760c11b606082015260800190565b60018060a01b038616815284602082015260a060408201526000620027d960a083018662001fac565b8460608401528281036080840152620027f3818562001fac565b98975050505050505050565b6000602082840312156200281257600080fd5b5051919050565b6001600160a01b038481168252831660208201526060604082018190526000906200284790830184620022ec565b95945050505050565b6001600160a01b0392831681529116602082015260400190565b600181811c908216806200287f57607f821691505b602082108103620028a057634e487b7160e01b600052602260045260246000fd5b50919050565b600060608284031215620028b957600080fd5b82601f830112620028c957600080fd5b604051606081016001600160401b0381118282101715620028ee57620028ee620020f2565b6040528060608401858111156200290457600080fd5b845b818110156200292b5780516200291c8162001f41565b83526020928301920162002906565b509195945050505050565b6001600160a01b03948516815292841660208401529083166040830152909116606082015260800190565b6000825162002975818460208701620022bd565b919091019291505056fe60806040523480156200001157600080fd5b5060405162001b9c38038062001b9c83398101604081905262000034916200029e565b600080546001600160a01b0387166001600160a01b0319918216811790925560048054909116909117905560018490558251620000799060029060208601906200012f565b5060088290558051620000949060039060208401906200012f565b50600580546001600160a01b03199081169091556006805490911690556009805460ff191690556040516000908690620000ce9062000199565b6001600160a01b039091168152602001604051809103906000f080158015620000fb573d6000803e3d6000fd5b50600980546001600160a01b0390921661010002610100600160a81b0319909216919091179055506200032f945050505050565b82805482825590600052602060002090810192821562000187579160200282015b828111156200018757825182546001600160a01b0319166001600160a01b0390911617825560209092019160019091019062000150565b5062000195929150620001a7565b5090565b610c518062000f4b83390190565b5b80821115620001955760008155600101620001a8565b80516001600160a01b0381168114620001d657600080fd5b919050565b634e487b7160e01b600052604160045260246000fd5b600082601f8301126200020357600080fd5b815160206001600160401b0380831115620002225762000222620001db565b8260051b604051601f19603f830116810181811084821117156200024a576200024a620001db565b6040529384528581018301938381019250878511156200026957600080fd5b83870191505b8482101562000293576200028382620001be565b835291830191908301906200026f565b979650505050505050565b600080600080600060a08688031215620002b757600080fd5b620002c286620001be565b6020870151604088015191965094506001600160401b0380821115620002e757600080fd5b620002f589838a01620001f1565b94506060880151935060808801519150808211156200031357600080fd5b506200032288828901620001f1565b9150509295509295909350565b610c0c806200033f6000396000f3fe608060405234801561001057600080fd5b50600436106100a45760003560e01c80631fedd36c146100a95780632f1d7588146100cf57806393a668b7146100e457806396991e79146100f7578063aab3a9d614610127578063abb428a614610187578063ac42a4151461019c578063c8f5f189146101af578063d2f3fcc7146101c2578063e002c8a5146101ca578063e138d4ce146101e7578063f5c0e38314610217575b600080fd5b6100bc6100b73660046109cd565b61022a565b6040519081526020015b60405180910390f35b6100e26100dd3660046109ef565b6104b0565b005b6100e26100f23660046109cd565b610520565b6100e26101053660046109cd565b600680546001600160a01b0319166001600160a01b0392909216919091179055565b6100e26101353660046109cd565b600380546001810182556000919091527fc2575a0e9e593c00f959f8c92f12db2869c3395a3b0502d05e2516446f71f85b0180546001600160a01b0319166001600160a01b0392909216919091179055565b61018f610574565b6040516100c69190610a22565b6100e26101aa3660046109cd565b6105af565b6100e26101bd3660046109cd565b61074f565b6100bc6107b3565b6101d26107d2565b6040516100c699989796959493929190610aa0565b6100e26101f53660046109cd565b600580546001600160a01b0319166001600160a01b0392909216919091179055565b6100e26102253660046109ef565b61090e565b6005546000906001600160a01b038381169116148061025657506006546001600160a01b038381169116145b6102c55760405162461bcd60e51b815260206004820152603560248201527f4f6e6c792057686f6c6573616c6572206f72204469737472696275746f72206360448201527430b71031b0b636103a3434b990333ab731ba34b7b760591b60648201526084015b60405180910390fd5b60095460019060ff1660068111156102df576102df610b14565b10156103295760405162461bcd60e51b8152602060048201526019602482015278141c9bd91d58dd081b9bdd081c1a58dad959081d5c081e595d603a1b60448201526064016102bc565b6005546001600160a01b03838116911614801561035c5750600160095460ff16600681111561035a5761035a610b14565b145b156103eb576009805460ff1916600390811790915560055481546001600160a01b03909116919061038f90600190610b2a565b8154811061039f5761039f610b4f565b6000918252602090912001546040516001600160a01b03909116903090600080516020610bb7833981519152906103db90600290600390610b65565b60405180910390a4506001919050565b6006546001600160a01b03838116911614801561041e5750600260095460ff16600681111561041c5761041c610b14565b145b156104ab576009805460ff19166004179055600654600380546001600160a01b039092169161044f90600190610b2a565b8154811061045f5761045f610b4f565b6000918252602090912001546040516001600160a01b03909116903090600080516020610bb78339815191529061049b90600390600490610b65565b60405180910390a4506002919050565b919050565b6006546001600160a01b038281169116146104dd5760405162461bcd60e51b81526004016102bc90610b73565b600780546001600160a01b0319166001600160a01b03841617905560055b6009805460ff1916600183600681111561051757610517610b14565b02179055505050565b6006546001600160a01b0382811691161461054d5760405162461bcd60e51b81526004016102bc90610b73565b60045b6009805460ff1916600183600681111561056c5761056c610b14565b021790555050565b61057c610998565b50604080516060810182526005546001600160a01b03908116825260065481166020830152600754169181019190915290565b600380546105bf90600190610b2a565b815481106105cf576105cf610b4f565b6000918252602090912001546001600160a01b038281169116146106455760405162461bcd60e51b815260206004820152602760248201527f4f6e6c79205472616e73706f727465722063616e2063616c6c207468697320666044820152663ab731ba34b7b760c91b60648201526084016102bc565b600060095460ff16600681111561065e5761065e610b14565b146106ab5760405162461bcd60e51b815260206004820181905260248201527f5061636b616765206d757374206265206174204d616e7566616374757265722e60448201526064016102bc565b6005546001600160a01b03161561070a576009805460ff191660019081179091556005546040516001600160a01b0391821692918416913091600080516020610bb7833981519152916106ff918190610b65565b60405180910390a450565b6009805460ff191660029081179091556006546040516001600160a01b0391821692918416913091600080516020610bb7833981519152916106ff9160019190610b65565b6007546001600160a01b038281169116146107ac5760405162461bcd60e51b815260206004820181905260248201527f5468697320437573746f6d6572206973206e6f74204173736f6369617465642e60448201526064016102bc565b6006610550565b60095460009060ff1660068111156107cd576107cd610b14565b905090565b6004546001546008546006805460095460009586956060958795879587958695869586956001600160a01b03928316959194600294919360039391169160ff169081111561082257610822610b14565b6009546005548654604080516020808402820181019092528281526101009094046001600160a01b039081169493169291899183018282801561088e57602002820191906000526020600020905b81546001600160a01b03168152600190910190602001808311610870575b50505050509650848054806020026020016040519081016040528092919081815260200182805480156108ea57602002820191906000526020600020905b81546001600160a01b031681526001909101906020018083116108cc575b50505050509450985098509850985098509850985098509850909192939495969798565b6005546001600160a01b038281169116146109765760405162461bcd60e51b815260206004820152602260248201527f746869732057686f6c6573616c6572206973206e6f74204173736f6369617465604482015261321760f11b60648201526084016102bc565b600680546001600160a01b0319166001600160a01b03841617905560026104fb565b60405180606001604052806003906020820280368337509192915050565b80356001600160a01b03811681146104ab57600080fd5b6000602082840312156109df57600080fd5b6109e8826109b6565b9392505050565b60008060408385031215610a0257600080fd5b610a0b836109b6565b9150610a19602084016109b6565b90509250929050565b60608101818360005b6003811015610a535781516001600160a01b0316835260209283019290910190600101610a2b565b50505092915050565b600081518084526020808501945080840160005b83811015610a955781516001600160a01b031687529582019590820190600101610a70565b509495945050505050565b6001600160a01b038a81168252602082018a905261012060408301819052600091610acd8483018c610a5c565b91508960608501528382036080850152610ae7828a610a5c565b97811660a085015260c0840196909652505091831660e08301529091166101009091015295945050505050565b634e487b7160e01b600052602160045260246000fd5b600082821015610b4a57634e487b7160e01b600052601160045260246000fd5b500390565b634e487b7160e01b600052603260045260246000fd5b918252602082015260400190565b60208082526023908201527f54686973204469737472696275746f72206973206e6f74204173736f6369617460408201526232b21760e91b60608201526080019056fe7e89c4b1a4e2b51aae84eb1f90e8a34cb792ece5ac5cb63db4830c891220b28da2646970667358221220ac241a611b377b6f203b8def7b9e63fecaf973924090de14f0ddc376459164bb64736f6c634300080d00336080604052600060025534801561001557600080fd5b50604051610c51380380610c5183398101604081905261003491610059565b600080546001600160a01b0319166001600160a01b0392909216919091179055610089565b60006020828403121561006b57600080fd5b81516001600160a01b038116811461008257600080fd5b9392505050565b610bb9806100986000396000f3fe608060405234801561001057600080fd5b506004361061004c5760003560e01c806327506f53146100515780633626a3681461006f57806378ce1365146100845780639ace38c21461009b575b600080fd5b6100596100c1565b60405161006691906107dd565b60405180910390f35b61008261007d366004610966565b61030f565b005b61008d60025481565b604051908152602001610066565b6100ae6100a93660046109fc565b61059d565b6040516100669796959493929190610a15565b6002546060906000816001600160401b038111156100e1576100e16108c4565b60405190808252806020026020018201604052801561014757816020015b6040805160e0810182526000808252602080830182905292820181905260608083018290526080830181905260a083015260c082015282526000199092019101816100ff5790505b50905060005b8281101561030857600081815260016020818152604092839020835160e08101855281548152928101546001600160a01b0390811692840192909252600281015490911692820192909252600382015460608201526004820180549192916080840191906101ba90610a75565b80601f01602080910402602001604051908101604052809291908181526020018280546101e690610a75565b80156102335780601f1061020857610100808354040283529160200191610233565b820191906000526020600020905b81548152906001019060200180831161021657829003601f168201915b5050505050815260200160058201805461024c90610a75565b80601f016020809104026020016040519081016040528092919081815260200182805461027890610a75565b80156102c55780601f1061029a576101008083540402835291602001916102c5565b820191906000526020600020905b8154815290600101906020018083116102a857829003601f168201915b505050505081526020016006820154815250508282815181106102ea576102ea610aaf565b6020026020010181905250808061030090610adb565b91505061014d565b5092915050565b60025442906000036103f1576040805160e0810182528881526001600160a01b038089166020808401918252898316848601908152606085018a8152608086018a815260a087018a905260c08701899052600280546000908152600180875299902088518155955198860180549988166001600160a01b03199a8b161790559251928501805493909616929097169190911790935591516003820155925180519293926103c292600485019201906106f7565b5060a082015180516103de9160058401916020909101906106f7565b5060c08201518160060155905050610538565b836001600060016002546104059190610af4565b815260200190815260200160002060000154146104665760405162461bcd60e51b815260206004820152601b60248201527a5472616e73616374696f6e206572726f72206f636375727265642160281b604482015260640160405180910390fd5b6040805160e0810182528881526001600160a01b038089166020808401918252898316848601908152606085018a8152608086018a815260a087018a905260c08701899052600280546000908152600180875299902088518155955198860180549988166001600160a01b03199a8b1617905592519285018054939096169290971691909117909355915160038201559251805192939261050d92600485019201906106f7565b5060a082015180516105299160058401916020909101906106f7565b5060c082015181600601559050505b60016002600082825461054b9190610b0b565b90915550506040517f30d01d358fb0899fe4d50947b2e9301c952d9eed09b14c7ecdcbeed4434557c49061058c90899089908990899087908a908a90610b23565b60405180910390a150505050505050565b6001602081905260009182526040909120805491810154600282015460038301546004840180546001600160a01b0394851695949093169391926105e090610a75565b80601f016020809104026020016040519081016040528092919081815260200182805461060c90610a75565b80156106595780601f1061062e57610100808354040283529160200191610659565b820191906000526020600020905b81548152906001019060200180831161063c57829003601f168201915b50505050509080600501805461066e90610a75565b80601f016020809104026020016040519081016040528092919081815260200182805461069a90610a75565b80156106e75780601f106106bc576101008083540402835291602001916106e7565b820191906000526020600020905b8154815290600101906020018083116106ca57829003601f168201915b5050505050908060060154905087565b82805461070390610a75565b90600052602060002090601f016020900481019282610725576000855561076b565b82601f1061073e57805160ff191683800117855561076b565b8280016001018555821561076b579182015b8281111561076b578251825591602001919060010190610750565b5061077792915061077b565b5090565b5b80821115610777576000815560010161077c565b6000815180845260005b818110156107b65760208185018101518683018201520161079a565b818111156107c8576000602083870101525b50601f01601f19169290920160200192915050565b60006020808301818452808551808352604092508286019150828160051b87010184880160005b8381101561089a57888303603f19018552815180518452878101516001600160a01b03908116898601528782015116878501526060808201519085015260808082015160e0828701819052919061085d83880182610790565b9250505060a080830151868303828801526108788382610790565b60c0948501519790940196909652505094870194925090860190600101610804565b509098975050505050505050565b80356001600160a01b03811681146108bf57600080fd5b919050565b634e487b7160e01b600052604160045260246000fd5b600082601f8301126108eb57600080fd5b81356001600160401b0380821115610905576109056108c4565b604051601f8301601f19908116603f0116810190828211818310171561092d5761092d6108c4565b8160405283815286602085880101111561094657600080fd5b836020870160208301376000602085830101528094505050505092915050565b60008060008060008060c0878903121561097f57600080fd5b8635955061098f602088016108a8565b945061099d604088016108a8565b93506060870135925060808701356001600160401b03808211156109c057600080fd5b6109cc8a838b016108da565b935060a08901359150808211156109e257600080fd5b506109ef89828a016108da565b9150509295509295509295565b600060208284031215610a0e57600080fd5b5035919050565b8781526001600160a01b038781166020830152861660408201526060810185905260e060808201819052600090610a4e90830186610790565b82810360a0840152610a608186610790565b9150508260c083015298975050505050505050565b600181811c90821680610a8957607f821691505b602082108103610aa957634e487b7160e01b600052602260045260246000fd5b50919050565b634e487b7160e01b600052603260045260246000fd5b634e487b7160e01b600052601160045260246000fd5b600060018201610aed57610aed610ac5565b5060010190565b600082821015610b0657610b06610ac5565b500390565b60008219821115610b1e57610b1e610ac5565b500190565b8781526001600160a01b03878116602083015286166040820152606081018590526080810184905260e060a08201819052600090610b6390830185610790565b82810360c0840152610b758185610790565b9a995050505050505050505056fea26469706673582212206e28ea17ac6ed2d33eece4179e36699b5ab652145c68ee5fbbe16789259328f364736f6c634300080d0033608060405234801561001057600080fd5b5060405161041a38038061041a83398101604081905261002f916100b6565b600080546001600160a01b039485166001600160a01b0319918216811790925560018054968616968216969096179095556002805486169091179055600380549284169290941691909117909255600480546001600160a81b0319169290911691909117905561010a565b80516001600160a01b03811681146100b157600080fd5b919050565b600080600080608085870312156100cc57600080fd5b6100d58561009a565b93506100e36020860161009a565b92506100f16040860161009a565b91506100ff6060860161009a565b905092959194509250565b610301806101196000396000f3fe608060405234801561001057600080fd5b50600436106100415760003560e01c8063443c28d814610046578063d2f3fcc71461005b578063d7dcbe3b14610075575b600080fd5b610059610054366004610282565b610088565b005b610063610182565b60405190815260200160405180910390f35b610059610083366004610282565b6101a8565b6003546001600160a01b038281169116146101025760405162461bcd60e51b815260206004820152602f60248201527f4f6e6c79204173736f63696174656420736869707065722063616e2063616c6c60448201526e103a3434b990333ab731ba34b7b71760891b60648201526084015b60405180910390fd5b60048054600160a01b60ff60a01b19821617825560025460405163f5c0e38360e01b81526001600160a01b03928316938101939093528116602483015283169063f5c0e383906044015b600060405180830381600087803b15801561016657600080fd5b505af115801561017a573d6000803e3d6000fd5b505050505050565b600454600090600160a01b900460ff1660028111156101a3576101a36102b5565b905090565b6004546001600160a01b0382811691161461021e5760405162461bcd60e51b815260206004820152603060248201527f4f6e6c79204173736f6369617465642072656365697665722063616e2063616c60448201526f36103a3434b990333ab731ba34b7b71760811b60648201526084016100f9565b600480546002919060ff60a01b1916600160a01b8302179055506040516393a668b760e01b81526001600160a01b0382811660048301528316906393a668b79060240161014c565b80356001600160a01b038116811461027d57600080fd5b919050565b6000806040838503121561029557600080fd5b61029e83610266565b91506102ac60208401610266565b90509250929050565b634e487b7160e01b600052602160045260246000fdfea2646970667358221220fe9dbed736fe1f78ed8ba3e5002c5db6943a89cb55ecaae54a8f1799f470b13c64736f6c634300080d0033608060405234801561001057600080fd5b5060405161125638038061125683398101604081905261002f91610123565b600080546001600160a01b03199081166001600160a01b0389811691821784556001805484168a8316179055600288905560038790556004805484168783161790556005805490931690851617909155600680546001600160a81b031916909117905560405182906100a0906100fa565b6001600160a01b039091168152602001604051809103906000f0801580156100cc573d6000803e3d6000fd5b50600880546001600160a01b0319166001600160a01b03929092169190911790555061018995505050505050565b610c518061060583390190565b80516001600160a01b038116811461011e57600080fd5b919050565b60008060008060008060c0878903121561013c57600080fd5b61014587610107565b955061015360208801610107565b9450604087015193506060870151925061016f60808801610107565b915061017d60a08801610107565b90509295509295509295565b61046d806101986000396000f3fe608060405234801561001057600080fd5b50600436106100575760003560e01c806350e073bc1461005c57806352b999681461008e578063638e9a3d146100a15780636b099dca146100b457806380723520146100cf575b600080fd5b61008c61006a3660046103d1565b600580546001600160a01b0319166001600160a01b0392909216919091179055565b005b61008c61009c3660046103d1565b61012a565b61008c6100af3660046103d1565b610273565b6100bc6103ab565b6040519081526020015b60405180910390f35b600154600254600354600654600454600554600854604080516001600160a01b0398891681526020810197909752860194909452918516606085015284166080840152831660a08301529190911660c082015260e0016100c6565b6005546001600160a01b038281169116146101ae5760405162461bcd60e51b815260206004820152603960248201527f4f6e6c79204d616e756661637475726572206f6620746865207061636b6167656044820152782063616e20726563656965766520746865207061636b61676560381b60648201526084015b60405180910390fd5b6001600654600160a01b900460ff1660028111156101ce576101ce610401565b146102175760405162461bcd60e51b8152602060048201526019602482015278141c9bd91d58dd081b9bdd081c1a58dad959081d5c081e595d603a1b60448201526064016101a5565b6006805460ff60a01b1916600160a11b1790556005546004546001805460408051928352600260208401526001600160a01b0394851694938416939091169160008051602061041883398151915291015b60405180910390a450565b6004546001600160a01b038281169116146102e95760405162461bcd60e51b815260206004820152603060248201527f4f6e6c79207472616e73706f72746572206f6620746865207061636b6167652060448201526f63616e207069636b207061636b61676560801b60648201526084016101a5565b6000600654600160a01b900460ff16600281111561030957610309610401565b146103555760405162461bcd60e51b815260206004820152601c60248201527b2830b1b5b0b3b29036bab9ba1031329030ba1029bab8383634b2b91760211b60448201526064016101a5565b6006805460ff60a01b1916600160a01b179055600554600454600180546040805183815260208101939093526001600160a01b039485169493841693909116916000805160206104188339815191529101610268565b600654600090600160a01b900460ff1660028111156103cc576103cc610401565b905090565b6000602082840312156103e357600080fd5b81356001600160a01b03811681146103fa57600080fd5b9392505050565b634e487b7160e01b600052602160045260246000fdfe7e89c4b1a4e2b51aae84eb1f90e8a34cb792ece5ac5cb63db4830c891220b28da2646970667358221220d06749703c925cff0203e081993c2cc1bef024dc9f1b62820aa574864bd90b6b64736f6c634300080d00336080604052600060025534801561001557600080fd5b50604051610c51380380610c5183398101604081905261003491610059565b600080546001600160a01b0319166001600160a01b0392909216919091179055610089565b60006020828403121561006b57600080fd5b81516001600160a01b038116811461008257600080fd5b9392505050565b610bb9806100986000396000f3fe608060405234801561001057600080fd5b506004361061004c5760003560e01c806327506f53146100515780633626a3681461006f57806378ce1365146100845780639ace38c21461009b575b600080fd5b6100596100c1565b60405161006691906107dd565b60405180910390f35b61008261007d366004610966565b61030f565b005b61008d60025481565b604051908152602001610066565b6100ae6100a93660046109fc565b61059d565b6040516100669796959493929190610a15565b6002546060906000816001600160401b038111156100e1576100e16108c4565b60405190808252806020026020018201604052801561014757816020015b6040805160e0810182526000808252602080830182905292820181905260608083018290526080830181905260a083015260c082015282526000199092019101816100ff5790505b50905060005b8281101561030857600081815260016020818152604092839020835160e08101855281548152928101546001600160a01b0390811692840192909252600281015490911692820192909252600382015460608201526004820180549192916080840191906101ba90610a75565b80601f01602080910402602001604051908101604052809291908181526020018280546101e690610a75565b80156102335780601f1061020857610100808354040283529160200191610233565b820191906000526020600020905b81548152906001019060200180831161021657829003601f168201915b5050505050815260200160058201805461024c90610a75565b80601f016020809104026020016040519081016040528092919081815260200182805461027890610a75565b80156102c55780601f1061029a576101008083540402835291602001916102c5565b820191906000526020600020905b8154815290600101906020018083116102a857829003601f168201915b505050505081526020016006820154815250508282815181106102ea576102ea610aaf565b6020026020010181905250808061030090610adb565b91505061014d565b5092915050565b60025442906000036103f1576040805160e0810182528881526001600160a01b038089166020808401918252898316848601908152606085018a8152608086018a815260a087018a905260c08701899052600280546000908152600180875299902088518155955198860180549988166001600160a01b03199a8b161790559251928501805493909616929097169190911790935591516003820155925180519293926103c292600485019201906106f7565b5060a082015180516103de9160058401916020909101906106f7565b5060c08201518160060155905050610538565b836001600060016002546104059190610af4565b815260200190815260200160002060000154146104665760405162461bcd60e51b815260206004820152601b60248201527a5472616e73616374696f6e206572726f72206f636375727265642160281b604482015260640160405180910390fd5b6040805160e0810182528881526001600160a01b038089166020808401918252898316848601908152606085018a8152608086018a815260a087018a905260c08701899052600280546000908152600180875299902088518155955198860180549988166001600160a01b03199a8b1617905592519285018054939096169290971691909117909355915160038201559251805192939261050d92600485019201906106f7565b5060a082015180516105299160058401916020909101906106f7565b5060c082015181600601559050505b60016002600082825461054b9190610b0b565b90915550506040517f30d01d358fb0899fe4d50947b2e9301c952d9eed09b14c7ecdcbeed4434557c49061058c90899089908990899087908a908a90610b23565b60405180910390a150505050505050565b6001602081905260009182526040909120805491810154600282015460038301546004840180546001600160a01b0394851695949093169391926105e090610a75565b80601f016020809104026020016040519081016040528092919081815260200182805461060c90610a75565b80156106595780601f1061062e57610100808354040283529160200191610659565b820191906000526020600020905b81548152906001019060200180831161063c57829003601f168201915b50505050509080600501805461066e90610a75565b80601f016020809104026020016040519081016040528092919081815260200182805461069a90610a75565b80156106e75780601f106106bc576101008083540402835291602001916106e7565b820191906000526020600020905b8154815290600101906020018083116106ca57829003601f168201915b5050505050908060060154905087565b82805461070390610a75565b90600052602060002090601f016020900481019282610725576000855561076b565b82601f1061073e57805160ff191683800117855561076b565b8280016001018555821561076b579182015b8281111561076b578251825591602001919060010190610750565b5061077792915061077b565b5090565b5b80821115610777576000815560010161077c565b6000815180845260005b818110156107b65760208185018101518683018201520161079a565b818111156107c8576000602083870101525b50601f01601f19169290920160200192915050565b60006020808301818452808551808352604092508286019150828160051b87010184880160005b8381101561089a57888303603f19018552815180518452878101516001600160a01b03908116898601528782015116878501526060808201519085015260808082015160e0828701819052919061085d83880182610790565b9250505060a080830151868303828801526108788382610790565b60c0948501519790940196909652505094870194925090860190600101610804565b509098975050505050505050565b80356001600160a01b03811681146108bf57600080fd5b919050565b634e487b7160e01b600052604160045260246000fd5b600082601f8301126108eb57600080fd5b81356001600160401b0380821115610905576109056108c4565b604051601f8301601f19908116603f0116810190828211818310171561092d5761092d6108c4565b8160405283815286602085880101111561094657600080fd5b836020870160208301376000602085830101528094505050505092915050565b60008060008060008060c0878903121561097f57600080fd5b8635955061098f602088016108a8565b945061099d604088016108a8565b93506060870135925060808701356001600160401b03808211156109c057600080fd5b6109cc8a838b016108da565b935060a08901359150808211156109e257600080fd5b506109ef89828a016108da565b9150509295509295509295565b600060208284031215610a0e57600080fd5b5035919050565b8781526001600160a01b038781166020830152861660408201526060810185905260e060808201819052600090610a4e90830186610790565b82810360a0840152610a608186610790565b9150508260c083015298975050505050505050565b600181811c90821680610a8957607f821691505b602082108103610aa957634e487b7160e01b600052602260045260246000fd5b50919050565b634e487b7160e01b600052603260045260246000fd5b634e487b7160e01b600052601160045260246000fd5b600060018201610aed57610aed610ac5565b5060010190565b600082821015610b0657610b06610ac5565b500390565b60008219821115610b1e57610b1e610ac5565b500190565b8781526001600160a01b03878116602083015286166040820152606081018590526080810184905260e060a08201819052600090610b6390830185610790565b82810360c0840152610b758185610790565b9a995050505050505050505056fea26469706673582212206e28ea17ac6ed2d33eece4179e36699b5ab652145c68ee5fbbe16789259328f364736f6c634300080d0033608060405234801561001057600080fd5b5060405161041e38038061041e83398101604081905261002f916100b6565b600080546001600160a01b039485166001600160a01b0319918216811790925560018054968616968216969096179095556002805486169091179055600380549284169290941691909117909255600480546001600160a81b0319169290911691909117905561010a565b80516001600160a01b03811681146100b157600080fd5b919050565b600080600080608085870312156100cc57600080fd5b6100d58561009a565b93506100e36020860161009a565b92506100f16040860161009a565b91506100ff6060860161009a565b905092959194509250565b610305806101196000396000f3fe608060405234801561001057600080fd5b50600436106100415760003560e01c806353157b1a14610046578063c0114d061461005b578063f7addc3e14610075575b600080fd5b610059610054366004610286565b610088565b005b610063610186565b60405190815260200160405180910390f35b610059610083366004610286565b6101ac565b6003546001600160a01b038281169116146101065760405162461bcd60e51b815260206004820152603360248201527f4f6e6c79204173736f636961746564207472616e73706f727465722063616e2060448201527231b0b636103a3434b990333ab731ba34b7b71760691b60648201526084015b60405180910390fd5b60048054600160a01b60ff60a01b1982161782556002546040516305e3aeb160e31b81526001600160a01b039283169381019390935281166024830152831690632f1d7588906044015b600060405180830381600087803b15801561016a57600080fd5b505af115801561017e573d6000803e3d6000fd5b505050505050565b600454600090600160a01b900460ff1660028111156101a7576101a76102b9565b905090565b6004546001600160a01b038281169116146102225760405162461bcd60e51b815260206004820152603060248201527f4f6e6c79204173736f6369617465642072656365697665722063616e2063616c60448201526f36103a3434b990333ab731ba34b7b71760811b60648201526084016100fd565b600480546002919060ff60a01b1916600160a01b83021790555060405163c8f5f18960e01b81526001600160a01b03828116600483015283169063c8f5f18990602401610150565b80356001600160a01b038116811461028157600080fd5b919050565b6000806040838503121561029957600080fd5b6102a28361026a565b91506102b06020840161026a565b90509250929050565b634e487b7160e01b600052602160045260246000fdfea2646970667358221220994b0003b6eb38b50e25f0ecbdd91b9b3229fa71e2fd01f4d399cc20cc0c20b164736f6c634300080d0033cfbd3a658e0a38877312e3f5767ddb0c6541620d7bd0368d43e0b94a55d9876ea2646970667358221220392ae801f7ade857c292cc93169af2c431ea9d06f8bdf6836cf95cd1b356f1e764736f6c634300080d0033",
  "immutableReferences": {},
  "source": "//SPDX-License-Identifier: MIT\r\npragma solidity >=0.4.22 <0.9.0;\r\n\r\nimport './Supplier.sol';\r\nimport './Transporter.sol';\r\n// import './Manufacturer.sol';\r\n//// New supply chain : supplier -> transporter -> manufacturer -> transporter -> whole-saler -> transporter -> distributor -> transporter -> customer/hospital/pharmacy\r\n\r\n\r\n// contract SupplyChain is Supplier, Transporter, Manufacturer, Wholesaler, Distributor, Customer {\r\ncontract SupplyChain is Supplier, Transporter {\r\n    \r\n    address public Owner;\r\n    \r\n    constructor()  {\r\n        Owner = msg.sender;\r\n    }\r\n    \r\n    modifier onlyOwner() {\r\n        require(Owner == msg.sender);\r\n        _;\r\n    }\r\n    \r\n    modifier checkUser(address addr) {\r\n        require(addr == msg.sender);\r\n        _;\r\n    }\r\n    \r\n    enum roles {\r\n        noRole,\r\n        supplier,\r\n        transporter,\r\n        manufacturer,\r\n        wholesaler,\r\n        distributor,\r\n        customer\r\n    }\r\n    \r\n    \r\n    //////////////// Events ////////////////////\r\n    \r\n    event UserRegister(address indexed _address, bytes32 name);\r\n    event buyEvent(address buyer, address indexed seller, address packageAddr, bytes signature, uint indexed timestamp);\r\n    event respondEvent(address indexed buyer, address seller, address packageAddr, bytes signature, uint indexed timestamp);\r\n    event sendEvent(address seller, address buyer, address indexed packageAddr, bytes signature, uint indexed timestamp);\r\n    event receivedEvent(address indexed buyer, address seller, address packageAddr, bytes signature, uint indexed timestamp);\r\n    \r\n    \r\n    //////////////// Event functions (All entities) ////////////////////\r\n\r\n    \r\n    function requestProduct(address buyer, address seller, address packageAddr, bytes memory signature) public {\r\n        emit buyEvent(buyer, seller, packageAddr, signature, block.timestamp);\r\n    }\r\n    \r\n    function respondToEntity(address buyer, address seller, address packageAddr, bytes memory signature) public {\r\n        emit respondEvent(buyer, seller, packageAddr, signature, block.timestamp);\r\n    }\r\n    \r\n    function sendPackageToEntity(address buyer, address seller, address packageAddr, bytes memory signature) public {\r\n        emit sendEvent(seller, buyer, packageAddr, signature, block.timestamp);\r\n    }\r\n\r\n    /////////////// Users (Only Owner Executable) //////////////////////\r\n    \r\n    struct userData {\r\n        bytes32 name;\r\n        string[] userLoc;\r\n        roles role;\r\n        address userAddr;\r\n    }\r\n    \r\n    mapping (address => userData) public userInfo;\r\n    \r\n    function registerUser(bytes32 _name,string[] memory loc, uint _role, address _addr) external onlyOwner returns(string memory) {\r\n        userInfo[_addr].name = _name;\r\n        userInfo[_addr].userLoc = loc;\r\n        userInfo[_addr].role = roles(_role);\r\n        userInfo[_addr].userAddr = _addr;\r\n        emit UserRegister(_addr, _name);\r\n        return \"User Registered!\";\r\n    }\r\n    \r\n    function changeUserRole(uint _role, address _addr) external onlyOwner returns(string memory) {\r\n        userInfo[_addr].role = roles(_role);\r\n       return \"Role Updated!\";\r\n    }\r\n\r\n    function getUser(address _addr) external view returns (bytes32, string[] memory, uint, address) {\r\n        require(userInfo[_addr].userAddr != address(0), \"User does not exist\");\r\n        userData memory user = userInfo[_addr];\r\n        return (user.name, user.userLoc, uint(user.role), user.userAddr);\r\n    }\r\n    /////////////// Supplier //////////////////////\r\n    \r\n    \r\n    function supplierCreatesRawPackage(\r\n        bytes32 _description,\r\n        uint _quantity,\r\n        address _transporterAddr,\r\n        address _manufacturerAddr\r\n        ) external {\r\n            require(userInfo[msg.sender].role == roles.supplier, \"Role=>Supplier can use this function\");\r\n            createRawMaterialPackage(_description, _quantity, _transporterAddr,_manufacturerAddr);\r\n    }\r\n    \r\n    function supplierGetPackageCount() external view returns(uint) {\r\n        require(userInfo[msg.sender].role == roles.supplier, \"Role=>Supplier can use this function\");\r\n        \r\n        return getNoOfPackagesOfSupplier();\r\n    }\r\n    \r\n    function supplierGetRawMaterialAddresses() external view returns(address[] memory) {\r\n        address[] memory ret = getAllPackages();\r\n        return ret;\r\n    }\r\n    \r\n\r\n    function verify(address p, bytes32 hash, uint8 v, bytes32 r, bytes32 s) public pure returns(bool) {\r\n        return ecrecover(hash, v, r, s) == p;\r\n    }  \r\n\r\n\r\n    ///////////////  Transporter ///////////////\r\n    \r\n    \r\n    function transporterHandlePackage(\r\n        address _address,\r\n        uint transporterType,\r\n        address cid\r\n        ) external {\r\n            \r\n        require(\r\n            userInfo[msg.sender].role == roles.transporter,\r\n            \"Only Transporter can call this function\"\r\n        );\r\n        require(\r\n            transporterType > 0,\r\n            \"Transporter Type is incorrect\"\r\n        );\r\n        \r\n        handlePackage(_address, transporterType, cid);\r\n    }\r\n\r\n    ///////////////////////      Manufacturer           //////////////////////////////\r\n\r\n    \r\n    \r\n    mapping (address => address[]) public manufacturerRawMaterials;\r\n    mapping (address => address[]) public manufacturerMedicines;\r\n    \r\n    \r\n    function manufacturerReceivedPackage(\r\n        address _addr,\r\n        address _manufacturerAddress,\r\n        address _sellerAddr,\r\n        bytes memory signature\r\n        ) public {\r\n            \r\n        RawMaterial(_addr).receivedPackage(_manufacturerAddress);\r\n        manufacturerRawMaterials[_manufacturerAddress].push(_addr);\r\n        emit receivedEvent(msg.sender, _sellerAddr, _addr, signature, block.timestamp);\r\n    }\r\n    \r\n    function getAllRawMaterials() public view returns(address[] memory) {\r\n        uint len = manufacturerRawMaterials[msg.sender].length;\r\n        address[] memory ret = new address[](len);\r\n        for (uint i = 0; i < len; i++) {\r\n            ret[i] = manufacturerRawMaterials[msg.sender][i];\r\n        }\r\n        return ret;\r\n    }\r\n\r\n    function manufacturerCreatesMedicine(\r\n        address _manufacturerAddr,\r\n        bytes32 _description,\r\n        address[] memory _rawAddr,\r\n        uint _quantity,\r\n        address[] memory _transporterAddr\r\n        ) public {\r\n            \r\n        Medicine _medicine = new Medicine(\r\n            _manufacturerAddr,\r\n            _description,\r\n            _rawAddr,\r\n            _quantity,\r\n            _transporterAddr\r\n        );\r\n        \r\n        manufacturerMedicines[_manufacturerAddr].push(address(_medicine));\r\n        \r\n    }\r\n    \r\n    function getAllCreatedMedicines() public view returns(address[] memory) {\r\n        uint len = manufacturerMedicines[msg.sender].length;\r\n        address[] memory ret = new address[](len);\r\n        for (uint i = 0; i < len; i++) {\r\n            ret[i] = manufacturerMedicines[msg.sender][i];\r\n        }\r\n        return ret;\r\n    }\r\n    \r\n\r\n    ///////////////  Wholesaler  ///////////////\r\n\r\n    mapping(address => address[]) public MedicinesAtWholesaler;\r\n    mapping(address => address[]) public MedicineWtoD;\r\n    mapping(address => address) public MedicineWtoDTxContract;\r\n    \r\n    function wholesalerReceivedMedicine(\r\n        address _address,\r\n        address _sellerAddr,\r\n        bytes memory signature\r\n        ) public {\r\n        require(\r\n            userInfo[msg.sender].role == roles.wholesaler,\r\n            \"Only Wholesaler can call this function\"\r\n        );\r\n        \r\n        Medicine(_address).receivedMedicine(msg.sender);\r\n        MedicinesAtWholesaler[msg.sender].push(_address);\r\n        emit receivedEvent(msg.sender, _sellerAddr, _address, signature, block.timestamp);\r\n    }\r\n    \r\n    function transferMedicineWtoD(\r\n            address _address,\r\n            address transporter,\r\n            address receiver\r\n        ) public {\r\n            \r\n        MedicineW_D wd = new MedicineW_D(\r\n            _address,\r\n            msg.sender,\r\n            transporter,\r\n            receiver\r\n        );\r\n        MedicineWtoD[msg.sender].push(address(wd));\r\n        MedicineWtoDTxContract[_address] = address(wd);\r\n    }\r\n\r\n    \r\n    function getBatchIdByIndexWD(uint index) public view returns(address packageID) {\r\n        require(\r\n            userInfo[msg.sender].role == roles.wholesaler,\r\n            \"Only Wholesaler Can call this function.\"\r\n        );\r\n        return MedicineWtoD[msg.sender][index];\r\n    }\r\n\r\n    function getSubContractWD(address _address) public view returns (address SubContractWD) {\r\n        return MedicineWtoDTxContract[_address];\r\n    }\r\n    \r\n    function getAllMedicinesAtWholesaler() public view returns(address[] memory) {\r\n        uint len = MedicinesAtWholesaler[msg.sender].length;\r\n        address[] memory ret = new address[](len);\r\n        for (uint i = 0; i < len; i++) {\r\n            ret[i] = MedicinesAtWholesaler[msg.sender][i];\r\n        }\r\n        return ret;\r\n    }\r\n\r\n\r\n//     ///////////////  Distributor  ///////////////\r\n\r\n    mapping(address => address[]) public MedicinesAtDistributor;\r\n    mapping(address => address[]) public MedicineDtoC;\r\n    mapping(address => address) public MedicineDtoCTxContract;\r\n\r\n\r\n    function distributorReceivedMedicine(\r\n      address _address,\r\n      address cid,\r\n      address _sellerAddr,\r\n      bytes memory signature\r\n    ) public {\r\n\r\n        ///////////////######################## Work on this in future done for reducing size\r\n        // require(\r\n        //     userInfo[msg.sender].role == roles.distributor &&\r\n        //     msg.sender == Medicine(_address).getWDC()[1],\r\n        //     \"Only Distributor or current owner of package can call this function\"  \r\n        // );\r\n        \r\n        uint rtype = Medicine(_address).receivedMedicine(msg.sender);\r\n        if(rtype == 2){\r\n            MedicinesAtDistributor[msg.sender].push(_address);\r\n            if(Medicine(_address).getWDC()[0] != address(0)){\r\n                MedicineW_D(cid).receiveWD(_address, msg.sender);\r\n            }\r\n        }\r\n        emit receivedEvent(msg.sender, _sellerAddr, _address, signature, block.timestamp);\r\n    }\r\n\r\n    function distributorTransferMedicinetoCustomer(\r\n        address _address,\r\n        address transporter,\r\n        address receiver\r\n    ) public {\r\n        require(\r\n            userInfo[msg.sender].role == roles.distributor &&\r\n            msg.sender == Medicine(_address).getWDC()[1],\r\n            \"Only Distributor or current owner of package can call this function\"\r\n        );\r\n        MedicineD_C dp = new MedicineD_C(\r\n            _address,\r\n            msg.sender,\r\n            transporter,\r\n            receiver\r\n        );\r\n        MedicineDtoC[msg.sender].push(address(dp));\r\n        MedicineDtoCTxContract[_address] = address(dp);\r\n    }\r\n    \r\n    function getBatchesCountDC() public view returns (uint count){\r\n        require(\r\n            userInfo[msg.sender].role == roles.distributor,\r\n            \"Only Distributor Can call this function.\"\r\n        );\r\n        return MedicineDtoC[msg.sender].length;\r\n    }\r\n\r\n    function getBatchIdByIndexDC(uint index) public view returns(address packageID) {\r\n        require(\r\n            userInfo[msg.sender].role == roles.distributor,\r\n            \"Only Distributor Can call this function.\"\r\n        );\r\n        return MedicineDtoC[msg.sender][index];\r\n    }\r\n\r\n    function getSubContractDC(address _address) public view returns (address SubContractDP) {\r\n        return MedicineDtoCTxContract[_address];\r\n    }\r\n    \r\n    function getAllMedicinesAtDistributor() public view returns(address[] memory) {\r\n        uint len = MedicinesAtDistributor[msg.sender].length;\r\n        address[] memory ret = new address[](len);\r\n        for (uint i = 0; i < len; i++) {\r\n            ret[i] = MedicinesAtDistributor[msg.sender][i];\r\n        }\r\n        return ret;\r\n    }\r\n}",
  "sourcePath": "D:\\Quote\\MediChain\\contracts\\SupplyChain.sol",
  "compiler": {
    "name": "solc",
    "version": "0.8.13+commit.abaa5c0e.Emscripten.clang"
  },
  "schemaVersion": "3.4.16",
  "updatedAt": "2023-11-19T03:22:04.280Z",
  "networkType": "ethereum",
  "devdoc": {
    "kind": "dev",
    "methods": {},
    "version": 1
  },
  "userdoc": {
    "kind": "user",
    "methods": {},
    "version": 1
  }
}