{
  "contractName": "SupplyChain",
  "abi": [
    {
      "inputs": [],
      "stateMutability": "nonpayable",
      "type": "constructor"
    },
    {
      "anonymous": false,
      "inputs": [
        {
          "indexed": true,
          "internalType": "address",
          "name": "_address",
          "type": "address"
        },
        {
          "indexed": false,
          "internalType": "bytes32",
          "name": "name",
          "type": "bytes32"
        }
      ],
      "name": "UserRegister",
      "type": "event"
    },
    {
      "anonymous": false,
      "inputs": [
        {
          "indexed": false,
          "internalType": "address",
          "name": "buyer",
          "type": "address"
        },
        {
          "indexed": true,
          "internalType": "address",
          "name": "seller",
          "type": "address"
        },
        {
          "indexed": false,
          "internalType": "address",
          "name": "packageAddr",
          "type": "address"
        },
        {
          "indexed": false,
          "internalType": "bytes",
          "name": "signature",
          "type": "bytes"
        },
        {
          "indexed": true,
          "internalType": "uint256",
          "name": "timestamp",
          "type": "uint256"
        }
      ],
      "name": "buyEvent",
      "type": "event"
    },
    {
      "anonymous": false,
      "inputs": [
        {
          "indexed": true,
          "internalType": "address",
          "name": "buyer",
          "type": "address"
        },
        {
          "indexed": false,
          "internalType": "address",
          "name": "seller",
          "type": "address"
        },
        {
          "indexed": false,
          "internalType": "address",
          "name": "packageAddr",
          "type": "address"
        },
        {
          "indexed": false,
          "internalType": "bytes",
          "name": "signature",
          "type": "bytes"
        },
        {
          "indexed": true,
          "internalType": "uint256",
          "name": "timestamp",
          "type": "uint256"
        }
      ],
      "name": "receivedEvent",
      "type": "event"
    },
    {
      "anonymous": false,
      "inputs": [
        {
          "indexed": true,
          "internalType": "address",
          "name": "buyer",
          "type": "address"
        },
        {
          "indexed": false,
          "internalType": "address",
          "name": "seller",
          "type": "address"
        },
        {
          "indexed": false,
          "internalType": "address",
          "name": "packageAddr",
          "type": "address"
        },
        {
          "indexed": false,
          "internalType": "bytes",
          "name": "signature",
          "type": "bytes"
        },
        {
          "indexed": true,
          "internalType": "uint256",
          "name": "timestamp",
          "type": "uint256"
        }
      ],
      "name": "respondEvent",
      "type": "event"
    },
    {
      "anonymous": false,
      "inputs": [
        {
          "indexed": false,
          "internalType": "address",
          "name": "seller",
          "type": "address"
        },
        {
          "indexed": false,
          "internalType": "address",
          "name": "buyer",
          "type": "address"
        },
        {
          "indexed": true,
          "internalType": "address",
          "name": "packageAddr",
          "type": "address"
        },
        {
          "indexed": false,
          "internalType": "bytes",
          "name": "signature",
          "type": "bytes"
        },
        {
          "indexed": true,
          "internalType": "uint256",
          "name": "timestamp",
          "type": "uint256"
        }
      ],
      "name": "sendEvent",
      "type": "event"
    },
    {
      "inputs": [],
      "name": "Owner",
      "outputs": [
        {
          "internalType": "address",
          "name": "",
          "type": "address"
        }
      ],
      "stateMutability": "view",
      "type": "function",
      "constant": true
    },
    {
      "inputs": [
        {
          "internalType": "bytes32",
          "name": "_description",
          "type": "bytes32"
        },
        {
          "internalType": "uint256",
          "name": "_quantity",
          "type": "uint256"
        },
        {
          "internalType": "address",
          "name": "_transporterAddr",
          "type": "address"
        },
        {
          "internalType": "address",
          "name": "_manufacturerAddr",
          "type": "address"
        }
      ],
      "name": "createRawMaterialPackage",
      "outputs": [],
      "stateMutability": "nonpayable",
      "type": "function"
    },
    {
      "inputs": [],
      "name": "getAllPackages",
      "outputs": [
        {
          "internalType": "address[]",
          "name": "",
          "type": "address[]"
        }
      ],
      "stateMutability": "view",
      "type": "function",
      "constant": true
    },
    {
      "inputs": [],
      "name": "getNoOfPackagesOfSupplier",
      "outputs": [
        {
          "internalType": "uint256",
          "name": "",
          "type": "uint256"
        }
      ],
      "stateMutability": "view",
      "type": "function",
      "constant": true
    },
    {
      "inputs": [
        {
          "internalType": "address",
          "name": "",
          "type": "address"
        },
        {
          "internalType": "uint256",
          "name": "",
          "type": "uint256"
        }
      ],
      "name": "supplierRawMaterials",
      "outputs": [
        {
          "internalType": "address",
          "name": "",
          "type": "address"
        }
      ],
      "stateMutability": "view",
      "type": "function",
      "constant": true
    },
    {
      "inputs": [
        {
          "internalType": "address",
          "name": "",
          "type": "address"
        }
      ],
      "name": "userInfo",
      "outputs": [
        {
          "internalType": "bytes32",
          "name": "name",
          "type": "bytes32"
        },
        {
          "internalType": "enum SupplyChain.roles",
          "name": "role",
          "type": "uint8"
        },
        {
          "internalType": "address",
          "name": "userAddr",
          "type": "address"
        }
      ],
      "stateMutability": "view",
      "type": "function",
      "constant": true
    },
    {
      "inputs": [
        {
          "internalType": "address",
          "name": "buyer",
          "type": "address"
        },
        {
          "internalType": "address",
          "name": "seller",
          "type": "address"
        },
        {
          "internalType": "address",
          "name": "packageAddr",
          "type": "address"
        },
        {
          "internalType": "bytes",
          "name": "signature",
          "type": "bytes"
        }
      ],
      "name": "requestProduct",
      "outputs": [],
      "stateMutability": "nonpayable",
      "type": "function"
    },
    {
      "inputs": [
        {
          "internalType": "address",
          "name": "buyer",
          "type": "address"
        },
        {
          "internalType": "address",
          "name": "seller",
          "type": "address"
        },
        {
          "internalType": "address",
          "name": "packageAddr",
          "type": "address"
        },
        {
          "internalType": "bytes",
          "name": "signature",
          "type": "bytes"
        }
      ],
      "name": "respondToEntity",
      "outputs": [],
      "stateMutability": "nonpayable",
      "type": "function"
    },
    {
      "inputs": [
        {
          "internalType": "address",
          "name": "buyer",
          "type": "address"
        },
        {
          "internalType": "address",
          "name": "seller",
          "type": "address"
        },
        {
          "internalType": "address",
          "name": "packageAddr",
          "type": "address"
        },
        {
          "internalType": "bytes",
          "name": "signature",
          "type": "bytes"
        }
      ],
      "name": "sendPackageToEntity",
      "outputs": [],
      "stateMutability": "nonpayable",
      "type": "function"
    },
    {
      "inputs": [
        {
          "internalType": "bytes32",
          "name": "_name",
          "type": "bytes32"
        },
        {
          "internalType": "string[]",
          "name": "loc",
          "type": "string[]"
        },
        {
          "internalType": "uint256",
          "name": "_role",
          "type": "uint256"
        },
        {
          "internalType": "address",
          "name": "_addr",
          "type": "address"
        }
      ],
      "name": "registerUser",
      "outputs": [
        {
          "internalType": "string",
          "name": "",
          "type": "string"
        }
      ],
      "stateMutability": "nonpayable",
      "type": "function"
    },
    {
      "inputs": [
        {
          "internalType": "uint256",
          "name": "_role",
          "type": "uint256"
        },
        {
          "internalType": "address",
          "name": "_addr",
          "type": "address"
        }
      ],
      "name": "changeUserRole",
      "outputs": [
        {
          "internalType": "string",
          "name": "",
          "type": "string"
        }
      ],
      "stateMutability": "nonpayable",
      "type": "function"
    },
    {
      "inputs": [
        {
          "internalType": "address",
          "name": "_addr",
          "type": "address"
        }
      ],
      "name": "getUser",
      "outputs": [
        {
          "internalType": "bytes32",
          "name": "",
          "type": "bytes32"
        },
        {
          "internalType": "string[]",
          "name": "",
          "type": "string[]"
        },
        {
          "internalType": "uint256",
          "name": "",
          "type": "uint256"
        },
        {
          "internalType": "address",
          "name": "",
          "type": "address"
        }
      ],
      "stateMutability": "view",
      "type": "function",
      "constant": true
    },
    {
      "inputs": [
        {
          "internalType": "bytes32",
          "name": "_description",
          "type": "bytes32"
        },
        {
          "internalType": "uint256",
          "name": "_quantity",
          "type": "uint256"
        },
        {
          "internalType": "address",
          "name": "_transporterAddr",
          "type": "address"
        },
        {
          "internalType": "address",
          "name": "_manufacturerAddr",
          "type": "address"
        }
      ],
      "name": "supplierCreatesRawPackage",
      "outputs": [],
      "stateMutability": "nonpayable",
      "type": "function"
    },
    {
      "inputs": [],
      "name": "supplierGetPackageCount",
      "outputs": [
        {
          "internalType": "uint256",
          "name": "",
          "type": "uint256"
        }
      ],
      "stateMutability": "view",
      "type": "function",
      "constant": true
    },
    {
      "inputs": [],
      "name": "supplierGetRawMaterialAddresses",
      "outputs": [
        {
          "internalType": "address[]",
          "name": "",
          "type": "address[]"
        }
      ],
      "stateMutability": "view",
      "type": "function",
      "constant": true
    }
  ],
  "bytecode": "0x608060405234801561001057600080fd5b5033600160006101000a81548173ffffffffffffffffffffffffffffffffffffffff021916908373ffffffffffffffffffffffffffffffffffffffff160217905550614515806100616000396000f3fe60806040523480156200001157600080fd5b50600436106200010c5760003560e01c80639100978611620000a5578063d06f7b55116200006f578063d06f7b5514620002ec578063d1acb527146200030c578063e0cf92fe146200032e578063fc7e01f3146200034e576200010c565b8063910097861462000252578063b4a99a4e1462000288578063b8b16ca314620002aa578063c22470ea14620002ca576200010c565b80631959a00211620000e75780631959a00214620001895780631f90ddaf14620001c15780636f77926b14620001f7578063824e43e71462000230576200010c565b806306db832414620001115780630a421f0f146200014757806311789ca61462000169575b600080fd5b6200012f600480360381019062000129919062001321565b6200036e565b6040516200013e919062001379565b60405180910390f35b62000151620003bd565b60405162000160919062001464565b60405180910390f35b620001876004803603810190620001819190620014c3565b6200054f565b005b620001a76004803603810190620001a1919062001535565b62000622565b604051620001b893929190620015f8565b60405180910390f35b620001df6004803603810190620001d9919062001893565b62000679565b604051620001ee9190620019b7565b60405180910390f35b6200021560048036038101906200020f919062001535565b62000909565b60405162000227949392919062001b0e565b60405180910390f35b6200023a62000bef565b60405162000249919062001464565b60405180910390f35b6200027060048036038101906200026a919062001b62565b62000c06565b6040516200027f9190620019b7565b60405180910390f35b6200029262000d23565b604051620002a1919062001379565b60405180910390f35b620002c86004803603810190620002c2919062001c5d565b62000d49565b005b620002d462000da4565b604051620002e3919062001cee565b60405180910390f35b6200030a600480360381019062000304919062001c5d565b62000ded565b005b6200031662000e48565b60405162000325919062001cee565b60405180910390f35b6200034c600480360381019062000346919062001c5d565b62000f18565b005b6200036c6004803603810190620003669190620014c3565b62000f73565b005b600060205281600052604060002081815481106200038b57600080fd5b906000526020600020016000915091509054906101000a900473ffffffffffffffffffffffffffffffffffffffff1681565b606060008060003373ffffffffffffffffffffffffffffffffffffffff1673ffffffffffffffffffffffffffffffffffffffff16815260200190815260200160002080549050905060008167ffffffffffffffff8111156200042457620004236200164b565b5b604051908082528060200260200182016040528015620004535781602001602082028036833780820191505090505b50905060005b8281101562000546576000803373ffffffffffffffffffffffffffffffffffffffff1673ffffffffffffffffffffffffffffffffffffffff1681526020019081526020016000208181548110620004b557620004b462001d0b565b5b9060005260206000200160009054906101000a900473ffffffffffffffffffffffffffffffffffffffff16828281518110620004f657620004f562001d0b565b5b602002602001019073ffffffffffffffffffffffffffffffffffffffff16908173ffffffffffffffffffffffffffffffffffffffff168152505080806200053d9062001d69565b91505062000459565b50809250505090565b6001600681111562000566576200056562001578565b5b600260003373ffffffffffffffffffffffffffffffffffffffff1673ffffffffffffffffffffffffffffffffffffffff16815260200190815260200160002060020160009054906101000a900460ff166006811115620005cb57620005ca62001578565b5b146200060e576040517f08c379a0000000000000000000000000000000000000000000000000000000008152600401620006059062001e2c565b60405180910390fd5b6200061c8484848462000f73565b50505050565b60026020528060005260406000206000915090508060000154908060020160009054906101000a900460ff16908060020160019054906101000a900473ffffffffffffffffffffffffffffffffffffffff16905083565b60603373ffffffffffffffffffffffffffffffffffffffff16600160009054906101000a900473ffffffffffffffffffffffffffffffffffffffff1673ffffffffffffffffffffffffffffffffffffffff1614620006d657600080fd5b84600260008473ffffffffffffffffffffffffffffffffffffffff1673ffffffffffffffffffffffffffffffffffffffff1681526020019081526020016000206000018190555083600260008473ffffffffffffffffffffffffffffffffffffffff1673ffffffffffffffffffffffffffffffffffffffff168152602001908152602001600020600101908051906020019062000775929190620010da565b508260068111156200078c576200078b62001578565b5b600260008473ffffffffffffffffffffffffffffffffffffffff1673ffffffffffffffffffffffffffffffffffffffff16815260200190815260200160002060020160006101000a81548160ff02191690836006811115620007f357620007f262001578565b5b021790555081600260008473ffffffffffffffffffffffffffffffffffffffff1673ffffffffffffffffffffffffffffffffffffffff16815260200190815260200160002060020160016101000a81548173ffffffffffffffffffffffffffffffffffffffff021916908373ffffffffffffffffffffffffffffffffffffffff1602179055508173ffffffffffffffffffffffffffffffffffffffff167f33a7170f028b1e4f5ba321064a00ed820856a920c7f9c6636fbcf385427b1b0f86604051620008c1919062001e4e565b60405180910390a26040518060400160405280601081526020017f55736572205265676973746572656421000000000000000000000000000000008152509050949350505050565b60006060600080600073ffffffffffffffffffffffffffffffffffffffff16600260008773ffffffffffffffffffffffffffffffffffffffff1673ffffffffffffffffffffffffffffffffffffffff16815260200190815260200160002060020160019054906101000a900473ffffffffffffffffffffffffffffffffffffffff1673ffffffffffffffffffffffffffffffffffffffff1603620009e4576040517f08c379a0000000000000000000000000000000000000000000000000000000008152600401620009db9062001ebb565b60405180910390fd5b6000600260008773ffffffffffffffffffffffffffffffffffffffff1673ffffffffffffffffffffffffffffffffffffffff1681526020019081526020016000206040518060800160405290816000820154815260200160018201805480602002602001604051908101604052809291908181526020016000905b8282101562000b1557838290600052602060002001805462000a819062001f0c565b80601f016020809104026020016040519081016040528092919081815260200182805462000aaf9062001f0c565b801562000b005780601f1062000ad45761010080835404028352916020019162000b00565b820191906000526020600020905b81548152906001019060200180831162000ae257829003601f168201915b50505050508152602001906001019062000a5f565b5050505081526020016002820160009054906101000a900460ff16600681111562000b455762000b4462001578565b5b600681111562000b5a5762000b5962001578565b5b81526020016002820160019054906101000a900473ffffffffffffffffffffffffffffffffffffffff1673ffffffffffffffffffffffffffffffffffffffff1673ffffffffffffffffffffffffffffffffffffffff16815250509050806000015181602001518260400151600681111562000bda5762000bd962001578565b5b83606001519450945094509450509193509193565b6060600062000bfd620003bd565b90508091505090565b60603373ffffffffffffffffffffffffffffffffffffffff16600160009054906101000a900473ffffffffffffffffffffffffffffffffffffffff1673ffffffffffffffffffffffffffffffffffffffff161462000c6357600080fd5b82600681111562000c795762000c7862001578565b5b600260008473ffffffffffffffffffffffffffffffffffffffff1673ffffffffffffffffffffffffffffffffffffffff16815260200190815260200160002060020160006101000a81548160ff0219169083600681111562000ce05762000cdf62001578565b5b02179055506040518060400160405280600d81526020017f526f6c6520557064617465642100000000000000000000000000000000000000815250905092915050565b600160009054906101000a900473ffffffffffffffffffffffffffffffffffffffff1681565b428373ffffffffffffffffffffffffffffffffffffffff167f22561ca0666e99052dd8231a6c5c337204ed5658c357aa6afcd53c207acfac6786858560405162000d969392919062001f9e565b60405180910390a350505050565b60008060003373ffffffffffffffffffffffffffffffffffffffff1673ffffffffffffffffffffffffffffffffffffffff16815260200190815260200160002080549050905090565b428273ffffffffffffffffffffffffffffffffffffffff167f31f87de04fd141167b8131be7a8ccb2bac63361a15671c96d90c39ddc9ef909d85878560405162000e3a9392919062001f9e565b60405180910390a350505050565b60006001600681111562000e615762000e6062001578565b5b600260003373ffffffffffffffffffffffffffffffffffffffff1673ffffffffffffffffffffffffffffffffffffffff16815260200190815260200160002060020160009054906101000a900460ff16600681111562000ec65762000ec562001578565b5b1462000f09576040517f08c379a000000000000000000000000000000000000000000000000000000000815260040162000f009062001e2c565b60405180910390fd5b62000f1362000da4565b905090565b428473ffffffffffffffffffffffffffffffffffffffff167f9151271dfe612a18bf915ee1609e6f94f62fd775c704a0ae2ef091519f0c9b3985858560405162000f659392919062001f9e565b60405180910390a350505050565b6000336002334260405160200162000f8d92919062002057565b60405160208183030381529060405260405162000fab9190620020c9565b602060405180830381855afa15801562000fc9573d6000803e3d6000fd5b5050506040513d601f19601f8201168201806040525081019062000fee9190620020f9565b60601c86868686604051620010039062001141565b62001014969594939291906200212b565b604051809103906000f08015801562001031573d6000803e3d6000fd5b5090506000803373ffffffffffffffffffffffffffffffffffffffff1673ffffffffffffffffffffffffffffffffffffffff168152602001908152602001600020819080600181540180825580915050600190039060005260206000200160009091909190916101000a81548173ffffffffffffffffffffffffffffffffffffffff021916908373ffffffffffffffffffffffffffffffffffffffff1602179055505050505050565b8280548282559060005260206000209081019282156200112e579160200282015b828111156200112d5782518290805190602001906200111c9291906200114f565b5091602001919060010190620010fb565b5b5090506200113d9190620011e0565b5090565b612347806200219983390190565b8280546200115d9062001f0c565b90600052602060002090601f016020900481019282620011815760008555620011cd565b82601f106200119c57805160ff1916838001178555620011cd565b82800160010185558215620011cd579182015b82811115620011cc578251825591602001919060010190620011af565b5b509050620011dc919062001208565b5090565b5b80821115620012045760008181620011fa919062001227565b50600101620011e1565b5090565b5b808211156200122357600081600090555060010162001209565b5090565b508054620012359062001f0c565b6000825580601f106200124957506200126a565b601f01602090049060005260206000209081019062001269919062001208565b5b50565b6000604051905090565b600080fd5b600080fd5b600073ffffffffffffffffffffffffffffffffffffffff82169050919050565b6000620012ae8262001281565b9050919050565b620012c081620012a1565b8114620012cc57600080fd5b50565b600081359050620012e081620012b5565b92915050565b6000819050919050565b620012fb81620012e6565b81146200130757600080fd5b50565b6000813590506200131b81620012f0565b92915050565b600080604083850312156200133b576200133a62001277565b5b60006200134b85828601620012cf565b92505060206200135e858286016200130a565b9150509250929050565b6200137381620012a1565b82525050565b600060208201905062001390600083018462001368565b92915050565b600081519050919050565b600082825260208201905092915050565b6000819050602082019050919050565b620013cd81620012a1565b82525050565b6000620013e18383620013c2565b60208301905092915050565b6000602082019050919050565b6000620014078262001396565b620014138185620013a1565b93506200142083620013b2565b8060005b83811015620014575781516200143b8882620013d3565b97506200144883620013ed565b92505060018101905062001424565b5085935050505092915050565b60006020820190508181036000830152620014808184620013fa565b905092915050565b6000819050919050565b6200149d8162001488565b8114620014a957600080fd5b50565b600081359050620014bd8162001492565b92915050565b60008060008060808587031215620014e057620014df62001277565b5b6000620014f087828801620014ac565b945050602062001503878288016200130a565b93505060406200151687828801620012cf565b92505060606200152987828801620012cf565b91505092959194509250565b6000602082840312156200154e576200154d62001277565b5b60006200155e84828501620012cf565b91505092915050565b620015728162001488565b82525050565b7f4e487b7100000000000000000000000000000000000000000000000000000000600052602160045260246000fd5b60078110620015bb57620015ba62001578565b5b50565b6000819050620015ce82620015a7565b919050565b6000620015e082620015be565b9050919050565b620015f281620015d3565b82525050565b60006060820190506200160f600083018662001567565b6200161e6020830185620015e7565b6200162d604083018462001368565b949350505050565b600080fd5b6000601f19601f8301169050919050565b7f4e487b7100000000000000000000000000000000000000000000000000000000600052604160045260246000fd5b62001685826200163a565b810181811067ffffffffffffffff82111715620016a757620016a66200164b565b5b80604052505050565b6000620016bc6200126d565b9050620016ca82826200167a565b919050565b600067ffffffffffffffff821115620016ed57620016ec6200164b565b5b602082029050602081019050919050565b600080fd5b600080fd5b600067ffffffffffffffff8211156200172657620017256200164b565b5b62001731826200163a565b9050602081019050919050565b82818337600083830152505050565b6000620017646200175e8462001708565b620016b0565b90508281526020810184848401111562001783576200178262001703565b5b620017908482856200173e565b509392505050565b600082601f830112620017b057620017af62001635565b5b8135620017c28482602086016200174d565b91505092915050565b6000620017e2620017dc84620016cf565b620016b0565b90508083825260208201905060208402830185811115620018085762001807620016fe565b5b835b818110156200185657803567ffffffffffffffff81111562001831576200183062001635565b5b80860162001840898262001798565b855260208501945050506020810190506200180a565b5050509392505050565b600082601f83011262001878576200187762001635565b5b81356200188a848260208601620017cb565b91505092915050565b60008060008060808587031215620018b057620018af62001277565b5b6000620018c087828801620014ac565b945050602085013567ffffffffffffffff811115620018e457620018e36200127c565b5b620018f28782880162001860565b935050604062001905878288016200130a565b92505060606200191887828801620012cf565b91505092959194509250565b600081519050919050565b600082825260208201905092915050565b60005b838110156200196057808201518184015260208101905062001943565b8381111562001970576000848401525b50505050565b6000620019838262001924565b6200198f81856200192f565b9350620019a181856020860162001940565b620019ac816200163a565b840191505092915050565b60006020820190508181036000830152620019d3818462001976565b905092915050565b600081519050919050565b600082825260208201905092915050565b6000819050602082019050919050565b600082825260208201905092915050565b600062001a258262001924565b62001a31818562001a07565b935062001a4381856020860162001940565b62001a4e816200163a565b840191505092915050565b600062001a67838362001a18565b905092915050565b6000602082019050919050565b600062001a8982620019db565b62001a958185620019e6565b93508360208202850162001aa985620019f7565b8060005b8581101562001aeb578484038952815162001ac9858262001a59565b945062001ad68362001a6f565b925060208a0199505060018101905062001aad565b50829750879550505050505092915050565b62001b0881620012e6565b82525050565b600060808201905062001b25600083018762001567565b818103602083015262001b39818662001a7c565b905062001b4a604083018562001afd565b62001b59606083018462001368565b95945050505050565b6000806040838503121562001b7c5762001b7b62001277565b5b600062001b8c858286016200130a565b925050602062001b9f85828601620012cf565b9150509250929050565b600067ffffffffffffffff82111562001bc75762001bc66200164b565b5b62001bd2826200163a565b9050602081019050919050565b600062001bf662001bf08462001ba9565b620016b0565b90508281526020810184848401111562001c155762001c1462001703565b5b62001c228482856200173e565b509392505050565b600082601f83011262001c425762001c4162001635565b5b813562001c5484826020860162001bdf565b91505092915050565b6000806000806080858703121562001c7a5762001c7962001277565b5b600062001c8a87828801620012cf565b945050602062001c9d87828801620012cf565b935050604062001cb087828801620012cf565b925050606085013567ffffffffffffffff81111562001cd45762001cd36200127c565b5b62001ce28782880162001c2a565b91505092959194509250565b600060208201905062001d05600083018462001afd565b92915050565b7f4e487b7100000000000000000000000000000000000000000000000000000000600052603260045260246000fd5b7f4e487b7100000000000000000000000000000000000000000000000000000000600052601160045260246000fd5b600062001d7682620012e6565b91507fffffffffffffffffffffffffffffffffffffffffffffffffffffffffffffffff820362001dab5762001daa62001d3a565b5b600182019050919050565b7f526f6c653d3e537570706c6965722063616e2075736520746869732066756e6360008201527f74696f6e00000000000000000000000000000000000000000000000000000000602082015250565b600062001e146024836200192f565b915062001e218262001db6565b604082019050919050565b6000602082019050818103600083015262001e478162001e05565b9050919050565b600060208201905062001e65600083018462001567565b92915050565b7f5573657220646f6573206e6f7420657869737400000000000000000000000000600082015250565b600062001ea36013836200192f565b915062001eb08262001e6b565b602082019050919050565b6000602082019050818103600083015262001ed68162001e94565b9050919050565b7f4e487b7100000000000000000000000000000000000000000000000000000000600052602260045260246000fd5b6000600282049050600182168062001f2557607f821691505b60208210810362001f3b5762001f3a62001edd565b5b50919050565b600081519050919050565b600082825260208201905092915050565b600062001f6a8262001f41565b62001f76818562001f4c565b935062001f8881856020860162001940565b62001f93816200163a565b840191505092915050565b600060608201905062001fb5600083018662001368565b62001fc4602083018562001368565b818103604083015262001fd8818462001f5d565b9050949350505050565b60008160601b9050919050565b600062001ffc8262001fe2565b9050919050565b6000620020108262001fef565b9050919050565b6200202c6200202682620012a1565b62002003565b82525050565b6000819050919050565b620020516200204b82620012e6565b62002032565b82525050565b600062002065828562002017565b6014820191506200207782846200203c565b6020820191508190509392505050565b600081905092915050565b60006200209f8262001f41565b620020ab818562002087565b9350620020bd81856020860162001940565b80840191505092915050565b6000620020d7828462002092565b915081905092915050565b600081519050620020f38162001492565b92915050565b60006020828403121562002112576200211162001277565b5b60006200212284828501620020e2565b91505092915050565b600060c08201905062002142600083018962001368565b62002151602083018862001368565b62002160604083018762001567565b6200216f606083018662001afd565b6200217e608083018562001368565b6200218d60a083018462001368565b97965050505050505056fe60806040523480156200001157600080fd5b506040516200234738038062002347833981810160405281019062000037919062000345565b856000806101000a81548173ffffffffffffffffffffffffffffffffffffffff021916908373ffffffffffffffffffffffffffffffffffffffff16021790555084600160006101000a81548173ffffffffffffffffffffffffffffffffffffffff021916908373ffffffffffffffffffffffffffffffffffffffff160217905550836002819055508260038190555081600460006101000a81548173ffffffffffffffffffffffffffffffffffffffff021916908373ffffffffffffffffffffffffffffffffffffffff16021790555080600560006101000a81548173ffffffffffffffffffffffffffffffffffffffff021916908373ffffffffffffffffffffffffffffffffffffffff16021790555085600660006101000a81548173ffffffffffffffffffffffffffffffffffffffff021916908373ffffffffffffffffffffffffffffffffffffffff16021790555060006002811115620001a0576200019f620003e1565b5b600660146101000a81548160ff02191690836002811115620001c757620001c6620003e1565b5b0217905550600081604051620001dd9062000257565b620001e9919062000421565b604051809103906000f08015801562000206573d6000803e3d6000fd5b50905080600860006101000a81548173ffffffffffffffffffffffffffffffffffffffff021916908373ffffffffffffffffffffffffffffffffffffffff160217905550505050505050506200043e565b6114158062000f3283390190565b600080fd5b600073ffffffffffffffffffffffffffffffffffffffff82169050919050565b600062000297826200026a565b9050919050565b620002a9816200028a565b8114620002b557600080fd5b50565b600081519050620002c9816200029e565b92915050565b6000819050919050565b620002e481620002cf565b8114620002f057600080fd5b50565b6000815190506200030481620002d9565b92915050565b6000819050919050565b6200031f816200030a565b81146200032b57600080fd5b50565b6000815190506200033f8162000314565b92915050565b60008060008060008060c0878903121562000365576200036462000265565b5b60006200037589828a01620002b8565b96505060206200038889828a01620002b8565b95505060406200039b89828a01620002f3565b9450506060620003ae89828a016200032e565b9350506080620003c189828a01620002b8565b92505060a0620003d489828a01620002b8565b9150509295509295509295565b7f4e487b7100000000000000000000000000000000000000000000000000000000600052602160045260246000fd5b6200041b816200028a565b82525050565b600060208201905062000438600083018462000410565b92915050565b610ae4806200044e6000396000f3fe608060405234801561001057600080fd5b506004361061004c5760003560e01c806352b9996814610051578063638e9a3d1461006d5780636b099dca1461008957806380723520146100a7575b600080fd5b61006b600480360381019061006691906106a8565b6100cb565b005b610087600480360381019061008291906106a8565b610308565b005b610091610545565b60405161009e91906106ee565b60405180910390f35b6100af61056e565b6040516100c29796959493929190610731565b60405180910390f35b600560009054906101000a900473ffffffffffffffffffffffffffffffffffffffff1673ffffffffffffffffffffffffffffffffffffffff168173ffffffffffffffffffffffffffffffffffffffff161461015b576040517f08c379a000000000000000000000000000000000000000000000000000000000815260040161015290610823565b60405180910390fd5b6001600281111561016f5761016e610843565b5b600281111561018157610180610843565b5b600660149054906101000a900460ff1660028111156101a3576101a2610843565b5b146101e3576040517f08c379a00000000000000000000000000000000000000000000000000000000081526004016101da906108be565b60405180910390fd5b6002808111156101f6576101f5610843565b5b600660146101000a81548160ff0219169083600281111561021a57610219610843565b5b0217905550600560009054906101000a900473ffffffffffffffffffffffffffffffffffffffff1673ffffffffffffffffffffffffffffffffffffffff16600460009054906101000a900473ffffffffffffffffffffffffffffffffffffffff1673ffffffffffffffffffffffffffffffffffffffff16600160009054906101000a900473ffffffffffffffffffffffffffffffffffffffff1673ffffffffffffffffffffffffffffffffffffffff167f7e89c4b1a4e2b51aae84eb1f90e8a34cb792ece5ac5cb63db4830c891220b28d600160026040516102fd92919061095e565b60405180910390a450565b600460009054906101000a900473ffffffffffffffffffffffffffffffffffffffff1673ffffffffffffffffffffffffffffffffffffffff168173ffffffffffffffffffffffffffffffffffffffff1614610398576040517f08c379a000000000000000000000000000000000000000000000000000000000815260040161038f906109f9565b60405180910390fd5b600060028111156103ac576103ab610843565b5b60028111156103be576103bd610843565b5b600660149054906101000a900460ff1660028111156103e0576103df610843565b5b14610420576040517f08c379a000000000000000000000000000000000000000000000000000000000815260040161041790610a65565b60405180910390fd5b6001600281111561043457610433610843565b5b600660146101000a81548160ff0219169083600281111561045857610457610843565b5b0217905550600560009054906101000a900473ffffffffffffffffffffffffffffffffffffffff1673ffffffffffffffffffffffffffffffffffffffff16600460009054906101000a900473ffffffffffffffffffffffffffffffffffffffff1673ffffffffffffffffffffffffffffffffffffffff16600160009054906101000a900473ffffffffffffffffffffffffffffffffffffffff1673ffffffffffffffffffffffffffffffffffffffff167f7e89c4b1a4e2b51aae84eb1f90e8a34cb792ece5ac5cb63db4830c891220b28d60018060405161053a929190610a85565b60405180910390a450565b6000600660149054906101000a900460ff16600281111561056957610568610843565b5b905090565b6000806000806000806000600160009054906101000a900473ffffffffffffffffffffffffffffffffffffffff16600254600354600660009054906101000a900473ffffffffffffffffffffffffffffffffffffffff16600460009054906101000a900473ffffffffffffffffffffffffffffffffffffffff16600560009054906101000a900473ffffffffffffffffffffffffffffffffffffffff16600860009054906101000a900473ffffffffffffffffffffffffffffffffffffffff16965096509650965096509650965090919293949596565b600080fd5b600073ffffffffffffffffffffffffffffffffffffffff82169050919050565b60006106758261064a565b9050919050565b6106858161066a565b811461069057600080fd5b50565b6000813590506106a28161067c565b92915050565b6000602082840312156106be576106bd610645565b5b60006106cc84828501610693565b91505092915050565b6000819050919050565b6106e8816106d5565b82525050565b600060208201905061070360008301846106df565b92915050565b6107128161066a565b82525050565b6000819050919050565b61072b81610718565b82525050565b600060e082019050610746600083018a610709565b6107536020830189610722565b61076060408301886106df565b61076d6060830187610709565b61077a6080830186610709565b61078760a0830185610709565b61079460c0830184610709565b98975050505050505050565b600082825260208201905092915050565b7f4f6e6c79204d616e756661637475726572206f6620746865207061636b61676560008201527f2063616e20726563656965766520746865207061636b61676500000000000000602082015250565b600061080d6039836107a0565b9150610818826107b1565b604082019050919050565b6000602082019050818103600083015261083c81610800565b9050919050565b7f4e487b7100000000000000000000000000000000000000000000000000000000600052602160045260246000fd5b7f50726f64756374206e6f74207069636b65642075702079657400000000000000600082015250565b60006108a86019836107a0565b91506108b382610872565b602082019050919050565b600060208201905081810360008301526108d78161089b565b9050919050565b6000819050919050565b6000819050919050565b600061090d610908610903846108de565b6108e8565b6106d5565b9050919050565b61091d816108f2565b82525050565b6000819050919050565b600061094861094361093e84610923565b6108e8565b6106d5565b9050919050565b6109588161092d565b82525050565b60006040820190506109736000830185610914565b610980602083018461094f565b9392505050565b7f4f6e6c79207472616e73706f72746572206f6620746865207061636b6167652060008201527f63616e207069636b207061636b61676500000000000000000000000000000000602082015250565b60006109e36030836107a0565b91506109ee82610987565b604082019050919050565b60006020820190508181036000830152610a12816109d6565b9050919050565b7f5061636b616765206d75737420626520617420537570706c6965722e00000000600082015250565b6000610a4f601c836107a0565b9150610a5a82610a19565b602082019050919050565b60006020820190508181036000830152610a7e81610a42565b9050919050565b6000604082019050610a9a6000830185610914565b610aa76020830184610914565b939250505056fea264697066735822122049beb49c56306f0b31cda3b18aecbf1294a1c12321f12f3a122d425a99c1dcb664736f6c634300080d0033608060405260006002553480156200001657600080fd5b50604051620014153803806200141583398181016040528101906200003c9190620000ed565b806000806101000a81548173ffffffffffffffffffffffffffffffffffffffff021916908373ffffffffffffffffffffffffffffffffffffffff160217905550506200011f565b600080fd5b600073ffffffffffffffffffffffffffffffffffffffff82169050919050565b6000620000b58262000088565b9050919050565b620000c781620000a8565b8114620000d357600080fd5b50565b600081519050620000e781620000bc565b92915050565b60006020828403121562000106576200010562000083565b5b60006200011684828501620000d6565b91505092915050565b6112e6806200012f6000396000f3fe608060405234801561001057600080fd5b506004361061004c5760003560e01c806327506f53146100515780633626a3681461006f57806378ce13651461008b5780639ace38c2146100a9575b600080fd5b6100596100df565b6040516100669190610c47565b60405180910390f35b61008960048036038101906100849190610e0a565b610391565b005b61009361072c565b6040516100a09190610ede565b60405180910390f35b6100c360048036038101906100be9190610f25565b610732565b6040516100d69796959493929190610fba565b60405180910390f35b60606000600254905060008167ffffffffffffffff81111561010457610103610cdf565b5b60405190808252806020026020018201604052801561013d57816020015b61012a6108c4565b8152602001906001900390816101225790505b50905060005b8281101561038857600160008281526020019081526020016000206040518060e0016040529081600082015481526020016001820160009054906101000a900473ffffffffffffffffffffffffffffffffffffffff1673ffffffffffffffffffffffffffffffffffffffff1673ffffffffffffffffffffffffffffffffffffffff1681526020016002820160009054906101000a900473ffffffffffffffffffffffffffffffffffffffff1673ffffffffffffffffffffffffffffffffffffffff1673ffffffffffffffffffffffffffffffffffffffff1681526020016003820154815260200160048201805461023990611066565b80601f016020809104026020016040519081016040528092919081815260200182805461026590611066565b80156102b25780601f10610287576101008083540402835291602001916102b2565b820191906000526020600020905b81548152906001019060200180831161029557829003601f168201915b505050505081526020016005820180546102cb90611066565b80601f01602080910402602001604051908101604052809291908181526020018280546102f790611066565b80156103445780601f1061031957610100808354040283529160200191610344565b820191906000526020600020905b81548152906001019060200180831161032757829003601f168201915b5050505050815260200160068201548152505082828151811061036a57610369611097565b5b60200260200101819052508080610380906110f5565b915050610143565b50809250505090565b6000429050600060025403610502576040518060e001604052808881526020018773ffffffffffffffffffffffffffffffffffffffff1681526020018673ffffffffffffffffffffffffffffffffffffffff168152602001858152602001848152602001838152602001828152506001600060025481526020019081526020016000206000820151816000015560208201518160010160006101000a81548173ffffffffffffffffffffffffffffffffffffffff021916908373ffffffffffffffffffffffffffffffffffffffff16021790555060408201518160020160006101000a81548173ffffffffffffffffffffffffffffffffffffffff021916908373ffffffffffffffffffffffffffffffffffffffff1602179055506060820151816003015560808201518160040190805190602001906104d2929190610933565b5060a08201518160050190805190602001906104ef929190610933565b5060c082015181600601559050506106c6565b83600160006001600254610516919061113d565b81526020019081526020016000206000015414610568576040517f08c379a000000000000000000000000000000000000000000000000000000000815260040161055f906111bd565b60405180910390fd5b6040518060e001604052808881526020018773ffffffffffffffffffffffffffffffffffffffff1681526020018673ffffffffffffffffffffffffffffffffffffffff168152602001858152602001848152602001838152602001828152506001600060025481526020019081526020016000206000820151816000015560208201518160010160006101000a81548173ffffffffffffffffffffffffffffffffffffffff021916908373ffffffffffffffffffffffffffffffffffffffff16021790555060408201518160020160006101000a81548173ffffffffffffffffffffffffffffffffffffffff021916908373ffffffffffffffffffffffffffffffffffffffff16021790555060608201518160030155608082015181600401908051906020019061069a929190610933565b5060a08201518160050190805190602001906106b7929190610933565b5060c082015181600601559050505b6001600260008282546106d991906111dd565b925050819055507f30d01d358fb0899fe4d50947b2e9301c952d9eed09b14c7ecdcbeed4434557c48787878785888860405161071b9796959493929190611233565b60405180910390a150505050505050565b60025481565b60016020528060005260406000206000915090508060000154908060010160009054906101000a900473ffffffffffffffffffffffffffffffffffffffff16908060020160009054906101000a900473ffffffffffffffffffffffffffffffffffffffff16908060030154908060040180546107ad90611066565b80601f01602080910402602001604051908101604052809291908181526020018280546107d990611066565b80156108265780601f106107fb57610100808354040283529160200191610826565b820191906000526020600020905b81548152906001019060200180831161080957829003601f168201915b50505050509080600501805461083b90611066565b80601f016020809104026020016040519081016040528092919081815260200182805461086790611066565b80156108b45780601f10610889576101008083540402835291602001916108b4565b820191906000526020600020905b81548152906001019060200180831161089757829003601f168201915b5050505050908060060154905087565b6040518060e0016040528060008019168152602001600073ffffffffffffffffffffffffffffffffffffffff168152602001600073ffffffffffffffffffffffffffffffffffffffff168152602001600080191681526020016060815260200160608152602001600081525090565b82805461093f90611066565b90600052602060002090601f01602090048101928261096157600085556109a8565b82601f1061097a57805160ff19168380011785556109a8565b828001600101855582156109a8579182015b828111156109a757825182559160200191906001019061098c565b5b5090506109b591906109b9565b5090565b5b808211156109d25760008160009055506001016109ba565b5090565b600081519050919050565b600082825260208201905092915050565b6000819050602082019050919050565b6000819050919050565b610a1581610a02565b82525050565b600073ffffffffffffffffffffffffffffffffffffffff82169050919050565b6000610a4682610a1b565b9050919050565b610a5681610a3b565b82525050565b600081519050919050565b600082825260208201905092915050565b60005b83811015610a96578082015181840152602081019050610a7b565b83811115610aa5576000848401525b50505050565b6000601f19601f8301169050919050565b6000610ac782610a5c565b610ad18185610a67565b9350610ae1818560208601610a78565b610aea81610aab565b840191505092915050565b6000819050919050565b610b0881610af5565b82525050565b600060e083016000830151610b266000860182610a0c565b506020830151610b396020860182610a4d565b506040830151610b4c6040860182610a4d565b506060830151610b5f6060860182610a0c565b5060808301518482036080860152610b778282610abc565b91505060a083015184820360a0860152610b918282610abc565b91505060c0830151610ba660c0860182610aff565b508091505092915050565b6000610bbd8383610b0e565b905092915050565b6000602082019050919050565b6000610bdd826109d6565b610be781856109e1565b935083602082028501610bf9856109f2565b8060005b85811015610c355784840389528151610c168582610bb1565b9450610c2183610bc5565b925060208a01995050600181019050610bfd565b50829750879550505050505092915050565b60006020820190508181036000830152610c618184610bd2565b905092915050565b6000604051905090565b600080fd5b600080fd5b610c8681610a02565b8114610c9157600080fd5b50565b600081359050610ca381610c7d565b92915050565b610cb281610a3b565b8114610cbd57600080fd5b50565b600081359050610ccf81610ca9565b92915050565b600080fd5b600080fd5b7f4e487b7100000000000000000000000000000000000000000000000000000000600052604160045260246000fd5b610d1782610aab565b810181811067ffffffffffffffff82111715610d3657610d35610cdf565b5b80604052505050565b6000610d49610c69565b9050610d558282610d0e565b919050565b600067ffffffffffffffff821115610d7557610d74610cdf565b5b610d7e82610aab565b9050602081019050919050565b82818337600083830152505050565b6000610dad610da884610d5a565b610d3f565b905082815260208101848484011115610dc957610dc8610cda565b5b610dd4848285610d8b565b509392505050565b600082601f830112610df157610df0610cd5565b5b8135610e01848260208601610d9a565b91505092915050565b60008060008060008060c08789031215610e2757610e26610c73565b5b6000610e3589828a01610c94565b9650506020610e4689828a01610cc0565b9550506040610e5789828a01610cc0565b9450506060610e6889828a01610c94565b935050608087013567ffffffffffffffff811115610e8957610e88610c78565b5b610e9589828a01610ddc565b92505060a087013567ffffffffffffffff811115610eb657610eb5610c78565b5b610ec289828a01610ddc565b9150509295509295509295565b610ed881610af5565b82525050565b6000602082019050610ef36000830184610ecf565b92915050565b610f0281610af5565b8114610f0d57600080fd5b50565b600081359050610f1f81610ef9565b92915050565b600060208284031215610f3b57610f3a610c73565b5b6000610f4984828501610f10565b91505092915050565b610f5b81610a02565b82525050565b610f6a81610a3b565b82525050565b600082825260208201905092915050565b6000610f8c82610a5c565b610f968185610f70565b9350610fa6818560208601610a78565b610faf81610aab565b840191505092915050565b600060e082019050610fcf600083018a610f52565b610fdc6020830189610f61565b610fe96040830188610f61565b610ff66060830187610f52565b81810360808301526110088186610f81565b905081810360a083015261101c8185610f81565b905061102b60c0830184610ecf565b98975050505050505050565b7f4e487b7100000000000000000000000000000000000000000000000000000000600052602260045260246000fd5b6000600282049050600182168061107e57607f821691505b60208210810361109157611090611037565b5b50919050565b7f4e487b7100000000000000000000000000000000000000000000000000000000600052603260045260246000fd5b7f4e487b7100000000000000000000000000000000000000000000000000000000600052601160045260246000fd5b600061110082610af5565b91507fffffffffffffffffffffffffffffffffffffffffffffffffffffffffffffffff8203611132576111316110c6565b5b600182019050919050565b600061114882610af5565b915061115383610af5565b925082821015611166576111656110c6565b5b828203905092915050565b7f5472616e73616374696f6e206572726f72206f63637572726564210000000000600082015250565b60006111a7601b83610f70565b91506111b282611171565b602082019050919050565b600060208201905081810360008301526111d68161119a565b9050919050565b60006111e882610af5565b91506111f383610af5565b9250827fffffffffffffffffffffffffffffffffffffffffffffffffffffffffffffffff03821115611228576112276110c6565b5b828201905092915050565b600060e082019050611248600083018a610f52565b6112556020830189610f61565b6112626040830188610f61565b61126f6060830187610f52565b61127c6080830186610ecf565b81810360a083015261128e8185610f81565b905081810360c08301526112a28184610f81565b90509897505050505050505056fea26469706673582212205165ac39670d5e25c3254f88012313e2ed1c7a0462c41647254a654cb356196e64736f6c634300080d0033a26469706673582212208cf7472d099f5e41260a5715a17d228408ed090d05aa1a53a9040127d3cf54f064736f6c634300080d0033",
  "immutableReferences": {},
  "source": "//SPDX-License-Identifier: MIT\r\npragma solidity >=0.4.22 <0.9.0;\r\nimport './Supplier.sol';\r\n//// New supply chain : supplier -> transporter -> manufacturer -> transporter -> whole-saler -> transporter -> distributor -> transporter -> customer/hospital/pharmacy\r\n\r\n\r\n// contract SupplyChain is Supplier, Transporter, Manufacturer, Wholesaler, Distributor, Customer {\r\ncontract SupplyChain is Supplier {\r\n    \r\n    address public Owner;\r\n    \r\n    constructor()  {\r\n        Owner = msg.sender;\r\n    }\r\n    \r\n    modifier onlyOwner() {\r\n        require(Owner == msg.sender);\r\n        _;\r\n    }\r\n    \r\n    modifier checkUser(address addr) {\r\n        require(addr == msg.sender);\r\n        _;\r\n    }\r\n    \r\n    enum roles {\r\n        noRole,\r\n        supplier,\r\n        transporter,\r\n        manufacturer,\r\n        wholesaler,\r\n        distributor,\r\n        customer\r\n    }\r\n    \r\n    \r\n    //////////////// Events ////////////////////\r\n    \r\n    event UserRegister(address indexed _address, bytes32 name);\r\n    event buyEvent(address buyer, address indexed seller, address packageAddr, bytes signature, uint indexed timestamp);\r\n    event respondEvent(address indexed buyer, address seller, address packageAddr, bytes signature, uint indexed timestamp);\r\n    event sendEvent(address seller, address buyer, address indexed packageAddr, bytes signature, uint indexed timestamp);\r\n    event receivedEvent(address indexed buyer, address seller, address packageAddr, bytes signature, uint indexed timestamp);\r\n    \r\n    \r\n    //////////////// Event functions (All entities) ////////////////////\r\n\r\n    \r\n    function requestProduct(address buyer, address seller, address packageAddr, bytes memory signature) public {\r\n        emit buyEvent(buyer, seller, packageAddr, signature, block.timestamp);\r\n    }\r\n    \r\n    function respondToEntity(address buyer, address seller, address packageAddr, bytes memory signature) public {\r\n        emit respondEvent(buyer, seller, packageAddr, signature, block.timestamp);\r\n    }\r\n    \r\n    function sendPackageToEntity(address buyer, address seller, address packageAddr, bytes memory signature) public {\r\n        emit sendEvent(seller, buyer, packageAddr, signature, block.timestamp);\r\n    }\r\n\r\n    /////////////// Users (Only Owner Executable) //////////////////////\r\n    \r\n    struct userData {\r\n        bytes32 name;\r\n        string[] userLoc;\r\n        roles role;\r\n        address userAddr;\r\n    }\r\n    \r\n    mapping (address => userData) public userInfo;\r\n    \r\n    function registerUser(bytes32 _name,string[] memory loc, uint _role, address _addr) external onlyOwner returns(string memory) {\r\n        userInfo[_addr].name = _name;\r\n        userInfo[_addr].userLoc = loc;\r\n        userInfo[_addr].role = roles(_role);\r\n        userInfo[_addr].userAddr = _addr;\r\n        emit UserRegister(_addr, _name);\r\n        return \"User Registered!\";\r\n    }\r\n    \r\n    function changeUserRole(uint _role, address _addr) external onlyOwner returns(string memory) {\r\n        userInfo[_addr].role = roles(_role);\r\n       return \"Role Updated!\";\r\n    }\r\n\r\n    function getUser(address _addr) external view returns (bytes32, string[] memory, uint, address) {\r\n        require(userInfo[_addr].userAddr != address(0), \"User does not exist\");\r\n        userData memory user = userInfo[_addr];\r\n        return (user.name, user.userLoc, uint(user.role), user.userAddr);\r\n    }\r\n    /////////////// Supplier //////////////////////\r\n    \r\n    \r\n    function supplierCreatesRawPackage(\r\n        bytes32 _description,\r\n        uint _quantity,\r\n        address _transporterAddr,\r\n        address _manufacturerAddr\r\n        ) external {\r\n            require(userInfo[msg.sender].role == roles.supplier, \"Role=>Supplier can use this function\");\r\n            createRawMaterialPackage(_description, _quantity, _transporterAddr,_manufacturerAddr);\r\n    }\r\n    \r\n    function supplierGetPackageCount() external view returns(uint) {\r\n        require(userInfo[msg.sender].role == roles.supplier, \"Role=>Supplier can use this function\");\r\n        \r\n        return getNoOfPackagesOfSupplier();\r\n    }\r\n    \r\n    function supplierGetRawMaterialAddresses() external view returns(address[] memory) {\r\n        address[] memory ret = getAllPackages();\r\n        return ret;\r\n    }\r\n    \r\n\r\n\r\n\r\n}",
  "sourcePath": "D:\\Quote\\MediChain\\contracts\\SupplyChain.sol",
  "compiler": {
    "name": "solc",
    "version": "0.8.13+commit.abaa5c0e.Emscripten.clang"
  },
  "schemaVersion": "3.4.16",
  "updatedAt": "2023-10-08T04:28:04.092Z",
  "networkType": "ethereum",
  "devdoc": {
    "kind": "dev",
    "methods": {},
    "version": 1
  },
  "userdoc": {
    "kind": "user",
    "methods": {},
    "version": 1
  }
}