{
  "contractName": "Transporter",
  "abi": [
    {
      "inputs": [
        {
          "internalType": "address",
          "name": "_addr",
          "type": "address"
        },
        {
          "internalType": "uint256",
          "name": "transportertype",
          "type": "uint256"
        },
        {
          "internalType": "address",
          "name": "cid",
          "type": "address"
        }
      ],
      "name": "handlePackage",
      "outputs": [],
      "stateMutability": "nonpayable",
      "type": "function"
    }
  ],
  "bytecode": "0x608060405234801561001057600080fd5b506103a9806100206000396000f3fe608060405234801561001057600080fd5b506004361061002b5760003560e01c80636f41507c14610030575b600080fd5b61004a600480360381019061004591906102cd565b61004c565b005b600182036100c4578273ffffffffffffffffffffffffffffffffffffffff1663638e9a3d336040518263ffffffff1660e01b815260040161008d919061032f565b600060405180830381600087803b1580156100a757600080fd5b505af11580156100bb573d6000803e3d6000fd5b5050505061022f565b6002820361013c578273ffffffffffffffffffffffffffffffffffffffff1663ac42a415336040518263ffffffff1660e01b8152600401610105919061032f565b600060405180830381600087803b15801561011f57600080fd5b505af1158015610133573d6000803e3d6000fd5b5050505061022e565b600382036101b6578073ffffffffffffffffffffffffffffffffffffffff1663443c28d884336040518363ffffffff1660e01b815260040161017f92919061034a565b600060405180830381600087803b15801561019957600080fd5b505af11580156101ad573d6000803e3d6000fd5b5050505061022d565b6004820361022c578073ffffffffffffffffffffffffffffffffffffffff166353157b1a84336040518363ffffffff1660e01b81526004016101f992919061034a565b600060405180830381600087803b15801561021357600080fd5b505af1158015610227573d6000803e3d6000fd5b505050505b5b5b5b505050565b600080fd5b600073ffffffffffffffffffffffffffffffffffffffff82169050919050565b600061026482610239565b9050919050565b61027481610259565b811461027f57600080fd5b50565b6000813590506102918161026b565b92915050565b6000819050919050565b6102aa81610297565b81146102b557600080fd5b50565b6000813590506102c7816102a1565b92915050565b6000806000606084860312156102e6576102e5610234565b5b60006102f486828701610282565b9350506020610305868287016102b8565b925050604061031686828701610282565b9150509250925092565b61032981610259565b82525050565b60006020820190506103446000830184610320565b92915050565b600060408201905061035f6000830185610320565b61036c6020830184610320565b939250505056fea2646970667358221220a31d28afb7ee74419071aad1f32417e9c66bdfcde8d602662389a64fe6f687e564736f6c634300080d0033",
  "immutableReferences": {},
  "source": "//SPDX-License-Identifier: MIT\r\npragma solidity >=0.4.22 <0.9.0;\r\n\r\nimport './RawMaterial.sol';\r\nimport './Medicine.sol';\r\nimport './MedicineW_D.sol';\r\nimport './MedicineD_C.sol';\r\n\r\ncontract Transporter {\r\n    \r\n    function handlePackage(\r\n        address _addr,\r\n        uint transportertype,\r\n        address cid\r\n        ) public {\r\n\r\n        if(transportertype == 1) { \r\n            /// Supplier -> Manufacturer\r\n            RawMaterial(_addr).pickPackage(msg.sender);\r\n        } else if(transportertype == 2) { \r\n            /// Manufacturer -> Wholesaler\r\n            Medicine(_addr).pickMedicine(msg.sender);\r\n        } else if(transportertype == 3) {   \r\n            // Wholesaler to Distributer\r\n            MedicineW_D(cid).pickWD(_addr, msg.sender);\r\n        } else if(transportertype == 4) {   \r\n            // Distrubuter to Customer\r\n            MedicineD_C(cid).pickDC(_addr, msg.sender);\r\n        }\r\n    }\r\n    \r\n    \r\n}",
  "sourcePath": "D:\\Quote\\MediChain\\contracts\\Transporter.sol",
  "compiler": {
    "name": "solc",
    "version": "0.8.13+commit.abaa5c0e.Emscripten.clang"
  },
  "schemaVersion": "3.4.16",
  "updatedAt": "2023-11-16T14:02:56.155Z",
  "devdoc": {
    "kind": "dev",
    "methods": {},
    "version": 1
  },
  "userdoc": {
    "kind": "user",
    "methods": {},
    "version": 1
  }
}